{
  "_format": "hh-sol-artifact-1",
  "contractName": "PoolRegistryStore",
  "sourceName": "contracts/store/PoolRegistryStore.sol",
  "abi": [
    {
      "anonymous": false,
      "inputs": [
        {
          "indexed": true,
          "internalType": "address",
          "name": "previousOwner",
          "type": "address"
        },
        {
          "indexed": true,
          "internalType": "address",
          "name": "newOwner",
          "type": "address"
        }
      ],
      "name": "OwnershipTransferred",
      "type": "event"
    },
    {
      "inputs": [
        {
          "internalType": "uint256",
          "name": "",
          "type": "uint256"
        },
        {
          "internalType": "uint256",
          "name": "",
          "type": "uint256"
        }
      ],
      "name": "LoanRepayment",
      "outputs": [
        {
          "internalType": "uint256",
          "name": "loanId",
          "type": "uint256"
        },
        {
          "internalType": "uint256",
          "name": "amount",
          "type": "uint256"
        },
        {
          "internalType": "enum Schema.LoanRepaymentType",
          "name": "RepaymentType",
          "type": "uint8"
        },
        {
          "internalType": "bool",
          "name": "isExists",
          "type": "bool"
        }
      ],
      "stateMutability": "view",
      "type": "function"
    },
    {
      "inputs": [
        {
          "internalType": "uint256",
          "name": "",
          "type": "uint256"
        },
        {
          "internalType": "uint256",
          "name": "",
          "type": "uint256"
        }
      ],
      "name": "Loans",
      "outputs": [
        {
          "internalType": "uint256",
          "name": "poolId",
          "type": "uint256"
        },
        {
          "internalType": "address",
          "name": "borrower",
          "type": "address"
        },
        {
          "internalType": "uint256",
          "name": "principal",
          "type": "uint256"
        },
        {
          "internalType": "uint256",
          "name": "createdAtTimestamp",
          "type": "uint256"
        },
        {
          "internalType": "enum Schema.LoanStatus",
          "name": "status",
          "type": "uint8"
        },
        {
          "internalType": "bool",
          "name": "isExists",
          "type": "bool"
        }
      ],
      "stateMutability": "view",
      "type": "function"
    },
    {
      "inputs": [
        {
          "internalType": "uint256",
          "name": "",
          "type": "uint256"
        }
      ],
      "name": "Pools",
      "outputs": [
        {
          "internalType": "uint256",
          "name": "amount",
          "type": "uint256"
        },
        {
          "internalType": "uint16",
          "name": "paymentCycle",
          "type": "uint16"
        },
        {
          "internalType": "uint16",
          "name": "APR",
          "type": "uint16"
        },
        {
          "internalType": "uint256",
          "name": "durationInSecs",
          "type": "uint256"
        },
        {
          "internalType": "uint16",
          "name": "durationInMonths",
          "type": "uint16"
        },
        {
          "internalType": "address",
          "name": "creator",
          "type": "address"
        },
        {
          "internalType": "enum Schema.PoolStatus",
          "name": "status",
          "type": "uint8"
        },
        {
          "internalType": "bool",
          "name": "isExists",
          "type": "bool"
        }
      ],
      "stateMutability": "view",
      "type": "function"
    },
    {
      "inputs": [
        {
          "internalType": "uint256",
          "name": "poolId",
          "type": "uint256"
        },
        {
          "internalType": "address",
          "name": "borrowerAddress",
          "type": "address"
        },
        {
          "internalType": "uint256",
          "name": "principal",
          "type": "uint256"
        }
      ],
      "name": "_createLoan",
      "outputs": [
        {
          "internalType": "uint256",
          "name": "",
          "type": "uint256"
        }
      ],
      "stateMutability": "nonpayable",
      "type": "function"
    },
    {
      "inputs": [
        {
          "internalType": "uint256",
          "name": "loanId",
          "type": "uint256"
        },
        {
          "internalType": "uint256",
          "name": "amount",
          "type": "uint256"
        },
        {
          "internalType": "enum Schema.LoanRepaymentType",
          "name": "repaymentType",
          "type": "uint8"
        }
      ],
      "name": "_createLoanRepayment",
      "outputs": [
        {
          "internalType": "uint256",
          "name": "",
          "type": "uint256"
        }
      ],
      "stateMutability": "nonpayable",
      "type": "function"
    },
    {
      "inputs": [
        {
          "internalType": "uint256",
          "name": "_amount",
          "type": "uint256"
        },
        {
          "internalType": "uint16",
          "name": "_paymentCycle",
          "type": "uint16"
        },
        {
          "internalType": "uint16",
          "name": "_APR",
          "type": "uint16"
        },
        {
          "internalType": "uint256",
          "name": "_durationInSecs",
          "type": "uint256"
        },
        {
          "internalType": "uint16",
          "name": "_durationInMonths",
          "type": "uint16"
        },
        {
          "internalType": "address",
          "name": "_creator",
          "type": "address"
        }
      ],
      "name": "_createPool",
      "outputs": [
        {
          "internalType": "uint256",
          "name": "",
          "type": "uint256"
        }
      ],
      "stateMutability": "nonpayable",
      "type": "function"
    },
    {
      "inputs": [
        {
          "internalType": "uint256",
          "name": "loanId",
          "type": "uint256"
        },
        {
          "internalType": "uint256",
          "name": "loanRepaymentiD",
          "type": "uint256"
        }
      ],
      "name": "_getLoanRepaymentByLoanID",
      "outputs": [
        {
          "components": [
            {
              "internalType": "uint256",
              "name": "loanId",
              "type": "uint256"
            },
            {
              "internalType": "uint256",
              "name": "amount",
              "type": "uint256"
            },
            {
              "internalType": "enum Schema.LoanRepaymentType",
              "name": "RepaymentType",
              "type": "uint8"
            },
            {
              "internalType": "bool",
              "name": "isExists",
              "type": "bool"
            }
          ],
          "internalType": "struct Schema.LoanRepaymentDetails",
          "name": "",
          "type": "tuple"
        }
      ],
      "stateMutability": "view",
      "type": "function"
    },
    {
      "inputs": [
        {
          "internalType": "uint256",
          "name": "loanId",
          "type": "uint256"
        },
        {
          "internalType": "uint256",
          "name": "poolId",
          "type": "uint256"
        },
        {
          "internalType": "address",
          "name": "borrowerAddress",
          "type": "address"
        },
        {
          "internalType": "uint256",
          "name": "principal",
          "type": "uint256"
        },
        {
          "internalType": "uint256",
          "name": "createdAtTimestamp",
          "type": "uint256"
        },
        {
          "internalType": "enum Schema.LoanStatus",
          "name": "status",
          "type": "uint8"
        }
      ],
      "name": "_updateLoan",
      "outputs": [],
      "stateMutability": "nonpayable",
      "type": "function"
    },
    {
      "inputs": [
        {
          "internalType": "uint256",
          "name": "poolId",
          "type": "uint256"
        },
        {
          "internalType": "uint256",
          "name": "_amount",
          "type": "uint256"
        },
        {
          "internalType": "uint16",
          "name": "_paymentCycle",
          "type": "uint16"
        },
        {
          "internalType": "uint16",
          "name": "_APR",
          "type": "uint16"
        },
        {
          "internalType": "uint256",
          "name": "_durationInSecs",
          "type": "uint256"
        },
        {
          "internalType": "uint16",
          "name": "_durationInMonths",
          "type": "uint16"
        },
        {
          "internalType": "address",
          "name": "_creator",
          "type": "address"
        },
        {
          "internalType": "enum Schema.PoolStatus",
          "name": "status",
          "type": "uint8"
        }
      ],
      "name": "_updatePool",
      "outputs": [],
      "stateMutability": "nonpayable",
      "type": "function"
    },
    {
      "inputs": [
        {
          "internalType": "uint256",
          "name": "",
          "type": "uint256"
        }
      ],
      "name": "countLoanRepaymentsForLoan",
      "outputs": [
        {
          "internalType": "uint256",
          "name": "",
          "type": "uint256"
        }
      ],
      "stateMutability": "view",
      "type": "function"
    },
    {
      "inputs": [
        {
          "internalType": "uint256",
          "name": "",
          "type": "uint256"
        }
      ],
      "name": "countLoansInPool",
      "outputs": [
        {
          "internalType": "uint256",
          "name": "",
          "type": "uint256"
        }
      ],
      "stateMutability": "view",
      "type": "function"
    },
    {
      "inputs": [
        {
          "internalType": "uint256",
          "name": "poolId",
          "type": "uint256"
        }
      ],
      "name": "getCountLoansInPool",
      "outputs": [
        {
          "internalType": "uint256",
          "name": "",
          "type": "uint256"
        }
      ],
      "stateMutability": "view",
      "type": "function"
    },
    {
      "inputs": [
        {
          "internalType": "uint256",
          "name": "poolId",
          "type": "uint256"
        },
        {
          "internalType": "uint256",
          "name": "loanId",
          "type": "uint256"
        }
      ],
      "name": "getLoanByPoolID",
      "outputs": [
        {
          "components": [
            {
              "internalType": "uint256",
              "name": "poolId",
              "type": "uint256"
            },
            {
              "internalType": "address",
              "name": "borrower",
              "type": "address"
            },
            {
              "internalType": "uint256",
              "name": "principal",
              "type": "uint256"
            },
            {
              "internalType": "uint256",
              "name": "createdAtTimestamp",
              "type": "uint256"
            },
            {
              "internalType": "enum Schema.LoanStatus",
              "name": "status",
              "type": "uint8"
            },
            {
              "internalType": "bool",
              "name": "isExists",
              "type": "bool"
            }
          ],
          "internalType": "struct Schema.LoanDetails",
          "name": "",
          "type": "tuple"
        }
      ],
      "stateMutability": "view",
      "type": "function"
    },
    {
      "inputs": [
        {
          "internalType": "uint256",
          "name": "loanId",
          "type": "uint256"
        },
        {
          "internalType": "uint256",
          "name": "loanRepaymentiD",
          "type": "uint256"
        }
      ],
      "name": "getLoanRepaymentByLoanID",
      "outputs": [
        {
          "components": [
            {
              "internalType": "uint256",
              "name": "loanId",
              "type": "uint256"
            },
            {
              "internalType": "uint256",
              "name": "amount",
              "type": "uint256"
            },
            {
              "internalType": "enum Schema.LoanRepaymentType",
              "name": "RepaymentType",
              "type": "uint8"
            },
            {
              "internalType": "bool",
              "name": "isExists",
              "type": "bool"
            }
          ],
          "internalType": "struct Schema.LoanRepaymentDetails",
          "name": "",
          "type": "tuple"
        }
      ],
      "stateMutability": "view",
      "type": "function"
    },
    {
      "inputs": [
        {
          "internalType": "uint256",
          "name": "poolId",
          "type": "uint256"
        }
      ],
      "name": "getPoolByID",
      "outputs": [
        {
          "components": [
            {
              "internalType": "uint256",
              "name": "amount",
              "type": "uint256"
            },
            {
              "internalType": "uint16",
              "name": "paymentCycle",
              "type": "uint16"
            },
            {
              "internalType": "uint16",
              "name": "APR",
              "type": "uint16"
            },
            {
              "internalType": "uint256",
              "name": "durationInSecs",
              "type": "uint256"
            },
            {
              "internalType": "uint16",
              "name": "durationInMonths",
              "type": "uint16"
            },
            {
              "internalType": "address",
              "name": "creator",
              "type": "address"
            },
            {
              "internalType": "enum Schema.PoolStatus",
              "name": "status",
              "type": "uint8"
            },
            {
              "internalType": "bool",
              "name": "isExists",
              "type": "bool"
            }
          ],
          "internalType": "struct Schema.PoolDetails",
          "name": "",
          "type": "tuple"
        }
      ],
      "stateMutability": "view",
      "type": "function"
    },
    {
      "inputs": [],
      "name": "owner",
      "outputs": [
        {
          "internalType": "address",
          "name": "",
          "type": "address"
        }
      ],
      "stateMutability": "view",
      "type": "function"
    },
    {
      "inputs": [],
      "name": "renounceOwnership",
      "outputs": [],
      "stateMutability": "nonpayable",
      "type": "function"
    },
    {
      "inputs": [],
      "name": "totalLoanRepayments",
      "outputs": [
        {
          "internalType": "uint256",
          "name": "",
          "type": "uint256"
        }
      ],
      "stateMutability": "view",
      "type": "function"
    },
    {
      "inputs": [],
      "name": "totalLoans",
      "outputs": [
        {
          "internalType": "uint256",
          "name": "",
          "type": "uint256"
        }
      ],
      "stateMutability": "view",
      "type": "function"
    },
    {
      "inputs": [],
      "name": "totalPools",
      "outputs": [
        {
          "internalType": "uint256",
          "name": "",
          "type": "uint256"
        }
      ],
      "stateMutability": "view",
      "type": "function"
    },
    {
      "inputs": [
        {
          "internalType": "address",
          "name": "newOwner",
          "type": "address"
        }
      ],
      "name": "transferOwnership",
      "outputs": [],
      "stateMutability": "nonpayable",
      "type": "function"
    }
  ],
  "bytecode": "0x60806040526000600255600060045560006007553480156200002057600080fd5b5062000041620000356200004760201b60201c565b6200004f60201b60201c565b62000113565b600033905090565b60008060009054906101000a900473ffffffffffffffffffffffffffffffffffffffff169050816000806101000a81548173ffffffffffffffffffffffffffffffffffffffff021916908373ffffffffffffffffffffffffffffffffffffffff1602179055508173ffffffffffffffffffffffffffffffffffffffff168173ffffffffffffffffffffffffffffffffffffffff167f8be0079c531659141344cd1fd0a4f28419497f9722a3daafe3b4186f6b6457e060405160405180910390a35050565b61266f80620001236000396000f3fe608060405234801561001057600080fd5b50600436106101365760003560e01c8063715018a6116100b85780638c3a075f1161007c5780638c3a075f146103ce5780638da5cb5b146103fe578063ab3c7e521461041c578063b769c2a01461043a578063cc952b5714610456578063f2fde38b1461047457610136565b8063715018a6146102fa57806373dfccca1461030457806374eb6e591461033b57806386822b061461036e5780638747b4481461039e57610136565b80633e2e5f38116100ff5780633e2e5f381461020a578063468ac5771461023a5780635055149c1461026a578063672e4d6e1461029a5780636bac6372146102ca57610136565b80625fffce1461013b57806316d7fc841461016b57806316f56af3146101a0578063193eded6146101bc57806329a16ac6146101ec575b600080fd5b61015560048036038101906101509190611a5a565b610490565b6040516101629190612164565b60405180910390f35b61018560048036038101906101809190611b5b565b610510565b6040516101979695949392919061217f565b60405180910390f35b6101ba60048036038101906101b59190611b97565b610593565b005b6101d660048036038101906101d19190611b5b565b610723565b6040516101e3919061212d565b60405180910390f35b6101f4610818565b6040516102019190612164565b60405180910390f35b610224600480360381019061021f9190611a83565b61081e565b6040516102319190612164565b60405180910390f35b610254600480360381019061024f9190611ad2565b610a0e565b6040516102619190612164565b60405180910390f35b610284600480360381019061027f9190611a5a565b610c2b565b6040516102919190612148565b60405180910390f35b6102b460048036038101906102af9190611a5a565b610e28565b6040516102c19190612164565b60405180910390f35b6102e460048036038101906102df9190611b5b565b610e40565b6040516102f19190612112565b60405180910390f35b610302611009565b005b61031e60048036038101906103199190611a5a565b61101d565b6040516103329897969594939291906121e0565b60405180910390f35b61035560048036038101906103509190611b5b565b6110c9565b604051610365949392919061225e565b60405180910390f35b61038860048036038101906103839190611c20565b611120565b6040516103959190612164565b60405180910390f35b6103b860048036038101906103b39190611a5a565b6112ad565b6040516103c59190612164565b60405180910390f35b6103e860048036038101906103e39190611b5b565b6112c5565b6040516103f5919061212d565b60405180910390f35b61040661142e565b6040516104139190612037565b60405180910390f35b610424611457565b6040516104319190612164565b60405180910390f35b610454600480360381019061044f9190611c6f565b61145d565b005b61045e611656565b60405161046b9190612164565b60405180910390f35b61048e60048036038101906104899190611a31565b61165c565b005b60006001600083815260200190815260200160002060030160179054906101000a900460ff166104f5576040517f08c379a00000000000000000000000000000000000000000000000000000000081526004016104ec90612092565b60405180910390fd5b60056000838152602001908152602001600020549050919050565b6003602052816000526040600020602052806000526040600020600091509150508060000154908060010160009054906101000a900473ffffffffffffffffffffffffffffffffffffffff16908060020154908060030154908060040160009054906101000a900460ff16908060040160019054906101000a900460ff16905086565b61059b6116e0565b6040518060c001604052808681526020018573ffffffffffffffffffffffffffffffffffffffff16815260200184815260200183815260200182600181111561060d577f4e487b7100000000000000000000000000000000000000000000000000000000600052602160045260246000fd5b8152602001600115158152506003600087815260200190815260200160002060008881526020019081526020016000206000820151816000015560208201518160010160006101000a81548173ffffffffffffffffffffffffffffffffffffffff021916908373ffffffffffffffffffffffffffffffffffffffff160217905550604082015181600201556060820151816003015560808201518160040160006101000a81548160ff021916908360018111156106f3577f4e487b7100000000000000000000000000000000000000000000000000000000600052602160045260246000fd5b021790555060a08201518160040160016101000a81548160ff021916908315150217905550905050505050505050565b61072b61182a565b60066000848152602001908152602001600020600083815260200190815260200160002060405180608001604052908160008201548152602001600182015481526020016002820160009054906101000a900460ff1660018111156107b9577f4e487b7100000000000000000000000000000000000000000000000000000000600052602160045260246000fd5b60018111156107f1577f4e487b7100000000000000000000000000000000000000000000000000000000600052602160045260246000fd5b81526020016002820160019054906101000a900460ff161515151581525050905092915050565b60075481565b60006108286116e0565b600060045490506040518060c001604052808681526020018573ffffffffffffffffffffffffffffffffffffffff168152602001848152602001428152602001600060018111156108a2577f4e487b7100000000000000000000000000000000000000000000000000000000600052602160045260246000fd5b8152602001600115158152506003600087815260200190815260200160002060008381526020019081526020016000206000820151816000015560208201518160010160006101000a81548173ffffffffffffffffffffffffffffffffffffffff021916908373ffffffffffffffffffffffffffffffffffffffff160217905550604082015181600201556060820151816003015560808201518160040160006101000a81548160ff02191690836001811115610988577f4e487b7100000000000000000000000000000000000000000000000000000000600052602160045260246000fd5b021790555060a08201518160040160016101000a81548160ff0219169083151502179055509050506004600081546109bf90612379565b9190508190555060056000868152602001908152602001600020600081546109e690612379565b9190508190556005600087815260200190815260200160002081905550809150509392505050565b6000610a186116e0565b600060025490506040518061010001604052808981526020018861ffff1681526020018761ffff1681526020018681526020018561ffff1681526020018473ffffffffffffffffffffffffffffffffffffffff16815260200160006001811115610aab577f4e487b7100000000000000000000000000000000000000000000000000000000600052602160045260246000fd5b815260200160011515815250600160008381526020019081526020016000206000820151816000015560208201518160010160006101000a81548161ffff021916908361ffff16021790555060408201518160010160026101000a81548161ffff021916908361ffff1602179055506060820151816002015560808201518160030160006101000a81548161ffff021916908361ffff16021790555060a08201518160030160026101000a81548173ffffffffffffffffffffffffffffffffffffffff021916908373ffffffffffffffffffffffffffffffffffffffff16021790555060c08201518160030160166101000a81548160ff02191690836001811115610bdf577f4e487b7100000000000000000000000000000000000000000000000000000000600052602160045260246000fd5b021790555060e08201518160030160176101000a81548160ff021916908315150217905550905050600260008154610c1690612379565b91905081905550809150509695505050505050565b610c3361188c565b6001600083815260200190815260200160002060030160179054906101000a900460ff16610c96576040517f08c379a0000000000000000000000000000000000000000000000000000000008152600401610c8d906120f2565b60405180910390fd5b6001600083815260200190815260200160002060405180610100016040529081600082015481526020016001820160009054906101000a900461ffff1661ffff1661ffff1681526020016001820160029054906101000a900461ffff1661ffff1661ffff168152602001600282015481526020016003820160009054906101000a900461ffff1661ffff1661ffff1681526020016003820160029054906101000a900473ffffffffffffffffffffffffffffffffffffffff1673ffffffffffffffffffffffffffffffffffffffff1673ffffffffffffffffffffffffffffffffffffffff1681526020016003820160169054906101000a900460ff166001811115610dca577f4e487b7100000000000000000000000000000000000000000000000000000000600052602160045260246000fd5b6001811115610e02577f4e487b7100000000000000000000000000000000000000000000000000000000600052602160045260246000fd5b81526020016003820160179054906101000a900460ff1615151515815250509050919050565b60086020528060005260406000206000915090505481565b610e4861192d565b60036000848152602001908152602001600020600083815260200190815260200160002060040160019054906101000a900460ff16610ebc576040517f08c379a0000000000000000000000000000000000000000000000000000000008152600401610eb390612072565b60405180910390fd5b6003600084815260200190815260200160002060008381526020019081526020016000206040518060c0016040529081600082015481526020016001820160009054906101000a900473ffffffffffffffffffffffffffffffffffffffff1673ffffffffffffffffffffffffffffffffffffffff1673ffffffffffffffffffffffffffffffffffffffff16815260200160028201548152602001600382015481526020016004820160009054906101000a900460ff166001811115610faa577f4e487b7100000000000000000000000000000000000000000000000000000000600052602160045260246000fd5b6001811115610fe2577f4e487b7100000000000000000000000000000000000000000000000000000000600052602160045260246000fd5b81526020016004820160019054906101000a900460ff161515151581525050905092915050565b6110116116e0565b61101b600061175e565b565b60016020528060005260406000206000915090508060000154908060010160009054906101000a900461ffff16908060010160029054906101000a900461ffff16908060020154908060030160009054906101000a900461ffff16908060030160029054906101000a900473ffffffffffffffffffffffffffffffffffffffff16908060030160169054906101000a900460ff16908060030160179054906101000a900460ff16905088565b6006602052816000526040600020602052806000526040600020600091509150508060000154908060010154908060020160009054906101000a900460ff16908060020160019054906101000a900460ff16905084565b600061112a6116e0565b6000600860008681526020019081526020016000205490506040518060800160405280868152602001858152602001846001811115611192577f4e487b7100000000000000000000000000000000000000000000000000000000600052602160045260246000fd5b815260200160011515815250600660008781526020019081526020016000206000838152602001908152602001600020600082015181600001556020820151816001015560408201518160020160006101000a81548160ff02191690836001811115611227577f4e487b7100000000000000000000000000000000000000000000000000000000600052602160045260246000fd5b021790555060608201518160020160016101000a81548160ff02191690831515021790555090505060076000815461125e90612379565b91905081905550600860008681526020019081526020016000206000815461128590612379565b9190508190556008600087815260200190815260200160002081905550809150509392505050565b60056020528060005260406000206000915090505481565b6112cd61182a565b60066000848152602001908152602001600020600083815260200190815260200160002060020160019054906101000a900460ff16611341576040517f08c379a0000000000000000000000000000000000000000000000000000000008152600401611338906120b2565b60405180910390fd5b60066000848152602001908152602001600020600083815260200190815260200160002060405180608001604052908160008201548152602001600182015481526020016002820160009054906101000a900460ff1660018111156113cf577f4e487b7100000000000000000000000000000000000000000000000000000000600052602160045260246000fd5b6001811115611407577f4e487b7100000000000000000000000000000000000000000000000000000000600052602160045260246000fd5b81526020016002820160019054906101000a900460ff161515151581525050905092915050565b60008060009054906101000a900473ffffffffffffffffffffffffffffffffffffffff16905090565b60025481565b6114656116e0565b6040518061010001604052808881526020018761ffff1681526020018661ffff1681526020018581526020018461ffff1681526020018373ffffffffffffffffffffffffffffffffffffffff1681526020018260018111156114f0577f4e487b7100000000000000000000000000000000000000000000000000000000600052602160045260246000fd5b815260200160011515815250600160008a81526020019081526020016000206000820151816000015560208201518160010160006101000a81548161ffff021916908361ffff16021790555060408201518160010160026101000a81548161ffff021916908361ffff1602179055506060820151816002015560808201518160030160006101000a81548161ffff021916908361ffff16021790555060a08201518160030160026101000a81548173ffffffffffffffffffffffffffffffffffffffff021916908373ffffffffffffffffffffffffffffffffffffffff16021790555060c08201518160030160166101000a81548160ff02191690836001811115611624577f4e487b7100000000000000000000000000000000000000000000000000000000600052602160045260246000fd5b021790555060e08201518160030160176101000a81548160ff0219169083151502179055509050505050505050505050565b60045481565b6116646116e0565b600073ffffffffffffffffffffffffffffffffffffffff168173ffffffffffffffffffffffffffffffffffffffff1614156116d4576040517f08c379a00000000000000000000000000000000000000000000000000000000081526004016116cb90612052565b60405180910390fd5b6116dd8161175e565b50565b6116e8611822565b73ffffffffffffffffffffffffffffffffffffffff1661170661142e565b73ffffffffffffffffffffffffffffffffffffffff161461175c576040517f08c379a0000000000000000000000000000000000000000000000000000000008152600401611753906120d2565b60405180910390fd5b565b60008060009054906101000a900473ffffffffffffffffffffffffffffffffffffffff169050816000806101000a81548173ffffffffffffffffffffffffffffffffffffffff021916908373ffffffffffffffffffffffffffffffffffffffff1602179055508173ffffffffffffffffffffffffffffffffffffffff168173ffffffffffffffffffffffffffffffffffffffff167f8be0079c531659141344cd1fd0a4f28419497f9722a3daafe3b4186f6b6457e060405160405180910390a35050565b600033905090565b604051806080016040528060008152602001600081526020016000600181111561187d577f4e487b7100000000000000000000000000000000000000000000000000000000600052602160045260246000fd5b81526020016000151581525090565b60405180610100016040528060008152602001600061ffff168152602001600061ffff16815260200160008152602001600061ffff168152602001600073ffffffffffffffffffffffffffffffffffffffff1681526020016000600181111561191e577f4e487b7100000000000000000000000000000000000000000000000000000000600052602160045260246000fd5b81526020016000151581525090565b6040518060c0016040528060008152602001600073ffffffffffffffffffffffffffffffffffffffff1681526020016000815260200160008152602001600060018111156119a4577f4e487b7100000000000000000000000000000000000000000000000000000000600052602160045260246000fd5b81526020016000151581525090565b6000813590506119c2816125c4565b92915050565b6000813590506119d7816125db565b92915050565b6000813590506119ec816125eb565b92915050565b600081359050611a01816125fb565b92915050565b600081359050611a168161260b565b92915050565b600081359050611a2b81612622565b92915050565b600060208284031215611a4357600080fd5b6000611a51848285016119b3565b91505092915050565b600060208284031215611a6c57600080fd5b6000611a7a84828501611a1c565b91505092915050565b600080600060608486031215611a9857600080fd5b6000611aa686828701611a1c565b9350506020611ab7868287016119b3565b9250506040611ac886828701611a1c565b9150509250925092565b60008060008060008060c08789031215611aeb57600080fd5b6000611af989828a01611a1c565b9650506020611b0a89828a01611a07565b9550506040611b1b89828a01611a07565b9450506060611b2c89828a01611a1c565b9350506080611b3d89828a01611a07565b92505060a0611b4e89828a016119b3565b9150509295509295509295565b60008060408385031215611b6e57600080fd5b6000611b7c85828601611a1c565b9250506020611b8d85828601611a1c565b9150509250929050565b60008060008060008060c08789031215611bb057600080fd5b6000611bbe89828a01611a1c565b9650506020611bcf89828a01611a1c565b9550506040611be089828a016119b3565b9450506060611bf189828a01611a1c565b9350506080611c0289828a01611a1c565b92505060a0611c1389828a016119dd565b9150509295509295509295565b600080600060608486031215611c3557600080fd5b6000611c4386828701611a1c565b9350506020611c5486828701611a1c565b9250506040611c65868287016119c8565b9150509250925092565b600080600080600080600080610100898b031215611c8c57600080fd5b6000611c9a8b828c01611a1c565b9850506020611cab8b828c01611a1c565b9750506040611cbc8b828c01611a07565b9650506060611ccd8b828c01611a07565b9550506080611cde8b828c01611a1c565b94505060a0611cef8b828c01611a07565b93505060c0611d008b828c016119b3565b92505060e0611d118b828c016119f2565b9150509295985092959890939650565b611d2a816122b4565b82525050565b611d39816122b4565b82525050565b611d48816122c6565b82525050565b611d57816122c6565b82525050565b611d6681612343565b82525050565b611d7581612343565b82525050565b611d8481612355565b82525050565b611d9381612355565b82525050565b611da281612367565b82525050565b611db181612367565b82525050565b6000611dc46026836122a3565b9150611dcf82612420565b604082019050919050565b6000611de7601f836122a3565b9150611df28261246f565b602082019050919050565b6000611e0a6023836122a3565b9150611e1582612498565b604082019050919050565b6000611e2d6028836122a3565b9150611e38826124e7565b604082019050919050565b6000611e506020836122a3565b9150611e5b82612536565b602082019050919050565b6000611e73601b836122a3565b9150611e7e8261255f565b602082019050919050565b60c082016000820151611e9f6000850182612019565b506020820151611eb26020850182611d21565b506040820151611ec56040850182612019565b506060820151611ed86060850182612019565b506080820151611eeb6080850182611d7b565b5060a0820151611efe60a0850182611d3f565b50505050565b608082016000820151611f1a6000850182612019565b506020820151611f2d6020850182612019565b506040820151611f406040850182611d5d565b506060820151611f536060850182611d3f565b50505050565b61010082016000820151611f706000850182612019565b506020820151611f836020850182611ffb565b506040820151611f966040850182611ffb565b506060820151611fa96060850182612019565b506080820151611fbc6080850182611ffb565b5060a0820151611fcf60a0850182611d21565b5060c0820151611fe260c0850182611d99565b5060e0820151611ff560e0850182611d3f565b50505050565b6120048161230b565b82525050565b6120138161230b565b82525050565b61202281612339565b82525050565b61203181612339565b82525050565b600060208201905061204c6000830184611d30565b92915050565b6000602082019050818103600083015261206b81611db7565b9050919050565b6000602082019050818103600083015261208b81611dda565b9050919050565b600060208201905081810360008301526120ab81611dfd565b9050919050565b600060208201905081810360008301526120cb81611e20565b9050919050565b600060208201905081810360008301526120eb81611e43565b9050919050565b6000602082019050818103600083015261210b81611e66565b9050919050565b600060c0820190506121276000830184611e89565b92915050565b60006080820190506121426000830184611f04565b92915050565b60006101008201905061215e6000830184611f59565b92915050565b60006020820190506121796000830184612028565b92915050565b600060c0820190506121946000830189612028565b6121a16020830188611d30565b6121ae6040830187612028565b6121bb6060830186612028565b6121c86080830185611d8a565b6121d560a0830184611d4e565b979650505050505050565b6000610100820190506121f6600083018b612028565b612203602083018a61200a565b612210604083018961200a565b61221d6060830188612028565b61222a608083018761200a565b61223760a0830186611d30565b61224460c0830185611da8565b61225160e0830184611d4e565b9998505050505050505050565b60006080820190506122736000830187612028565b6122806020830186612028565b61228d6040830185611d6c565b61229a6060830184611d4e565b95945050505050565b600082825260208201905092915050565b60006122bf82612319565b9050919050565b60008115159050919050565b60008190506122e082612588565b919050565b60008190506122f38261259c565b919050565b6000819050612306826125b0565b919050565b600061ffff82169050919050565b600073ffffffffffffffffffffffffffffffffffffffff82169050919050565b6000819050919050565b600061234e826122d2565b9050919050565b6000612360826122e5565b9050919050565b6000612372826122f8565b9050919050565b600061238482612339565b91507fffffffffffffffffffffffffffffffffffffffffffffffffffffffffffffffff8214156123b7576123b66123c2565b5b600182019050919050565b7f4e487b7100000000000000000000000000000000000000000000000000000000600052601160045260246000fd5b7f4e487b7100000000000000000000000000000000000000000000000000000000600052602160045260246000fd5b7f4f776e61626c653a206e6577206f776e657220697320746865207a65726f206160008201527f6464726573730000000000000000000000000000000000000000000000000000602082015250565b7f6765744c6f616e4279506f6f6c49443a204e6f2073756368207265636f726400600082015250565b7f676574436f756e744c6f616e73496e506f6f6c3a204e6f20737563682072656360008201527f6f72640000000000000000000000000000000000000000000000000000000000602082015250565b7f6765744c6f616e52657061796d656e7442794c6f616e49443a204e6f2073756360008201527f68207265636f7264000000000000000000000000000000000000000000000000602082015250565b7f4f776e61626c653a2063616c6c6572206973206e6f7420746865206f776e6572600082015250565b7f676574506f6f6c427949443a204e6f2073756368207265636f72640000000000600082015250565b60028110612599576125986123f1565b5b50565b600281106125ad576125ac6123f1565b5b50565b600281106125c1576125c06123f1565b5b50565b6125cd816122b4565b81146125d857600080fd5b50565b600281106125e857600080fd5b50565b600281106125f857600080fd5b50565b6002811061260857600080fd5b50565b6126148161230b565b811461261f57600080fd5b50565b61262b81612339565b811461263657600080fd5b5056fea26469706673582212201834464f8c0ef99b7d09eaf5e9f8be35ad7a4fb87fba22e3c6730280283580fb64736f6c63430008010033",
  "linkReferences": {},
  "deployedLinkReferences": {}
}