{
  "_format": "hh-sol-artifact-1",
  "contractName": "PoolRegistry",
  "sourceName": "contracts/PoolRegistry.sol",
  "abi": [
    {
      "inputs": [
        {
          "internalType": "address",
          "name": "_lendingTokenAddress",
          "type": "address"
        },
        {
          "internalType": "address",
          "name": "_PoolRegistryStoreAddress",
          "type": "address"
        }
      ],
      "stateMutability": "nonpayable",
      "type": "constructor"
    },
    {
      "anonymous": false,
      "inputs": [
        {
          "indexed": true,
          "internalType": "uint256",
          "name": "purchaseId",
          "type": "uint256"
        },
        {
          "indexed": true,
          "internalType": "uint256",
          "name": "liquidationId",
          "type": "uint256"
        },
        {
          "indexed": false,
          "internalType": "address",
          "name": "newOwner",
          "type": "address"
        }
      ],
      "name": "CompleteLiquidation",
      "type": "event"
    },
    {
      "anonymous": false,
      "inputs": [
        {
          "indexed": false,
          "internalType": "address",
          "name": "oldValue",
          "type": "address"
        },
        {
          "indexed": false,
          "internalType": "address",
          "name": "newValue",
          "type": "address"
        }
      ],
      "name": "LendingPoolAddressUpdated",
      "type": "event"
    },
    {
      "anonymous": false,
      "inputs": [
        {
          "indexed": true,
          "internalType": "uint256",
          "name": "loanId",
          "type": "uint256"
        },
        {
          "indexed": true,
          "internalType": "uint256",
          "name": "poolId",
          "type": "uint256"
        },
        {
          "indexed": true,
          "internalType": "address",
          "name": "borrower",
          "type": "address"
        },
        {
          "indexed": false,
          "internalType": "uint256",
          "name": "principal",
          "type": "uint256"
        }
      ],
      "name": "LoanCreated",
      "type": "event"
    },
    {
      "anonymous": false,
      "inputs": [
        {
          "indexed": true,
          "internalType": "uint256",
          "name": "loanRepaymentId",
          "type": "uint256"
        },
        {
          "indexed": true,
          "internalType": "uint256",
          "name": "loanId",
          "type": "uint256"
        },
        {
          "indexed": false,
          "internalType": "uint256",
          "name": "amount",
          "type": "uint256"
        },
        {
          "indexed": false,
          "internalType": "enum Schema.LoanRepaymentType",
          "name": "",
          "type": "uint8"
        }
      ],
      "name": "LoanRepaid",
      "type": "event"
    },
    {
      "anonymous": false,
      "inputs": [
        {
          "indexed": true,
          "internalType": "uint256",
          "name": "purchaseId",
          "type": "uint256"
        },
        {
          "indexed": false,
          "internalType": "address",
          "name": "claimer",
          "type": "address"
        }
      ],
      "name": "NFTClaimed",
      "type": "event"
    },
    {
      "anonymous": false,
      "inputs": [
        {
          "indexed": true,
          "internalType": "address",
          "name": "previousOwner",
          "type": "address"
        },
        {
          "indexed": true,
          "internalType": "address",
          "name": "newOwner",
          "type": "address"
        }
      ],
      "name": "OwnershipTransferred",
      "type": "event"
    },
    {
      "anonymous": false,
      "inputs": [
        {
          "indexed": false,
          "internalType": "address",
          "name": "oldValue",
          "type": "address"
        },
        {
          "indexed": false,
          "internalType": "address",
          "name": "newValue",
          "type": "address"
        }
      ],
      "name": "PaymentTokenAddressUpdated",
      "type": "event"
    },
    {
      "anonymous": false,
      "inputs": [
        {
          "indexed": true,
          "internalType": "uint256",
          "name": "poolId",
          "type": "uint256"
        },
        {
          "indexed": false,
          "internalType": "uint256",
          "name": "amountWithdrawn",
          "type": "uint256"
        }
      ],
      "name": "PoolClosed",
      "type": "event"
    },
    {
      "anonymous": false,
      "inputs": [
        {
          "indexed": true,
          "internalType": "uint256",
          "name": "poolId",
          "type": "uint256"
        },
        {
          "indexed": true,
          "internalType": "address",
          "name": "creator",
          "type": "address"
        }
      ],
      "name": "PoolCreated",
      "type": "event"
    },
    {
      "anonymous": false,
      "inputs": [
        {
          "indexed": true,
          "internalType": "uint256",
          "name": "poolId",
          "type": "uint256"
        },
        {
          "indexed": false,
          "internalType": "uint256",
          "name": "amount",
          "type": "uint256"
        }
      ],
      "name": "PoolFunded",
      "type": "event"
    },
    {
      "anonymous": false,
      "inputs": [],
      "name": "PoolRegistryContractDeployed",
      "type": "event"
    },
    {
      "anonymous": false,
      "inputs": [
        {
          "indexed": true,
          "internalType": "uint256",
          "name": "purchaseId",
          "type": "uint256"
        }
      ],
      "name": "PurchaseCompleted",
      "type": "event"
    },
    {
      "anonymous": false,
      "inputs": [
        {
          "indexed": true,
          "internalType": "address",
          "name": "userAddress",
          "type": "address"
        },
        {
          "indexed": true,
          "internalType": "uint256",
          "name": "purchaseId",
          "type": "uint256"
        },
        {
          "indexed": false,
          "internalType": "uint256",
          "name": "downPayment",
          "type": "uint256"
        },
        {
          "indexed": false,
          "internalType": "uint16",
          "name": "downPaymentPercentage",
          "type": "uint16"
        }
      ],
      "name": "PurchaseCreated",
      "type": "event"
    },
    {
      "anonymous": false,
      "inputs": [
        {
          "indexed": false,
          "internalType": "address",
          "name": "paymentTokenAddress",
          "type": "address"
        },
        {
          "indexed": false,
          "internalType": "address",
          "name": "lendingPoolAddress",
          "type": "address"
        }
      ],
      "name": "QredosContractDeployed",
      "type": "event"
    },
    {
      "anonymous": false,
      "inputs": [
        {
          "indexed": true,
          "internalType": "uint256",
          "name": "purchaseId",
          "type": "uint256"
        },
        {
          "indexed": false,
          "internalType": "address",
          "name": "borrowerAddress",
          "type": "address"
        },
        {
          "indexed": false,
          "internalType": "uint256",
          "name": "refundAmount",
          "type": "uint256"
        }
      ],
      "name": "RefundBorrower",
      "type": "event"
    },
    {
      "anonymous": false,
      "inputs": [
        {
          "indexed": true,
          "internalType": "uint256",
          "name": "purchaseId",
          "type": "uint256"
        },
        {
          "indexed": false,
          "internalType": "uint256",
          "name": "discountAmount",
          "type": "uint256"
        },
        {
          "indexed": true,
          "internalType": "uint256",
          "name": "liquidationId",
          "type": "uint256"
        }
      ],
      "name": "StartLiquidation",
      "type": "event"
    },
    {
      "inputs": [],
      "name": "DEFAULT_FEE_PERCENT",
      "outputs": [
        {
          "internalType": "uint256",
          "name": "",
          "type": "uint256"
        }
      ],
      "stateMutability": "view",
      "type": "function"
    },
    {
      "inputs": [
        {
          "internalType": "uint256",
          "name": "",
          "type": "uint256"
        },
        {
          "internalType": "uint256",
          "name": "",
          "type": "uint256"
        }
      ],
      "name": "LoanRepayment",
      "outputs": [
        {
          "internalType": "uint256",
          "name": "loanId",
          "type": "uint256"
        },
        {
          "internalType": "uint256",
          "name": "amount",
          "type": "uint256"
        },
        {
          "internalType": "enum Schema.LoanRepaymentType",
          "name": "RepaymentType",
          "type": "uint8"
        },
        {
          "internalType": "bool",
          "name": "isExists",
          "type": "bool"
        }
      ],
      "stateMutability": "view",
      "type": "function"
    },
    {
      "inputs": [
        {
          "internalType": "uint256",
          "name": "",
          "type": "uint256"
        },
        {
          "internalType": "uint256",
          "name": "",
          "type": "uint256"
        }
      ],
      "name": "Loans",
      "outputs": [
        {
          "internalType": "uint256",
          "name": "poolId",
          "type": "uint256"
        },
        {
          "internalType": "address",
          "name": "borrower",
          "type": "address"
        },
        {
          "internalType": "uint256",
          "name": "principal",
          "type": "uint256"
        },
        {
          "internalType": "uint256",
          "name": "createdAtTimestamp",
          "type": "uint256"
        },
        {
          "internalType": "enum Schema.LoanStatus",
          "name": "status",
          "type": "uint8"
        },
        {
          "internalType": "bool",
          "name": "isExists",
          "type": "bool"
        }
      ],
      "stateMutability": "view",
      "type": "function"
    },
    {
      "inputs": [
        {
          "internalType": "uint256",
          "name": "",
          "type": "uint256"
        }
      ],
      "name": "Pools",
      "outputs": [
        {
          "internalType": "uint256",
          "name": "amount",
          "type": "uint256"
        },
        {
          "internalType": "uint16",
          "name": "paymentCycle",
          "type": "uint16"
        },
        {
          "internalType": "uint16",
          "name": "APR",
          "type": "uint16"
        },
        {
          "internalType": "uint256",
          "name": "durationInSecs",
          "type": "uint256"
        },
        {
          "internalType": "uint16",
          "name": "durationInMonths",
          "type": "uint16"
        },
        {
          "internalType": "address",
          "name": "creator",
          "type": "address"
        },
        {
          "internalType": "enum Schema.PoolStatus",
          "name": "status",
          "type": "uint8"
        },
        {
          "internalType": "bool",
          "name": "isExists",
          "type": "bool"
        }
      ],
      "stateMutability": "view",
      "type": "function"
    },
    {
      "inputs": [
        {
          "internalType": "uint256",
          "name": "loanId",
          "type": "uint256"
        },
        {
          "internalType": "uint256",
          "name": "poolId",
          "type": "uint256"
        }
      ],
      "name": "_calcLoanFullPayment",
      "outputs": [
        {
          "internalType": "uint256",
          "name": "",
          "type": "uint256"
        }
      ],
      "stateMutability": "view",
      "type": "function"
    },
    {
      "inputs": [
        {
          "internalType": "uint256",
          "name": "loanId",
          "type": "uint256"
        },
        {
          "internalType": "uint256",
          "name": "poolId",
          "type": "uint256"
        }
      ],
      "name": "_calcLoanPartPayment",
      "outputs": [
        {
          "internalType": "uint256",
          "name": "",
          "type": "uint256"
        }
      ],
      "stateMutability": "view",
      "type": "function"
    },
    {
      "inputs": [
        {
          "internalType": "address",
          "name": "borrowerAddress",
          "type": "address"
        },
        {
          "internalType": "uint256",
          "name": "amount",
          "type": "uint256"
        }
      ],
      "name": "_completeRefundBorrower",
      "outputs": [],
      "stateMutability": "nonpayable",
      "type": "function"
    },
    {
      "inputs": [
        {
          "internalType": "uint256",
          "name": "poolId",
          "type": "uint256"
        },
        {
          "internalType": "address",
          "name": "borrowerAddress",
          "type": "address"
        },
        {
          "internalType": "uint256",
          "name": "principal",
          "type": "uint256"
        }
      ],
      "name": "_createLoan",
      "outputs": [
        {
          "internalType": "uint256",
          "name": "",
          "type": "uint256"
        }
      ],
      "stateMutability": "nonpayable",
      "type": "function"
    },
    {
      "inputs": [
        {
          "internalType": "uint256",
          "name": "loanId",
          "type": "uint256"
        },
        {
          "internalType": "uint256",
          "name": "amount",
          "type": "uint256"
        },
        {
          "internalType": "enum Schema.LoanRepaymentType",
          "name": "repaymentType",
          "type": "uint8"
        }
      ],
      "name": "_createLoanRepayment",
      "outputs": [
        {
          "internalType": "uint256",
          "name": "",
          "type": "uint256"
        }
      ],
      "stateMutability": "nonpayable",
      "type": "function"
    },
    {
      "inputs": [
        {
          "internalType": "uint256",
          "name": "_amount",
          "type": "uint256"
        },
        {
          "internalType": "uint16",
          "name": "_paymentCycle",
          "type": "uint16"
        },
        {
          "internalType": "uint16",
          "name": "_APR",
          "type": "uint16"
        },
        {
          "internalType": "uint256",
          "name": "_durationInSecs",
          "type": "uint256"
        },
        {
          "internalType": "uint16",
          "name": "_durationInMonths",
          "type": "uint16"
        },
        {
          "internalType": "address",
          "name": "_creator",
          "type": "address"
        }
      ],
      "name": "_createPool",
      "outputs": [
        {
          "internalType": "uint256",
          "name": "",
          "type": "uint256"
        }
      ],
      "stateMutability": "nonpayable",
      "type": "function"
    },
    {
      "inputs": [
        {
          "internalType": "uint256",
          "name": "loanId",
          "type": "uint256"
        },
        {
          "internalType": "uint256",
          "name": "loanRepaymentiD",
          "type": "uint256"
        }
      ],
      "name": "_getLoanRepaymentByLoanID",
      "outputs": [
        {
          "components": [
            {
              "internalType": "uint256",
              "name": "loanId",
              "type": "uint256"
            },
            {
              "internalType": "uint256",
              "name": "amount",
              "type": "uint256"
            },
            {
              "internalType": "enum Schema.LoanRepaymentType",
              "name": "RepaymentType",
              "type": "uint8"
            },
            {
              "internalType": "bool",
              "name": "isExists",
              "type": "bool"
            }
          ],
          "internalType": "struct Schema.LoanRepaymentDetails",
          "name": "",
          "type": "tuple"
        }
      ],
      "stateMutability": "view",
      "type": "function"
    },
    {
      "inputs": [
        {
          "internalType": "uint256",
          "name": "poolId",
          "type": "uint256"
        }
      ],
      "name": "_getPoolBalance",
      "outputs": [
        {
          "internalType": "uint256",
          "name": "",
          "type": "uint256"
        }
      ],
      "stateMutability": "view",
      "type": "function"
    },
    {
      "inputs": [
        {
          "internalType": "uint256",
          "name": "poolId",
          "type": "uint256"
        }
      ],
      "name": "_getPoolBalanceWithInterest",
      "outputs": [
        {
          "internalType": "uint256",
          "name": "",
          "type": "uint256"
        }
      ],
      "stateMutability": "view",
      "type": "function"
    },
    {
      "inputs": [
        {
          "internalType": "uint256",
          "name": "loanId",
          "type": "uint256"
        },
        {
          "internalType": "uint256",
          "name": "poolId",
          "type": "uint256"
        }
      ],
      "name": "_isLoanInDefault",
      "outputs": [
        {
          "internalType": "bool",
          "name": "",
          "type": "bool"
        }
      ],
      "stateMutability": "view",
      "type": "function"
    },
    {
      "inputs": [
        {
          "components": [
            {
              "internalType": "uint256",
              "name": "poolId",
              "type": "uint256"
            },
            {
              "internalType": "address",
              "name": "borrower",
              "type": "address"
            },
            {
              "internalType": "uint256",
              "name": "principal",
              "type": "uint256"
            },
            {
              "internalType": "uint256",
              "name": "createdAtTimestamp",
              "type": "uint256"
            },
            {
              "internalType": "enum Schema.LoanStatus",
              "name": "status",
              "type": "uint8"
            },
            {
              "internalType": "bool",
              "name": "isExists",
              "type": "bool"
            }
          ],
          "internalType": "struct Schema.LoanDetails",
          "name": "Loan",
          "type": "tuple"
        },
        {
          "components": [
            {
              "internalType": "uint256",
              "name": "amount",
              "type": "uint256"
            },
            {
              "internalType": "uint16",
              "name": "paymentCycle",
              "type": "uint16"
            },
            {
              "internalType": "uint16",
              "name": "APR",
              "type": "uint16"
            },
            {
              "internalType": "uint256",
              "name": "durationInSecs",
              "type": "uint256"
            },
            {
              "internalType": "uint16",
              "name": "durationInMonths",
              "type": "uint16"
            },
            {
              "internalType": "address",
              "name": "creator",
              "type": "address"
            },
            {
              "internalType": "enum Schema.PoolStatus",
              "name": "status",
              "type": "uint8"
            },
            {
              "internalType": "bool",
              "name": "isExists",
              "type": "bool"
            }
          ],
          "internalType": "struct Schema.PoolDetails",
          "name": "Pool",
          "type": "tuple"
        }
      ],
      "name": "_partPaymentWithDefault",
      "outputs": [
        {
          "internalType": "uint256",
          "name": "",
          "type": "uint256"
        }
      ],
      "stateMutability": "pure",
      "type": "function"
    },
    {
      "inputs": [
        {
          "components": [
            {
              "internalType": "uint256",
              "name": "poolId",
              "type": "uint256"
            },
            {
              "internalType": "address",
              "name": "borrower",
              "type": "address"
            },
            {
              "internalType": "uint256",
              "name": "principal",
              "type": "uint256"
            },
            {
              "internalType": "uint256",
              "name": "createdAtTimestamp",
              "type": "uint256"
            },
            {
              "internalType": "enum Schema.LoanStatus",
              "name": "status",
              "type": "uint8"
            },
            {
              "internalType": "bool",
              "name": "isExists",
              "type": "bool"
            }
          ],
          "internalType": "struct Schema.LoanDetails",
          "name": "Loan",
          "type": "tuple"
        },
        {
          "components": [
            {
              "internalType": "uint256",
              "name": "amount",
              "type": "uint256"
            },
            {
              "internalType": "uint16",
              "name": "paymentCycle",
              "type": "uint16"
            },
            {
              "internalType": "uint16",
              "name": "APR",
              "type": "uint16"
            },
            {
              "internalType": "uint256",
              "name": "durationInSecs",
              "type": "uint256"
            },
            {
              "internalType": "uint16",
              "name": "durationInMonths",
              "type": "uint16"
            },
            {
              "internalType": "address",
              "name": "creator",
              "type": "address"
            },
            {
              "internalType": "enum Schema.PoolStatus",
              "name": "status",
              "type": "uint8"
            },
            {
              "internalType": "bool",
              "name": "isExists",
              "type": "bool"
            }
          ],
          "internalType": "struct Schema.PoolDetails",
          "name": "Pool",
          "type": "tuple"
        }
      ],
      "name": "_partPaymentWithoutDefault",
      "outputs": [
        {
          "internalType": "uint256",
          "name": "",
          "type": "uint256"
        }
      ],
      "stateMutability": "pure",
      "type": "function"
    },
    {
      "inputs": [
        {
          "internalType": "uint256",
          "name": "loanId",
          "type": "uint256"
        },
        {
          "internalType": "uint256",
          "name": "poolId",
          "type": "uint256"
        },
        {
          "internalType": "address",
          "name": "borrowerAddress",
          "type": "address"
        },
        {
          "internalType": "uint256",
          "name": "principal",
          "type": "uint256"
        },
        {
          "internalType": "uint256",
          "name": "createdAtTimestamp",
          "type": "uint256"
        },
        {
          "internalType": "enum Schema.LoanStatus",
          "name": "status",
          "type": "uint8"
        }
      ],
      "name": "_updateLoan",
      "outputs": [],
      "stateMutability": "nonpayable",
      "type": "function"
    },
    {
      "inputs": [
        {
          "internalType": "uint256",
          "name": "poolId",
          "type": "uint256"
        },
        {
          "internalType": "uint256",
          "name": "_amount",
          "type": "uint256"
        },
        {
          "internalType": "uint16",
          "name": "_paymentCycle",
          "type": "uint16"
        },
        {
          "internalType": "uint16",
          "name": "_APR",
          "type": "uint16"
        },
        {
          "internalType": "uint256",
          "name": "_durationInSecs",
          "type": "uint256"
        },
        {
          "internalType": "uint16",
          "name": "_durationInMonths",
          "type": "uint16"
        },
        {
          "internalType": "address",
          "name": "_creator",
          "type": "address"
        },
        {
          "internalType": "enum Schema.PoolStatus",
          "name": "status",
          "type": "uint8"
        }
      ],
      "name": "_updatePool",
      "outputs": [],
      "stateMutability": "nonpayable",
      "type": "function"
    },
    {
      "inputs": [
        {
          "internalType": "uint256",
          "name": "poolId",
          "type": "uint256"
        },
        {
          "internalType": "address",
          "name": "reciever",
          "type": "address"
        }
      ],
      "name": "closePool",
      "outputs": [],
      "stateMutability": "nonpayable",
      "type": "function"
    },
    {
      "inputs": [
        {
          "internalType": "uint256",
          "name": "",
          "type": "uint256"
        }
      ],
      "name": "countLoanRepaymentsForLoan",
      "outputs": [
        {
          "internalType": "uint256",
          "name": "",
          "type": "uint256"
        }
      ],
      "stateMutability": "view",
      "type": "function"
    },
    {
      "inputs": [
        {
          "internalType": "uint256",
          "name": "",
          "type": "uint256"
        }
      ],
      "name": "countLoansInPool",
      "outputs": [
        {
          "internalType": "uint256",
          "name": "",
          "type": "uint256"
        }
      ],
      "stateMutability": "view",
      "type": "function"
    },
    {
      "inputs": [
        {
          "internalType": "uint256",
          "name": "_amount",
          "type": "uint256"
        },
        {
          "internalType": "uint16",
          "name": "_paymentCycle",
          "type": "uint16"
        },
        {
          "internalType": "uint16",
          "name": "_APR",
          "type": "uint16"
        },
        {
          "internalType": "uint256",
          "name": "_durationInSecs",
          "type": "uint256"
        },
        {
          "internalType": "uint16",
          "name": "_durationInMonths",
          "type": "uint16"
        },
        {
          "internalType": "address",
          "name": "_creator",
          "type": "address"
        }
      ],
      "name": "createPool",
      "outputs": [],
      "stateMutability": "nonpayable",
      "type": "function"
    },
    {
      "inputs": [
        {
          "internalType": "uint256",
          "name": "poolId",
          "type": "uint256"
        },
        {
          "internalType": "uint256",
          "name": "amount",
          "type": "uint256"
        }
      ],
      "name": "fundPool",
      "outputs": [],
      "stateMutability": "nonpayable",
      "type": "function"
    },
    {
      "inputs": [
        {
          "internalType": "uint256",
          "name": "poolId",
          "type": "uint256"
        }
      ],
      "name": "getCountLoansInPool",
      "outputs": [
        {
          "internalType": "uint256",
          "name": "",
          "type": "uint256"
        }
      ],
      "stateMutability": "view",
      "type": "function"
    },
    {
      "inputs": [
        {
          "internalType": "uint256",
          "name": "poolId",
          "type": "uint256"
        },
        {
          "internalType": "uint256",
          "name": "loanId",
          "type": "uint256"
        }
      ],
      "name": "getLoanByPoolID",
      "outputs": [
        {
          "components": [
            {
              "internalType": "uint256",
              "name": "poolId",
              "type": "uint256"
            },
            {
              "internalType": "address",
              "name": "borrower",
              "type": "address"
            },
            {
              "internalType": "uint256",
              "name": "principal",
              "type": "uint256"
            },
            {
              "internalType": "uint256",
              "name": "createdAtTimestamp",
              "type": "uint256"
            },
            {
              "internalType": "enum Schema.LoanStatus",
              "name": "status",
              "type": "uint8"
            },
            {
              "internalType": "bool",
              "name": "isExists",
              "type": "bool"
            }
          ],
          "internalType": "struct Schema.LoanDetails",
          "name": "",
          "type": "tuple"
        }
      ],
      "stateMutability": "view",
      "type": "function"
    },
    {
      "inputs": [
        {
          "internalType": "uint256",
          "name": "loanId",
          "type": "uint256"
        },
        {
          "internalType": "uint256",
          "name": "loanRepaymentiD",
          "type": "uint256"
        }
      ],
      "name": "getLoanRepaymentByLoanID",
      "outputs": [
        {
          "components": [
            {
              "internalType": "uint256",
              "name": "loanId",
              "type": "uint256"
            },
            {
              "internalType": "uint256",
              "name": "amount",
              "type": "uint256"
            },
            {
              "internalType": "enum Schema.LoanRepaymentType",
              "name": "RepaymentType",
              "type": "uint8"
            },
            {
              "internalType": "bool",
              "name": "isExists",
              "type": "bool"
            }
          ],
          "internalType": "struct Schema.LoanRepaymentDetails",
          "name": "",
          "type": "tuple"
        }
      ],
      "stateMutability": "view",
      "type": "function"
    },
    {
      "inputs": [
        {
          "internalType": "uint256",
          "name": "poolId",
          "type": "uint256"
        }
      ],
      "name": "getPoolByID",
      "outputs": [
        {
          "components": [
            {
              "internalType": "uint256",
              "name": "amount",
              "type": "uint256"
            },
            {
              "internalType": "uint16",
              "name": "paymentCycle",
              "type": "uint16"
            },
            {
              "internalType": "uint16",
              "name": "APR",
              "type": "uint16"
            },
            {
              "internalType": "uint256",
              "name": "durationInSecs",
              "type": "uint256"
            },
            {
              "internalType": "uint16",
              "name": "durationInMonths",
              "type": "uint16"
            },
            {
              "internalType": "address",
              "name": "creator",
              "type": "address"
            },
            {
              "internalType": "enum Schema.PoolStatus",
              "name": "status",
              "type": "uint8"
            },
            {
              "internalType": "bool",
              "name": "isExists",
              "type": "bool"
            }
          ],
          "internalType": "struct Schema.PoolDetails",
          "name": "",
          "type": "tuple"
        }
      ],
      "stateMutability": "view",
      "type": "function"
    },
    {
      "inputs": [
        {
          "internalType": "uint256",
          "name": "principal",
          "type": "uint256"
        }
      ],
      "name": "getValidPools",
      "outputs": [
        {
          "internalType": "uint256[]",
          "name": "",
          "type": "uint256[]"
        }
      ],
      "stateMutability": "view",
      "type": "function"
    },
    {
      "inputs": [],
      "name": "owner",
      "outputs": [
        {
          "internalType": "address",
          "name": "",
          "type": "address"
        }
      ],
      "stateMutability": "view",
      "type": "function"
    },
    {
      "inputs": [],
      "name": "poolRegistryStoreAddress",
      "outputs": [
        {
          "internalType": "address",
          "name": "",
          "type": "address"
        }
      ],
      "stateMutability": "view",
      "type": "function"
    },
    {
      "inputs": [],
      "name": "renounceOwnership",
      "outputs": [],
      "stateMutability": "nonpayable",
      "type": "function"
    },
    {
      "inputs": [
        {
          "internalType": "uint256",
          "name": "loanId",
          "type": "uint256"
        },
        {
          "internalType": "uint256",
          "name": "amount",
          "type": "uint256"
        },
        {
          "internalType": "uint256",
          "name": "poolId",
          "type": "uint256"
        }
      ],
      "name": "repayLoanFull",
      "outputs": [
        {
          "internalType": "uint256",
          "name": "",
          "type": "uint256"
        }
      ],
      "stateMutability": "nonpayable",
      "type": "function"
    },
    {
      "inputs": [
        {
          "internalType": "uint256",
          "name": "loanId",
          "type": "uint256"
        },
        {
          "internalType": "uint256",
          "name": "amount",
          "type": "uint256"
        },
        {
          "internalType": "uint256",
          "name": "poolId",
          "type": "uint256"
        }
      ],
      "name": "repayLoanPart",
      "outputs": [
        {
          "internalType": "uint256",
          "name": "",
          "type": "uint256"
        }
      ],
      "stateMutability": "nonpayable",
      "type": "function"
    },
    {
      "inputs": [
        {
          "internalType": "uint256",
          "name": "principal",
          "type": "uint256"
        },
        {
          "internalType": "uint256",
          "name": "poolId",
          "type": "uint256"
        },
        {
          "internalType": "address",
          "name": "borrower",
          "type": "address"
        }
      ],
      "name": "requestLoan",
      "outputs": [
        {
          "internalType": "uint256",
          "name": "",
          "type": "uint256"
        }
      ],
      "stateMutability": "nonpayable",
      "type": "function"
    },
    {
      "inputs": [],
      "name": "totalLoanRepayments",
      "outputs": [
        {
          "internalType": "uint256",
          "name": "",
          "type": "uint256"
        }
      ],
      "stateMutability": "view",
      "type": "function"
    },
    {
      "inputs": [],
      "name": "totalLoans",
      "outputs": [
        {
          "internalType": "uint256",
          "name": "",
          "type": "uint256"
        }
      ],
      "stateMutability": "view",
      "type": "function"
    },
    {
      "inputs": [],
      "name": "totalPools",
      "outputs": [
        {
          "internalType": "uint256",
          "name": "",
          "type": "uint256"
        }
      ],
      "stateMutability": "view",
      "type": "function"
    },
    {
      "inputs": [
        {
          "internalType": "address",
          "name": "newOwner",
          "type": "address"
        }
      ],
      "name": "transferOwnership",
      "outputs": [],
      "stateMutability": "nonpayable",
      "type": "function"
    }
  ],
  "bytecode": "0x60806040526000600255600060045560006007553480156200002057600080fd5b5060405162006678380380620066788339818101604052810190620000469190620001ff565b620000666200005a6200011c60201b60201c565b6200012460201b60201c565b81600960006101000a81548173ffffffffffffffffffffffffffffffffffffffff021916908373ffffffffffffffffffffffffffffffffffffffff16021790555080600a60006101000a81548173ffffffffffffffffffffffffffffffffffffffff021916908373ffffffffffffffffffffffffffffffffffffffff1602179055507fdacdd2b300585d4a3265b5609cc08d4dd0be3cfc564c607052b4dd44be2c6ec060405160405180910390a150506200028e565b600033905090565b60008060009054906101000a900473ffffffffffffffffffffffffffffffffffffffff169050816000806101000a81548173ffffffffffffffffffffffffffffffffffffffff021916908373ffffffffffffffffffffffffffffffffffffffff1602179055508173ffffffffffffffffffffffffffffffffffffffff168173ffffffffffffffffffffffffffffffffffffffff167f8be0079c531659141344cd1fd0a4f28419497f9722a3daafe3b4186f6b6457e060405160405180910390a35050565b600081519050620001f98162000274565b92915050565b600080604083850312156200021357600080fd5b60006200022385828601620001e8565b92505060206200023685828601620001e8565b9150509250929050565b60006200024d8262000254565b9050919050565b600073ffffffffffffffffffffffffffffffffffffffff82169050919050565b6200027f8162000240565b81146200028b57600080fd5b50565b6163da806200029e6000396000f3fe608060405234801561001057600080fd5b50600436106102315760003560e01c80636cd5ffa81161013057806399f6bccb116100b8578063d060f5011161007c578063d060f50114610791578063d2236867146107c1578063d30f96cb146107df578063da2488cd1461080f578063f2fde38b1461082b57610231565b806399f6bccb146106d9578063ab3c7e5214610709578063b769c2a014610727578063c60bffc714610743578063cc952b571461077357610231565b8063817f203c116100ff578063817f203c146105fb57806386822b061461062b5780638747b4481461065b5780638c3a075f1461068b5780638da5cb5b146106bb57610231565b80636cd5ffa814610557578063715018a61461058757806373dfccca1461059157806374eb6e59146105c857610231565b8063341d8cd9116101be5780635055149c116101825780635055149c1461048f578063553c69b4146104bf5780635acd6fac146104db578063672e4d6e146104f75780636bac63721461052757610231565b8063341d8cd9146103b35780633951d2e9146103e35780633e2e5f3814610413578063413e167714610443578063468ac5771461045f57610231565b806316f56af31161020557806316f56af3146102fb578063193eded61461031757806322385ed4146103475780632658bad51461037757806329a16ac61461039557610231565b80625fffce14610236578063139d179f1461026657806314e088741461029657806316d7fc84146102c6575b600080fd5b610250600480360381019061024b91906148e7565b610847565b60405161025d9190615697565b60405180910390f35b610280600480360381019061027b91906148e7565b6108c7565b60405161028d9190615697565b60405180910390f35b6102b060048036038101906102ab91906148e7565b610b8a565b6040516102bd9190615346565b60405180910390f35b6102e060048036038101906102db9190614a4d565b610db4565b6040516102f2969594939291906156e9565b60405180910390f35b61031560048036038101906103109190614ad8565b610e37565b005b610331600480360381019061032c9190614a4d565b610fc7565b60405161033e9190615660565b60405180910390f35b610361600480360381019061035c9190614a89565b6110bc565b60405161036e9190615697565b60405180910390f35b61037f61143e565b60405161038c9190615697565b60405180910390f35b61039d611443565b6040516103aa9190615697565b60405180910390f35b6103cd60048036038101906103c89190614857565b611449565b6040516103da9190615697565b60405180910390f35b6103fd60048036038101906103f89190614857565b61149e565b60405161040a9190615697565b60405180910390f35b61042d60048036038101906104289190614975565b611526565b60405161043a9190615697565b60405180910390f35b61045d600480360381019061045891906147c9565b611716565b005b610479600480360381019061047491906149c4565b611767565b6040516104869190615697565b60405180910390f35b6104a960048036038101906104a491906148e7565b611984565b6040516104b6919061567b565b60405180910390f35b6104d960048036038101906104d491906149c4565b611b81565b005b6104f560048036038101906104f09190614a4d565b611e0c565b005b610511600480360381019061050c91906148e7565b61210c565b60405161051e9190615697565b60405180910390f35b610541600480360381019061053c9190614a4d565b612124565b60405161054e9190615645565b60405180910390f35b610571600480360381019061056c9190614a4d565b6122ed565b60405161057e9190615697565b60405180910390f35b61058f612486565b005b6105ab60048036038101906105a691906148e7565b61249a565b6040516105bf9897969594939291906157ab565b60405180910390f35b6105e260048036038101906105dd9190614a4d565b612546565b6040516105f294939291906158ea565b60405180910390f35b61061560048036038101906106109190614a4d565b61259d565b6040516106229190615368565b60405180910390f35b61064560048036038101906106409190614b61565b6129a3565b6040516106529190615697565b60405180910390f35b610675600480360381019061067091906148e7565b612b30565b6040516106829190615697565b60405180910390f35b6106a560048036038101906106a09190614a4d565b612b48565b6040516106b29190615660565b60405180910390f35b6106c3612cb1565b6040516106d091906152cb565b60405180910390f35b6106f360048036038101906106ee9190614c62565b612cda565b6040516107009190615697565b60405180910390f35b610711613144565b60405161071e9190615697565b60405180910390f35b610741600480360381019061073c9190614bb0565b61314a565b005b61075d60048036038101906107589190614c62565b613343565b60405161076a9190615697565b60405180910390f35b61077b61363c565b6040516107889190615697565b60405180910390f35b6107ab60048036038101906107a691906148e7565b613642565b6040516107b89190615697565b60405180910390f35b6107c9613894565b6040516107d691906152cb565b60405180910390f35b6107f960048036038101906107f49190614a4d565b6138ba565b6040516108069190615697565b60405180910390f35b61082960048036038101906108249190614939565b613a59565b005b610845600480360381019061084091906147a0565b613c25565b005b60006001600083815260200190815260200160002060030160179054906101000a900460ff166108ac576040517f08c379a00000000000000000000000000000000000000000000000000000000081526004016108a390615465565b60405180910390fd5b60056000838152602001908152602001600020549050919050565b600080600080600090505b6005600086815260200190815260200160002054811015610aba576000600a60009054906101000a900473ffffffffffffffffffffffffffffffffffffffff1673ffffffffffffffffffffffffffffffffffffffff16636bac637287846040518363ffffffff1660e01b815260040161094c929190615829565b60c06040518083038186803b15801561096457600080fd5b505afa158015610978573d6000803e3d6000fd5b505050506040513d601f19601f8201168201806040525081019061099c919061482e565b90508060400151846109ae9190615a3d565b935060005b6008600084815260200190815260200160002054811015610aa5576000600a60009054906101000a900473ffffffffffffffffffffffffffffffffffffffff1673ffffffffffffffffffffffffffffffffffffffff1663193eded685846040518363ffffffff1660e01b8152600401610a2d929190615829565b60806040518083038186803b158015610a4557600080fd5b505afa158015610a59573d6000803e3d6000fd5b505050506040513d601f19601f82011682018060405250810190610a7d9190614894565b9050806020015185610a8f9190615a3d565b9450508080610a9d90615c7b565b9150506109b3565b50508080610ab290615c7b565b9150506108d2565b508082600a60009054906101000a900473ffffffffffffffffffffffffffffffffffffffff1673ffffffffffffffffffffffffffffffffffffffff16635055149c876040518263ffffffff1660e01b8152600401610b189190615697565b6101006040518083038186803b158015610b3157600080fd5b505afa158015610b45573d6000803e3d6000fd5b505050506040513d601f19601f82011682018060405250810190610b6991906148bd565b60000151610b779190615b1e565b610b819190615a3d565b92505050919050565b6060610b94613ca9565b60008211610bd7576040517f08c379a0000000000000000000000000000000000000000000000000000000008152600401610bce906154c5565b60405180910390fd5b6060600080600a60009054906101000a900473ffffffffffffffffffffffffffffffffffffffff1673ffffffffffffffffffffffffffffffffffffffff1663ab3c7e526040518163ffffffff1660e01b815260040160206040518083038186803b158015610c4457600080fd5b505afa158015610c58573d6000803e3d6000fd5b505050506040513d601f19601f82011682018060405250810190610c7c9190614910565b905060005b81811015610da85785600a60009054906101000a900473ffffffffffffffffffffffffffffffffffffffff1673ffffffffffffffffffffffffffffffffffffffff16635055149c836040518263ffffffff1660e01b8152600401610ce59190615697565b6101006040518083038186803b158015610cfe57600080fd5b505afa158015610d12573d6000803e3d6000fd5b505050506040513d601f19601f82011682018060405250810190610d3691906148bd565b600001511115610d955780848481518110610d7a577f4e487b7100000000000000000000000000000000000000000000000000000000600052603260045260246000fd5b6020026020010181815250508280610d9190615c7b565b9350505b8080610da090615c7b565b915050610c81565b50829350505050919050565b6003602052816000526040600020602052806000526040600020600091509150508060000154908060010160009054906101000a900473ffffffffffffffffffffffffffffffffffffffff16908060020154908060030154908060040160009054906101000a900460ff16908060040160019054906101000a900460ff16905086565b610e3f613ca9565b6040518060c001604052808681526020018573ffffffffffffffffffffffffffffffffffffffff168152602001848152602001838152602001826001811115610eb1577f4e487b7100000000000000000000000000000000000000000000000000000000600052602160045260246000fd5b8152602001600115158152506003600087815260200190815260200160002060008881526020019081526020016000206000820151816000015560208201518160010160006101000a81548173ffffffffffffffffffffffffffffffffffffffff021916908373ffffffffffffffffffffffffffffffffffffffff160217905550604082015181600201556060820151816003015560808201518160040160006101000a81548160ff02191690836001811115610f97577f4e487b7100000000000000000000000000000000000000000000000000000000600052602160045260246000fd5b021790555060a08201518160040160016101000a81548160ff021916908315150217905550905050505050505050565b610fcf6141b9565b60066000848152602001908152602001600020600083815260200190815260200160002060405180608001604052908160008201548152602001600182015481526020016002820160009054906101000a900460ff16600181111561105d577f4e487b7100000000000000000000000000000000000000000000000000000000600052602160045260246000fd5b6001811115611095577f4e487b7100000000000000000000000000000000000000000000000000000000600052602160045260246000fd5b81526020016002820160019054906101000a900460ff161515151581525050905092915050565b60006110c6613ca9565b6000600a60009054906101000a900473ffffffffffffffffffffffffffffffffffffffff1673ffffffffffffffffffffffffffffffffffffffff16635055149c856040518263ffffffff1660e01b81526004016111239190615697565b6101006040518083038186803b15801561113c57600080fd5b505afa158015611150573d6000803e3d6000fd5b505050506040513d601f19601f8201168201806040525081019061117491906148bd565b9050600060018111156111b0577f4e487b7100000000000000000000000000000000000000000000000000000000600052602160045260246000fd5b8160c0015160018111156111ed577f4e487b7100000000000000000000000000000000000000000000000000000000600052602160045260246000fd5b1461122d576040517f08c379a000000000000000000000000000000000000000000000000000000000815260040161122490615625565b60405180910390fd5b60008511611270576040517f08c379a000000000000000000000000000000000000000000000000000000000815260040161126790615585565b60405180910390fd5b600073ffffffffffffffffffffffffffffffffffffffff168373ffffffffffffffffffffffffffffffffffffffff1614156112e0576040517f08c379a00000000000000000000000000000000000000000000000000000000081526004016112d790615525565b60405180910390fd5b61132d3386600960009054906101000a900473ffffffffffffffffffffffffffffffffffffffff1673ffffffffffffffffffffffffffffffffffffffff16613d279092919063ffffffff16565b6000600a60009054906101000a900473ffffffffffffffffffffffffffffffffffffffff1673ffffffffffffffffffffffffffffffffffffffff16633e2e5f388686896040518463ffffffff1660e01b815260040161138e939291906156b2565b602060405180830381600087803b1580156113a857600080fd5b505af11580156113bc573d6000803e3d6000fd5b505050506040513d601f19601f820116820180604052508101906113e09190614910565b90508373ffffffffffffffffffffffffffffffffffffffff1685827f3409fbf4cc4650476ca06ba8f21ff05b6877b2d5deb15dde0c8ecbb32caa99fc8960405161142a9190615697565b60405180910390a480925050509392505050565b600f81565b60075481565b6000806064836040015161ffff1685604001516114669190615ac4565b6114709190615a93565b9050826020015161ffff1681856040015161148b9190615a3d565b6114959190615a93565b91505092915050565b600080826020015161ffff1684604001516114b99190615a93565b905060006064600f86604001516114d09190615ac4565b6114da9190615a93565b905060006064856040015161ffff1687604001516114f89190615ac4565b6115029190615a93565b90508181846115119190615a3d565b61151b9190615a3d565b935050505092915050565b6000611530613ca9565b600060045490506040518060c001604052808681526020018573ffffffffffffffffffffffffffffffffffffffff168152602001848152602001428152602001600060018111156115aa577f4e487b7100000000000000000000000000000000000000000000000000000000600052602160045260246000fd5b8152602001600115158152506003600087815260200190815260200160002060008381526020019081526020016000206000820151816000015560208201518160010160006101000a81548173ffffffffffffffffffffffffffffffffffffffff021916908373ffffffffffffffffffffffffffffffffffffffff160217905550604082015181600201556060820151816003015560808201518160040160006101000a81548160ff02191690836001811115611690577f4e487b7100000000000000000000000000000000000000000000000000000000600052602160045260246000fd5b021790555060a08201518160040160016101000a81548160ff0219169083151502179055509050506004600081546116c790615c7b565b9190508190555060056000868152602001908152602001600020600081546116ee90615c7b565b9190508190556005600087815260200190815260200160002081905550809150509392505050565b6117638282600960009054906101000a900473ffffffffffffffffffffffffffffffffffffffff1673ffffffffffffffffffffffffffffffffffffffff16613d279092919063ffffffff16565b5050565b6000611771613ca9565b600060025490506040518061010001604052808981526020018861ffff1681526020018761ffff1681526020018681526020018561ffff1681526020018473ffffffffffffffffffffffffffffffffffffffff16815260200160006001811115611804577f4e487b7100000000000000000000000000000000000000000000000000000000600052602160045260246000fd5b815260200160011515815250600160008381526020019081526020016000206000820151816000015560208201518160010160006101000a81548161ffff021916908361ffff16021790555060408201518160010160026101000a81548161ffff021916908361ffff1602179055506060820151816002015560808201518160030160006101000a81548161ffff021916908361ffff16021790555060a08201518160030160026101000a81548173ffffffffffffffffffffffffffffffffffffffff021916908373ffffffffffffffffffffffffffffffffffffffff16021790555060c08201518160030160166101000a81548160ff02191690836001811115611938577f4e487b7100000000000000000000000000000000000000000000000000000000600052602160045260246000fd5b021790555060e08201518160030160176101000a81548160ff02191690831515021790555090505060026000815461196f90615c7b565b91905081905550809150509695505050505050565b61198c61421b565b6001600083815260200190815260200160002060030160179054906101000a900460ff166119ef576040517f08c379a00000000000000000000000000000000000000000000000000000000081526004016119e690615545565b60405180910390fd5b6001600083815260200190815260200160002060405180610100016040529081600082015481526020016001820160009054906101000a900461ffff1661ffff1661ffff1681526020016001820160029054906101000a900461ffff1661ffff1661ffff168152602001600282015481526020016003820160009054906101000a900461ffff1661ffff1661ffff1681526020016003820160029054906101000a900473ffffffffffffffffffffffffffffffffffffffff1673ffffffffffffffffffffffffffffffffffffffff1673ffffffffffffffffffffffffffffffffffffffff1681526020016003820160169054906101000a900460ff166001811115611b23577f4e487b7100000000000000000000000000000000000000000000000000000000600052602160045260246000fd5b6001811115611b5b577f4e487b7100000000000000000000000000000000000000000000000000000000600052602160045260246000fd5b81526020016003820160179054906101000a900460ff1615151515815250509050919050565b611b89613ca9565b60008561ffff1614158015611b9f575060008314155b8015611bb0575060008261ffff1614155b8015611bbd575060008614155b8015611bce575060008461ffff1614155b611c0d576040517f08c379a0000000000000000000000000000000000000000000000000000000008152600401611c04906155c5565b60405180910390fd5b600073ffffffffffffffffffffffffffffffffffffffff168173ffffffffffffffffffffffffffffffffffffffff161415611c7d576040517f08c379a0000000000000000000000000000000000000000000000000000000008152600401611c7490615405565b60405180910390fd5b611ccc333088600960009054906101000a900473ffffffffffffffffffffffffffffffffffffffff1673ffffffffffffffffffffffffffffffffffffffff16613dad909392919063ffffffff16565b6000600a60009054906101000a900473ffffffffffffffffffffffffffffffffffffffff1673ffffffffffffffffffffffffffffffffffffffff1663468ac5778888888888886040518763ffffffff1660e01b8152600401611d339695949392919061574a565b602060405180830381600087803b158015611d4d57600080fd5b505af1158015611d61573d6000803e3d6000fd5b505050506040513d601f19601f82011682018060405250810190611d859190614910565b90508173ffffffffffffffffffffffffffffffffffffffff16817f65fc0eb45954044fb55e1b01344d5d72fbfdf88e732d955f73bb7fb2bcc131e960405160405180910390a3807f2bd52f9253398b8aef7698b9fe3bb703e471a3440c149637f7ccd8e962b4569c88604051611dfb9190615697565b60405180910390a250505050505050565b611e14613ca9565b6000600a60009054906101000a900473ffffffffffffffffffffffffffffffffffffffff1673ffffffffffffffffffffffffffffffffffffffff16635055149c846040518263ffffffff1660e01b8152600401611e719190615697565b6101006040518083038186803b158015611e8a57600080fd5b505afa158015611e9e573d6000803e3d6000fd5b505050506040513d601f19601f82011682018060405250810190611ec291906148bd565b905060006001811115611efe577f4e487b7100000000000000000000000000000000000000000000000000000000600052602160045260246000fd5b8160c001516001811115611f3b577f4e487b7100000000000000000000000000000000000000000000000000000000600052602160045260246000fd5b14611f7b576040517f08c379a0000000000000000000000000000000000000000000000000000000008152600401611f72906155e5565b60405180910390fd5b60008211611fbe576040517f08c379a0000000000000000000000000000000000000000000000000000000008152600401611fb5906155a5565b60405180910390fd5b61200d333084600960009054906101000a900473ffffffffffffffffffffffffffffffffffffffff1673ffffffffffffffffffffffffffffffffffffffff16613dad909392919063ffffffff16565b600a60009054906101000a900473ffffffffffffffffffffffffffffffffffffffff1673ffffffffffffffffffffffffffffffffffffffff1663b769c2a08484846000015161205c9190615a3d565b84602001518560400151866060015187608001518860a001518960c001516040518963ffffffff1660e01b815260040161209d98979695949392919061592f565b600060405180830381600087803b1580156120b757600080fd5b505af11580156120cb573d6000803e3d6000fd5b50505050827f2bd52f9253398b8aef7698b9fe3bb703e471a3440c149637f7ccd8e962b4569c836040516120ff9190615697565b60405180910390a2505050565b60086020528060005260406000206000915090505481565b61212c6142bc565b60036000848152602001908152602001600020600083815260200190815260200160002060040160019054906101000a900460ff166121a0576040517f08c379a000000000000000000000000000000000000000000000000000000000815260040161219790615445565b60405180910390fd5b6003600084815260200190815260200160002060008381526020019081526020016000206040518060c0016040529081600082015481526020016001820160009054906101000a900473ffffffffffffffffffffffffffffffffffffffff1673ffffffffffffffffffffffffffffffffffffffff1673ffffffffffffffffffffffffffffffffffffffff16815260200160028201548152602001600382015481526020016004820160009054906101000a900460ff16600181111561228e577f4e487b7100000000000000000000000000000000000000000000000000000000600052602160045260246000fd5b60018111156122c6577f4e487b7100000000000000000000000000000000000000000000000000000000600052602160045260246000fd5b81526020016004820160019054906101000a900460ff161515151581525050905092915050565b600080600a60009054906101000a900473ffffffffffffffffffffffffffffffffffffffff1673ffffffffffffffffffffffffffffffffffffffff16636bac637284866040518363ffffffff1660e01b815260040161234d929190615829565b60c06040518083038186803b15801561236557600080fd5b505afa158015612379573d6000803e3d6000fd5b505050506040513d601f19601f8201168201806040525081019061239d919061482e565b90506000600a60009054906101000a900473ffffffffffffffffffffffffffffffffffffffff1673ffffffffffffffffffffffffffffffffffffffff16635055149c856040518263ffffffff1660e01b81526004016123fc9190615697565b6101006040518083038186803b15801561241557600080fd5b505afa158015612429573d6000803e3d6000fd5b505050506040513d601f19601f8201168201806040525081019061244d91906148bd565b9050612459858561259d565b1561247157612468828261149e565b92505050612480565b61247b8282611449565b925050505b92915050565b61248e613ca9565b6124986000613e36565b565b60016020528060005260406000206000915090508060000154908060010160009054906101000a900461ffff16908060010160029054906101000a900461ffff16908060020154908060030160009054906101000a900461ffff16908060030160029054906101000a900473ffffffffffffffffffffffffffffffffffffffff16908060030160169054906101000a900460ff16908060030160179054906101000a900460ff16905088565b6006602052816000526040600020602052806000526040600020600091509150508060000154908060010154908060020160009054906101000a900460ff16908060020160019054906101000a900460ff16905084565b600080600a60009054906101000a900473ffffffffffffffffffffffffffffffffffffffff1673ffffffffffffffffffffffffffffffffffffffff16635055149c846040518263ffffffff1660e01b81526004016125fb9190615697565b6101006040518083038186803b15801561261457600080fd5b505afa158015612628573d6000803e3d6000fd5b505050506040513d601f19601f8201168201806040525081019061264c91906148bd565b90506000600a60009054906101000a900473ffffffffffffffffffffffffffffffffffffffff1673ffffffffffffffffffffffffffffffffffffffff16636bac637285876040518363ffffffff1660e01b81526004016126ad929190615829565b60c06040518083038186803b1580156126c557600080fd5b505afa1580156126d9573d6000803e3d6000fd5b505050506040513d601f19601f820116820180604052508101906126fd919061482e565b90506000826020015161ffff169050600080600090505b82811161297e576000600a60009054906101000a900473ffffffffffffffffffffffffffffffffffffffff1673ffffffffffffffffffffffffffffffffffffffff1663193eded68a846040518363ffffffff1660e01b815260040161277a929190615829565b60806040518083038186803b15801561279257600080fd5b505afa1580156127a6573d6000803e3d6000fd5b505050506040513d601f19601f820116820180604052508101906127ca9190614894565b9050600115158160600151151514156128f95760006001811115612817577f4e487b7100000000000000000000000000000000000000000000000000000000600052602160045260246000fd5b81604001516001811115612854577f4e487b7100000000000000000000000000000000000000000000000000000000600052602160045260246000fd5b1415612869576000965050505050505061299d565b6001808111156128a2577f4e487b7100000000000000000000000000000000000000000000000000000000600052602160045260246000fd5b816040015160018111156128df577f4e487b7100000000000000000000000000000000000000000000000000000000600052602160045260246000fd5b14156128f45782806128f090615c7b565b9350505b61296a565b6000866020015161ffff1687606001516129139190615a93565b905060006001846129249190615a3d565b8261292f9190615ac4565b876060015161293e9190615a3d565b9050804211156129595760019850505050505050505061299d565b60009850505050505050505061299d565b50808061297690615c7b565b915050612714565b508082141561299457600094505050505061299d565b60019450505050505b92915050565b60006129ad613ca9565b6000600860008681526020019081526020016000205490506040518060800160405280868152602001858152602001846001811115612a15577f4e487b7100000000000000000000000000000000000000000000000000000000600052602160045260246000fd5b815260200160011515815250600660008781526020019081526020016000206000838152602001908152602001600020600082015181600001556020820151816001015560408201518160020160006101000a81548160ff02191690836001811115612aaa577f4e487b7100000000000000000000000000000000000000000000000000000000600052602160045260246000fd5b021790555060608201518160020160016101000a81548160ff021916908315150217905550905050600760008154612ae190615c7b565b919050819055506008600086815260200190815260200160002060008154612b0890615c7b565b9190508190556008600087815260200190815260200160002081905550809150509392505050565b60056020528060005260406000206000915090505481565b612b506141b9565b60066000848152602001908152602001600020600083815260200190815260200160002060020160019054906101000a900460ff16612bc4576040517f08c379a0000000000000000000000000000000000000000000000000000000008152600401612bbb906154e5565b60405180910390fd5b60066000848152602001908152602001600020600083815260200190815260200160002060405180608001604052908160008201548152602001600182015481526020016002820160009054906101000a900460ff166001811115612c52577f4e487b7100000000000000000000000000000000000000000000000000000000600052602160045260246000fd5b6001811115612c8a577f4e487b7100000000000000000000000000000000000000000000000000000000600052602160045260246000fd5b81526020016002820160019054906101000a900460ff161515151581525050905092915050565b60008060009054906101000a900473ffffffffffffffffffffffffffffffffffffffff16905090565b6000612ce4613ca9565b6000600a60009054906101000a900473ffffffffffffffffffffffffffffffffffffffff1673ffffffffffffffffffffffffffffffffffffffff16636bac637284876040518363ffffffff1660e01b8152600401612d43929190615829565b60c06040518083038186803b158015612d5b57600080fd5b505afa158015612d6f573d6000803e3d6000fd5b505050506040513d601f19601f82011682018060405250810190612d93919061482e565b905060008411612dd8576040517f08c379a0000000000000000000000000000000000000000000000000000000008152600401612dcf906154a5565b60405180910390fd5b612de285846122ed565b8414612e23576040517f08c379a0000000000000000000000000000000000000000000000000000000008152600401612e1a90615425565b60405180910390fd5b612e72333086600960009054906101000a900473ffffffffffffffffffffffffffffffffffffffff1673ffffffffffffffffffffffffffffffffffffffff16613dad909392919063ffffffff16565b6000600a60009054906101000a900473ffffffffffffffffffffffffffffffffffffffff1673ffffffffffffffffffffffffffffffffffffffff166386822b06878760016040518463ffffffff1660e01b8152600401612ed4939291906158b3565b602060405180830381600087803b158015612eee57600080fd5b505af1158015612f02573d6000803e3d6000fd5b505050506040513d601f19601f82011682018060405250810190612f269190614910565b90506000600a60009054906101000a900473ffffffffffffffffffffffffffffffffffffffff1673ffffffffffffffffffffffffffffffffffffffff16635055149c866040518263ffffffff1660e01b8152600401612f859190615697565b6101006040518083038186803b158015612f9e57600080fd5b505afa158015612fb2573d6000803e3d6000fd5b505050506040513d601f19601f82011682018060405250810190612fd691906148bd565b9050806020015161ffff16600a60009054906101000a900473ffffffffffffffffffffffffffffffffffffffff1673ffffffffffffffffffffffffffffffffffffffff1663672e4d6e896040518263ffffffff1660e01b815260040161303c9190615697565b60206040518083038186803b15801561305457600080fd5b505afa158015613068573d6000803e3d6000fd5b505050506040513d601f19601f8201168201806040525081019061308c9190614910565b141561313757600a60009054906101000a900473ffffffffffffffffffffffffffffffffffffffff1673ffffffffffffffffffffffffffffffffffffffff166316f56af3888786602001518760400151886060015160016040518763ffffffff1660e01b815260040161310496959493929190615852565b600060405180830381600087803b15801561311e57600080fd5b505af1158015613132573d6000803e3d6000fd5b505050505b8193505050509392505050565b60025481565b613152613ca9565b6040518061010001604052808881526020018761ffff1681526020018661ffff1681526020018581526020018461ffff1681526020018373ffffffffffffffffffffffffffffffffffffffff1681526020018260018111156131dd577f4e487b7100000000000000000000000000000000000000000000000000000000600052602160045260246000fd5b815260200160011515815250600160008a81526020019081526020016000206000820151816000015560208201518160010160006101000a81548161ffff021916908361ffff16021790555060408201518160010160026101000a81548161ffff021916908361ffff1602179055506060820151816002015560808201518160030160006101000a81548161ffff021916908361ffff16021790555060a08201518160030160026101000a81548173ffffffffffffffffffffffffffffffffffffffff021916908373ffffffffffffffffffffffffffffffffffffffff16021790555060c08201518160030160166101000a81548160ff02191690836001811115613311577f4e487b7100000000000000000000000000000000000000000000000000000000600052602160045260246000fd5b021790555060e08201518160030160176101000a81548160ff0219169083151502179055509050505050505050505050565b600061334d613ca9565b6000600a60009054906101000a900473ffffffffffffffffffffffffffffffffffffffff1673ffffffffffffffffffffffffffffffffffffffff16636bac637284876040518363ffffffff1660e01b81526004016133ac929190615829565b60c06040518083038186803b1580156133c457600080fd5b505afa1580156133d8573d6000803e3d6000fd5b505050506040513d601f19601f820116820180604052508101906133fc919061482e565b905060008411613441576040517f08c379a0000000000000000000000000000000000000000000000000000000008152600401613438906153a5565b60405180910390fd5b80604001518414613487576040517f08c379a000000000000000000000000000000000000000000000000000000000815260040161347e906153e5565b60405180910390fd5b6134d6333086600960009054906101000a900473ffffffffffffffffffffffffffffffffffffffff1673ffffffffffffffffffffffffffffffffffffffff16613dad909392919063ffffffff16565b6000600a60009054906101000a900473ffffffffffffffffffffffffffffffffffffffff1673ffffffffffffffffffffffffffffffffffffffff166386822b06878760006040518463ffffffff1660e01b8152600401613538939291906158b3565b602060405180830381600087803b15801561355257600080fd5b505af1158015613566573d6000803e3d6000fd5b505050506040513d601f19601f8201168201806040525081019061358a9190614910565b9050600a60009054906101000a900473ffffffffffffffffffffffffffffffffffffffff1673ffffffffffffffffffffffffffffffffffffffff166316f56af3878685602001518660400151876060015160016040518763ffffffff1660e01b81526004016135fe96959493929190615852565b600060405180830381600087803b15801561361857600080fd5b505af115801561362c573d6000803e3d6000fd5b5050505080925050509392505050565b60045481565b6000806000600a60009054906101000a900473ffffffffffffffffffffffffffffffffffffffff1673ffffffffffffffffffffffffffffffffffffffff16625fffce856040518263ffffffff1660e01b81526004016136a19190615697565b60206040518083038186803b1580156136b957600080fd5b505afa1580156136cd573d6000803e3d6000fd5b505050506040513d601f19601f820116820180604052508101906136f19190614910565b905060005b818110156137cf57600a60009054906101000a900473ffffffffffffffffffffffffffffffffffffffff1673ffffffffffffffffffffffffffffffffffffffff16636bac637286836040518363ffffffff1660e01b815260040161375b929190615829565b60c06040518083038186803b15801561377357600080fd5b505afa158015613787573d6000803e3d6000fd5b505050506040513d601f19601f820116820180604052508101906137ab919061482e565b60400151836137ba9190615a3d565b925080806137c790615c7b565b9150506136f6565b5081600a60009054906101000a900473ffffffffffffffffffffffffffffffffffffffff1673ffffffffffffffffffffffffffffffffffffffff16635055149c866040518263ffffffff1660e01b815260040161382c9190615697565b6101006040518083038186803b15801561384557600080fd5b505afa158015613859573d6000803e3d6000fd5b505050506040513d601f19601f8201168201806040525081019061387d91906148bd565b6000015161388b9190615b1e565b92505050919050565b600a60009054906101000a900473ffffffffffffffffffffffffffffffffffffffff1681565b600080600a60009054906101000a900473ffffffffffffffffffffffffffffffffffffffff1673ffffffffffffffffffffffffffffffffffffffff16636bac637284866040518363ffffffff1660e01b815260040161391a929190615829565b60c06040518083038186803b15801561393257600080fd5b505afa158015613946573d6000803e3d6000fd5b505050506040513d601f19601f8201168201806040525081019061396a919061482e565b90506000600a60009054906101000a900473ffffffffffffffffffffffffffffffffffffffff1673ffffffffffffffffffffffffffffffffffffffff16635055149c856040518263ffffffff1660e01b81526004016139c99190615697565b6101006040518083038186803b1580156139e257600080fd5b505afa1580156139f6573d6000803e3d6000fd5b505050506040513d601f19601f82011682018060405250810190613a1a91906148bd565b905080606001518260600151613a309190615a3d565b421015613a4557816040015192505050613a53565b613a4e82613efa565b925050505b92915050565b613a61613ca9565b6000600a60009054906101000a900473ffffffffffffffffffffffffffffffffffffffff1673ffffffffffffffffffffffffffffffffffffffff16635055149c846040518263ffffffff1660e01b8152600401613abe9190615697565b6101006040518083038186803b158015613ad757600080fd5b505afa158015613aeb573d6000803e3d6000fd5b505050506040513d601f19601f82011682018060405250810190613b0f91906148bd565b90506000613b1c846108c7565b9050600a60009054906101000a900473ffffffffffffffffffffffffffffffffffffffff1673ffffffffffffffffffffffffffffffffffffffff1663b769c2a085846000015185602001518660400151876060015188608001518960a0015160016040518963ffffffff1660e01b8152600401613ba098979695949392919061592f565b600060405180830381600087803b158015613bba57600080fd5b505af1158015613bce573d6000803e3d6000fd5b50505050613c1f8382600960009054906101000a900473ffffffffffffffffffffffffffffffffffffffff1673ffffffffffffffffffffffffffffffffffffffff16613d279092919063ffffffff16565b50505050565b613c2d613ca9565b600073ffffffffffffffffffffffffffffffffffffffff168173ffffffffffffffffffffffffffffffffffffffff161415613c9d576040517f08c379a0000000000000000000000000000000000000000000000000000000008152600401613c94906153c5565b60405180910390fd5b613ca681613e36565b50565b613cb1613f34565b73ffffffffffffffffffffffffffffffffffffffff16613ccf612cb1565b73ffffffffffffffffffffffffffffffffffffffff1614613d25576040517f08c379a0000000000000000000000000000000000000000000000000000000008152600401613d1c90615505565b60405180910390fd5b565b613da88363a9059cbb60e01b8484604051602401613d4692919061531d565b604051602081830303815290604052907bffffffffffffffffffffffffffffffffffffffffffffffffffffffff19166020820180517bffffffffffffffffffffffffffffffffffffffffffffffffffffffff8381831617835250505050613f3c565b505050565b613e30846323b872dd60e01b858585604051602401613dce939291906152e6565b604051602081830303815290604052907bffffffffffffffffffffffffffffffffffffffffffffffffffffffff19166020820180517bffffffffffffffffffffffffffffffffffffffffffffffffffffffff8381831617835250505050613f3c565b50505050565b60008060009054906101000a900473ffffffffffffffffffffffffffffffffffffffff169050816000806101000a81548173ffffffffffffffffffffffffffffffffffffffff021916908373ffffffffffffffffffffffffffffffffffffffff1602179055508173ffffffffffffffffffffffffffffffffffffffff168173ffffffffffffffffffffffffffffffffffffffff167f8be0079c531659141344cd1fd0a4f28419497f9722a3daafe3b4186f6b6457e060405160405180910390a35050565b6000806064600f8460400151613f109190615ac4565b613f1a9190615a93565b9050808360400151613f2c9190615a3d565b915050919050565b600033905090565b6000613f9e826040518060400160405280602081526020017f5361666545524332303a206c6f772d6c6576656c2063616c6c206661696c65648152508573ffffffffffffffffffffffffffffffffffffffff166140039092919063ffffffff16565b9050600081511115613ffe5780806020019051810190613fbe9190614805565b613ffd576040517f08c379a0000000000000000000000000000000000000000000000000000000008152600401613ff490615605565b60405180910390fd5b5b505050565b6060614012848460008561401b565b90509392505050565b606082471015614060576040517f08c379a000000000000000000000000000000000000000000000000000000000815260040161405790615485565b60405180910390fd5b6140698561412f565b6140a8576040517f08c379a000000000000000000000000000000000000000000000000000000000815260040161409f90615565565b60405180910390fd5b6000808673ffffffffffffffffffffffffffffffffffffffff1685876040516140d191906152b4565b60006040518083038185875af1925050503d806000811461410e576040519150601f19603f3d011682016040523d82523d6000602084013e614113565b606091505b5091509150614123828286614152565b92505050949350505050565b6000808273ffffffffffffffffffffffffffffffffffffffff163b119050919050565b60608315614162578290506141b2565b6000835111156141755782518084602001fd5b816040517f08c379a00000000000000000000000000000000000000000000000000000000081526004016141a99190615383565b60405180910390fd5b9392505050565b604051806080016040528060008152602001600081526020016000600181111561420c577f4e487b7100000000000000000000000000000000000000000000000000000000600052602160045260246000fd5b81526020016000151581525090565b60405180610100016040528060008152602001600061ffff168152602001600061ffff16815260200160008152602001600061ffff168152602001600073ffffffffffffffffffffffffffffffffffffffff168152602001600060018111156142ad577f4e487b7100000000000000000000000000000000000000000000000000000000600052602160045260246000fd5b81526020016000151581525090565b6040518060c0016040528060008152602001600073ffffffffffffffffffffffffffffffffffffffff168152602001600081526020016000815260200160006001811115614333577f4e487b7100000000000000000000000000000000000000000000000000000000600052602160045260246000fd5b81526020016000151581525090565b60008135905061435181616318565b92915050565b60008151905061436681616318565b92915050565b60008135905061437b8161632f565b92915050565b6000815190506143908161632f565b92915050565b6000813590506143a581616346565b92915050565b6000815190506143ba81616346565b92915050565b6000813590506143cf81616356565b92915050565b6000815190506143e481616356565b92915050565b6000813590506143f981616366565b92915050565b60008151905061440e81616366565b92915050565b600060c0828403121561442657600080fd5b61443060c06159ad565b9050600061444084828501614776565b600083015250602061445484828501614342565b602083015250604061446884828501614776565b604083015250606061447c84828501614776565b6060830152506080614490848285016143c0565b60808301525060a06144a48482850161436c565b60a08301525092915050565b600060c082840312156144c257600080fd5b6144cc60c06159ad565b905060006144dc8482850161478b565b60008301525060206144f084828501614357565b60208301525060406145048482850161478b565b60408301525060606145188482850161478b565b606083015250608061452c848285016143d5565b60808301525060a061454084828501614381565b60a08301525092915050565b60006080828403121561455e57600080fd5b61456860806159ad565b905060006145788482850161478b565b600083015250602061458c8482850161478b565b60208301525060406145a0848285016143ab565b60408301525060606145b484828501614381565b60608301525092915050565b600061010082840312156145d357600080fd5b6145de6101006159ad565b905060006145ee84828501614776565b60008301525060206146028482850161474c565b60208301525060406146168482850161474c565b604083015250606061462a84828501614776565b606083015250608061463e8482850161474c565b60808301525060a061465284828501614342565b60a08301525060c0614666848285016143ea565b60c08301525060e061467a8482850161436c565b60e08301525092915050565b6000610100828403121561469957600080fd5b6146a46101006159ad565b905060006146b48482850161478b565b60008301525060206146c884828501614761565b60208301525060406146dc84828501614761565b60408301525060606146f08482850161478b565b606083015250608061470484828501614761565b60808301525060a061471884828501614357565b60a08301525060c061472c848285016143ff565b60c08301525060e061474084828501614381565b60e08301525092915050565b60008135905061475b81616376565b92915050565b60008151905061477081616376565b92915050565b6000813590506147858161638d565b92915050565b60008151905061479a8161638d565b92915050565b6000602082840312156147b257600080fd5b60006147c084828501614342565b91505092915050565b600080604083850312156147dc57600080fd5b60006147ea85828601614342565b92505060206147fb85828601614776565b9150509250929050565b60006020828403121561481757600080fd5b600061482584828501614381565b91505092915050565b600060c0828403121561484057600080fd5b600061484e848285016144b0565b91505092915050565b6000806101c0838503121561486b57600080fd5b600061487985828601614414565b92505060c061488a858286016145c0565b9150509250929050565b6000608082840312156148a657600080fd5b60006148b48482850161454c565b91505092915050565b600061010082840312156148d057600080fd5b60006148de84828501614686565b91505092915050565b6000602082840312156148f957600080fd5b600061490784828501614776565b91505092915050565b60006020828403121561492257600080fd5b60006149308482850161478b565b91505092915050565b6000806040838503121561494c57600080fd5b600061495a85828601614776565b925050602061496b85828601614342565b9150509250929050565b60008060006060848603121561498a57600080fd5b600061499886828701614776565b93505060206149a986828701614342565b92505060406149ba86828701614776565b9150509250925092565b60008060008060008060c087890312156149dd57600080fd5b60006149eb89828a01614776565b96505060206149fc89828a0161474c565b9550506040614a0d89828a0161474c565b9450506060614a1e89828a01614776565b9350506080614a2f89828a0161474c565b92505060a0614a4089828a01614342565b9150509295509295509295565b60008060408385031215614a6057600080fd5b6000614a6e85828601614776565b9250506020614a7f85828601614776565b9150509250929050565b600080600060608486031215614a9e57600080fd5b6000614aac86828701614776565b9350506020614abd86828701614776565b9250506040614ace86828701614342565b9150509250925092565b60008060008060008060c08789031215614af157600080fd5b6000614aff89828a01614776565b9650506020614b1089828a01614776565b9550506040614b2189828a01614342565b9450506060614b3289828a01614776565b9350506080614b4389828a01614776565b92505060a0614b5489828a016143c0565b9150509295509295509295565b600080600060608486031215614b7657600080fd5b6000614b8486828701614776565b9350506020614b9586828701614776565b9250506040614ba686828701614396565b9150509250925092565b600080600080600080600080610100898b031215614bcd57600080fd5b6000614bdb8b828c01614776565b9850506020614bec8b828c01614776565b9750506040614bfd8b828c0161474c565b9650506060614c0e8b828c0161474c565b9550506080614c1f8b828c01614776565b94505060a0614c308b828c0161474c565b93505060c0614c418b828c01614342565b92505060e0614c528b828c016143ea565b9150509295985092959890939650565b600080600060608486031215614c7757600080fd5b6000614c8586828701614776565b9350506020614c9686828701614776565b9250506040614ca786828701614776565b9150509250925092565b6000614cbd8383615296565b60208301905092915050565b614cd281615b52565b82525050565b614ce181615b52565b82525050565b6000614cf2826159e2565b614cfc8185615a10565b9350614d07836159d2565b8060005b83811015614d38578151614d1f8882614cb1565b9750614d2a83615a03565b925050600181019050614d0b565b5085935050505092915050565b614d4e81615b64565b82525050565b614d5d81615b64565b82525050565b6000614d6e826159ed565b614d788185615a21565b9350614d88818560208601615c17565b80840191505092915050565b614d9d81615be1565b82525050565b614dac81615be1565b82525050565b614dbb81615bf3565b82525050565b614dca81615bf3565b82525050565b614dd981615c05565b82525050565b614de881615c05565b82525050565b6000614df9826159f8565b614e038185615a2c565b9350614e13818560208601615c17565b614e1c81615d80565b840191505092915050565b6000614e34602283615a2c565b9150614e3f82615d91565b604082019050919050565b6000614e57602683615a2c565b9150614e6282615de0565b604082019050919050565b6000614e7a602383615a2c565b9150614e8582615e2f565b604082019050919050565b6000614e9d602183615a2c565b9150614ea882615e7e565b604082019050919050565b6000614ec0602383615a2c565b9150614ecb82615ecd565b604082019050919050565b6000614ee3601f83615a2c565b9150614eee82615f1c565b602082019050919050565b6000614f06602383615a2c565b9150614f1182615f45565b604082019050919050565b6000614f29602683615a2c565b9150614f3482615f94565b604082019050919050565b6000614f4c602283615a2c565b9150614f5782615fe3565b604082019050919050565b6000614f6f602283615a2c565b9150614f7a82616032565b604082019050919050565b6000614f92602883615a2c565b9150614f9d82616081565b604082019050919050565b6000614fb5602083615a2c565b9150614fc0826160d0565b602082019050919050565b6000614fd8602383615a2c565b9150614fe3826160f9565b604082019050919050565b6000614ffb601b83615a2c565b915061500682616148565b602082019050919050565b600061501e601d83615a2c565b915061502982616171565b602082019050919050565b6000615041602083615a2c565b915061504c8261619a565b602082019050919050565b6000615064601483615a2c565b915061506f826161c3565b602082019050919050565b6000615087601f83615a2c565b9150615092826161ec565b602082019050919050565b60006150aa601e83615a2c565b91506150b582616215565b602082019050919050565b60006150cd602a83615a2c565b91506150d88261623e565b604082019050919050565b60006150f0602583615a2c565b91506150fb8261628d565b604082019050919050565b60c08201600082015161511c6000850182615296565b50602082015161512f6020850182614cc9565b5060408201516151426040850182615296565b5060608201516151556060850182615296565b5060808201516151686080850182614db2565b5060a082015161517b60a0850182614d45565b50505050565b6080820160008201516151976000850182615296565b5060208201516151aa6020850182615296565b5060408201516151bd6040850182614d94565b5060608201516151d06060850182614d45565b50505050565b610100820160008201516151ed6000850182615296565b5060208201516152006020850182615278565b5060408201516152136040850182615278565b5060608201516152266060850182615296565b5060808201516152396080850182615278565b5060a082015161524c60a0850182614cc9565b5060c082015161525f60c0850182614dd0565b5060e082015161527260e0850182614d45565b50505050565b61528181615ba9565b82525050565b61529081615ba9565b82525050565b61529f81615bd7565b82525050565b6152ae81615bd7565b82525050565b60006152c08284614d63565b915081905092915050565b60006020820190506152e06000830184614cd8565b92915050565b60006060820190506152fb6000830186614cd8565b6153086020830185614cd8565b61531560408301846152a5565b949350505050565b60006040820190506153326000830185614cd8565b61533f60208301846152a5565b9392505050565b600060208201905081810360008301526153608184614ce7565b905092915050565b600060208201905061537d6000830184614d54565b92915050565b6000602082019050818103600083015261539d8184614dee565b905092915050565b600060208201905081810360008301526153be81614e27565b9050919050565b600060208201905081810360008301526153de81614e4a565b9050919050565b600060208201905081810360008301526153fe81614e6d565b9050919050565b6000602082019050818103600083015261541e81614e90565b9050919050565b6000602082019050818103600083015261543e81614eb3565b9050919050565b6000602082019050818103600083015261545e81614ed6565b9050919050565b6000602082019050818103600083015261547e81614ef9565b9050919050565b6000602082019050818103600083015261549e81614f1c565b9050919050565b600060208201905081810360008301526154be81614f3f565b9050919050565b600060208201905081810360008301526154de81614f62565b9050919050565b600060208201905081810360008301526154fe81614f85565b9050919050565b6000602082019050818103600083015261551e81614fa8565b9050919050565b6000602082019050818103600083015261553e81614fcb565b9050919050565b6000602082019050818103600083015261555e81614fee565b9050919050565b6000602082019050818103600083015261557e81615011565b9050919050565b6000602082019050818103600083015261559e81615034565b9050919050565b600060208201905081810360008301526155be81615057565b9050919050565b600060208201905081810360008301526155de8161507a565b9050919050565b600060208201905081810360008301526155fe8161509d565b9050919050565b6000602082019050818103600083015261561e816150c0565b9050919050565b6000602082019050818103600083015261563e816150e3565b9050919050565b600060c08201905061565a6000830184615106565b92915050565b60006080820190506156756000830184615181565b92915050565b60006101008201905061569160008301846151d6565b92915050565b60006020820190506156ac60008301846152a5565b92915050565b60006060820190506156c760008301866152a5565b6156d46020830185614cd8565b6156e160408301846152a5565b949350505050565b600060c0820190506156fe60008301896152a5565b61570b6020830188614cd8565b61571860408301876152a5565b61572560608301866152a5565b6157326080830185614dc1565b61573f60a0830184614d54565b979650505050505050565b600060c08201905061575f60008301896152a5565b61576c6020830188615287565b6157796040830187615287565b61578660608301866152a5565b6157936080830185615287565b6157a060a0830184614cd8565b979650505050505050565b6000610100820190506157c1600083018b6152a5565b6157ce602083018a615287565b6157db6040830189615287565b6157e860608301886152a5565b6157f56080830187615287565b61580260a0830186614cd8565b61580f60c0830185614ddf565b61581c60e0830184614d54565b9998505050505050505050565b600060408201905061583e60008301856152a5565b61584b60208301846152a5565b9392505050565b600060c08201905061586760008301896152a5565b61587460208301886152a5565b6158816040830187614cd8565b61588e60608301866152a5565b61589b60808301856152a5565b6158a860a0830184614dc1565b979650505050505050565b60006060820190506158c860008301866152a5565b6158d560208301856152a5565b6158e26040830184614da3565b949350505050565b60006080820190506158ff60008301876152a5565b61590c60208301866152a5565b6159196040830185614da3565b6159266060830184614d54565b95945050505050565b600061010082019050615945600083018b6152a5565b615952602083018a6152a5565b61595f6040830189615287565b61596c6060830188615287565b61597960808301876152a5565b61598660a0830186615287565b61599360c0830185614cd8565b6159a060e0830184614ddf565b9998505050505050505050565b60006159b76159c8565b90506159c38282615c4a565b919050565b6000604051905090565b6000819050602082019050919050565b600081519050919050565b600081519050919050565b600081519050919050565b6000602082019050919050565b600082825260208201905092915050565b600081905092915050565b600082825260208201905092915050565b6000615a4882615bd7565b9150615a5383615bd7565b9250827fffffffffffffffffffffffffffffffffffffffffffffffffffffffffffffffff03821115615a8857615a87615cc4565b5b828201905092915050565b6000615a9e82615bd7565b9150615aa983615bd7565b925082615ab957615ab8615cf3565b5b828204905092915050565b6000615acf82615bd7565b9150615ada83615bd7565b9250817fffffffffffffffffffffffffffffffffffffffffffffffffffffffffffffffff0483118215151615615b1357615b12615cc4565b5b828202905092915050565b6000615b2982615bd7565b9150615b3483615bd7565b925082821015615b4757615b46615cc4565b5b828203905092915050565b6000615b5d82615bb7565b9050919050565b60008115159050919050565b6000819050615b7e826162dc565b919050565b6000819050615b91826162f0565b919050565b6000819050615ba482616304565b919050565b600061ffff82169050919050565b600073ffffffffffffffffffffffffffffffffffffffff82169050919050565b6000819050919050565b6000615bec82615b70565b9050919050565b6000615bfe82615b83565b9050919050565b6000615c1082615b96565b9050919050565b60005b83811015615c35578082015181840152602081019050615c1a565b83811115615c44576000848401525b50505050565b615c5382615d80565b810181811067ffffffffffffffff82111715615c7257615c71615d51565b5b80604052505050565b6000615c8682615bd7565b91507fffffffffffffffffffffffffffffffffffffffffffffffffffffffffffffffff821415615cb957615cb8615cc4565b5b600182019050919050565b7f4e487b7100000000000000000000000000000000000000000000000000000000600052601160045260246000fd5b7f4e487b7100000000000000000000000000000000000000000000000000000000600052601260045260246000fd5b7f4e487b7100000000000000000000000000000000000000000000000000000000600052602160045260246000fd5b7f4e487b7100000000000000000000000000000000000000000000000000000000600052604160045260246000fd5b6000601f19601f8301169050919050565b7f506f6f6c2e72657061794c6f616e46756c6c3a20496e76616c696420696e707560008201527f7421000000000000000000000000000000000000000000000000000000000000602082015250565b7f4f776e61626c653a206e6577206f776e657220697320746865207a65726f206160008201527f6464726573730000000000000000000000000000000000000000000000000000602082015250565b7f506f6f6c2e72657061794c6f616e46756c6c3a20496e76616c696420616d6f7560008201527f6e74210000000000000000000000000000000000000000000000000000000000602082015250565b7f506f6f6c2e637265617465506f6f6c3a20496e76616c6964206164647265737360008201527f2100000000000000000000000000000000000000000000000000000000000000602082015250565b7f506f6f6c2e72657061794c6f616e506172743a20496e76616c696420616d6f7560008201527f6e74210000000000000000000000000000000000000000000000000000000000602082015250565b7f6765744c6f616e4279506f6f6c49443a204e6f2073756368207265636f726400600082015250565b7f676574436f756e744c6f616e73496e506f6f6c3a204e6f20737563682072656360008201527f6f72640000000000000000000000000000000000000000000000000000000000602082015250565b7f416464726573733a20696e73756666696369656e742062616c616e636520666f60008201527f722063616c6c0000000000000000000000000000000000000000000000000000602082015250565b7f506f6f6c2e72657061794c6f616e506172743a20496e76616c696420696e707560008201527f7421000000000000000000000000000000000000000000000000000000000000602082015250565b7f506f6f6c2e67657456616c6964506f6f6c733a20496e76616c696420696e707560008201527f7421000000000000000000000000000000000000000000000000000000000000602082015250565b7f6765744c6f616e52657061796d656e7442794c6f616e49443a204e6f2073756360008201527f68207265636f7264000000000000000000000000000000000000000000000000602082015250565b7f4f776e61626c653a2063616c6c6572206973206e6f7420746865206f776e6572600082015250565b7f506f6f6c2e726571756573744c6f616e3a20496e76616c696420626f72726f7760008201527f6572210000000000000000000000000000000000000000000000000000000000602082015250565b7f676574506f6f6c427949443a204e6f2073756368207265636f72640000000000600082015250565b7f416464726573733a2063616c6c20746f206e6f6e2d636f6e7472616374000000600082015250565b7f506f6f6c2e726571756573744c6f616e3a20496e76616c696420696e70757421600082015250565b7f506f6f6c3a20496e76616c696420696e70757421000000000000000000000000600082015250565b7f506f6f6c2e637265617465506f6f6c3a20496e76616c696420496e7075742100600082015250565b7f506f6f6c2e66756e64506f6f6c3a20506f6f6c20697320636c6f736564210000600082015250565b7f5361666545524332303a204552433230206f7065726174696f6e20646964206e60008201527f6f74207375636365656400000000000000000000000000000000000000000000602082015250565b7f506f6f6c2e726571756573744c6f616e3a20506f6f6c2073746174757320636c60008201527f6f73656421000000000000000000000000000000000000000000000000000000602082015250565b600281106162ed576162ec615d22565b5b50565b6002811061630157616300615d22565b5b50565b6002811061631557616314615d22565b5b50565b61632181615b52565b811461632c57600080fd5b50565b61633881615b64565b811461634357600080fd5b50565b6002811061635357600080fd5b50565b6002811061636357600080fd5b50565b6002811061637357600080fd5b50565b61637f81615ba9565b811461638a57600080fd5b50565b61639681615bd7565b81146163a157600080fd5b5056fea26469706673582212204291cedc13a7772920ab526506daa33b5bfafb6ea63bdfdab24926d60371edb264736f6c63430008010033",
  "linkReferences": {},
  "deployedLinkReferences": {}
}