{
  "_format": "hh-sol-artifact-1",
  "contractName": "PoolRegistry",
  "sourceName": "contracts/PoolRegistry.sol",
  "abi": [
    {
      "inputs": [
        {
          "internalType": "address",
          "name": "_lendingTokenAddress",
          "type": "address"
        },
        {
          "internalType": "address",
          "name": "_PoolRegistryStoreAddress",
          "type": "address"
        }
      ],
      "stateMutability": "nonpayable",
      "type": "constructor"
    },
    {
      "anonymous": false,
      "inputs": [
        {
          "indexed": true,
          "internalType": "uint256",
          "name": "purchaseId",
          "type": "uint256"
        },
        {
          "indexed": true,
          "internalType": "uint256",
          "name": "liquidationId",
          "type": "uint256"
        },
        {
          "indexed": false,
          "internalType": "address",
          "name": "newOwner",
          "type": "address"
        }
      ],
      "name": "CompleteLiquidation",
      "type": "event"
    },
    {
      "anonymous": false,
      "inputs": [
        {
          "indexed": false,
          "internalType": "address",
          "name": "oldValue",
          "type": "address"
        },
        {
          "indexed": false,
          "internalType": "address",
          "name": "newValue",
          "type": "address"
        }
      ],
      "name": "LendingPoolAddressUpdated",
      "type": "event"
    },
    {
      "anonymous": false,
      "inputs": [
        {
          "indexed": true,
          "internalType": "uint256",
          "name": "loanId",
          "type": "uint256"
        },
        {
          "indexed": true,
          "internalType": "address",
          "name": "borrower",
          "type": "address"
        },
        {
          "indexed": false,
          "internalType": "uint256",
          "name": "principal",
          "type": "uint256"
        }
      ],
      "name": "LoanCreated",
      "type": "event"
    },
    {
      "anonymous": false,
      "inputs": [
        {
          "indexed": true,
          "internalType": "uint256",
          "name": "loanRepaymentId",
          "type": "uint256"
        },
        {
          "indexed": true,
          "internalType": "uint256",
          "name": "loanId",
          "type": "uint256"
        },
        {
          "indexed": false,
          "internalType": "uint256",
          "name": "amount",
          "type": "uint256"
        },
        {
          "indexed": false,
          "internalType": "enum Schema.LoanRepaymentType",
          "name": "",
          "type": "uint8"
        }
      ],
      "name": "LoanRepaid",
      "type": "event"
    },
    {
      "anonymous": false,
      "inputs": [
        {
          "indexed": true,
          "internalType": "uint256",
          "name": "purchaseId",
          "type": "uint256"
        },
        {
          "indexed": false,
          "internalType": "address",
          "name": "claimer",
          "type": "address"
        }
      ],
      "name": "NFTClaimed",
      "type": "event"
    },
    {
      "anonymous": false,
      "inputs": [
        {
          "indexed": true,
          "internalType": "address",
          "name": "previousOwner",
          "type": "address"
        },
        {
          "indexed": true,
          "internalType": "address",
          "name": "newOwner",
          "type": "address"
        }
      ],
      "name": "OwnershipTransferred",
      "type": "event"
    },
    {
      "anonymous": false,
      "inputs": [
        {
          "indexed": false,
          "internalType": "address",
          "name": "oldValue",
          "type": "address"
        },
        {
          "indexed": false,
          "internalType": "address",
          "name": "newValue",
          "type": "address"
        }
      ],
      "name": "PaymentTokenAddressUpdated",
      "type": "event"
    },
    {
      "anonymous": false,
      "inputs": [
        {
          "indexed": true,
          "internalType": "uint256",
          "name": "poolId",
          "type": "uint256"
        },
        {
          "indexed": false,
          "internalType": "uint256",
          "name": "amountWithdrawn",
          "type": "uint256"
        }
      ],
      "name": "PoolClosed",
      "type": "event"
    },
    {
      "anonymous": false,
      "inputs": [
        {
          "indexed": true,
          "internalType": "uint256",
          "name": "poolId",
          "type": "uint256"
        },
        {
          "indexed": true,
          "internalType": "address",
          "name": "creator",
          "type": "address"
        }
      ],
      "name": "PoolCreated",
      "type": "event"
    },
    {
      "anonymous": false,
      "inputs": [
        {
          "indexed": true,
          "internalType": "uint256",
          "name": "poolId",
          "type": "uint256"
        },
        {
          "indexed": false,
          "internalType": "uint256",
          "name": "amount",
          "type": "uint256"
        }
      ],
      "name": "PoolFunded",
      "type": "event"
    },
    {
      "anonymous": false,
      "inputs": [],
      "name": "PoolRegistryContractDeployed",
      "type": "event"
    },
    {
      "anonymous": false,
      "inputs": [
        {
          "indexed": true,
          "internalType": "uint256",
          "name": "purchaseId",
          "type": "uint256"
        }
      ],
      "name": "PurchaseCompleted",
      "type": "event"
    },
    {
      "anonymous": false,
      "inputs": [
        {
          "indexed": true,
          "internalType": "address",
          "name": "userAddress",
          "type": "address"
        },
        {
          "indexed": true,
          "internalType": "uint256",
          "name": "poolId",
          "type": "uint256"
        },
        {
          "indexed": false,
          "internalType": "uint256",
          "name": "loanId",
          "type": "uint256"
        },
        {
          "indexed": true,
          "internalType": "uint256",
          "name": "purchaseId",
          "type": "uint256"
        },
        {
          "indexed": false,
          "internalType": "uint256",
          "name": "tokenId",
          "type": "uint256"
        },
        {
          "indexed": false,
          "internalType": "address",
          "name": "tokenAddress",
          "type": "address"
        },
        {
          "indexed": false,
          "internalType": "uint256",
          "name": "downPayment",
          "type": "uint256"
        },
        {
          "indexed": false,
          "internalType": "uint256",
          "name": "principal",
          "type": "uint256"
        },
        {
          "indexed": false,
          "internalType": "uint256",
          "name": "apr",
          "type": "uint256"
        },
        {
          "indexed": false,
          "internalType": "uint256",
          "name": "duration",
          "type": "uint256"
        },
        {
          "indexed": false,
          "internalType": "uint16",
          "name": "downPaymentPercentage",
          "type": "uint16"
        }
      ],
      "name": "PurchaseCreated",
      "type": "event"
    },
    {
      "anonymous": false,
      "inputs": [
        {
          "indexed": false,
          "internalType": "address",
          "name": "paymentTokenAddress",
          "type": "address"
        },
        {
          "indexed": false,
          "internalType": "address",
          "name": "lendingPoolAddress",
          "type": "address"
        }
      ],
      "name": "QredosContractDeployed",
      "type": "event"
    },
    {
      "anonymous": false,
      "inputs": [
        {
          "indexed": true,
          "internalType": "uint256",
          "name": "purchaseId",
          "type": "uint256"
        },
        {
          "indexed": false,
          "internalType": "address",
          "name": "borrowerAddress",
          "type": "address"
        },
        {
          "indexed": false,
          "internalType": "uint256",
          "name": "refundAmount",
          "type": "uint256"
        }
      ],
      "name": "RefundBorrower",
      "type": "event"
    },
    {
      "anonymous": false,
      "inputs": [
        {
          "indexed": true,
          "internalType": "uint256",
          "name": "purchaseId",
          "type": "uint256"
        },
        {
          "indexed": false,
          "internalType": "uint256",
          "name": "discountAmount",
          "type": "uint256"
        },
        {
          "indexed": true,
          "internalType": "uint256",
          "name": "liquidationId",
          "type": "uint256"
        }
      ],
      "name": "StartLiquidation",
      "type": "event"
    },
    {
      "inputs": [],
      "name": "DEFAULT_FEE_PERCENT",
      "outputs": [
        {
          "internalType": "uint256",
          "name": "",
          "type": "uint256"
        }
      ],
      "stateMutability": "view",
      "type": "function"
    },
    {
      "inputs": [
        {
          "internalType": "uint256",
          "name": "",
          "type": "uint256"
        },
        {
          "internalType": "uint256",
          "name": "",
          "type": "uint256"
        }
      ],
      "name": "LoanRepayment",
      "outputs": [
        {
          "internalType": "uint256",
          "name": "loanId",
          "type": "uint256"
        },
        {
          "internalType": "uint256",
          "name": "amount",
          "type": "uint256"
        },
        {
          "internalType": "enum Schema.LoanRepaymentType",
          "name": "RepaymentType",
          "type": "uint8"
        },
        {
          "internalType": "bool",
          "name": "isExists",
          "type": "bool"
        }
      ],
      "stateMutability": "view",
      "type": "function"
    },
    {
      "inputs": [
        {
          "internalType": "uint256",
          "name": "",
          "type": "uint256"
        },
        {
          "internalType": "uint256",
          "name": "",
          "type": "uint256"
        }
      ],
      "name": "Loans",
      "outputs": [
        {
          "internalType": "uint256",
          "name": "poolId",
          "type": "uint256"
        },
        {
          "internalType": "address",
          "name": "borrower",
          "type": "address"
        },
        {
          "internalType": "uint256",
          "name": "principal",
          "type": "uint256"
        },
        {
          "internalType": "uint256",
          "name": "createdAtTimestamp",
          "type": "uint256"
        },
        {
          "internalType": "enum Schema.LoanStatus",
          "name": "status",
          "type": "uint8"
        },
        {
          "internalType": "bool",
          "name": "isExists",
          "type": "bool"
        }
      ],
      "stateMutability": "view",
      "type": "function"
    },
    {
      "inputs": [
        {
          "internalType": "uint256",
          "name": "",
          "type": "uint256"
        }
      ],
      "name": "Pools",
      "outputs": [
        {
          "internalType": "uint256",
          "name": "amount",
          "type": "uint256"
        },
        {
          "internalType": "uint16",
          "name": "paymentCycle",
          "type": "uint16"
        },
        {
          "internalType": "uint16",
          "name": "APR",
          "type": "uint16"
        },
        {
          "internalType": "uint256",
          "name": "durationInSecs",
          "type": "uint256"
        },
        {
          "internalType": "uint16",
          "name": "durationInMonths",
          "type": "uint16"
        },
        {
          "internalType": "address",
          "name": "creator",
          "type": "address"
        },
        {
          "internalType": "enum Schema.PoolStatus",
          "name": "status",
          "type": "uint8"
        },
        {
          "internalType": "bool",
          "name": "isExists",
          "type": "bool"
        }
      ],
      "stateMutability": "view",
      "type": "function"
    },
    {
      "inputs": [
        {
          "internalType": "uint256",
          "name": "loanId",
          "type": "uint256"
        },
        {
          "internalType": "uint256",
          "name": "poolId",
          "type": "uint256"
        }
      ],
      "name": "_calcLoanFullPayment",
      "outputs": [
        {
          "internalType": "uint256",
          "name": "",
          "type": "uint256"
        }
      ],
      "stateMutability": "view",
      "type": "function"
    },
    {
      "inputs": [
        {
          "internalType": "uint256",
          "name": "loanId",
          "type": "uint256"
        },
        {
          "internalType": "uint256",
          "name": "poolId",
          "type": "uint256"
        }
      ],
      "name": "_calcLoanPartPayment",
      "outputs": [
        {
          "internalType": "uint256",
          "name": "",
          "type": "uint256"
        }
      ],
      "stateMutability": "view",
      "type": "function"
    },
    {
      "inputs": [
        {
          "internalType": "address",
          "name": "borrowerAddress",
          "type": "address"
        },
        {
          "internalType": "uint256",
          "name": "amount",
          "type": "uint256"
        }
      ],
      "name": "_completeRefundBorrower",
      "outputs": [],
      "stateMutability": "nonpayable",
      "type": "function"
    },
    {
      "inputs": [
        {
          "internalType": "uint256",
          "name": "poolId",
          "type": "uint256"
        },
        {
          "internalType": "address",
          "name": "borrowerAddress",
          "type": "address"
        },
        {
          "internalType": "uint256",
          "name": "principal",
          "type": "uint256"
        }
      ],
      "name": "_createLoan",
      "outputs": [
        {
          "internalType": "uint256",
          "name": "",
          "type": "uint256"
        }
      ],
      "stateMutability": "nonpayable",
      "type": "function"
    },
    {
      "inputs": [
        {
          "internalType": "uint256",
          "name": "loanId",
          "type": "uint256"
        },
        {
          "internalType": "uint256",
          "name": "amount",
          "type": "uint256"
        },
        {
          "internalType": "enum Schema.LoanRepaymentType",
          "name": "repaymentType",
          "type": "uint8"
        }
      ],
      "name": "_createLoanRepayment",
      "outputs": [
        {
          "internalType": "uint256",
          "name": "",
          "type": "uint256"
        }
      ],
      "stateMutability": "nonpayable",
      "type": "function"
    },
    {
      "inputs": [
        {
          "internalType": "uint256",
          "name": "_amount",
          "type": "uint256"
        },
        {
          "internalType": "uint16",
          "name": "_paymentCycle",
          "type": "uint16"
        },
        {
          "internalType": "uint16",
          "name": "_APR",
          "type": "uint16"
        },
        {
          "internalType": "uint256",
          "name": "_durationInSecs",
          "type": "uint256"
        },
        {
          "internalType": "uint16",
          "name": "_durationInMonths",
          "type": "uint16"
        },
        {
          "internalType": "address",
          "name": "_creator",
          "type": "address"
        }
      ],
      "name": "_createPool",
      "outputs": [
        {
          "internalType": "uint256",
          "name": "",
          "type": "uint256"
        }
      ],
      "stateMutability": "nonpayable",
      "type": "function"
    },
    {
      "inputs": [
        {
          "internalType": "uint256",
          "name": "loanId",
          "type": "uint256"
        },
        {
          "internalType": "uint256",
          "name": "loanRepaymentiD",
          "type": "uint256"
        }
      ],
      "name": "_getLoanRepaymentByLoanID",
      "outputs": [
        {
          "components": [
            {
              "internalType": "uint256",
              "name": "loanId",
              "type": "uint256"
            },
            {
              "internalType": "uint256",
              "name": "amount",
              "type": "uint256"
            },
            {
              "internalType": "enum Schema.LoanRepaymentType",
              "name": "RepaymentType",
              "type": "uint8"
            },
            {
              "internalType": "bool",
              "name": "isExists",
              "type": "bool"
            }
          ],
          "internalType": "struct Schema.LoanRepaymentDetails",
          "name": "",
          "type": "tuple"
        }
      ],
      "stateMutability": "view",
      "type": "function"
    },
    {
      "inputs": [
        {
          "internalType": "uint256",
          "name": "poolId",
          "type": "uint256"
        }
      ],
      "name": "_getPoolBalance",
      "outputs": [
        {
          "internalType": "uint256",
          "name": "",
          "type": "uint256"
        }
      ],
      "stateMutability": "view",
      "type": "function"
    },
    {
      "inputs": [
        {
          "internalType": "uint256",
          "name": "poolId",
          "type": "uint256"
        }
      ],
      "name": "_getPoolBalanceWithInterest",
      "outputs": [
        {
          "internalType": "uint256",
          "name": "",
          "type": "uint256"
        }
      ],
      "stateMutability": "view",
      "type": "function"
    },
    {
      "inputs": [
        {
          "internalType": "uint256",
          "name": "loanId",
          "type": "uint256"
        },
        {
          "internalType": "uint256",
          "name": "poolId",
          "type": "uint256"
        }
      ],
      "name": "_isLoanInDefault",
      "outputs": [
        {
          "internalType": "bool",
          "name": "",
          "type": "bool"
        }
      ],
      "stateMutability": "view",
      "type": "function"
    },
    {
      "inputs": [
        {
          "components": [
            {
              "internalType": "uint256",
              "name": "poolId",
              "type": "uint256"
            },
            {
              "internalType": "address",
              "name": "borrower",
              "type": "address"
            },
            {
              "internalType": "uint256",
              "name": "principal",
              "type": "uint256"
            },
            {
              "internalType": "uint256",
              "name": "createdAtTimestamp",
              "type": "uint256"
            },
            {
              "internalType": "enum Schema.LoanStatus",
              "name": "status",
              "type": "uint8"
            },
            {
              "internalType": "bool",
              "name": "isExists",
              "type": "bool"
            }
          ],
          "internalType": "struct Schema.LoanDetails",
          "name": "Loan",
          "type": "tuple"
        },
        {
          "components": [
            {
              "internalType": "uint256",
              "name": "amount",
              "type": "uint256"
            },
            {
              "internalType": "uint16",
              "name": "paymentCycle",
              "type": "uint16"
            },
            {
              "internalType": "uint16",
              "name": "APR",
              "type": "uint16"
            },
            {
              "internalType": "uint256",
              "name": "durationInSecs",
              "type": "uint256"
            },
            {
              "internalType": "uint16",
              "name": "durationInMonths",
              "type": "uint16"
            },
            {
              "internalType": "address",
              "name": "creator",
              "type": "address"
            },
            {
              "internalType": "enum Schema.PoolStatus",
              "name": "status",
              "type": "uint8"
            },
            {
              "internalType": "bool",
              "name": "isExists",
              "type": "bool"
            }
          ],
          "internalType": "struct Schema.PoolDetails",
          "name": "Pool",
          "type": "tuple"
        }
      ],
      "name": "_partPaymentWithDefault",
      "outputs": [
        {
          "internalType": "uint256",
          "name": "",
          "type": "uint256"
        }
      ],
      "stateMutability": "pure",
      "type": "function"
    },
    {
      "inputs": [
        {
          "components": [
            {
              "internalType": "uint256",
              "name": "poolId",
              "type": "uint256"
            },
            {
              "internalType": "address",
              "name": "borrower",
              "type": "address"
            },
            {
              "internalType": "uint256",
              "name": "principal",
              "type": "uint256"
            },
            {
              "internalType": "uint256",
              "name": "createdAtTimestamp",
              "type": "uint256"
            },
            {
              "internalType": "enum Schema.LoanStatus",
              "name": "status",
              "type": "uint8"
            },
            {
              "internalType": "bool",
              "name": "isExists",
              "type": "bool"
            }
          ],
          "internalType": "struct Schema.LoanDetails",
          "name": "Loan",
          "type": "tuple"
        },
        {
          "components": [
            {
              "internalType": "uint256",
              "name": "amount",
              "type": "uint256"
            },
            {
              "internalType": "uint16",
              "name": "paymentCycle",
              "type": "uint16"
            },
            {
              "internalType": "uint16",
              "name": "APR",
              "type": "uint16"
            },
            {
              "internalType": "uint256",
              "name": "durationInSecs",
              "type": "uint256"
            },
            {
              "internalType": "uint16",
              "name": "durationInMonths",
              "type": "uint16"
            },
            {
              "internalType": "address",
              "name": "creator",
              "type": "address"
            },
            {
              "internalType": "enum Schema.PoolStatus",
              "name": "status",
              "type": "uint8"
            },
            {
              "internalType": "bool",
              "name": "isExists",
              "type": "bool"
            }
          ],
          "internalType": "struct Schema.PoolDetails",
          "name": "Pool",
          "type": "tuple"
        }
      ],
      "name": "_partPaymentWithoutDefault",
      "outputs": [
        {
          "internalType": "uint256",
          "name": "",
          "type": "uint256"
        }
      ],
      "stateMutability": "pure",
      "type": "function"
    },
    {
      "inputs": [
        {
          "internalType": "uint256",
          "name": "loanId",
          "type": "uint256"
        },
        {
          "internalType": "uint256",
          "name": "poolId",
          "type": "uint256"
        },
        {
          "internalType": "address",
          "name": "borrowerAddress",
          "type": "address"
        },
        {
          "internalType": "uint256",
          "name": "principal",
          "type": "uint256"
        },
        {
          "internalType": "uint256",
          "name": "createdAtTimestamp",
          "type": "uint256"
        },
        {
          "internalType": "enum Schema.LoanStatus",
          "name": "status",
          "type": "uint8"
        }
      ],
      "name": "_updateLoan",
      "outputs": [],
      "stateMutability": "nonpayable",
      "type": "function"
    },
    {
      "inputs": [
        {
          "internalType": "uint256",
          "name": "poolId",
          "type": "uint256"
        },
        {
          "internalType": "uint256",
          "name": "_amount",
          "type": "uint256"
        },
        {
          "internalType": "uint16",
          "name": "_paymentCycle",
          "type": "uint16"
        },
        {
          "internalType": "uint16",
          "name": "_APR",
          "type": "uint16"
        },
        {
          "internalType": "uint256",
          "name": "_durationInSecs",
          "type": "uint256"
        },
        {
          "internalType": "uint16",
          "name": "_durationInMonths",
          "type": "uint16"
        },
        {
          "internalType": "address",
          "name": "_creator",
          "type": "address"
        },
        {
          "internalType": "enum Schema.PoolStatus",
          "name": "status",
          "type": "uint8"
        }
      ],
      "name": "_updatePool",
      "outputs": [],
      "stateMutability": "nonpayable",
      "type": "function"
    },
    {
      "inputs": [
        {
          "internalType": "uint256",
          "name": "poolId",
          "type": "uint256"
        },
        {
          "internalType": "address",
          "name": "reciever",
          "type": "address"
        }
      ],
      "name": "closePool",
      "outputs": [],
      "stateMutability": "nonpayable",
      "type": "function"
    },
    {
      "inputs": [
        {
          "internalType": "uint256",
          "name": "",
          "type": "uint256"
        }
      ],
      "name": "countLoanRepaymentsForLoan",
      "outputs": [
        {
          "internalType": "uint256",
          "name": "",
          "type": "uint256"
        }
      ],
      "stateMutability": "view",
      "type": "function"
    },
    {
      "inputs": [
        {
          "internalType": "uint256",
          "name": "",
          "type": "uint256"
        }
      ],
      "name": "countLoansInPool",
      "outputs": [
        {
          "internalType": "uint256",
          "name": "",
          "type": "uint256"
        }
      ],
      "stateMutability": "view",
      "type": "function"
    },
    {
      "inputs": [
        {
          "internalType": "uint256",
          "name": "_amount",
          "type": "uint256"
        },
        {
          "internalType": "uint16",
          "name": "_paymentCycle",
          "type": "uint16"
        },
        {
          "internalType": "uint16",
          "name": "_APR",
          "type": "uint16"
        },
        {
          "internalType": "uint256",
          "name": "_durationInSecs",
          "type": "uint256"
        },
        {
          "internalType": "uint16",
          "name": "_durationInMonths",
          "type": "uint16"
        },
        {
          "internalType": "address",
          "name": "_creator",
          "type": "address"
        }
      ],
      "name": "createPool",
      "outputs": [],
      "stateMutability": "nonpayable",
      "type": "function"
    },
    {
      "inputs": [
        {
          "internalType": "uint256",
          "name": "poolId",
          "type": "uint256"
        },
        {
          "internalType": "uint256",
          "name": "amount",
          "type": "uint256"
        }
      ],
      "name": "fundPool",
      "outputs": [],
      "stateMutability": "nonpayable",
      "type": "function"
    },
    {
      "inputs": [
        {
          "internalType": "uint256",
          "name": "poolId",
          "type": "uint256"
        }
      ],
      "name": "getCountLoansInPool",
      "outputs": [
        {
          "internalType": "uint256",
          "name": "",
          "type": "uint256"
        }
      ],
      "stateMutability": "view",
      "type": "function"
    },
    {
      "inputs": [
        {
          "internalType": "uint256",
          "name": "poolId",
          "type": "uint256"
        },
        {
          "internalType": "uint256",
          "name": "loanId",
          "type": "uint256"
        }
      ],
      "name": "getLoanByPoolID",
      "outputs": [
        {
          "components": [
            {
              "internalType": "uint256",
              "name": "poolId",
              "type": "uint256"
            },
            {
              "internalType": "address",
              "name": "borrower",
              "type": "address"
            },
            {
              "internalType": "uint256",
              "name": "principal",
              "type": "uint256"
            },
            {
              "internalType": "uint256",
              "name": "createdAtTimestamp",
              "type": "uint256"
            },
            {
              "internalType": "enum Schema.LoanStatus",
              "name": "status",
              "type": "uint8"
            },
            {
              "internalType": "bool",
              "name": "isExists",
              "type": "bool"
            }
          ],
          "internalType": "struct Schema.LoanDetails",
          "name": "",
          "type": "tuple"
        }
      ],
      "stateMutability": "view",
      "type": "function"
    },
    {
      "inputs": [
        {
          "internalType": "uint256",
          "name": "loanId",
          "type": "uint256"
        },
        {
          "internalType": "uint256",
          "name": "loanRepaymentiD",
          "type": "uint256"
        }
      ],
      "name": "getLoanRepaymentByLoanID",
      "outputs": [
        {
          "components": [
            {
              "internalType": "uint256",
              "name": "loanId",
              "type": "uint256"
            },
            {
              "internalType": "uint256",
              "name": "amount",
              "type": "uint256"
            },
            {
              "internalType": "enum Schema.LoanRepaymentType",
              "name": "RepaymentType",
              "type": "uint8"
            },
            {
              "internalType": "bool",
              "name": "isExists",
              "type": "bool"
            }
          ],
          "internalType": "struct Schema.LoanRepaymentDetails",
          "name": "",
          "type": "tuple"
        }
      ],
      "stateMutability": "view",
      "type": "function"
    },
    {
      "inputs": [
        {
          "internalType": "uint256",
          "name": "poolId",
          "type": "uint256"
        }
      ],
      "name": "getPoolByID",
      "outputs": [
        {
          "components": [
            {
              "internalType": "uint256",
              "name": "amount",
              "type": "uint256"
            },
            {
              "internalType": "uint16",
              "name": "paymentCycle",
              "type": "uint16"
            },
            {
              "internalType": "uint16",
              "name": "APR",
              "type": "uint16"
            },
            {
              "internalType": "uint256",
              "name": "durationInSecs",
              "type": "uint256"
            },
            {
              "internalType": "uint16",
              "name": "durationInMonths",
              "type": "uint16"
            },
            {
              "internalType": "address",
              "name": "creator",
              "type": "address"
            },
            {
              "internalType": "enum Schema.PoolStatus",
              "name": "status",
              "type": "uint8"
            },
            {
              "internalType": "bool",
              "name": "isExists",
              "type": "bool"
            }
          ],
          "internalType": "struct Schema.PoolDetails",
          "name": "",
          "type": "tuple"
        }
      ],
      "stateMutability": "view",
      "type": "function"
    },
    {
      "inputs": [
        {
          "internalType": "uint256",
          "name": "principal",
          "type": "uint256"
        }
      ],
      "name": "getValidPools",
      "outputs": [
        {
          "internalType": "uint256[]",
          "name": "",
          "type": "uint256[]"
        }
      ],
      "stateMutability": "view",
      "type": "function"
    },
    {
      "inputs": [],
      "name": "owner",
      "outputs": [
        {
          "internalType": "address",
          "name": "",
          "type": "address"
        }
      ],
      "stateMutability": "view",
      "type": "function"
    },
    {
      "inputs": [],
      "name": "poolRegistryStoreAddress",
      "outputs": [
        {
          "internalType": "address",
          "name": "",
          "type": "address"
        }
      ],
      "stateMutability": "view",
      "type": "function"
    },
    {
      "inputs": [],
      "name": "renounceOwnership",
      "outputs": [],
      "stateMutability": "nonpayable",
      "type": "function"
    },
    {
      "inputs": [
        {
          "internalType": "uint256",
          "name": "loanId",
          "type": "uint256"
        },
        {
          "internalType": "uint256",
          "name": "amount",
          "type": "uint256"
        },
        {
          "internalType": "uint256",
          "name": "poolId",
          "type": "uint256"
        }
      ],
      "name": "repayLoanFull",
      "outputs": [
        {
          "internalType": "uint256",
          "name": "",
          "type": "uint256"
        }
      ],
      "stateMutability": "nonpayable",
      "type": "function"
    },
    {
      "inputs": [
        {
          "internalType": "uint256",
          "name": "loanId",
          "type": "uint256"
        },
        {
          "internalType": "uint256",
          "name": "amount",
          "type": "uint256"
        },
        {
          "internalType": "uint256",
          "name": "poolId",
          "type": "uint256"
        }
      ],
      "name": "repayLoanPart",
      "outputs": [
        {
          "internalType": "uint256",
          "name": "",
          "type": "uint256"
        }
      ],
      "stateMutability": "nonpayable",
      "type": "function"
    },
    {
      "inputs": [
        {
          "internalType": "uint256",
          "name": "principal",
          "type": "uint256"
        },
        {
          "internalType": "uint256",
          "name": "poolId",
          "type": "uint256"
        },
        {
          "internalType": "address",
          "name": "borrower",
          "type": "address"
        }
      ],
      "name": "requestLoan",
      "outputs": [
        {
          "internalType": "uint256",
          "name": "",
          "type": "uint256"
        }
      ],
      "stateMutability": "nonpayable",
      "type": "function"
    },
    {
      "inputs": [],
      "name": "totalLoanRepayments",
      "outputs": [
        {
          "internalType": "uint256",
          "name": "",
          "type": "uint256"
        }
      ],
      "stateMutability": "view",
      "type": "function"
    },
    {
      "inputs": [],
      "name": "totalLoans",
      "outputs": [
        {
          "internalType": "uint256",
          "name": "",
          "type": "uint256"
        }
      ],
      "stateMutability": "view",
      "type": "function"
    },
    {
      "inputs": [],
      "name": "totalPools",
      "outputs": [
        {
          "internalType": "uint256",
          "name": "",
          "type": "uint256"
        }
      ],
      "stateMutability": "view",
      "type": "function"
    },
    {
      "inputs": [
        {
          "internalType": "address",
          "name": "newOwner",
          "type": "address"
        }
      ],
      "name": "transferOwnership",
      "outputs": [],
      "stateMutability": "nonpayable",
      "type": "function"
    }
  ],
  "bytecode": "0x60806040526000600255600060045560006007553480156200002057600080fd5b5060405162006677380380620066778339818101604052810190620000469190620001ff565b620000666200005a6200011c60201b60201c565b6200012460201b60201c565b81600960006101000a81548173ffffffffffffffffffffffffffffffffffffffff021916908373ffffffffffffffffffffffffffffffffffffffff16021790555080600a60006101000a81548173ffffffffffffffffffffffffffffffffffffffff021916908373ffffffffffffffffffffffffffffffffffffffff1602179055507fdacdd2b300585d4a3265b5609cc08d4dd0be3cfc564c607052b4dd44be2c6ec060405160405180910390a150506200028e565b600033905090565b60008060009054906101000a900473ffffffffffffffffffffffffffffffffffffffff169050816000806101000a81548173ffffffffffffffffffffffffffffffffffffffff021916908373ffffffffffffffffffffffffffffffffffffffff1602179055508173ffffffffffffffffffffffffffffffffffffffff168173ffffffffffffffffffffffffffffffffffffffff167f8be0079c531659141344cd1fd0a4f28419497f9722a3daafe3b4186f6b6457e060405160405180910390a35050565b600081519050620001f98162000274565b92915050565b600080604083850312156200021357600080fd5b60006200022385828601620001e8565b92505060206200023685828601620001e8565b9150509250929050565b60006200024d8262000254565b9050919050565b600073ffffffffffffffffffffffffffffffffffffffff82169050919050565b6200027f8162000240565b81146200028b57600080fd5b50565b6163d9806200029e6000396000f3fe608060405234801561001057600080fd5b50600436106102315760003560e01c80636cd5ffa81161013057806399f6bccb116100b8578063d060f5011161007c578063d060f50114610791578063d2236867146107c1578063d30f96cb146107df578063da2488cd1461080f578063f2fde38b1461082b57610231565b806399f6bccb146106d9578063ab3c7e5214610709578063b769c2a014610727578063c60bffc714610743578063cc952b571461077357610231565b8063817f203c116100ff578063817f203c146105fb57806386822b061461062b5780638747b4481461065b5780638c3a075f1461068b5780638da5cb5b146106bb57610231565b80636cd5ffa814610557578063715018a61461058757806373dfccca1461059157806374eb6e59146105c857610231565b8063341d8cd9116101be5780635055149c116101825780635055149c1461048f578063553c69b4146104bf5780635acd6fac146104db578063672e4d6e146104f75780636bac63721461052757610231565b8063341d8cd9146103b35780633951d2e9146103e35780633e2e5f3814610413578063413e167714610443578063468ac5771461045f57610231565b806316f56af31161020557806316f56af3146102fb578063193eded61461031757806322385ed4146103475780632658bad51461037757806329a16ac61461039557610231565b80625fffce14610236578063139d179f1461026657806314e088741461029657806316d7fc84146102c6575b600080fd5b610250600480360381019061024b91906148e6565b610847565b60405161025d9190615696565b60405180910390f35b610280600480360381019061027b91906148e6565b6108c7565b60405161028d9190615696565b60405180910390f35b6102b060048036038101906102ab91906148e6565b610b8a565b6040516102bd9190615345565b60405180910390f35b6102e060048036038101906102db9190614a4c565b610db4565b6040516102f2969594939291906156e8565b60405180910390f35b61031560048036038101906103109190614ad7565b610e37565b005b610331600480360381019061032c9190614a4c565b610fc7565b60405161033e919061565f565b60405180910390f35b610361600480360381019061035c9190614a88565b6110bc565b60405161036e9190615696565b60405180910390f35b61037f61143d565b60405161038c9190615696565b60405180910390f35b61039d611442565b6040516103aa9190615696565b60405180910390f35b6103cd60048036038101906103c89190614856565b611448565b6040516103da9190615696565b60405180910390f35b6103fd60048036038101906103f89190614856565b61149d565b60405161040a9190615696565b60405180910390f35b61042d60048036038101906104289190614974565b611525565b60405161043a9190615696565b60405180910390f35b61045d600480360381019061045891906147c8565b611715565b005b610479600480360381019061047491906149c3565b611766565b6040516104869190615696565b60405180910390f35b6104a960048036038101906104a491906148e6565b611983565b6040516104b6919061567a565b60405180910390f35b6104d960048036038101906104d491906149c3565b611b80565b005b6104f560048036038101906104f09190614a4c565b611e0b565b005b610511600480360381019061050c91906148e6565b61210b565b60405161051e9190615696565b60405180910390f35b610541600480360381019061053c9190614a4c565b612123565b60405161054e9190615644565b60405180910390f35b610571600480360381019061056c9190614a4c565b6122ec565b60405161057e9190615696565b60405180910390f35b61058f612485565b005b6105ab60048036038101906105a691906148e6565b612499565b6040516105bf9897969594939291906157aa565b60405180910390f35b6105e260048036038101906105dd9190614a4c565b612545565b6040516105f294939291906158e9565b60405180910390f35b61061560048036038101906106109190614a4c565b61259c565b6040516106229190615367565b60405180910390f35b61064560048036038101906106409190614b60565b6129a2565b6040516106529190615696565b60405180910390f35b610675600480360381019061067091906148e6565b612b2f565b6040516106829190615696565b60405180910390f35b6106a560048036038101906106a09190614a4c565b612b47565b6040516106b2919061565f565b60405180910390f35b6106c3612cb0565b6040516106d091906152ca565b60405180910390f35b6106f360048036038101906106ee9190614c61565b612cd9565b6040516107009190615696565b60405180910390f35b610711613143565b60405161071e9190615696565b60405180910390f35b610741600480360381019061073c9190614baf565b613149565b005b61075d60048036038101906107589190614c61565b613342565b60405161076a9190615696565b60405180910390f35b61077b61363b565b6040516107889190615696565b60405180910390f35b6107ab60048036038101906107a691906148e6565b613641565b6040516107b89190615696565b60405180910390f35b6107c9613893565b6040516107d691906152ca565b60405180910390f35b6107f960048036038101906107f49190614a4c565b6138b9565b6040516108069190615696565b60405180910390f35b61082960048036038101906108249190614938565b613a58565b005b6108456004803603810190610840919061479f565b613c24565b005b60006001600083815260200190815260200160002060030160179054906101000a900460ff166108ac576040517f08c379a00000000000000000000000000000000000000000000000000000000081526004016108a390615464565b60405180910390fd5b60056000838152602001908152602001600020549050919050565b600080600080600090505b6005600086815260200190815260200160002054811015610aba576000600a60009054906101000a900473ffffffffffffffffffffffffffffffffffffffff1673ffffffffffffffffffffffffffffffffffffffff16636bac637287846040518363ffffffff1660e01b815260040161094c929190615828565b60c06040518083038186803b15801561096457600080fd5b505afa158015610978573d6000803e3d6000fd5b505050506040513d601f19601f8201168201806040525081019061099c919061482d565b90508060400151846109ae9190615a3c565b935060005b6008600084815260200190815260200160002054811015610aa5576000600a60009054906101000a900473ffffffffffffffffffffffffffffffffffffffff1673ffffffffffffffffffffffffffffffffffffffff1663193eded685846040518363ffffffff1660e01b8152600401610a2d929190615828565b60806040518083038186803b158015610a4557600080fd5b505afa158015610a59573d6000803e3d6000fd5b505050506040513d601f19601f82011682018060405250810190610a7d9190614893565b9050806020015185610a8f9190615a3c565b9450508080610a9d90615c7a565b9150506109b3565b50508080610ab290615c7a565b9150506108d2565b508082600a60009054906101000a900473ffffffffffffffffffffffffffffffffffffffff1673ffffffffffffffffffffffffffffffffffffffff16635055149c876040518263ffffffff1660e01b8152600401610b189190615696565b6101006040518083038186803b158015610b3157600080fd5b505afa158015610b45573d6000803e3d6000fd5b505050506040513d601f19601f82011682018060405250810190610b6991906148bc565b60000151610b779190615b1d565b610b819190615a3c565b92505050919050565b6060610b94613ca8565b60008211610bd7576040517f08c379a0000000000000000000000000000000000000000000000000000000008152600401610bce906154c4565b60405180910390fd5b6060600080600a60009054906101000a900473ffffffffffffffffffffffffffffffffffffffff1673ffffffffffffffffffffffffffffffffffffffff1663ab3c7e526040518163ffffffff1660e01b815260040160206040518083038186803b158015610c4457600080fd5b505afa158015610c58573d6000803e3d6000fd5b505050506040513d601f19601f82011682018060405250810190610c7c919061490f565b905060005b81811015610da85785600a60009054906101000a900473ffffffffffffffffffffffffffffffffffffffff1673ffffffffffffffffffffffffffffffffffffffff16635055149c836040518263ffffffff1660e01b8152600401610ce59190615696565b6101006040518083038186803b158015610cfe57600080fd5b505afa158015610d12573d6000803e3d6000fd5b505050506040513d601f19601f82011682018060405250810190610d3691906148bc565b600001511115610d955780848481518110610d7a577f4e487b7100000000000000000000000000000000000000000000000000000000600052603260045260246000fd5b6020026020010181815250508280610d9190615c7a565b9350505b8080610da090615c7a565b915050610c81565b50829350505050919050565b6003602052816000526040600020602052806000526040600020600091509150508060000154908060010160009054906101000a900473ffffffffffffffffffffffffffffffffffffffff16908060020154908060030154908060040160009054906101000a900460ff16908060040160019054906101000a900460ff16905086565b610e3f613ca8565b6040518060c001604052808681526020018573ffffffffffffffffffffffffffffffffffffffff168152602001848152602001838152602001826001811115610eb1577f4e487b7100000000000000000000000000000000000000000000000000000000600052602160045260246000fd5b8152602001600115158152506003600087815260200190815260200160002060008881526020019081526020016000206000820151816000015560208201518160010160006101000a81548173ffffffffffffffffffffffffffffffffffffffff021916908373ffffffffffffffffffffffffffffffffffffffff160217905550604082015181600201556060820151816003015560808201518160040160006101000a81548160ff02191690836001811115610f97577f4e487b7100000000000000000000000000000000000000000000000000000000600052602160045260246000fd5b021790555060a08201518160040160016101000a81548160ff021916908315150217905550905050505050505050565b610fcf6141b8565b60066000848152602001908152602001600020600083815260200190815260200160002060405180608001604052908160008201548152602001600182015481526020016002820160009054906101000a900460ff16600181111561105d577f4e487b7100000000000000000000000000000000000000000000000000000000600052602160045260246000fd5b6001811115611095577f4e487b7100000000000000000000000000000000000000000000000000000000600052602160045260246000fd5b81526020016002820160019054906101000a900460ff161515151581525050905092915050565b60006110c6613ca8565b6000600a60009054906101000a900473ffffffffffffffffffffffffffffffffffffffff1673ffffffffffffffffffffffffffffffffffffffff16635055149c856040518263ffffffff1660e01b81526004016111239190615696565b6101006040518083038186803b15801561113c57600080fd5b505afa158015611150573d6000803e3d6000fd5b505050506040513d601f19601f8201168201806040525081019061117491906148bc565b9050600060018111156111b0577f4e487b7100000000000000000000000000000000000000000000000000000000600052602160045260246000fd5b8160c0015160018111156111ed577f4e487b7100000000000000000000000000000000000000000000000000000000600052602160045260246000fd5b1461122d576040517f08c379a000000000000000000000000000000000000000000000000000000000815260040161122490615624565b60405180910390fd5b60008511611270576040517f08c379a000000000000000000000000000000000000000000000000000000000815260040161126790615584565b60405180910390fd5b600073ffffffffffffffffffffffffffffffffffffffff168373ffffffffffffffffffffffffffffffffffffffff1614156112e0576040517f08c379a00000000000000000000000000000000000000000000000000000000081526004016112d790615524565b60405180910390fd5b61132d3386600960009054906101000a900473ffffffffffffffffffffffffffffffffffffffff1673ffffffffffffffffffffffffffffffffffffffff16613d269092919063ffffffff16565b6000600a60009054906101000a900473ffffffffffffffffffffffffffffffffffffffff1673ffffffffffffffffffffffffffffffffffffffff16633e2e5f388686896040518463ffffffff1660e01b815260040161138e939291906156b1565b602060405180830381600087803b1580156113a857600080fd5b505af11580156113bc573d6000803e3d6000fd5b505050506040513d601f19601f820116820180604052508101906113e0919061490f565b90508373ffffffffffffffffffffffffffffffffffffffff16817f8910ba13a55695f056e224bbbc6b65d866b12a8c2fbdf387fb853a1cca298cd7886040516114299190615696565b60405180910390a380925050509392505050565b600f81565b60075481565b6000806064836040015161ffff1685604001516114659190615ac3565b61146f9190615a92565b9050826020015161ffff1681856040015161148a9190615a3c565b6114949190615a92565b91505092915050565b600080826020015161ffff1684604001516114b89190615a92565b905060006064600f86604001516114cf9190615ac3565b6114d99190615a92565b905060006064856040015161ffff1687604001516114f79190615ac3565b6115019190615a92565b90508181846115109190615a3c565b61151a9190615a3c565b935050505092915050565b600061152f613ca8565b600060045490506040518060c001604052808681526020018573ffffffffffffffffffffffffffffffffffffffff168152602001848152602001428152602001600060018111156115a9577f4e487b7100000000000000000000000000000000000000000000000000000000600052602160045260246000fd5b8152602001600115158152506003600087815260200190815260200160002060008381526020019081526020016000206000820151816000015560208201518160010160006101000a81548173ffffffffffffffffffffffffffffffffffffffff021916908373ffffffffffffffffffffffffffffffffffffffff160217905550604082015181600201556060820151816003015560808201518160040160006101000a81548160ff0219169083600181111561168f577f4e487b7100000000000000000000000000000000000000000000000000000000600052602160045260246000fd5b021790555060a08201518160040160016101000a81548160ff0219169083151502179055509050506004600081546116c690615c7a565b9190508190555060056000868152602001908152602001600020600081546116ed90615c7a565b9190508190556005600087815260200190815260200160002081905550809150509392505050565b6117628282600960009054906101000a900473ffffffffffffffffffffffffffffffffffffffff1673ffffffffffffffffffffffffffffffffffffffff16613d269092919063ffffffff16565b5050565b6000611770613ca8565b600060025490506040518061010001604052808981526020018861ffff1681526020018761ffff1681526020018681526020018561ffff1681526020018473ffffffffffffffffffffffffffffffffffffffff16815260200160006001811115611803577f4e487b7100000000000000000000000000000000000000000000000000000000600052602160045260246000fd5b815260200160011515815250600160008381526020019081526020016000206000820151816000015560208201518160010160006101000a81548161ffff021916908361ffff16021790555060408201518160010160026101000a81548161ffff021916908361ffff1602179055506060820151816002015560808201518160030160006101000a81548161ffff021916908361ffff16021790555060a08201518160030160026101000a81548173ffffffffffffffffffffffffffffffffffffffff021916908373ffffffffffffffffffffffffffffffffffffffff16021790555060c08201518160030160166101000a81548160ff02191690836001811115611937577f4e487b7100000000000000000000000000000000000000000000000000000000600052602160045260246000fd5b021790555060e08201518160030160176101000a81548160ff02191690831515021790555090505060026000815461196e90615c7a565b91905081905550809150509695505050505050565b61198b61421a565b6001600083815260200190815260200160002060030160179054906101000a900460ff166119ee576040517f08c379a00000000000000000000000000000000000000000000000000000000081526004016119e590615544565b60405180910390fd5b6001600083815260200190815260200160002060405180610100016040529081600082015481526020016001820160009054906101000a900461ffff1661ffff1661ffff1681526020016001820160029054906101000a900461ffff1661ffff1661ffff168152602001600282015481526020016003820160009054906101000a900461ffff1661ffff1661ffff1681526020016003820160029054906101000a900473ffffffffffffffffffffffffffffffffffffffff1673ffffffffffffffffffffffffffffffffffffffff1673ffffffffffffffffffffffffffffffffffffffff1681526020016003820160169054906101000a900460ff166001811115611b22577f4e487b7100000000000000000000000000000000000000000000000000000000600052602160045260246000fd5b6001811115611b5a577f4e487b7100000000000000000000000000000000000000000000000000000000600052602160045260246000fd5b81526020016003820160179054906101000a900460ff1615151515815250509050919050565b611b88613ca8565b60008561ffff1614158015611b9e575060008314155b8015611baf575060008261ffff1614155b8015611bbc575060008614155b8015611bcd575060008461ffff1614155b611c0c576040517f08c379a0000000000000000000000000000000000000000000000000000000008152600401611c03906155c4565b60405180910390fd5b600073ffffffffffffffffffffffffffffffffffffffff168173ffffffffffffffffffffffffffffffffffffffff161415611c7c576040517f08c379a0000000000000000000000000000000000000000000000000000000008152600401611c7390615404565b60405180910390fd5b611ccb333088600960009054906101000a900473ffffffffffffffffffffffffffffffffffffffff1673ffffffffffffffffffffffffffffffffffffffff16613dac909392919063ffffffff16565b6000600a60009054906101000a900473ffffffffffffffffffffffffffffffffffffffff1673ffffffffffffffffffffffffffffffffffffffff1663468ac5778888888888886040518763ffffffff1660e01b8152600401611d3296959493929190615749565b602060405180830381600087803b158015611d4c57600080fd5b505af1158015611d60573d6000803e3d6000fd5b505050506040513d601f19601f82011682018060405250810190611d84919061490f565b90508173ffffffffffffffffffffffffffffffffffffffff16817f65fc0eb45954044fb55e1b01344d5d72fbfdf88e732d955f73bb7fb2bcc131e960405160405180910390a3807f2bd52f9253398b8aef7698b9fe3bb703e471a3440c149637f7ccd8e962b4569c88604051611dfa9190615696565b60405180910390a250505050505050565b611e13613ca8565b6000600a60009054906101000a900473ffffffffffffffffffffffffffffffffffffffff1673ffffffffffffffffffffffffffffffffffffffff16635055149c846040518263ffffffff1660e01b8152600401611e709190615696565b6101006040518083038186803b158015611e8957600080fd5b505afa158015611e9d573d6000803e3d6000fd5b505050506040513d601f19601f82011682018060405250810190611ec191906148bc565b905060006001811115611efd577f4e487b7100000000000000000000000000000000000000000000000000000000600052602160045260246000fd5b8160c001516001811115611f3a577f4e487b7100000000000000000000000000000000000000000000000000000000600052602160045260246000fd5b14611f7a576040517f08c379a0000000000000000000000000000000000000000000000000000000008152600401611f71906155e4565b60405180910390fd5b60008211611fbd576040517f08c379a0000000000000000000000000000000000000000000000000000000008152600401611fb4906155a4565b60405180910390fd5b61200c333084600960009054906101000a900473ffffffffffffffffffffffffffffffffffffffff1673ffffffffffffffffffffffffffffffffffffffff16613dac909392919063ffffffff16565b600a60009054906101000a900473ffffffffffffffffffffffffffffffffffffffff1673ffffffffffffffffffffffffffffffffffffffff1663b769c2a08484846000015161205b9190615a3c565b84602001518560400151866060015187608001518860a001518960c001516040518963ffffffff1660e01b815260040161209c98979695949392919061592e565b600060405180830381600087803b1580156120b657600080fd5b505af11580156120ca573d6000803e3d6000fd5b50505050827f2bd52f9253398b8aef7698b9fe3bb703e471a3440c149637f7ccd8e962b4569c836040516120fe9190615696565b60405180910390a2505050565b60086020528060005260406000206000915090505481565b61212b6142bb565b60036000848152602001908152602001600020600083815260200190815260200160002060040160019054906101000a900460ff1661219f576040517f08c379a000000000000000000000000000000000000000000000000000000000815260040161219690615444565b60405180910390fd5b6003600084815260200190815260200160002060008381526020019081526020016000206040518060c0016040529081600082015481526020016001820160009054906101000a900473ffffffffffffffffffffffffffffffffffffffff1673ffffffffffffffffffffffffffffffffffffffff1673ffffffffffffffffffffffffffffffffffffffff16815260200160028201548152602001600382015481526020016004820160009054906101000a900460ff16600181111561228d577f4e487b7100000000000000000000000000000000000000000000000000000000600052602160045260246000fd5b60018111156122c5577f4e487b7100000000000000000000000000000000000000000000000000000000600052602160045260246000fd5b81526020016004820160019054906101000a900460ff161515151581525050905092915050565b600080600a60009054906101000a900473ffffffffffffffffffffffffffffffffffffffff1673ffffffffffffffffffffffffffffffffffffffff16636bac637284866040518363ffffffff1660e01b815260040161234c929190615828565b60c06040518083038186803b15801561236457600080fd5b505afa158015612378573d6000803e3d6000fd5b505050506040513d601f19601f8201168201806040525081019061239c919061482d565b90506000600a60009054906101000a900473ffffffffffffffffffffffffffffffffffffffff1673ffffffffffffffffffffffffffffffffffffffff16635055149c856040518263ffffffff1660e01b81526004016123fb9190615696565b6101006040518083038186803b15801561241457600080fd5b505afa158015612428573d6000803e3d6000fd5b505050506040513d601f19601f8201168201806040525081019061244c91906148bc565b9050612458858561259c565b1561247057612467828261149d565b9250505061247f565b61247a8282611448565b925050505b92915050565b61248d613ca8565b6124976000613e35565b565b60016020528060005260406000206000915090508060000154908060010160009054906101000a900461ffff16908060010160029054906101000a900461ffff16908060020154908060030160009054906101000a900461ffff16908060030160029054906101000a900473ffffffffffffffffffffffffffffffffffffffff16908060030160169054906101000a900460ff16908060030160179054906101000a900460ff16905088565b6006602052816000526040600020602052806000526040600020600091509150508060000154908060010154908060020160009054906101000a900460ff16908060020160019054906101000a900460ff16905084565b600080600a60009054906101000a900473ffffffffffffffffffffffffffffffffffffffff1673ffffffffffffffffffffffffffffffffffffffff16635055149c846040518263ffffffff1660e01b81526004016125fa9190615696565b6101006040518083038186803b15801561261357600080fd5b505afa158015612627573d6000803e3d6000fd5b505050506040513d601f19601f8201168201806040525081019061264b91906148bc565b90506000600a60009054906101000a900473ffffffffffffffffffffffffffffffffffffffff1673ffffffffffffffffffffffffffffffffffffffff16636bac637285876040518363ffffffff1660e01b81526004016126ac929190615828565b60c06040518083038186803b1580156126c457600080fd5b505afa1580156126d8573d6000803e3d6000fd5b505050506040513d601f19601f820116820180604052508101906126fc919061482d565b90506000826020015161ffff169050600080600090505b82811161297d576000600a60009054906101000a900473ffffffffffffffffffffffffffffffffffffffff1673ffffffffffffffffffffffffffffffffffffffff1663193eded68a846040518363ffffffff1660e01b8152600401612779929190615828565b60806040518083038186803b15801561279157600080fd5b505afa1580156127a5573d6000803e3d6000fd5b505050506040513d601f19601f820116820180604052508101906127c99190614893565b9050600115158160600151151514156128f85760006001811115612816577f4e487b7100000000000000000000000000000000000000000000000000000000600052602160045260246000fd5b81604001516001811115612853577f4e487b7100000000000000000000000000000000000000000000000000000000600052602160045260246000fd5b1415612868576000965050505050505061299c565b6001808111156128a1577f4e487b7100000000000000000000000000000000000000000000000000000000600052602160045260246000fd5b816040015160018111156128de577f4e487b7100000000000000000000000000000000000000000000000000000000600052602160045260246000fd5b14156128f35782806128ef90615c7a565b9350505b612969565b6000866020015161ffff1687606001516129129190615a92565b905060006001846129239190615a3c565b8261292e9190615ac3565b876060015161293d9190615a3c565b9050804211156129585760019850505050505050505061299c565b60009850505050505050505061299c565b50808061297590615c7a565b915050612713565b508082141561299357600094505050505061299c565b60019450505050505b92915050565b60006129ac613ca8565b6000600860008681526020019081526020016000205490506040518060800160405280868152602001858152602001846001811115612a14577f4e487b7100000000000000000000000000000000000000000000000000000000600052602160045260246000fd5b815260200160011515815250600660008781526020019081526020016000206000838152602001908152602001600020600082015181600001556020820151816001015560408201518160020160006101000a81548160ff02191690836001811115612aa9577f4e487b7100000000000000000000000000000000000000000000000000000000600052602160045260246000fd5b021790555060608201518160020160016101000a81548160ff021916908315150217905550905050600760008154612ae090615c7a565b919050819055506008600086815260200190815260200160002060008154612b0790615c7a565b9190508190556008600087815260200190815260200160002081905550809150509392505050565b60056020528060005260406000206000915090505481565b612b4f6141b8565b60066000848152602001908152602001600020600083815260200190815260200160002060020160019054906101000a900460ff16612bc3576040517f08c379a0000000000000000000000000000000000000000000000000000000008152600401612bba906154e4565b60405180910390fd5b60066000848152602001908152602001600020600083815260200190815260200160002060405180608001604052908160008201548152602001600182015481526020016002820160009054906101000a900460ff166001811115612c51577f4e487b7100000000000000000000000000000000000000000000000000000000600052602160045260246000fd5b6001811115612c89577f4e487b7100000000000000000000000000000000000000000000000000000000600052602160045260246000fd5b81526020016002820160019054906101000a900460ff161515151581525050905092915050565b60008060009054906101000a900473ffffffffffffffffffffffffffffffffffffffff16905090565b6000612ce3613ca8565b6000600a60009054906101000a900473ffffffffffffffffffffffffffffffffffffffff1673ffffffffffffffffffffffffffffffffffffffff16636bac637284876040518363ffffffff1660e01b8152600401612d42929190615828565b60c06040518083038186803b158015612d5a57600080fd5b505afa158015612d6e573d6000803e3d6000fd5b505050506040513d601f19601f82011682018060405250810190612d92919061482d565b905060008411612dd7576040517f08c379a0000000000000000000000000000000000000000000000000000000008152600401612dce906154a4565b60405180910390fd5b612de185846122ec565b8414612e22576040517f08c379a0000000000000000000000000000000000000000000000000000000008152600401612e1990615424565b60405180910390fd5b612e71333086600960009054906101000a900473ffffffffffffffffffffffffffffffffffffffff1673ffffffffffffffffffffffffffffffffffffffff16613dac909392919063ffffffff16565b6000600a60009054906101000a900473ffffffffffffffffffffffffffffffffffffffff1673ffffffffffffffffffffffffffffffffffffffff166386822b06878760016040518463ffffffff1660e01b8152600401612ed3939291906158b2565b602060405180830381600087803b158015612eed57600080fd5b505af1158015612f01573d6000803e3d6000fd5b505050506040513d601f19601f82011682018060405250810190612f25919061490f565b90506000600a60009054906101000a900473ffffffffffffffffffffffffffffffffffffffff1673ffffffffffffffffffffffffffffffffffffffff16635055149c866040518263ffffffff1660e01b8152600401612f849190615696565b6101006040518083038186803b158015612f9d57600080fd5b505afa158015612fb1573d6000803e3d6000fd5b505050506040513d601f19601f82011682018060405250810190612fd591906148bc565b9050806020015161ffff16600a60009054906101000a900473ffffffffffffffffffffffffffffffffffffffff1673ffffffffffffffffffffffffffffffffffffffff1663672e4d6e896040518263ffffffff1660e01b815260040161303b9190615696565b60206040518083038186803b15801561305357600080fd5b505afa158015613067573d6000803e3d6000fd5b505050506040513d601f19601f8201168201806040525081019061308b919061490f565b141561313657600a60009054906101000a900473ffffffffffffffffffffffffffffffffffffffff1673ffffffffffffffffffffffffffffffffffffffff166316f56af3888786602001518760400151886060015160016040518763ffffffff1660e01b815260040161310396959493929190615851565b600060405180830381600087803b15801561311d57600080fd5b505af1158015613131573d6000803e3d6000fd5b505050505b8193505050509392505050565b60025481565b613151613ca8565b6040518061010001604052808881526020018761ffff1681526020018661ffff1681526020018581526020018461ffff1681526020018373ffffffffffffffffffffffffffffffffffffffff1681526020018260018111156131dc577f4e487b7100000000000000000000000000000000000000000000000000000000600052602160045260246000fd5b815260200160011515815250600160008a81526020019081526020016000206000820151816000015560208201518160010160006101000a81548161ffff021916908361ffff16021790555060408201518160010160026101000a81548161ffff021916908361ffff1602179055506060820151816002015560808201518160030160006101000a81548161ffff021916908361ffff16021790555060a08201518160030160026101000a81548173ffffffffffffffffffffffffffffffffffffffff021916908373ffffffffffffffffffffffffffffffffffffffff16021790555060c08201518160030160166101000a81548160ff02191690836001811115613310577f4e487b7100000000000000000000000000000000000000000000000000000000600052602160045260246000fd5b021790555060e08201518160030160176101000a81548160ff0219169083151502179055509050505050505050505050565b600061334c613ca8565b6000600a60009054906101000a900473ffffffffffffffffffffffffffffffffffffffff1673ffffffffffffffffffffffffffffffffffffffff16636bac637284876040518363ffffffff1660e01b81526004016133ab929190615828565b60c06040518083038186803b1580156133c357600080fd5b505afa1580156133d7573d6000803e3d6000fd5b505050506040513d601f19601f820116820180604052508101906133fb919061482d565b905060008411613440576040517f08c379a0000000000000000000000000000000000000000000000000000000008152600401613437906153a4565b60405180910390fd5b80604001518414613486576040517f08c379a000000000000000000000000000000000000000000000000000000000815260040161347d906153e4565b60405180910390fd5b6134d5333086600960009054906101000a900473ffffffffffffffffffffffffffffffffffffffff1673ffffffffffffffffffffffffffffffffffffffff16613dac909392919063ffffffff16565b6000600a60009054906101000a900473ffffffffffffffffffffffffffffffffffffffff1673ffffffffffffffffffffffffffffffffffffffff166386822b06878760006040518463ffffffff1660e01b8152600401613537939291906158b2565b602060405180830381600087803b15801561355157600080fd5b505af1158015613565573d6000803e3d6000fd5b505050506040513d601f19601f82011682018060405250810190613589919061490f565b9050600a60009054906101000a900473ffffffffffffffffffffffffffffffffffffffff1673ffffffffffffffffffffffffffffffffffffffff166316f56af3878685602001518660400151876060015160016040518763ffffffff1660e01b81526004016135fd96959493929190615851565b600060405180830381600087803b15801561361757600080fd5b505af115801561362b573d6000803e3d6000fd5b5050505080925050509392505050565b60045481565b6000806000600a60009054906101000a900473ffffffffffffffffffffffffffffffffffffffff1673ffffffffffffffffffffffffffffffffffffffff16625fffce856040518263ffffffff1660e01b81526004016136a09190615696565b60206040518083038186803b1580156136b857600080fd5b505afa1580156136cc573d6000803e3d6000fd5b505050506040513d601f19601f820116820180604052508101906136f0919061490f565b905060005b818110156137ce57600a60009054906101000a900473ffffffffffffffffffffffffffffffffffffffff1673ffffffffffffffffffffffffffffffffffffffff16636bac637286836040518363ffffffff1660e01b815260040161375a929190615828565b60c06040518083038186803b15801561377257600080fd5b505afa158015613786573d6000803e3d6000fd5b505050506040513d601f19601f820116820180604052508101906137aa919061482d565b60400151836137b99190615a3c565b925080806137c690615c7a565b9150506136f5565b5081600a60009054906101000a900473ffffffffffffffffffffffffffffffffffffffff1673ffffffffffffffffffffffffffffffffffffffff16635055149c866040518263ffffffff1660e01b815260040161382b9190615696565b6101006040518083038186803b15801561384457600080fd5b505afa158015613858573d6000803e3d6000fd5b505050506040513d601f19601f8201168201806040525081019061387c91906148bc565b6000015161388a9190615b1d565b92505050919050565b600a60009054906101000a900473ffffffffffffffffffffffffffffffffffffffff1681565b600080600a60009054906101000a900473ffffffffffffffffffffffffffffffffffffffff1673ffffffffffffffffffffffffffffffffffffffff16636bac637284866040518363ffffffff1660e01b8152600401613919929190615828565b60c06040518083038186803b15801561393157600080fd5b505afa158015613945573d6000803e3d6000fd5b505050506040513d601f19601f82011682018060405250810190613969919061482d565b90506000600a60009054906101000a900473ffffffffffffffffffffffffffffffffffffffff1673ffffffffffffffffffffffffffffffffffffffff16635055149c856040518263ffffffff1660e01b81526004016139c89190615696565b6101006040518083038186803b1580156139e157600080fd5b505afa1580156139f5573d6000803e3d6000fd5b505050506040513d601f19601f82011682018060405250810190613a1991906148bc565b905080606001518260600151613a2f9190615a3c565b421015613a4457816040015192505050613a52565b613a4d82613ef9565b925050505b92915050565b613a60613ca8565b6000600a60009054906101000a900473ffffffffffffffffffffffffffffffffffffffff1673ffffffffffffffffffffffffffffffffffffffff16635055149c846040518263ffffffff1660e01b8152600401613abd9190615696565b6101006040518083038186803b158015613ad657600080fd5b505afa158015613aea573d6000803e3d6000fd5b505050506040513d601f19601f82011682018060405250810190613b0e91906148bc565b90506000613b1b846108c7565b9050600a60009054906101000a900473ffffffffffffffffffffffffffffffffffffffff1673ffffffffffffffffffffffffffffffffffffffff1663b769c2a085846000015185602001518660400151876060015188608001518960a0015160016040518963ffffffff1660e01b8152600401613b9f98979695949392919061592e565b600060405180830381600087803b158015613bb957600080fd5b505af1158015613bcd573d6000803e3d6000fd5b50505050613c1e8382600960009054906101000a900473ffffffffffffffffffffffffffffffffffffffff1673ffffffffffffffffffffffffffffffffffffffff16613d269092919063ffffffff16565b50505050565b613c2c613ca8565b600073ffffffffffffffffffffffffffffffffffffffff168173ffffffffffffffffffffffffffffffffffffffff161415613c9c576040517f08c379a0000000000000000000000000000000000000000000000000000000008152600401613c93906153c4565b60405180910390fd5b613ca581613e35565b50565b613cb0613f33565b73ffffffffffffffffffffffffffffffffffffffff16613cce612cb0565b73ffffffffffffffffffffffffffffffffffffffff1614613d24576040517f08c379a0000000000000000000000000000000000000000000000000000000008152600401613d1b90615504565b60405180910390fd5b565b613da78363a9059cbb60e01b8484604051602401613d4592919061531c565b604051602081830303815290604052907bffffffffffffffffffffffffffffffffffffffffffffffffffffffff19166020820180517bffffffffffffffffffffffffffffffffffffffffffffffffffffffff8381831617835250505050613f3b565b505050565b613e2f846323b872dd60e01b858585604051602401613dcd939291906152e5565b604051602081830303815290604052907bffffffffffffffffffffffffffffffffffffffffffffffffffffffff19166020820180517bffffffffffffffffffffffffffffffffffffffffffffffffffffffff8381831617835250505050613f3b565b50505050565b60008060009054906101000a900473ffffffffffffffffffffffffffffffffffffffff169050816000806101000a81548173ffffffffffffffffffffffffffffffffffffffff021916908373ffffffffffffffffffffffffffffffffffffffff1602179055508173ffffffffffffffffffffffffffffffffffffffff168173ffffffffffffffffffffffffffffffffffffffff167f8be0079c531659141344cd1fd0a4f28419497f9722a3daafe3b4186f6b6457e060405160405180910390a35050565b6000806064600f8460400151613f0f9190615ac3565b613f199190615a92565b9050808360400151613f2b9190615a3c565b915050919050565b600033905090565b6000613f9d826040518060400160405280602081526020017f5361666545524332303a206c6f772d6c6576656c2063616c6c206661696c65648152508573ffffffffffffffffffffffffffffffffffffffff166140029092919063ffffffff16565b9050600081511115613ffd5780806020019051810190613fbd9190614804565b613ffc576040517f08c379a0000000000000000000000000000000000000000000000000000000008152600401613ff390615604565b60405180910390fd5b5b505050565b6060614011848460008561401a565b90509392505050565b60608247101561405f576040517f08c379a000000000000000000000000000000000000000000000000000000000815260040161405690615484565b60405180910390fd5b6140688561412e565b6140a7576040517f08c379a000000000000000000000000000000000000000000000000000000000815260040161409e90615564565b60405180910390fd5b6000808673ffffffffffffffffffffffffffffffffffffffff1685876040516140d091906152b3565b60006040518083038185875af1925050503d806000811461410d576040519150601f19603f3d011682016040523d82523d6000602084013e614112565b606091505b5091509150614122828286614151565b92505050949350505050565b6000808273ffffffffffffffffffffffffffffffffffffffff163b119050919050565b60608315614161578290506141b1565b6000835111156141745782518084602001fd5b816040517f08c379a00000000000000000000000000000000000000000000000000000000081526004016141a89190615382565b60405180910390fd5b9392505050565b604051806080016040528060008152602001600081526020016000600181111561420b577f4e487b7100000000000000000000000000000000000000000000000000000000600052602160045260246000fd5b81526020016000151581525090565b60405180610100016040528060008152602001600061ffff168152602001600061ffff16815260200160008152602001600061ffff168152602001600073ffffffffffffffffffffffffffffffffffffffff168152602001600060018111156142ac577f4e487b7100000000000000000000000000000000000000000000000000000000600052602160045260246000fd5b81526020016000151581525090565b6040518060c0016040528060008152602001600073ffffffffffffffffffffffffffffffffffffffff168152602001600081526020016000815260200160006001811115614332577f4e487b7100000000000000000000000000000000000000000000000000000000600052602160045260246000fd5b81526020016000151581525090565b60008135905061435081616317565b92915050565b60008151905061436581616317565b92915050565b60008135905061437a8161632e565b92915050565b60008151905061438f8161632e565b92915050565b6000813590506143a481616345565b92915050565b6000815190506143b981616345565b92915050565b6000813590506143ce81616355565b92915050565b6000815190506143e381616355565b92915050565b6000813590506143f881616365565b92915050565b60008151905061440d81616365565b92915050565b600060c0828403121561442557600080fd5b61442f60c06159ac565b9050600061443f84828501614775565b600083015250602061445384828501614341565b602083015250604061446784828501614775565b604083015250606061447b84828501614775565b606083015250608061448f848285016143bf565b60808301525060a06144a38482850161436b565b60a08301525092915050565b600060c082840312156144c157600080fd5b6144cb60c06159ac565b905060006144db8482850161478a565b60008301525060206144ef84828501614356565b60208301525060406145038482850161478a565b60408301525060606145178482850161478a565b606083015250608061452b848285016143d4565b60808301525060a061453f84828501614380565b60a08301525092915050565b60006080828403121561455d57600080fd5b61456760806159ac565b905060006145778482850161478a565b600083015250602061458b8482850161478a565b602083015250604061459f848285016143aa565b60408301525060606145b384828501614380565b60608301525092915050565b600061010082840312156145d257600080fd5b6145dd6101006159ac565b905060006145ed84828501614775565b60008301525060206146018482850161474b565b60208301525060406146158482850161474b565b604083015250606061462984828501614775565b606083015250608061463d8482850161474b565b60808301525060a061465184828501614341565b60a08301525060c0614665848285016143e9565b60c08301525060e06146798482850161436b565b60e08301525092915050565b6000610100828403121561469857600080fd5b6146a36101006159ac565b905060006146b38482850161478a565b60008301525060206146c784828501614760565b60208301525060406146db84828501614760565b60408301525060606146ef8482850161478a565b606083015250608061470384828501614760565b60808301525060a061471784828501614356565b60a08301525060c061472b848285016143fe565b60c08301525060e061473f84828501614380565b60e08301525092915050565b60008135905061475a81616375565b92915050565b60008151905061476f81616375565b92915050565b6000813590506147848161638c565b92915050565b6000815190506147998161638c565b92915050565b6000602082840312156147b157600080fd5b60006147bf84828501614341565b91505092915050565b600080604083850312156147db57600080fd5b60006147e985828601614341565b92505060206147fa85828601614775565b9150509250929050565b60006020828403121561481657600080fd5b600061482484828501614380565b91505092915050565b600060c0828403121561483f57600080fd5b600061484d848285016144af565b91505092915050565b6000806101c0838503121561486a57600080fd5b600061487885828601614413565b92505060c0614889858286016145bf565b9150509250929050565b6000608082840312156148a557600080fd5b60006148b38482850161454b565b91505092915050565b600061010082840312156148cf57600080fd5b60006148dd84828501614685565b91505092915050565b6000602082840312156148f857600080fd5b600061490684828501614775565b91505092915050565b60006020828403121561492157600080fd5b600061492f8482850161478a565b91505092915050565b6000806040838503121561494b57600080fd5b600061495985828601614775565b925050602061496a85828601614341565b9150509250929050565b60008060006060848603121561498957600080fd5b600061499786828701614775565b93505060206149a886828701614341565b92505060406149b986828701614775565b9150509250925092565b60008060008060008060c087890312156149dc57600080fd5b60006149ea89828a01614775565b96505060206149fb89828a0161474b565b9550506040614a0c89828a0161474b565b9450506060614a1d89828a01614775565b9350506080614a2e89828a0161474b565b92505060a0614a3f89828a01614341565b9150509295509295509295565b60008060408385031215614a5f57600080fd5b6000614a6d85828601614775565b9250506020614a7e85828601614775565b9150509250929050565b600080600060608486031215614a9d57600080fd5b6000614aab86828701614775565b9350506020614abc86828701614775565b9250506040614acd86828701614341565b9150509250925092565b60008060008060008060c08789031215614af057600080fd5b6000614afe89828a01614775565b9650506020614b0f89828a01614775565b9550506040614b2089828a01614341565b9450506060614b3189828a01614775565b9350506080614b4289828a01614775565b92505060a0614b5389828a016143bf565b9150509295509295509295565b600080600060608486031215614b7557600080fd5b6000614b8386828701614775565b9350506020614b9486828701614775565b9250506040614ba586828701614395565b9150509250925092565b600080600080600080600080610100898b031215614bcc57600080fd5b6000614bda8b828c01614775565b9850506020614beb8b828c01614775565b9750506040614bfc8b828c0161474b565b9650506060614c0d8b828c0161474b565b9550506080614c1e8b828c01614775565b94505060a0614c2f8b828c0161474b565b93505060c0614c408b828c01614341565b92505060e0614c518b828c016143e9565b9150509295985092959890939650565b600080600060608486031215614c7657600080fd5b6000614c8486828701614775565b9350506020614c9586828701614775565b9250506040614ca686828701614775565b9150509250925092565b6000614cbc8383615295565b60208301905092915050565b614cd181615b51565b82525050565b614ce081615b51565b82525050565b6000614cf1826159e1565b614cfb8185615a0f565b9350614d06836159d1565b8060005b83811015614d37578151614d1e8882614cb0565b9750614d2983615a02565b925050600181019050614d0a565b5085935050505092915050565b614d4d81615b63565b82525050565b614d5c81615b63565b82525050565b6000614d6d826159ec565b614d778185615a20565b9350614d87818560208601615c16565b80840191505092915050565b614d9c81615be0565b82525050565b614dab81615be0565b82525050565b614dba81615bf2565b82525050565b614dc981615bf2565b82525050565b614dd881615c04565b82525050565b614de781615c04565b82525050565b6000614df8826159f7565b614e028185615a2b565b9350614e12818560208601615c16565b614e1b81615d7f565b840191505092915050565b6000614e33602283615a2b565b9150614e3e82615d90565b604082019050919050565b6000614e56602683615a2b565b9150614e6182615ddf565b604082019050919050565b6000614e79602383615a2b565b9150614e8482615e2e565b604082019050919050565b6000614e9c602183615a2b565b9150614ea782615e7d565b604082019050919050565b6000614ebf602383615a2b565b9150614eca82615ecc565b604082019050919050565b6000614ee2601f83615a2b565b9150614eed82615f1b565b602082019050919050565b6000614f05602383615a2b565b9150614f1082615f44565b604082019050919050565b6000614f28602683615a2b565b9150614f3382615f93565b604082019050919050565b6000614f4b602283615a2b565b9150614f5682615fe2565b604082019050919050565b6000614f6e602283615a2b565b9150614f7982616031565b604082019050919050565b6000614f91602883615a2b565b9150614f9c82616080565b604082019050919050565b6000614fb4602083615a2b565b9150614fbf826160cf565b602082019050919050565b6000614fd7602383615a2b565b9150614fe2826160f8565b604082019050919050565b6000614ffa601b83615a2b565b915061500582616147565b602082019050919050565b600061501d601d83615a2b565b915061502882616170565b602082019050919050565b6000615040602083615a2b565b915061504b82616199565b602082019050919050565b6000615063601483615a2b565b915061506e826161c2565b602082019050919050565b6000615086601f83615a2b565b9150615091826161eb565b602082019050919050565b60006150a9601e83615a2b565b91506150b482616214565b602082019050919050565b60006150cc602a83615a2b565b91506150d78261623d565b604082019050919050565b60006150ef602583615a2b565b91506150fa8261628c565b604082019050919050565b60c08201600082015161511b6000850182615295565b50602082015161512e6020850182614cc8565b5060408201516151416040850182615295565b5060608201516151546060850182615295565b5060808201516151676080850182614db1565b5060a082015161517a60a0850182614d44565b50505050565b6080820160008201516151966000850182615295565b5060208201516151a96020850182615295565b5060408201516151bc6040850182614d93565b5060608201516151cf6060850182614d44565b50505050565b610100820160008201516151ec6000850182615295565b5060208201516151ff6020850182615277565b5060408201516152126040850182615277565b5060608201516152256060850182615295565b5060808201516152386080850182615277565b5060a082015161524b60a0850182614cc8565b5060c082015161525e60c0850182614dcf565b5060e082015161527160e0850182614d44565b50505050565b61528081615ba8565b82525050565b61528f81615ba8565b82525050565b61529e81615bd6565b82525050565b6152ad81615bd6565b82525050565b60006152bf8284614d62565b915081905092915050565b60006020820190506152df6000830184614cd7565b92915050565b60006060820190506152fa6000830186614cd7565b6153076020830185614cd7565b61531460408301846152a4565b949350505050565b60006040820190506153316000830185614cd7565b61533e60208301846152a4565b9392505050565b6000602082019050818103600083015261535f8184614ce6565b905092915050565b600060208201905061537c6000830184614d53565b92915050565b6000602082019050818103600083015261539c8184614ded565b905092915050565b600060208201905081810360008301526153bd81614e26565b9050919050565b600060208201905081810360008301526153dd81614e49565b9050919050565b600060208201905081810360008301526153fd81614e6c565b9050919050565b6000602082019050818103600083015261541d81614e8f565b9050919050565b6000602082019050818103600083015261543d81614eb2565b9050919050565b6000602082019050818103600083015261545d81614ed5565b9050919050565b6000602082019050818103600083015261547d81614ef8565b9050919050565b6000602082019050818103600083015261549d81614f1b565b9050919050565b600060208201905081810360008301526154bd81614f3e565b9050919050565b600060208201905081810360008301526154dd81614f61565b9050919050565b600060208201905081810360008301526154fd81614f84565b9050919050565b6000602082019050818103600083015261551d81614fa7565b9050919050565b6000602082019050818103600083015261553d81614fca565b9050919050565b6000602082019050818103600083015261555d81614fed565b9050919050565b6000602082019050818103600083015261557d81615010565b9050919050565b6000602082019050818103600083015261559d81615033565b9050919050565b600060208201905081810360008301526155bd81615056565b9050919050565b600060208201905081810360008301526155dd81615079565b9050919050565b600060208201905081810360008301526155fd8161509c565b9050919050565b6000602082019050818103600083015261561d816150bf565b9050919050565b6000602082019050818103600083015261563d816150e2565b9050919050565b600060c0820190506156596000830184615105565b92915050565b60006080820190506156746000830184615180565b92915050565b60006101008201905061569060008301846151d5565b92915050565b60006020820190506156ab60008301846152a4565b92915050565b60006060820190506156c660008301866152a4565b6156d36020830185614cd7565b6156e060408301846152a4565b949350505050565b600060c0820190506156fd60008301896152a4565b61570a6020830188614cd7565b61571760408301876152a4565b61572460608301866152a4565b6157316080830185614dc0565b61573e60a0830184614d53565b979650505050505050565b600060c08201905061575e60008301896152a4565b61576b6020830188615286565b6157786040830187615286565b61578560608301866152a4565b6157926080830185615286565b61579f60a0830184614cd7565b979650505050505050565b6000610100820190506157c0600083018b6152a4565b6157cd602083018a615286565b6157da6040830189615286565b6157e760608301886152a4565b6157f46080830187615286565b61580160a0830186614cd7565b61580e60c0830185614dde565b61581b60e0830184614d53565b9998505050505050505050565b600060408201905061583d60008301856152a4565b61584a60208301846152a4565b9392505050565b600060c08201905061586660008301896152a4565b61587360208301886152a4565b6158806040830187614cd7565b61588d60608301866152a4565b61589a60808301856152a4565b6158a760a0830184614dc0565b979650505050505050565b60006060820190506158c760008301866152a4565b6158d460208301856152a4565b6158e16040830184614da2565b949350505050565b60006080820190506158fe60008301876152a4565b61590b60208301866152a4565b6159186040830185614da2565b6159256060830184614d53565b95945050505050565b600061010082019050615944600083018b6152a4565b615951602083018a6152a4565b61595e6040830189615286565b61596b6060830188615286565b61597860808301876152a4565b61598560a0830186615286565b61599260c0830185614cd7565b61599f60e0830184614dde565b9998505050505050505050565b60006159b66159c7565b90506159c28282615c49565b919050565b6000604051905090565b6000819050602082019050919050565b600081519050919050565b600081519050919050565b600081519050919050565b6000602082019050919050565b600082825260208201905092915050565b600081905092915050565b600082825260208201905092915050565b6000615a4782615bd6565b9150615a5283615bd6565b9250827fffffffffffffffffffffffffffffffffffffffffffffffffffffffffffffffff03821115615a8757615a86615cc3565b5b828201905092915050565b6000615a9d82615bd6565b9150615aa883615bd6565b925082615ab857615ab7615cf2565b5b828204905092915050565b6000615ace82615bd6565b9150615ad983615bd6565b9250817fffffffffffffffffffffffffffffffffffffffffffffffffffffffffffffffff0483118215151615615b1257615b11615cc3565b5b828202905092915050565b6000615b2882615bd6565b9150615b3383615bd6565b925082821015615b4657615b45615cc3565b5b828203905092915050565b6000615b5c82615bb6565b9050919050565b60008115159050919050565b6000819050615b7d826162db565b919050565b6000819050615b90826162ef565b919050565b6000819050615ba382616303565b919050565b600061ffff82169050919050565b600073ffffffffffffffffffffffffffffffffffffffff82169050919050565b6000819050919050565b6000615beb82615b6f565b9050919050565b6000615bfd82615b82565b9050919050565b6000615c0f82615b95565b9050919050565b60005b83811015615c34578082015181840152602081019050615c19565b83811115615c43576000848401525b50505050565b615c5282615d7f565b810181811067ffffffffffffffff82111715615c7157615c70615d50565b5b80604052505050565b6000615c8582615bd6565b91507fffffffffffffffffffffffffffffffffffffffffffffffffffffffffffffffff821415615cb857615cb7615cc3565b5b600182019050919050565b7f4e487b7100000000000000000000000000000000000000000000000000000000600052601160045260246000fd5b7f4e487b7100000000000000000000000000000000000000000000000000000000600052601260045260246000fd5b7f4e487b7100000000000000000000000000000000000000000000000000000000600052602160045260246000fd5b7f4e487b7100000000000000000000000000000000000000000000000000000000600052604160045260246000fd5b6000601f19601f8301169050919050565b7f506f6f6c2e72657061794c6f616e46756c6c3a20496e76616c696420696e707560008201527f7421000000000000000000000000000000000000000000000000000000000000602082015250565b7f4f776e61626c653a206e6577206f776e657220697320746865207a65726f206160008201527f6464726573730000000000000000000000000000000000000000000000000000602082015250565b7f506f6f6c2e72657061794c6f616e46756c6c3a20496e76616c696420616d6f7560008201527f6e74210000000000000000000000000000000000000000000000000000000000602082015250565b7f506f6f6c2e637265617465506f6f6c3a20496e76616c6964206164647265737360008201527f2100000000000000000000000000000000000000000000000000000000000000602082015250565b7f506f6f6c2e72657061794c6f616e506172743a20496e76616c696420616d6f7560008201527f6e74210000000000000000000000000000000000000000000000000000000000602082015250565b7f6765744c6f616e4279506f6f6c49443a204e6f2073756368207265636f726400600082015250565b7f676574436f756e744c6f616e73496e506f6f6c3a204e6f20737563682072656360008201527f6f72640000000000000000000000000000000000000000000000000000000000602082015250565b7f416464726573733a20696e73756666696369656e742062616c616e636520666f60008201527f722063616c6c0000000000000000000000000000000000000000000000000000602082015250565b7f506f6f6c2e72657061794c6f616e506172743a20496e76616c696420696e707560008201527f7421000000000000000000000000000000000000000000000000000000000000602082015250565b7f506f6f6c2e67657456616c6964506f6f6c733a20496e76616c696420696e707560008201527f7421000000000000000000000000000000000000000000000000000000000000602082015250565b7f6765744c6f616e52657061796d656e7442794c6f616e49443a204e6f2073756360008201527f68207265636f7264000000000000000000000000000000000000000000000000602082015250565b7f4f776e61626c653a2063616c6c6572206973206e6f7420746865206f776e6572600082015250565b7f506f6f6c2e726571756573744c6f616e3a20496e76616c696420626f72726f7760008201527f6572210000000000000000000000000000000000000000000000000000000000602082015250565b7f676574506f6f6c427949443a204e6f2073756368207265636f72640000000000600082015250565b7f416464726573733a2063616c6c20746f206e6f6e2d636f6e7472616374000000600082015250565b7f506f6f6c2e726571756573744c6f616e3a20496e76616c696420696e70757421600082015250565b7f506f6f6c3a20496e76616c696420696e70757421000000000000000000000000600082015250565b7f506f6f6c2e637265617465506f6f6c3a20496e76616c696420496e7075742100600082015250565b7f506f6f6c2e66756e64506f6f6c3a20506f6f6c20697320636c6f736564210000600082015250565b7f5361666545524332303a204552433230206f7065726174696f6e20646964206e60008201527f6f74207375636365656400000000000000000000000000000000000000000000602082015250565b7f506f6f6c2e726571756573744c6f616e3a20506f6f6c2073746174757320636c60008201527f6f73656421000000000000000000000000000000000000000000000000000000602082015250565b600281106162ec576162eb615d21565b5b50565b60028110616300576162ff615d21565b5b50565b6002811061631457616313615d21565b5b50565b61632081615b51565b811461632b57600080fd5b50565b61633781615b63565b811461634257600080fd5b50565b6002811061635257600080fd5b50565b6002811061636257600080fd5b50565b6002811061637257600080fd5b50565b61637e81615ba8565b811461638957600080fd5b50565b61639581615bd6565b81146163a057600080fd5b5056fea26469706673582212206bf5b98bcb488edf943f6ef50132901678fdc5178dc76159021b9030332c038364736f6c63430008010033",
  "linkReferences": {},
  "deployedLinkReferences": {}
}