{
  "_format": "hh-sol-artifact-1",
  "contractName": "PoolRegistryStore",
  "sourceName": "contracts/Qredos.sol",
  "abi": [
    {
      "anonymous": false,
      "inputs": [
        {
          "indexed": true,
          "internalType": "address",
          "name": "previousOwner",
          "type": "address"
        },
        {
          "indexed": true,
          "internalType": "address",
          "name": "newOwner",
          "type": "address"
        }
      ],
      "name": "OwnershipTransferred",
      "type": "event"
    },
    {
      "inputs": [
        {
          "internalType": "uint256",
          "name": "",
          "type": "uint256"
        },
        {
          "internalType": "uint256",
          "name": "",
          "type": "uint256"
        }
      ],
      "name": "LoanRepayment",
      "outputs": [
        {
          "internalType": "uint256",
          "name": "loanId",
          "type": "uint256"
        },
        {
          "internalType": "uint256",
          "name": "amount",
          "type": "uint256"
        },
        {
          "internalType": "enum Schema.LoanRepaymentType",
          "name": "RepaymentType",
          "type": "uint8"
        },
        {
          "internalType": "bool",
          "name": "isExists",
          "type": "bool"
        }
      ],
      "stateMutability": "view",
      "type": "function"
    },
    {
      "inputs": [
        {
          "internalType": "uint256",
          "name": "",
          "type": "uint256"
        },
        {
          "internalType": "uint256",
          "name": "",
          "type": "uint256"
        }
      ],
      "name": "Loans",
      "outputs": [
        {
          "internalType": "uint256",
          "name": "poolId",
          "type": "uint256"
        },
        {
          "internalType": "address",
          "name": "borrower",
          "type": "address"
        },
        {
          "internalType": "uint256",
          "name": "principal",
          "type": "uint256"
        },
        {
          "internalType": "uint256",
          "name": "createdAtTimestamp",
          "type": "uint256"
        },
        {
          "internalType": "enum Schema.LoanStatus",
          "name": "status",
          "type": "uint8"
        },
        {
          "internalType": "bool",
          "name": "isExists",
          "type": "bool"
        }
      ],
      "stateMutability": "view",
      "type": "function"
    },
    {
      "inputs": [
        {
          "internalType": "uint256",
          "name": "",
          "type": "uint256"
        }
      ],
      "name": "Pools",
      "outputs": [
        {
          "internalType": "uint256",
          "name": "amount",
          "type": "uint256"
        },
        {
          "internalType": "uint16",
          "name": "paymentCycle",
          "type": "uint16"
        },
        {
          "internalType": "uint16",
          "name": "APR",
          "type": "uint16"
        },
        {
          "internalType": "uint256",
          "name": "durationInSecs",
          "type": "uint256"
        },
        {
          "internalType": "uint16",
          "name": "durationInMonths",
          "type": "uint16"
        },
        {
          "internalType": "address",
          "name": "creator",
          "type": "address"
        },
        {
          "internalType": "enum Schema.PoolStatus",
          "name": "status",
          "type": "uint8"
        },
        {
          "internalType": "bool",
          "name": "isExists",
          "type": "bool"
        }
      ],
      "stateMutability": "view",
      "type": "function"
    },
    {
      "inputs": [
        {
          "internalType": "uint256",
          "name": "poolId",
          "type": "uint256"
        },
        {
          "internalType": "address",
          "name": "borrowerAddress",
          "type": "address"
        },
        {
          "internalType": "uint256",
          "name": "principal",
          "type": "uint256"
        }
      ],
      "name": "_createLoan",
      "outputs": [
        {
          "internalType": "uint256",
          "name": "",
          "type": "uint256"
        }
      ],
      "stateMutability": "nonpayable",
      "type": "function"
    },
    {
      "inputs": [
        {
          "internalType": "uint256",
          "name": "loanId",
          "type": "uint256"
        },
        {
          "internalType": "uint256",
          "name": "amount",
          "type": "uint256"
        },
        {
          "internalType": "enum Schema.LoanRepaymentType",
          "name": "repaymentType",
          "type": "uint8"
        }
      ],
      "name": "_createLoanRepayment",
      "outputs": [
        {
          "internalType": "uint256",
          "name": "",
          "type": "uint256"
        }
      ],
      "stateMutability": "nonpayable",
      "type": "function"
    },
    {
      "inputs": [
        {
          "internalType": "uint256",
          "name": "_amount",
          "type": "uint256"
        },
        {
          "internalType": "uint16",
          "name": "_paymentCycle",
          "type": "uint16"
        },
        {
          "internalType": "uint16",
          "name": "_APR",
          "type": "uint16"
        },
        {
          "internalType": "uint256",
          "name": "_durationInSecs",
          "type": "uint256"
        },
        {
          "internalType": "uint16",
          "name": "_durationInMonths",
          "type": "uint16"
        },
        {
          "internalType": "address",
          "name": "_creator",
          "type": "address"
        }
      ],
      "name": "_createPool",
      "outputs": [
        {
          "internalType": "uint256",
          "name": "",
          "type": "uint256"
        }
      ],
      "stateMutability": "nonpayable",
      "type": "function"
    },
    {
      "inputs": [
        {
          "internalType": "uint256",
          "name": "loanId",
          "type": "uint256"
        },
        {
          "internalType": "uint256",
          "name": "loanRepaymentiD",
          "type": "uint256"
        }
      ],
      "name": "_getLoanRepaymentByLoanID",
      "outputs": [
        {
          "components": [
            {
              "internalType": "uint256",
              "name": "loanId",
              "type": "uint256"
            },
            {
              "internalType": "uint256",
              "name": "amount",
              "type": "uint256"
            },
            {
              "internalType": "enum Schema.LoanRepaymentType",
              "name": "RepaymentType",
              "type": "uint8"
            },
            {
              "internalType": "bool",
              "name": "isExists",
              "type": "bool"
            }
          ],
          "internalType": "struct Schema.LoanRepaymentDetails",
          "name": "",
          "type": "tuple"
        }
      ],
      "stateMutability": "view",
      "type": "function"
    },
    {
      "inputs": [
        {
          "internalType": "uint256",
          "name": "loanId",
          "type": "uint256"
        },
        {
          "internalType": "uint256",
          "name": "poolId",
          "type": "uint256"
        },
        {
          "internalType": "address",
          "name": "borrowerAddress",
          "type": "address"
        },
        {
          "internalType": "uint256",
          "name": "principal",
          "type": "uint256"
        },
        {
          "internalType": "uint256",
          "name": "createdAtTimestamp",
          "type": "uint256"
        },
        {
          "internalType": "enum Schema.LoanStatus",
          "name": "status",
          "type": "uint8"
        }
      ],
      "name": "_updateLoan",
      "outputs": [],
      "stateMutability": "nonpayable",
      "type": "function"
    },
    {
      "inputs": [
        {
          "internalType": "uint256",
          "name": "poolId",
          "type": "uint256"
        },
        {
          "internalType": "uint256",
          "name": "_amount",
          "type": "uint256"
        },
        {
          "internalType": "uint16",
          "name": "_paymentCycle",
          "type": "uint16"
        },
        {
          "internalType": "uint16",
          "name": "_APR",
          "type": "uint16"
        },
        {
          "internalType": "uint256",
          "name": "_durationInSecs",
          "type": "uint256"
        },
        {
          "internalType": "uint16",
          "name": "_durationInMonths",
          "type": "uint16"
        },
        {
          "internalType": "address",
          "name": "_creator",
          "type": "address"
        },
        {
          "internalType": "enum Schema.PoolStatus",
          "name": "status",
          "type": "uint8"
        }
      ],
      "name": "_updatePool",
      "outputs": [],
      "stateMutability": "nonpayable",
      "type": "function"
    },
    {
      "inputs": [
        {
          "internalType": "uint256",
          "name": "",
          "type": "uint256"
        }
      ],
      "name": "countLoanRepaymentsForLoan",
      "outputs": [
        {
          "internalType": "uint256",
          "name": "",
          "type": "uint256"
        }
      ],
      "stateMutability": "view",
      "type": "function"
    },
    {
      "inputs": [
        {
          "internalType": "uint256",
          "name": "",
          "type": "uint256"
        }
      ],
      "name": "countLoansInPool",
      "outputs": [
        {
          "internalType": "uint256",
          "name": "",
          "type": "uint256"
        }
      ],
      "stateMutability": "view",
      "type": "function"
    },
    {
      "inputs": [
        {
          "internalType": "uint256",
          "name": "poolId",
          "type": "uint256"
        }
      ],
      "name": "getCountLoansInPool",
      "outputs": [
        {
          "internalType": "uint256",
          "name": "",
          "type": "uint256"
        }
      ],
      "stateMutability": "view",
      "type": "function"
    },
    {
      "inputs": [
        {
          "internalType": "uint256",
          "name": "poolId",
          "type": "uint256"
        },
        {
          "internalType": "uint256",
          "name": "loanId",
          "type": "uint256"
        }
      ],
      "name": "getLoanByPoolID",
      "outputs": [
        {
          "components": [
            {
              "internalType": "uint256",
              "name": "poolId",
              "type": "uint256"
            },
            {
              "internalType": "address",
              "name": "borrower",
              "type": "address"
            },
            {
              "internalType": "uint256",
              "name": "principal",
              "type": "uint256"
            },
            {
              "internalType": "uint256",
              "name": "createdAtTimestamp",
              "type": "uint256"
            },
            {
              "internalType": "enum Schema.LoanStatus",
              "name": "status",
              "type": "uint8"
            },
            {
              "internalType": "bool",
              "name": "isExists",
              "type": "bool"
            }
          ],
          "internalType": "struct Schema.LoanDetails",
          "name": "",
          "type": "tuple"
        }
      ],
      "stateMutability": "view",
      "type": "function"
    },
    {
      "inputs": [
        {
          "internalType": "uint256",
          "name": "loanId",
          "type": "uint256"
        },
        {
          "internalType": "uint256",
          "name": "loanRepaymentiD",
          "type": "uint256"
        }
      ],
      "name": "getLoanRepaymentByLoanID",
      "outputs": [
        {
          "components": [
            {
              "internalType": "uint256",
              "name": "loanId",
              "type": "uint256"
            },
            {
              "internalType": "uint256",
              "name": "amount",
              "type": "uint256"
            },
            {
              "internalType": "enum Schema.LoanRepaymentType",
              "name": "RepaymentType",
              "type": "uint8"
            },
            {
              "internalType": "bool",
              "name": "isExists",
              "type": "bool"
            }
          ],
          "internalType": "struct Schema.LoanRepaymentDetails",
          "name": "",
          "type": "tuple"
        }
      ],
      "stateMutability": "view",
      "type": "function"
    },
    {
      "inputs": [
        {
          "internalType": "uint256",
          "name": "poolId",
          "type": "uint256"
        }
      ],
      "name": "getPoolByID",
      "outputs": [
        {
          "components": [
            {
              "internalType": "uint256",
              "name": "amount",
              "type": "uint256"
            },
            {
              "internalType": "uint16",
              "name": "paymentCycle",
              "type": "uint16"
            },
            {
              "internalType": "uint16",
              "name": "APR",
              "type": "uint16"
            },
            {
              "internalType": "uint256",
              "name": "durationInSecs",
              "type": "uint256"
            },
            {
              "internalType": "uint16",
              "name": "durationInMonths",
              "type": "uint16"
            },
            {
              "internalType": "address",
              "name": "creator",
              "type": "address"
            },
            {
              "internalType": "enum Schema.PoolStatus",
              "name": "status",
              "type": "uint8"
            },
            {
              "internalType": "bool",
              "name": "isExists",
              "type": "bool"
            }
          ],
          "internalType": "struct Schema.PoolDetails",
          "name": "",
          "type": "tuple"
        }
      ],
      "stateMutability": "view",
      "type": "function"
    },
    {
      "inputs": [],
      "name": "owner",
      "outputs": [
        {
          "internalType": "address",
          "name": "",
          "type": "address"
        }
      ],
      "stateMutability": "view",
      "type": "function"
    },
    {
      "inputs": [],
      "name": "renounceOwnership",
      "outputs": [],
      "stateMutability": "nonpayable",
      "type": "function"
    },
    {
      "inputs": [],
      "name": "totalLoanRepayments",
      "outputs": [
        {
          "internalType": "uint256",
          "name": "",
          "type": "uint256"
        }
      ],
      "stateMutability": "view",
      "type": "function"
    },
    {
      "inputs": [],
      "name": "totalLoans",
      "outputs": [
        {
          "internalType": "uint256",
          "name": "",
          "type": "uint256"
        }
      ],
      "stateMutability": "view",
      "type": "function"
    },
    {
      "inputs": [],
      "name": "totalPools",
      "outputs": [
        {
          "internalType": "uint256",
          "name": "",
          "type": "uint256"
        }
      ],
      "stateMutability": "view",
      "type": "function"
    },
    {
      "inputs": [
        {
          "internalType": "address",
          "name": "newOwner",
          "type": "address"
        }
      ],
      "name": "transferOwnership",
      "outputs": [],
      "stateMutability": "nonpayable",
      "type": "function"
    }
  ],
  "bytecode": "0x608060405260006002556000600455600060075534801561001f57600080fd5b5061003c61003161004160201b60201c565b61004960201b60201c565b61010d565b600033905090565b60008060009054906101000a900473ffffffffffffffffffffffffffffffffffffffff169050816000806101000a81548173ffffffffffffffffffffffffffffffffffffffff021916908373ffffffffffffffffffffffffffffffffffffffff1602179055508173ffffffffffffffffffffffffffffffffffffffff168173ffffffffffffffffffffffffffffffffffffffff167f8be0079c531659141344cd1fd0a4f28419497f9722a3daafe3b4186f6b6457e060405160405180910390a35050565b612376806200011d6000396000f3fe608060405234801561001057600080fd5b50600436106101365760003560e01c8063715018a6116100b85780638c3a075f1161007c5780638c3a075f146103ce5780638da5cb5b146103fe578063ab3c7e521461041c578063b769c2a01461043a578063cc952b5714610456578063f2fde38b1461047457610136565b8063715018a6146102fa57806373dfccca1461030457806374eb6e591461033b57806386822b061461036e5780638747b4481461039e57610136565b80633e2e5f38116100ff5780633e2e5f381461020a578063468ac5771461023a5780635055149c1461026a578063672e4d6e1461029a5780636bac6372146102ca57610136565b80625fffce1461013b57806316d7fc841461016b57806316f56af3146101a0578063193eded6146101bc57806329a16ac6146101ec575b600080fd5b610155600480360381019061015091906116d0565b610490565b604051610162919061170c565b60405180910390f35b61018560048036038101906101809190611727565b610510565b6040516101979695949392919061183a565b60405180910390f35b6101ba60048036038101906101b591906118ec565b610593565b005b6101d660048036038101906101d19190611727565b6106d7565b6040516101e39190611a34565b60405180910390f35b6101f4610780565b604051610201919061170c565b60405180910390f35b610224600480360381019061021f9190611a4f565b610786565b604051610231919061170c565b60405180910390f35b610254600480360381019061024f9190611adc565b61092a565b604051610261919061170c565b60405180910390f35b610284600480360381019061027f91906116d0565b610afb565b6040516102919190611c71565b60405180910390f35b6102b460048036038101906102af91906116d0565b610cac565b6040516102c1919061170c565b60405180910390f35b6102e460048036038101906102df9190611727565b610cc4565b6040516102f19190611d17565b60405180910390f35b610302610e41565b005b61031e600480360381019061031991906116d0565b610e55565b604051610332989796959493929190611d50565b60405180910390f35b61035560048036038101906103509190611727565b610f01565b6040516103659493929190611ddd565b60405180910390f35b61038860048036038101906103839190611e47565b610f58565b604051610395919061170c565b60405180910390f35b6103b860048036038101906103b391906116d0565b611099565b6040516103c5919061170c565b60405180910390f35b6103e860048036038101906103e39190611727565b6110b1565b6040516103f59190611a34565b60405180910390f35b6104066111ce565b6040516104139190611e9a565b60405180910390f35b6104246111f7565b604051610431919061170c565b60405180910390f35b610454600480360381019061044f9190611eda565b6111fd565b005b61045e6113aa565b60405161046b919061170c565b60405180910390f35b61048e60048036038101906104899190611f90565b6113b0565b005b60006001600083815260200190815260200160002060030160179054906101000a900460ff166104f5576040517f08c379a00000000000000000000000000000000000000000000000000000000081526004016104ec90612040565b60405180910390fd5b60056000838152602001908152602001600020549050919050565b6003602052816000526040600020602052806000526040600020600091509150508060000154908060010160009054906101000a900473ffffffffffffffffffffffffffffffffffffffff16908060020154908060030154908060040160009054906101000a900460ff16908060040160019054906101000a900460ff16905086565b61059b611434565b6040518060c001604052808681526020018573ffffffffffffffffffffffffffffffffffffffff1681526020018481526020018381526020018260018111156105e7576105e66117a8565b5b8152602001600115158152506003600087815260200190815260200160002060008881526020019081526020016000206000820151816000015560208201518160010160006101000a81548173ffffffffffffffffffffffffffffffffffffffff021916908373ffffffffffffffffffffffffffffffffffffffff160217905550604082015181600201556060820151816003015560808201518160040160006101000a81548160ff021916908360018111156106a7576106a66117a8565b5b021790555060a08201518160040160016101000a81548160ff021916908315150217905550905050505050505050565b6106df61157e565b60066000848152602001908152602001600020600083815260200190815260200160002060405180608001604052908160008201548152602001600182015481526020016002820160009054906101000a900460ff166001811115610747576107466117a8565b5b6001811115610759576107586117a8565b5b81526020016002820160019054906101000a900460ff161515151581525050905092915050565b60075481565b6000610790611434565b600060045490506040518060c001604052808681526020018573ffffffffffffffffffffffffffffffffffffffff168152602001848152602001428152602001600060018111156107e4576107e36117a8565b5b8152602001600115158152506003600087815260200190815260200160002060008381526020019081526020016000206000820151816000015560208201518160010160006101000a81548173ffffffffffffffffffffffffffffffffffffffff021916908373ffffffffffffffffffffffffffffffffffffffff160217905550604082015181600201556060820151816003015560808201518160040160006101000a81548160ff021916908360018111156108a4576108a36117a8565b5b021790555060a08201518160040160016101000a81548160ff0219169083151502179055509050506004600081546108db9061208f565b9190508190555060056000868152602001908152602001600020600081546109029061208f565b9190508190556005600087815260200190815260200160002081905550809150509392505050565b6000610934611434565b600060025490506040518061010001604052808981526020018861ffff1681526020018761ffff1681526020018681526020018561ffff1681526020018473ffffffffffffffffffffffffffffffffffffffff168152602001600060018111156109a1576109a06117a8565b5b815260200160011515815250600160008381526020019081526020016000206000820151816000015560208201518160010160006101000a81548161ffff021916908361ffff16021790555060408201518160010160026101000a81548161ffff021916908361ffff1602179055506060820151816002015560808201518160030160006101000a81548161ffff021916908361ffff16021790555060a08201518160030160026101000a81548173ffffffffffffffffffffffffffffffffffffffff021916908373ffffffffffffffffffffffffffffffffffffffff16021790555060c08201518160030160166101000a81548160ff02191690836001811115610aaf57610aae6117a8565b5b021790555060e08201518160030160176101000a81548160ff021916908315150217905550905050600260008154610ae69061208f565b91905081905550809150509695505050505050565b610b036115ba565b6001600083815260200190815260200160002060030160179054906101000a900460ff16610b66576040517f08c379a0000000000000000000000000000000000000000000000000000000008152600401610b5d90612124565b60405180910390fd5b6001600083815260200190815260200160002060405180610100016040529081600082015481526020016001820160009054906101000a900461ffff1661ffff1661ffff1681526020016001820160029054906101000a900461ffff1661ffff1661ffff168152602001600282015481526020016003820160009054906101000a900461ffff1661ffff1661ffff1681526020016003820160029054906101000a900473ffffffffffffffffffffffffffffffffffffffff1673ffffffffffffffffffffffffffffffffffffffff1673ffffffffffffffffffffffffffffffffffffffff1681526020016003820160169054906101000a900460ff166001811115610c7457610c736117a8565b5b6001811115610c8657610c856117a8565b5b81526020016003820160179054906101000a900460ff1615151515815250509050919050565b60086020528060005260406000206000915090505481565b610ccc611635565b60036000848152602001908152602001600020600083815260200190815260200160002060040160019054906101000a900460ff16610d40576040517f08c379a0000000000000000000000000000000000000000000000000000000008152600401610d3790612190565b60405180910390fd5b6003600084815260200190815260200160002060008381526020019081526020016000206040518060c0016040529081600082015481526020016001820160009054906101000a900473ffffffffffffffffffffffffffffffffffffffff1673ffffffffffffffffffffffffffffffffffffffff1673ffffffffffffffffffffffffffffffffffffffff16815260200160028201548152602001600382015481526020016004820160009054906101000a900460ff166001811115610e0857610e076117a8565b5b6001811115610e1a57610e196117a8565b5b81526020016004820160019054906101000a900460ff161515151581525050905092915050565b610e49611434565b610e5360006114b2565b565b60016020528060005260406000206000915090508060000154908060010160009054906101000a900461ffff16908060010160029054906101000a900461ffff16908060020154908060030160009054906101000a900461ffff16908060030160029054906101000a900473ffffffffffffffffffffffffffffffffffffffff16908060030160169054906101000a900460ff16908060030160179054906101000a900460ff16905088565b6006602052816000526040600020602052806000526040600020600091509150508060000154908060010154908060020160009054906101000a900460ff16908060020160019054906101000a900460ff16905084565b6000610f62611434565b6000600860008681526020019081526020016000205490506040518060800160405280868152602001858152602001846001811115610fa457610fa36117a8565b5b815260200160011515815250600660008781526020019081526020016000206000838152602001908152602001600020600082015181600001556020820151816001015560408201518160020160006101000a81548160ff02191690836001811115611013576110126117a8565b5b021790555060608201518160020160016101000a81548160ff02191690831515021790555090505060076000815461104a9061208f565b9190508190555060086000868152602001908152602001600020600081546110719061208f565b9190508190556008600087815260200190815260200160002081905550809150509392505050565b60056020528060005260406000206000915090505481565b6110b961157e565b60066000848152602001908152602001600020600083815260200190815260200160002060020160019054906101000a900460ff1661112d576040517f08c379a000000000000000000000000000000000000000000000000000000000815260040161112490612222565b60405180910390fd5b60066000848152602001908152602001600020600083815260200190815260200160002060405180608001604052908160008201548152602001600182015481526020016002820160009054906101000a900460ff166001811115611195576111946117a8565b5b60018111156111a7576111a66117a8565b5b81526020016002820160019054906101000a900460ff161515151581525050905092915050565b60008060009054906101000a900473ffffffffffffffffffffffffffffffffffffffff16905090565b60025481565b611205611434565b6040518061010001604052808881526020018761ffff1681526020018661ffff1681526020018581526020018461ffff1681526020018373ffffffffffffffffffffffffffffffffffffffff16815260200182600181111561126a576112696117a8565b5b815260200160011515815250600160008a81526020019081526020016000206000820151816000015560208201518160010160006101000a81548161ffff021916908361ffff16021790555060408201518160010160026101000a81548161ffff021916908361ffff1602179055506060820151816002015560808201518160030160006101000a81548161ffff021916908361ffff16021790555060a08201518160030160026101000a81548173ffffffffffffffffffffffffffffffffffffffff021916908373ffffffffffffffffffffffffffffffffffffffff16021790555060c08201518160030160166101000a81548160ff02191690836001811115611378576113776117a8565b5b021790555060e08201518160030160176101000a81548160ff0219169083151502179055509050505050505050505050565b60045481565b6113b8611434565b600073ffffffffffffffffffffffffffffffffffffffff168173ffffffffffffffffffffffffffffffffffffffff161415611428576040517f08c379a000000000000000000000000000000000000000000000000000000000815260040161141f906122b4565b60405180910390fd5b611431816114b2565b50565b61143c611576565b73ffffffffffffffffffffffffffffffffffffffff1661145a6111ce565b73ffffffffffffffffffffffffffffffffffffffff16146114b0576040517f08c379a00000000000000000000000000000000000000000000000000000000081526004016114a790612320565b60405180910390fd5b565b60008060009054906101000a900473ffffffffffffffffffffffffffffffffffffffff169050816000806101000a81548173ffffffffffffffffffffffffffffffffffffffff021916908373ffffffffffffffffffffffffffffffffffffffff1602179055508173ffffffffffffffffffffffffffffffffffffffff168173ffffffffffffffffffffffffffffffffffffffff167f8be0079c531659141344cd1fd0a4f28419497f9722a3daafe3b4186f6b6457e060405160405180910390a35050565b600033905090565b60405180608001604052806000815260200160008152602001600060018111156115ab576115aa6117a8565b5b81526020016000151581525090565b60405180610100016040528060008152602001600061ffff168152602001600061ffff16815260200160008152602001600061ffff168152602001600073ffffffffffffffffffffffffffffffffffffffff16815260200160006001811115611626576116256117a8565b5b81526020016000151581525090565b6040518060c0016040528060008152602001600073ffffffffffffffffffffffffffffffffffffffff168152602001600081526020016000815260200160006001811115611686576116856117a8565b5b81526020016000151581525090565b600080fd5b6000819050919050565b6116ad8161169a565b81146116b857600080fd5b50565b6000813590506116ca816116a4565b92915050565b6000602082840312156116e6576116e5611695565b5b60006116f4848285016116bb565b91505092915050565b6117068161169a565b82525050565b600060208201905061172160008301846116fd565b92915050565b6000806040838503121561173e5761173d611695565b5b600061174c858286016116bb565b925050602061175d858286016116bb565b9150509250929050565b600073ffffffffffffffffffffffffffffffffffffffff82169050919050565b600061179282611767565b9050919050565b6117a281611787565b82525050565b7f4e487b7100000000000000000000000000000000000000000000000000000000600052602160045260246000fd5b600281106117e8576117e76117a8565b5b50565b60008190506117f9826117d7565b919050565b6000611809826117eb565b9050919050565b611819816117fe565b82525050565b60008115159050919050565b6118348161181f565b82525050565b600060c08201905061184f60008301896116fd565b61185c6020830188611799565b61186960408301876116fd565b61187660608301866116fd565b6118836080830185611810565b61189060a083018461182b565b979650505050505050565b6118a481611787565b81146118af57600080fd5b50565b6000813590506118c18161189b565b92915050565b600281106118d457600080fd5b50565b6000813590506118e6816118c7565b92915050565b60008060008060008060c0878903121561190957611908611695565b5b600061191789828a016116bb565b965050602061192889828a016116bb565b955050604061193989828a016118b2565b945050606061194a89828a016116bb565b935050608061195b89828a016116bb565b92505060a061196c89828a016118d7565b9150509295509295509295565b6119828161169a565b82525050565b60028110611999576119986117a8565b5b50565b60008190506119aa82611988565b919050565b60006119ba8261199c565b9050919050565b6119ca816119af565b82525050565b6119d98161181f565b82525050565b6080820160008201516119f56000850182611979565b506020820151611a086020850182611979565b506040820151611a1b60408501826119c1565b506060820151611a2e60608501826119d0565b50505050565b6000608082019050611a4960008301846119df565b92915050565b600080600060608486031215611a6857611a67611695565b5b6000611a76868287016116bb565b9350506020611a87868287016118b2565b9250506040611a98868287016116bb565b9150509250925092565b600061ffff82169050919050565b611ab981611aa2565b8114611ac457600080fd5b50565b600081359050611ad681611ab0565b92915050565b60008060008060008060c08789031215611af957611af8611695565b5b6000611b0789828a016116bb565b9650506020611b1889828a01611ac7565b9550506040611b2989828a01611ac7565b9450506060611b3a89828a016116bb565b9350506080611b4b89828a01611ac7565b92505060a0611b5c89828a016118b2565b9150509295509295509295565b611b7281611aa2565b82525050565b611b8181611787565b82525050565b60028110611b9857611b976117a8565b5b50565b6000819050611ba982611b87565b919050565b6000611bb982611b9b565b9050919050565b611bc981611bae565b82525050565b61010082016000820151611be66000850182611979565b506020820151611bf96020850182611b69565b506040820151611c0c6040850182611b69565b506060820151611c1f6060850182611979565b506080820151611c326080850182611b69565b5060a0820151611c4560a0850182611b78565b5060c0820151611c5860c0850182611bc0565b5060e0820151611c6b60e08501826119d0565b50505050565b600061010082019050611c876000830184611bcf565b92915050565b611c96816117fe565b82525050565b60c082016000820151611cb26000850182611979565b506020820151611cc56020850182611b78565b506040820151611cd86040850182611979565b506060820151611ceb6060850182611979565b506080820151611cfe6080850182611c8d565b5060a0820151611d1160a08501826119d0565b50505050565b600060c082019050611d2c6000830184611c9c565b92915050565b611d3b81611aa2565b82525050565b611d4a81611bae565b82525050565b600061010082019050611d66600083018b6116fd565b611d73602083018a611d32565b611d806040830189611d32565b611d8d60608301886116fd565b611d9a6080830187611d32565b611da760a0830186611799565b611db460c0830185611d41565b611dc160e083018461182b565b9998505050505050505050565b611dd7816119af565b82525050565b6000608082019050611df260008301876116fd565b611dff60208301866116fd565b611e0c6040830185611dce565b611e19606083018461182b565b95945050505050565b60028110611e2f57600080fd5b50565b600081359050611e4181611e22565b92915050565b600080600060608486031215611e6057611e5f611695565b5b6000611e6e868287016116bb565b9350506020611e7f868287016116bb565b9250506040611e9086828701611e32565b9150509250925092565b6000602082019050611eaf6000830184611799565b92915050565b60028110611ec257600080fd5b50565b600081359050611ed481611eb5565b92915050565b600080600080600080600080610100898b031215611efb57611efa611695565b5b6000611f098b828c016116bb565b9850506020611f1a8b828c016116bb565b9750506040611f2b8b828c01611ac7565b9650506060611f3c8b828c01611ac7565b9550506080611f4d8b828c016116bb565b94505060a0611f5e8b828c01611ac7565b93505060c0611f6f8b828c016118b2565b92505060e0611f808b828c01611ec5565b9150509295985092959890939650565b600060208284031215611fa657611fa5611695565b5b6000611fb4848285016118b2565b91505092915050565b600082825260208201905092915050565b7f676574436f756e744c6f616e73496e506f6f6c3a204e6f20737563682072656360008201527f6f72640000000000000000000000000000000000000000000000000000000000602082015250565b600061202a602383611fbd565b915061203582611fce565b604082019050919050565b600060208201905081810360008301526120598161201d565b9050919050565b7f4e487b7100000000000000000000000000000000000000000000000000000000600052601160045260246000fd5b600061209a8261169a565b91507fffffffffffffffffffffffffffffffffffffffffffffffffffffffffffffffff8214156120cd576120cc612060565b5b600182019050919050565b7f676574506f6f6c427949443a204e6f2073756368207265636f72640000000000600082015250565b600061210e601b83611fbd565b9150612119826120d8565b602082019050919050565b6000602082019050818103600083015261213d81612101565b9050919050565b7f6765744c6f616e4279506f6f6c49443a204e6f2073756368207265636f726400600082015250565b600061217a601f83611fbd565b915061218582612144565b602082019050919050565b600060208201905081810360008301526121a98161216d565b9050919050565b7f6765744c6f616e52657061796d656e7442794c6f616e49443a204e6f2073756360008201527f68207265636f7264000000000000000000000000000000000000000000000000602082015250565b600061220c602883611fbd565b9150612217826121b0565b604082019050919050565b6000602082019050818103600083015261223b816121ff565b9050919050565b7f4f776e61626c653a206e6577206f776e657220697320746865207a65726f206160008201527f6464726573730000000000000000000000000000000000000000000000000000602082015250565b600061229e602683611fbd565b91506122a982612242565b604082019050919050565b600060208201905081810360008301526122cd81612291565b9050919050565b7f4f776e61626c653a2063616c6c6572206973206e6f7420746865206f776e6572600082015250565b600061230a602083611fbd565b9150612315826122d4565b602082019050919050565b60006020820190508181036000830152612339816122fd565b905091905056fea264697066735822122053ccd951b6ef4d7c26f3b0d58b022f34a43630ec9501aa1e134aa6deae01e17d64736f6c63430008090033",
  "linkReferences": {},
  "deployedLinkReferences": {}
}