{
  "_format": "hh-sol-artifact-1",
  "contractName": "Qredos",
  "sourceName": "contracts/Qredos.sol",
  "abi": [
    {
      "inputs": [
        {
          "internalType": "address",
          "name": "_paymentTokenAddress",
          "type": "address"
        },
        {
          "internalType": "address",
          "name": "_lendingPoolAddress",
          "type": "address"
        },
        {
          "internalType": "address",
          "name": "_QredosStoreAddress",
          "type": "address"
        }
      ],
      "stateMutability": "nonpayable",
      "type": "constructor"
    },
    {
      "anonymous": false,
      "inputs": [
        {
          "indexed": true,
          "internalType": "uint256",
          "name": "purchaseId",
          "type": "uint256"
        },
        {
          "indexed": true,
          "internalType": "uint256",
          "name": "liquidationId",
          "type": "uint256"
        },
        {
          "indexed": false,
          "internalType": "address",
          "name": "newOwner",
          "type": "address"
        }
      ],
      "name": "CompleteLiquidation",
      "type": "event"
    },
    {
      "anonymous": false,
      "inputs": [
        {
          "indexed": false,
          "internalType": "address",
          "name": "oldValue",
          "type": "address"
        },
        {
          "indexed": false,
          "internalType": "address",
          "name": "newValue",
          "type": "address"
        }
      ],
      "name": "LendingPoolAddressUpdated",
      "type": "event"
    },
    {
      "anonymous": false,
      "inputs": [
        {
          "indexed": true,
          "internalType": "uint256",
          "name": "loanId",
          "type": "uint256"
        },
        {
          "indexed": true,
          "internalType": "address",
          "name": "borrower",
          "type": "address"
        },
        {
          "indexed": false,
          "internalType": "uint256",
          "name": "principal",
          "type": "uint256"
        }
      ],
      "name": "LoanCreated",
      "type": "event"
    },
    {
      "anonymous": false,
      "inputs": [
        {
          "indexed": true,
          "internalType": "uint256",
          "name": "loanRepaymentId",
          "type": "uint256"
        },
        {
          "indexed": true,
          "internalType": "uint256",
          "name": "loanId",
          "type": "uint256"
        },
        {
          "indexed": false,
          "internalType": "uint256",
          "name": "amount",
          "type": "uint256"
        },
        {
          "indexed": false,
          "internalType": "enum Schema.LoanRepaymentType",
          "name": "",
          "type": "uint8"
        }
      ],
      "name": "LoanRepaid",
      "type": "event"
    },
    {
      "anonymous": false,
      "inputs": [
        {
          "indexed": true,
          "internalType": "uint256",
          "name": "purchaseId",
          "type": "uint256"
        },
        {
          "indexed": false,
          "internalType": "address",
          "name": "claimer",
          "type": "address"
        }
      ],
      "name": "NFTClaimed",
      "type": "event"
    },
    {
      "anonymous": false,
      "inputs": [
        {
          "indexed": true,
          "internalType": "address",
          "name": "previousOwner",
          "type": "address"
        },
        {
          "indexed": true,
          "internalType": "address",
          "name": "newOwner",
          "type": "address"
        }
      ],
      "name": "OwnershipTransferred",
      "type": "event"
    },
    {
      "anonymous": false,
      "inputs": [
        {
          "indexed": false,
          "internalType": "address",
          "name": "oldValue",
          "type": "address"
        },
        {
          "indexed": false,
          "internalType": "address",
          "name": "newValue",
          "type": "address"
        }
      ],
      "name": "PaymentTokenAddressUpdated",
      "type": "event"
    },
    {
      "anonymous": false,
      "inputs": [
        {
          "indexed": true,
          "internalType": "uint256",
          "name": "poolId",
          "type": "uint256"
        },
        {
          "indexed": false,
          "internalType": "uint256",
          "name": "amountWithdrawn",
          "type": "uint256"
        }
      ],
      "name": "PoolClosed",
      "type": "event"
    },
    {
      "anonymous": false,
      "inputs": [
        {
          "indexed": true,
          "internalType": "uint256",
          "name": "poolId",
          "type": "uint256"
        },
        {
          "indexed": true,
          "internalType": "address",
          "name": "creator",
          "type": "address"
        }
      ],
      "name": "PoolCreated",
      "type": "event"
    },
    {
      "anonymous": false,
      "inputs": [
        {
          "indexed": true,
          "internalType": "uint256",
          "name": "poolId",
          "type": "uint256"
        },
        {
          "indexed": false,
          "internalType": "uint256",
          "name": "amount",
          "type": "uint256"
        }
      ],
      "name": "PoolFunded",
      "type": "event"
    },
    {
      "anonymous": false,
      "inputs": [],
      "name": "PoolRegistryContractDeployed",
      "type": "event"
    },
    {
      "anonymous": false,
      "inputs": [
        {
          "indexed": true,
          "internalType": "uint256",
          "name": "purchaseId",
          "type": "uint256"
        }
      ],
      "name": "PurchaseCompleted",
      "type": "event"
    },
    {
      "anonymous": false,
      "inputs": [
        {
          "indexed": true,
          "internalType": "address",
          "name": "userAddress",
          "type": "address"
        },
        {
          "indexed": true,
          "internalType": "uint256",
          "name": "purchaseId",
          "type": "uint256"
        },
        {
          "indexed": false,
          "internalType": "uint256",
          "name": "downPayment",
          "type": "uint256"
        },
        {
          "indexed": false,
          "internalType": "uint16",
          "name": "downPaymentPercentage",
          "type": "uint16"
        }
      ],
      "name": "PurchaseCreated",
      "type": "event"
    },
    {
      "anonymous": false,
      "inputs": [
        {
          "indexed": false,
          "internalType": "address",
          "name": "paymentTokenAddress",
          "type": "address"
        },
        {
          "indexed": false,
          "internalType": "address",
          "name": "lendingPoolAddress",
          "type": "address"
        }
      ],
      "name": "QredosContractDeployed",
      "type": "event"
    },
    {
      "anonymous": false,
      "inputs": [
        {
          "indexed": true,
          "internalType": "uint256",
          "name": "purchaseId",
          "type": "uint256"
        },
        {
          "indexed": false,
          "internalType": "address",
          "name": "borrowerAddress",
          "type": "address"
        },
        {
          "indexed": false,
          "internalType": "uint256",
          "name": "refundAmount",
          "type": "uint256"
        }
      ],
      "name": "RefundBorrower",
      "type": "event"
    },
    {
      "anonymous": false,
      "inputs": [
        {
          "indexed": true,
          "internalType": "uint256",
          "name": "purchaseId",
          "type": "uint256"
        },
        {
          "indexed": false,
          "internalType": "uint256",
          "name": "discountAmount",
          "type": "uint256"
        },
        {
          "indexed": true,
          "internalType": "uint256",
          "name": "liquidationId",
          "type": "uint256"
        }
      ],
      "name": "StartLiquidation",
      "type": "event"
    },
    {
      "inputs": [
        {
          "internalType": "uint256",
          "name": "purchaseId",
          "type": "uint256"
        },
        {
          "internalType": "uint256",
          "name": "liquidationId",
          "type": "uint256"
        }
      ],
      "name": "_calcBorrowerRefundAmount",
      "outputs": [
        {
          "internalType": "uint256",
          "name": "",
          "type": "uint256"
        }
      ],
      "stateMutability": "view",
      "type": "function"
    },
    {
      "inputs": [
        {
          "internalType": "uint256",
          "name": "purchaseId",
          "type": "uint256"
        },
        {
          "internalType": "uint256",
          "name": "poolId",
          "type": "uint256"
        }
      ],
      "name": "claimNft",
      "outputs": [],
      "stateMutability": "nonpayable",
      "type": "function"
    },
    {
      "inputs": [
        {
          "internalType": "uint256",
          "name": "poolId",
          "type": "uint256"
        },
        {
          "internalType": "address",
          "name": "reciever",
          "type": "address"
        }
      ],
      "name": "closePool",
      "outputs": [],
      "stateMutability": "nonpayable",
      "type": "function"
    },
    {
      "inputs": [
        {
          "internalType": "uint256",
          "name": "liquidationId",
          "type": "uint256"
        },
        {
          "internalType": "address",
          "name": "borrowerAddress",
          "type": "address"
        }
      ],
      "name": "completeLiquidation",
      "outputs": [],
      "stateMutability": "nonpayable",
      "type": "function"
    },
    {
      "inputs": [
        {
          "internalType": "uint256",
          "name": "purchaseId",
          "type": "uint256"
        }
      ],
      "name": "completeNFTPurchase",
      "outputs": [],
      "stateMutability": "nonpayable",
      "type": "function"
    },
    {
      "inputs": [
        {
          "internalType": "uint256",
          "name": "_amount",
          "type": "uint256"
        },
        {
          "internalType": "uint16",
          "name": "_paymentCycle",
          "type": "uint16"
        },
        {
          "internalType": "uint16",
          "name": "_APR",
          "type": "uint16"
        },
        {
          "internalType": "uint256",
          "name": "_durationInSecs",
          "type": "uint256"
        },
        {
          "internalType": "uint16",
          "name": "_durationInMonths",
          "type": "uint16"
        },
        {
          "internalType": "address",
          "name": "_creator",
          "type": "address"
        }
      ],
      "name": "createPool",
      "outputs": [],
      "stateMutability": "nonpayable",
      "type": "function"
    },
    {
      "inputs": [],
      "name": "forwardAllFunds",
      "outputs": [],
      "stateMutability": "nonpayable",
      "type": "function"
    },
    {
      "inputs": [
        {
          "internalType": "uint256",
          "name": "poolId",
          "type": "uint256"
        },
        {
          "internalType": "uint256",
          "name": "amount",
          "type": "uint256"
        }
      ],
      "name": "fundPool",
      "outputs": [],
      "stateMutability": "nonpayable",
      "type": "function"
    },
    {
      "inputs": [
        {
          "internalType": "uint256",
          "name": "poolId",
          "type": "uint256"
        }
      ],
      "name": "getPoolBalance",
      "outputs": [
        {
          "internalType": "uint256",
          "name": "",
          "type": "uint256"
        }
      ],
      "stateMutability": "view",
      "type": "function"
    },
    {
      "inputs": [],
      "name": "isPaused",
      "outputs": [
        {
          "internalType": "bool",
          "name": "",
          "type": "bool"
        }
      ],
      "stateMutability": "view",
      "type": "function"
    },
    {
      "inputs": [],
      "name": "lendingPoolAddress",
      "outputs": [
        {
          "internalType": "address",
          "name": "",
          "type": "address"
        }
      ],
      "stateMutability": "view",
      "type": "function"
    },
    {
      "inputs": [
        {
          "internalType": "address",
          "name": "",
          "type": "address"
        },
        {
          "internalType": "address",
          "name": "",
          "type": "address"
        },
        {
          "internalType": "uint256",
          "name": "",
          "type": "uint256"
        },
        {
          "internalType": "bytes",
          "name": "",
          "type": "bytes"
        }
      ],
      "name": "onERC721Received",
      "outputs": [
        {
          "internalType": "bytes4",
          "name": "",
          "type": "bytes4"
        }
      ],
      "stateMutability": "pure",
      "type": "function"
    },
    {
      "inputs": [],
      "name": "owner",
      "outputs": [
        {
          "internalType": "address",
          "name": "",
          "type": "address"
        }
      ],
      "stateMutability": "view",
      "type": "function"
    },
    {
      "inputs": [],
      "name": "paymentTokenAddress",
      "outputs": [
        {
          "internalType": "address",
          "name": "",
          "type": "address"
        }
      ],
      "stateMutability": "view",
      "type": "function"
    },
    {
      "inputs": [
        {
          "internalType": "address",
          "name": "tokenAddress",
          "type": "address"
        },
        {
          "internalType": "uint256",
          "name": "tokenId",
          "type": "uint256"
        },
        {
          "internalType": "uint256",
          "name": "downPaymentAmount",
          "type": "uint256"
        },
        {
          "internalType": "uint256",
          "name": "principal",
          "type": "uint256"
        },
        {
          "internalType": "uint256",
          "name": "poolId",
          "type": "uint256"
        }
      ],
      "name": "purchaseNFT",
      "outputs": [],
      "stateMutability": "nonpayable",
      "type": "function"
    },
    {
      "inputs": [],
      "name": "qredosStoreAddress",
      "outputs": [
        {
          "internalType": "address",
          "name": "",
          "type": "address"
        }
      ],
      "stateMutability": "view",
      "type": "function"
    },
    {
      "inputs": [
        {
          "internalType": "uint256",
          "name": "purchaseId",
          "type": "uint256"
        },
        {
          "internalType": "uint256",
          "name": "liquidationId",
          "type": "uint256"
        }
      ],
      "name": "refundBorrower",
      "outputs": [],
      "stateMutability": "nonpayable",
      "type": "function"
    },
    {
      "inputs": [],
      "name": "renounceOwnership",
      "outputs": [],
      "stateMutability": "nonpayable",
      "type": "function"
    },
    {
      "inputs": [
        {
          "internalType": "uint256",
          "name": "purchaseId",
          "type": "uint256"
        },
        {
          "internalType": "enum Schema.LoanRepaymentType",
          "name": "repaymentType",
          "type": "uint8"
        },
        {
          "internalType": "uint256",
          "name": "poolId",
          "type": "uint256"
        }
      ],
      "name": "repayLoan",
      "outputs": [],
      "stateMutability": "nonpayable",
      "type": "function"
    },
    {
      "inputs": [
        {
          "internalType": "uint256",
          "name": "purchaseId",
          "type": "uint256"
        },
        {
          "internalType": "uint256",
          "name": "discountAmount",
          "type": "uint256"
        },
        {
          "internalType": "uint256",
          "name": "currentNftPrice",
          "type": "uint256"
        },
        {
          "internalType": "address",
          "name": "borrowerAddress",
          "type": "address"
        }
      ],
      "name": "startLiquidation",
      "outputs": [],
      "stateMutability": "nonpayable",
      "type": "function"
    },
    {
      "inputs": [],
      "name": "toggleIsPaused",
      "outputs": [],
      "stateMutability": "nonpayable",
      "type": "function"
    },
    {
      "inputs": [
        {
          "internalType": "address",
          "name": "newOwner",
          "type": "address"
        }
      ],
      "name": "transferOwnership",
      "outputs": [],
      "stateMutability": "nonpayable",
      "type": "function"
    }
  ],
  "bytecode": "0x60806040523480156200001157600080fd5b5060405162006dcd38038062006dcd833981810160405281019062000037919062000294565b620000576200004b6200015e60201b60201c565b6200016660201b60201c565b82600160006101000a81548173ffffffffffffffffffffffffffffffffffffffff021916908373ffffffffffffffffffffffffffffffffffffffff16021790555081600260006101000a81548173ffffffffffffffffffffffffffffffffffffffff021916908373ffffffffffffffffffffffffffffffffffffffff16021790555080600360006101000a81548173ffffffffffffffffffffffffffffffffffffffff021916908373ffffffffffffffffffffffffffffffffffffffff1602179055507f65347c9102e9bd382095627b9d28b5a60049293b5b7158efee03d63beb820e4d83836040516200014d92919062000301565b60405180910390a15050506200032e565b600033905090565b60008060009054906101000a900473ffffffffffffffffffffffffffffffffffffffff169050816000806101000a81548173ffffffffffffffffffffffffffffffffffffffff021916908373ffffffffffffffffffffffffffffffffffffffff1602179055508173ffffffffffffffffffffffffffffffffffffffff168173ffffffffffffffffffffffffffffffffffffffff167f8be0079c531659141344cd1fd0a4f28419497f9722a3daafe3b4186f6b6457e060405160405180910390a35050565b600080fd5b600073ffffffffffffffffffffffffffffffffffffffff82169050919050565b60006200025c826200022f565b9050919050565b6200026e816200024f565b81146200027a57600080fd5b50565b6000815190506200028e8162000263565b92915050565b600080600060608486031215620002b057620002af6200022a565b5b6000620002c0868287016200027d565b9350506020620002d3868287016200027d565b9250506040620002e6868287016200027d565b9150509250925092565b620002fb816200024f565b82525050565b6000604082019050620003186000830185620002f0565b620003276020830184620002f0565b9392505050565b616a8f806200033e6000396000f3fe60806040523480156200001157600080fd5b5060043610620001605760003560e01c80639c0b7b5c11620000c9578063da2488cd1162000087578063da2488cd146200035d578063da297df2146200037d578063ed1375d5146200039d578063f2fde38b14620003d3578063f9613d7f14620003f3578063ff9311a014620003ff5762000160565b80639c0b7b5c14620002b75780639d5e2eeb14620002d7578063afb18fe714620002f7578063b187bd261462000319578063d3ae26b3146200033b5762000160565b80636279ce6c11620001235780636279ce6c146200021d57806370a883ca1462000229578063715018a614620002495780637d0812b9146200025557806383b1877614620002755780638da5cb5b14620002955762000160565b8063150b7a0214620001655780632280b3d2146200019b57806325e235ff14620001bd578063553c69b414620001dd5780635acd6fac14620001fd575b600080fd5b6200018360048036038101906200017d919062003fb3565b62000435565b60405162000192919062004086565b60405180910390f35b620001a56200044a565b604051620001b49190620040b4565b60405180910390f35b620001db6004803603810190620001d59190620040d1565b62000470565b005b620001fb6004803603810190620001f5919062004157565b62000840565b005b6200021b6004803603810190620002159190620040d1565b62000a5f565b005b6200022762000c72565b005b6200024760048036038101906200024191906200421b565b62000ded565b005b620002536200153a565b005b6200027360048036038101906200026d919062004277565b62001552565b005b6200029360048036038101906200028d9190620042be565b62001a59565b005b6200029f62001f9c565b604051620002ae9190620040b4565b60405180910390f35b620002d56004803603810190620002cf9190620040d1565b62001fc5565b005b620002f56004803603810190620002ef9190620042f0565b62002228565b005b62000301620023e3565b604051620003109190620040b4565b60405180910390f35b6200032362002409565b6040516200033291906200437f565b60405180910390f35b620003456200241c565b604051620003549190620040b4565b60405180910390f35b6200037b600480360381019062000375919062004277565b62002442565b005b6200039b60048036038101906200039591906200439c565b620027c9565b005b620003bb6004803603810190620003b59190620042be565b62002edc565b604051620003ca919062004435565b60405180910390f35b620003f16004803603810190620003eb919062004452565b62002f96565b005b620003fd62003021565b005b6200041d6004803603810190620004179190620040d1565b62003057565b6040516200042c919062004435565b60405180910390f35b600063150b7a0260e01b905095945050505050565b600360009054906101000a900473ffffffffffffffffffffffffffffffffffffffff1681565b600360149054906101000a900460ff1615620004c3576040517f08c379a0000000000000000000000000000000000000000000000000000000008152600401620004ba90620044e5565b60405180910390fd5b6000600360009054906101000a900473ffffffffffffffffffffffffffffffffffffffff1673ffffffffffffffffffffffffffffffffffffffff1663dfd7f4ae33856040518363ffffffff1660e01b81526004016200052492919062004507565b60e06040518083038186803b1580156200053d57600080fd5b505afa15801562000552573d6000803e3d6000fd5b505050506040513d601f19601f820116820180604052508101906200057891906200471c565b90506000600260009054906101000a900473ffffffffffffffffffffffffffffffffffffffff1673ffffffffffffffffffffffffffffffffffffffff1663d22368676040518163ffffffff1660e01b815260040160206040518083038186803b158015620005e557600080fd5b505afa158015620005fa573d6000803e3d6000fd5b505050506040513d601f19601f820116820180604052508101906200062091906200474e565b73ffffffffffffffffffffffffffffffffffffffff16636bac63728484600001516040518363ffffffff1660e01b81526004016200066092919062004780565b60c06040518083038186803b1580156200067957600080fd5b505afa1580156200068e573d6000803e3d6000fd5b505050506040513d601f19601f82011682018060405250810190620006b4919062004886565b9050600180811115620006cc57620006cb620048b8565b5b81608001516001811115620006e657620006e5620048b8565b5b1462000729576040517f08c379a000000000000000000000000000000000000000000000000000000000815260040162000720906200495d565b60405180910390fd5b816040015173ffffffffffffffffffffffffffffffffffffffff16631e83409a336040518263ffffffff1660e01b8152600401620007689190620040b4565b602060405180830381600087803b1580156200078357600080fd5b505af115801562000798573d6000803e3d6000fd5b505050506040513d601f19601f82011682018060405250810190620007be91906200497f565b62000800576040517f08c379a0000000000000000000000000000000000000000000000000000000008152600401620007f79062004a01565b60405180910390fd5b837fec5f0dee1fc3c7beab746dbd5883eee3f1c9bc07fe02dd318c553c5243f52fea33604051620008329190620040b4565b60405180910390a250505050565b600360149054906101000a900460ff161562000893576040517f08c379a00000000000000000000000000000000000000000000000000000000081526004016200088a90620044e5565b60405180910390fd5b620008e4333088600160009054906101000a900473ffffffffffffffffffffffffffffffffffffffff1673ffffffffffffffffffffffffffffffffffffffff166200388c909392919063ffffffff16565b600160009054906101000a900473ffffffffffffffffffffffffffffffffffffffff1673ffffffffffffffffffffffffffffffffffffffff1663095ea7b3600260009054906101000a900473ffffffffffffffffffffffffffffffffffffffff16886040518363ffffffff1660e01b81526004016200096592919062004507565b602060405180830381600087803b1580156200098057600080fd5b505af115801562000995573d6000803e3d6000fd5b505050506040513d601f19601f82011682018060405250810190620009bb91906200497f565b50600260009054906101000a900473ffffffffffffffffffffffffffffffffffffffff1673ffffffffffffffffffffffffffffffffffffffff1663553c69b48787878787876040518763ffffffff1660e01b815260040162000a239695949392919062004a34565b600060405180830381600087803b15801562000a3e57600080fd5b505af115801562000a53573d6000803e3d6000fd5b50505050505050505050565b600360149054906101000a900460ff161562000ab2576040517f08c379a000000000000000000000000000000000000000000000000000000000815260040162000aa990620044e5565b60405180910390fd5b62000b03333083600160009054906101000a900473ffffffffffffffffffffffffffffffffffffffff1673ffffffffffffffffffffffffffffffffffffffff166200388c909392919063ffffffff16565b600160009054906101000a900473ffffffffffffffffffffffffffffffffffffffff1673ffffffffffffffffffffffffffffffffffffffff1663095ea7b3600260009054906101000a900473ffffffffffffffffffffffffffffffffffffffff16836040518363ffffffff1660e01b815260040162000b8492919062004507565b602060405180830381600087803b15801562000b9f57600080fd5b505af115801562000bb4573d6000803e3d6000fd5b505050506040513d601f19601f8201168201806040525081019062000bda91906200497f565b50600260009054906101000a900473ffffffffffffffffffffffffffffffffffffffff1673ffffffffffffffffffffffffffffffffffffffff16635acd6fac83836040518363ffffffff1660e01b815260040162000c3a92919062004780565b600060405180830381600087803b15801562000c5557600080fd5b505af115801562000c6a573d6000803e3d6000fd5b505050505050565b62000c7c62003919565b600160009054906101000a900473ffffffffffffffffffffffffffffffffffffffff1673ffffffffffffffffffffffffffffffffffffffff1663a9059cbb62000cc462001f9c565b600160009054906101000a900473ffffffffffffffffffffffffffffffffffffffff1673ffffffffffffffffffffffffffffffffffffffff166370a08231306040518263ffffffff1660e01b815260040162000d219190620040b4565b60206040518083038186803b15801562000d3a57600080fd5b505afa15801562000d4f573d6000803e3d6000fd5b505050506040513d601f19601f8201168201806040525081019062000d75919062004aa1565b6040518363ffffffff1660e01b815260040162000d9492919062004507565b602060405180830381600087803b15801562000daf57600080fd5b505af115801562000dc4573d6000803e3d6000fd5b505050506040513d601f19601f8201168201806040525081019062000dea91906200497f565b50565b600360149054906101000a900460ff161562000e40576040517f08c379a000000000000000000000000000000000000000000000000000000000815260040162000e3790620044e5565b60405180910390fd5b6000600360009054906101000a900473ffffffffffffffffffffffffffffffffffffffff1673ffffffffffffffffffffffffffffffffffffffff1663dfd7f4ae33866040518363ffffffff1660e01b815260040162000ea192919062004507565b60e06040518083038186803b15801562000eba57600080fd5b505afa15801562000ecf573d6000803e3d6000fd5b505050506040513d601f19601f8201168201806040525081019062000ef591906200471c565b90506000600181111562000f0e5762000f0d620048b8565b5b83600181111562000f245762000f23620048b8565b5b141562001218576000600260009054906101000a900473ffffffffffffffffffffffffffffffffffffffff1673ffffffffffffffffffffffffffffffffffffffff1663d30f96cb8360000151856040518363ffffffff1660e01b815260040162000f9092919062004780565b60206040518083038186803b15801562000fa957600080fd5b505afa15801562000fbe573d6000803e3d6000fd5b505050506040513d601f19601f8201168201806040525081019062000fe4919062004aa1565b905062001037333083600160009054906101000a900473ffffffffffffffffffffffffffffffffffffffff1673ffffffffffffffffffffffffffffffffffffffff166200388c909392919063ffffffff16565b600160009054906101000a900473ffffffffffffffffffffffffffffffffffffffff1673ffffffffffffffffffffffffffffffffffffffff1663095ea7b3600260009054906101000a900473ffffffffffffffffffffffffffffffffffffffff16836040518363ffffffff1660e01b8152600401620010b892919062004507565b602060405180830381600087803b158015620010d357600080fd5b505af1158015620010e8573d6000803e3d6000fd5b505050506040513d601f19601f820116820180604052508101906200110e91906200497f565b506000600260009054906101000a900473ffffffffffffffffffffffffffffffffffffffff1673ffffffffffffffffffffffffffffffffffffffff1663c60bffc7846000015184876040518463ffffffff1660e01b8152600401620011769392919062004ad3565b602060405180830381600087803b1580156200119157600080fd5b505af1158015620011a6573d6000803e3d6000fd5b505050506040513d601f19601f82011682018060405250810190620011cc919062004aa1565b90508260000151817f5f3b53e81cd16b078bd648ad759c36c3b66dee302039ba48d4ad37de61dba7bb8460006040516200120892919062004b61565b60405180910390a3505062001534565b6001808111156200122e576200122d620048b8565b5b836001811115620012445762001243620048b8565b5b141562001533576000600260009054906101000a900473ffffffffffffffffffffffffffffffffffffffff1673ffffffffffffffffffffffffffffffffffffffff16636cd5ffa88360000151856040518363ffffffff1660e01b8152600401620012b092919062004780565b60206040518083038186803b158015620012c957600080fd5b505afa158015620012de573d6000803e3d6000fd5b505050506040513d601f19601f8201168201806040525081019062001304919062004aa1565b905062001357333083600160009054906101000a900473ffffffffffffffffffffffffffffffffffffffff1673ffffffffffffffffffffffffffffffffffffffff166200388c909392919063ffffffff16565b600160009054906101000a900473ffffffffffffffffffffffffffffffffffffffff1673ffffffffffffffffffffffffffffffffffffffff1663095ea7b3600260009054906101000a900473ffffffffffffffffffffffffffffffffffffffff16836040518363ffffffff1660e01b8152600401620013d892919062004507565b602060405180830381600087803b158015620013f357600080fd5b505af115801562001408573d6000803e3d6000fd5b505050506040513d601f19601f820116820180604052508101906200142e91906200497f565b506000600260009054906101000a900473ffffffffffffffffffffffffffffffffffffffff1673ffffffffffffffffffffffffffffffffffffffff166399f6bccb846000015184876040518463ffffffff1660e01b8152600401620014969392919062004ad3565b602060405180830381600087803b158015620014b157600080fd5b505af1158015620014c6573d6000803e3d6000fd5b505050506040513d601f19601f82011682018060405250810190620014ec919062004aa1565b90508260000151817f5f3b53e81cd16b078bd648ad759c36c3b66dee302039ba48d4ad37de61dba7bb8460016040516200152892919062004b61565b60405180910390a350505b5b50505050565b6200154462003919565b6200155060006200399e565b565b600360149054906101000a900460ff1615620015a5576040517f08c379a00000000000000000000000000000000000000000000000000000000081526004016200159c90620044e5565b60405180910390fd5b6000600360009054906101000a900473ffffffffffffffffffffffffffffffffffffffff1673ffffffffffffffffffffffffffffffffffffffff1663500db2a6846040518263ffffffff1660e01b815260040162001604919062004435565b60a06040518083038186803b1580156200161d57600080fd5b505afa15801562001632573d6000803e3d6000fd5b505050506040513d601f19601f8201168201806040525081019062001658919062004c51565b90506000600360009054906101000a900473ffffffffffffffffffffffffffffffffffffffff1673ffffffffffffffffffffffffffffffffffffffff1663dfd7f4ae8484600001516040518363ffffffff1660e01b8152600401620016bf92919062004507565b60e06040518083038186803b158015620016d857600080fd5b505afa158015620016ed573d6000803e3d6000fd5b505050506040513d601f19601f820116820180604052508101906200171391906200471c565b90506200176a33308460400151600160009054906101000a900473ffffffffffffffffffffffffffffffffffffffff1673ffffffffffffffffffffffffffffffffffffffff166200388c909392919063ffffffff16565b620017df600260009054906101000a900473ffffffffffffffffffffffffffffffffffffffff168360400151600160009054906101000a900473ffffffffffffffffffffffffffffffffffffffff1673ffffffffffffffffffffffffffffffffffffffff1662003a629092919063ffffffff16565b806040015173ffffffffffffffffffffffffffffffffffffffff16631e83409a336040518263ffffffff1660e01b81526004016200181e9190620040b4565b602060405180830381600087803b1580156200183957600080fd5b505af11580156200184e573d6000803e3d6000fd5b505050506040513d601f19601f820116820180604052508101906200187491906200497f565b620018b6576040517f08c379a0000000000000000000000000000000000000000000000000000000008152600401620018ad9062004cd3565b60405180910390fd5b600360009054906101000a900473ffffffffffffffffffffffffffffffffffffffff1673ffffffffffffffffffffffffffffffffffffffff16631fa400068360000151846040015187600187602001516040518663ffffffff1660e01b81526004016200192895949392919062004d46565b600060405180830381600087803b1580156200194357600080fd5b505af115801562001958573d6000803e3d6000fd5b50505050600360009054906101000a900473ffffffffffffffffffffffffffffffffffffffff1673ffffffffffffffffffffffffffffffffffffffff166341eb24b18484600001518460000151856020015186604001518760600151886080015160036040518963ffffffff1660e01b8152600401620019e098979695949392919062004df4565b600060405180830381600087803b158015620019fb57600080fd5b505af115801562001a10573d6000803e3d6000fd5b505050508382600001517f10f0eb5bec4048bc2147c3eff0d6bb1ea88c96d7daf1e0ec6174e60f3d2d6b363360405162001a4b9190620040b4565b60405180910390a350505050565b600360149054906101000a900460ff161562001aac576040517f08c379a000000000000000000000000000000000000000000000000000000000815260040162001aa390620044e5565b60405180910390fd5b6000600360009054906101000a900473ffffffffffffffffffffffffffffffffffffffff1673ffffffffffffffffffffffffffffffffffffffff1663dfd7f4ae33846040518363ffffffff1660e01b815260040162001b0d92919062004507565b60e06040518083038186803b15801562001b2657600080fd5b505afa15801562001b3b573d6000803e3d6000fd5b505050506040513d601f19601f8201168201806040525081019062001b6191906200471c565b90503073ffffffffffffffffffffffffffffffffffffffff16816060015173ffffffffffffffffffffffffffffffffffffffff16636352211e83608001516040518263ffffffff1660e01b815260040162001bbd919062004435565b60206040518083038186803b15801562001bd657600080fd5b505afa15801562001beb573d6000803e3d6000fd5b505050506040513d601f19601f8201168201806040525081019062001c1191906200474e565b73ffffffffffffffffffffffffffffffffffffffff161462001c6a576040517f08c379a000000000000000000000000000000000000000000000000000000000815260040162001c619062004ed2565b60405180910390fd5b6000308260800151836060015160405162001c859062003e83565b62001c939392919062004ef4565b604051809103906000f08015801562001cb0573d6000803e3d6000fd5b5090503073ffffffffffffffffffffffffffffffffffffffff168173ffffffffffffffffffffffffffffffffffffffff16638da5cb5b6040518163ffffffff1660e01b815260040160206040518083038186803b15801562001d1157600080fd5b505afa15801562001d26573d6000803e3d6000fd5b505050506040513d601f19601f8201168201806040525081019062001d4c91906200474e565b73ffffffffffffffffffffffffffffffffffffffff161462001da5576040517f08c379a000000000000000000000000000000000000000000000000000000000815260040162001d9c9062004f81565b60405180910390fd5b816060015173ffffffffffffffffffffffffffffffffffffffff1663095ea7b38284608001516040518363ffffffff1660e01b815260040162001dea92919062004507565b600060405180830381600087803b15801562001e0557600080fd5b505af115801562001e1a573d6000803e3d6000fd5b505050508073ffffffffffffffffffffffffffffffffffffffff16636e553f65836080015184606001516040518363ffffffff1660e01b815260040162001e6392919062004fa3565b602060405180830381600087803b15801562001e7e57600080fd5b505af115801562001e93573d6000803e3d6000fd5b505050506040513d601f19601f8201168201806040525081019062001eb991906200497f565b50600360009054906101000a900473ffffffffffffffffffffffffffffffffffffffff1673ffffffffffffffffffffffffffffffffffffffff166341eb24b1338585600001518660200151868860600151896080015160016040518963ffffffff1660e01b815260040162001f3698979695949392919062004df4565b600060405180830381600087803b15801562001f5157600080fd5b505af115801562001f66573d6000803e3d6000fd5b50505050827f5d2e146c95f4ec58ed7e1dc5cc4f32ff5ffdd304fdd34cfd84a930d39f1f5e7260405160405180910390a2505050565b60008060009054906101000a900473ffffffffffffffffffffffffffffffffffffffff16905090565b600360149054906101000a900460ff161562002018576040517f08c379a00000000000000000000000000000000000000000000000000000000081526004016200200f90620044e5565b60405180910390fd5b6000600360009054906101000a900473ffffffffffffffffffffffffffffffffffffffff1673ffffffffffffffffffffffffffffffffffffffff1663dfd7f4ae33856040518363ffffffff1660e01b81526004016200207992919062004507565b60e06040518083038186803b1580156200209257600080fd5b505afa158015620020a7573d6000803e3d6000fd5b505050506040513d601f19601f82011682018060405250810190620020cd91906200471c565b905060036004811115620020e657620020e5620048b8565b5b8160a0015160048111156200210057620020ff620048b8565b5b1462002143576040517f08c379a00000000000000000000000000000000000000000000000000000000081526004016200213a9062005020565b60405180910390fd5b600062002151848462003057565b9050600260009054906101000a900473ffffffffffffffffffffffffffffffffffffffff1673ffffffffffffffffffffffffffffffffffffffff1663413e167733836040518363ffffffff1660e01b8152600401620021b292919062004507565b600060405180830381600087803b158015620021cd57600080fd5b505af1158015620021e2573d6000803e3d6000fd5b50505050837fb5947234d9d981e6dc885e516b3a8cabc0aded467c00d88a12aea0402fb37a5333836040516200221a92919062004507565b60405180910390a250505050565b6200223262003919565b600360009054906101000a900473ffffffffffffffffffffffffffffffffffffffff1673ffffffffffffffffffffffffffffffffffffffff1663dfd7f4ae82866040518363ffffffff1660e01b81526004016200229192919062004507565b60e06040518083038186803b158015620022aa57600080fd5b505afa158015620022bf573d6000803e3d6000fd5b505050506040513d601f19601f82011682018060405250810190620022e591906200471c565b506000600360009054906101000a900473ffffffffffffffffffffffffffffffffffffffff1673ffffffffffffffffffffffffffffffffffffffff1663955af5c38686866040518463ffffffff1660e01b8152600401620023499392919062004ad3565b602060405180830381600087803b1580156200236457600080fd5b505af115801562002379573d6000803e3d6000fd5b505050506040513d601f19601f820116820180604052508101906200239f919062004aa1565b905080857f1999b5cf4c86a262821b1ab4825d62e65f2350bc1f6476d25352cb4a2202f30486604051620023d4919062004435565b60405180910390a35050505050565b600160009054906101000a900473ffffffffffffffffffffffffffffffffffffffff1681565b600360149054906101000a900460ff1681565b600260009054906101000a900473ffffffffffffffffffffffffffffffffffffffff1681565b600360149054906101000a900460ff161562002495576040517f08c379a00000000000000000000000000000000000000000000000000000000081526004016200248c90620044e5565b60405180910390fd5b6000600260009054906101000a900473ffffffffffffffffffffffffffffffffffffffff1673ffffffffffffffffffffffffffffffffffffffff1663d22368676040518163ffffffff1660e01b815260040160206040518083038186803b1580156200250057600080fd5b505afa15801562002515573d6000803e3d6000fd5b505050506040513d601f19601f820116820180604052508101906200253b91906200474e565b73ffffffffffffffffffffffffffffffffffffffff16635055149c846040518263ffffffff1660e01b815260040162002575919062004435565b6101006040518083038186803b1580156200258f57600080fd5b505afa158015620025a4573d6000803e3d6000fd5b505050506040513d601f19601f82011682018060405250810190620025ca919062005160565b90508060a0015173ffffffffffffffffffffffffffffffffffffffff163373ffffffffffffffffffffffffffffffffffffffff161462002641576040517f08c379a00000000000000000000000000000000000000000000000000000000081526004016200263890620051e3565b60405180910390fd5b6000600260009054906101000a900473ffffffffffffffffffffffffffffffffffffffff1673ffffffffffffffffffffffffffffffffffffffff1663139d179f856040518263ffffffff1660e01b8152600401620026a0919062004435565b60206040518083038186803b158015620026b957600080fd5b505afa158015620026ce573d6000803e3d6000fd5b505050506040513d601f19601f82011682018060405250810190620026f4919062004aa1565b9050600260009054906101000a900473ffffffffffffffffffffffffffffffffffffffff1673ffffffffffffffffffffffffffffffffffffffff1663da2488cd85856040518363ffffffff1660e01b81526004016200275592919062004fa3565b600060405180830381600087803b1580156200277057600080fd5b505af115801562002785573d6000803e3d6000fd5b50505050837faf7faf29a251efa1bcf2b47dab1a72baa0906a2e4ff957e6cb6d4f7c642161ab82604051620027bb919062004435565b60405180910390a250505050565b600360149054906101000a900460ff16156200281c576040517f08c379a00000000000000000000000000000000000000000000000000000000081526004016200281390620044e5565b60405180910390fd5b600073ffffffffffffffffffffffffffffffffffffffff168573ffffffffffffffffffffffffffffffffffffffff1614156200288f576040517f08c379a000000000000000000000000000000000000000000000000000000000815260040162002886906200527b565b60405180910390fd5b6000600260009054906101000a900473ffffffffffffffffffffffffffffffffffffffff1673ffffffffffffffffffffffffffffffffffffffff1663d22368676040518163ffffffff1660e01b815260040160206040518083038186803b158015620028fa57600080fd5b505afa1580156200290f573d6000803e3d6000fd5b505050506040513d601f19601f820116820180604052508101906200293591906200474e565b90508073ffffffffffffffffffffffffffffffffffffffff16635055149c836040518263ffffffff1660e01b815260040162002972919062004435565b6101006040518083038186803b1580156200298c57600080fd5b505afa158015620029a1573d6000803e3d6000fd5b505050506040513d601f19601f82011682018060405250810190620029c7919062005160565b50620029d4848462003aec565b62002a16576040517f08c379a000000000000000000000000000000000000000000000000000000000815260040162002a0d9062005313565b60405180910390fd5b82600260009054906101000a900473ffffffffffffffffffffffffffffffffffffffff1673ffffffffffffffffffffffffffffffffffffffff1663d060f501846040518263ffffffff1660e01b815260040162002a74919062004435565b60206040518083038186803b15801562002a8d57600080fd5b505afa15801562002aa2573d6000803e3d6000fd5b505050506040513d601f19601f8201168201806040525081019062002ac8919062004aa1565b1162002b0b576040517f08c379a000000000000000000000000000000000000000000000000000000000815260040162002b0290620053ab565b60405180910390fd5b62002b5c333086600160009054906101000a900473ffffffffffffffffffffffffffffffffffffffff1673ffffffffffffffffffffffffffffffffffffffff166200388c909392919063ffffffff16565b6000600260009054906101000a900473ffffffffffffffffffffffffffffffffffffffff1673ffffffffffffffffffffffffffffffffffffffff166322385ed48585336040518463ffffffff1660e01b815260040162002bbf93929190620053cd565b602060405180830381600087803b15801562002bda57600080fd5b505af115801562002bef573d6000803e3d6000fd5b505050506040513d601f19601f8201168201806040525081019062002c15919062004aa1565b9050838562002c25919062005439565b600160009054906101000a900473ffffffffffffffffffffffffffffffffffffffff1673ffffffffffffffffffffffffffffffffffffffff166370a08231306040518263ffffffff1660e01b815260040162002c829190620040b4565b60206040518083038186803b15801562002c9b57600080fd5b505afa15801562002cb0573d6000803e3d6000fd5b505050506040513d601f19601f8201168201806040525081019062002cd6919062004aa1565b101562002d1a576040517f08c379a000000000000000000000000000000000000000000000000000000000815260040162002d11906200550c565b60405180910390fd5b6000600360009054906101000a900473ffffffffffffffffffffffffffffffffffffffff1673ffffffffffffffffffffffffffffffffffffffff1663e7aa2df633848760008d8d6040518763ffffffff1660e01b815260040162002d84969594939291906200552e565b602060405180830381600087803b15801562002d9f57600080fd5b505af115801562002db4573d6000803e3d6000fd5b505050506040513d601f19601f8201168201806040525081019062002dda919062004aa1565b9050803373ffffffffffffffffffffffffffffffffffffffff167fd825c95624e3d9df6a1a2617ef81f3054120ace1880a51e6e51ef7415ac4a66588600360009054906101000a900473ffffffffffffffffffffffffffffffffffffffff1673ffffffffffffffffffffffffffffffffffffffff16637453275b6040518163ffffffff1660e01b815260040160206040518083038186803b15801562002e7f57600080fd5b505afa15801562002e94573d6000803e3d6000fd5b505050506040513d601f19601f8201168201806040525081019062002eba91906200559b565b60405162002eca929190620055cd565b60405180910390a35050505050505050565b6000600260009054906101000a900473ffffffffffffffffffffffffffffffffffffffff1673ffffffffffffffffffffffffffffffffffffffff1663d060f501836040518263ffffffff1660e01b815260040162002f3b919062004435565b60206040518083038186803b15801562002f5457600080fd5b505afa15801562002f69573d6000803e3d6000fd5b505050506040513d601f19601f8201168201806040525081019062002f8f919062004aa1565b9050919050565b62002fa062003919565b600073ffffffffffffffffffffffffffffffffffffffff168173ffffffffffffffffffffffffffffffffffffffff16141562003013576040517f08c379a00000000000000000000000000000000000000000000000000000000081526004016200300a9062005670565b60405180910390fd5b6200301e816200399e565b50565b6200302b62003919565b600360149054906101000a900460ff1615600360146101000a81548160ff021916908315150217905550565b600080600360009054906101000a900473ffffffffffffffffffffffffffffffffffffffff1673ffffffffffffffffffffffffffffffffffffffff1663dfd7f4ae33866040518363ffffffff1660e01b8152600401620030b992919062004507565b60e06040518083038186803b158015620030d257600080fd5b505afa158015620030e7573d6000803e3d6000fd5b505050506040513d601f19601f820116820180604052508101906200310d91906200471c565b90506000600260009054906101000a900473ffffffffffffffffffffffffffffffffffffffff1673ffffffffffffffffffffffffffffffffffffffff1663d22368676040518163ffffffff1660e01b815260040160206040518083038186803b1580156200317a57600080fd5b505afa1580156200318f573d6000803e3d6000fd5b505050506040513d601f19601f82011682018060405250810190620031b591906200474e565b73ffffffffffffffffffffffffffffffffffffffff16636bac6372836020015184600001516040518363ffffffff1660e01b8152600401620031f992919062004780565b60c06040518083038186803b1580156200321257600080fd5b505afa15801562003227573d6000803e3d6000fd5b505050506040513d601f19601f820116820180604052508101906200324d919062004886565b90506000600260009054906101000a900473ffffffffffffffffffffffffffffffffffffffff1673ffffffffffffffffffffffffffffffffffffffff1663d22368676040518163ffffffff1660e01b815260040160206040518083038186803b158015620032ba57600080fd5b505afa158015620032cf573d6000803e3d6000fd5b505050506040513d601f19601f82011682018060405250810190620032f591906200474e565b73ffffffffffffffffffffffffffffffffffffffff16635055149c83600001516040518263ffffffff1660e01b815260040162003333919062004435565b6101006040518083038186803b1580156200334d57600080fd5b505afa15801562003362573d6000803e3d6000fd5b505050506040513d601f19601f8201168201806040525081019062003388919062005160565b90506000600360009054906101000a900473ffffffffffffffffffffffffffffffffffffffff1673ffffffffffffffffffffffffffffffffffffffff1663500db2a6876040518263ffffffff1660e01b8152600401620033e9919062004435565b60a06040518083038186803b1580156200340257600080fd5b505afa15801562003417573d6000803e3d6000fd5b505050506040513d601f19601f820116820180604052508101906200343d919062004c51565b90506000836040015190506000600260009054906101000a900473ffffffffffffffffffffffffffffffffffffffff1673ffffffffffffffffffffffffffffffffffffffff1663341d8cd986866040518363ffffffff1660e01b8152600401620034a9929190620058b1565b60206040518083038186803b158015620034c257600080fd5b505afa158015620034d7573d6000803e3d6000fd5b505050506040513d601f19601f82011682018060405250810190620034fd919062004aa1565b90506000600260009054906101000a900473ffffffffffffffffffffffffffffffffffffffff1673ffffffffffffffffffffffffffffffffffffffff1663d22368676040518163ffffffff1660e01b815260040160206040518083038186803b1580156200356a57600080fd5b505afa1580156200357f573d6000803e3d6000fd5b505050506040513d601f19601f82011682018060405250810190620035a591906200474e565b73ffffffffffffffffffffffffffffffffffffffff1663672e4d6e88600001516040518263ffffffff1660e01b8152600401620035e3919062004435565b60206040518083038186803b158015620035fc57600080fd5b505afa15801562003611573d6000803e3d6000fd5b505050506040513d601f19601f8201168201806040525081019062003637919062004aa1565b905060008183620036499190620058df565b90506000600260009054906101000a900473ffffffffffffffffffffffffffffffffffffffff1673ffffffffffffffffffffffffffffffffffffffff1663817f203c8a600001518b602001516040518363ffffffff1660e01b8152600401620036b492919062004780565b60206040518083038186803b158015620036cd57600080fd5b505afa158015620036e2573d6000803e3d6000fd5b505050506040513d601f19601f820116820180604052508101906200370891906200497f565b15620037d9576064600260009054906101000a900473ffffffffffffffffffffffffffffffffffffffff1673ffffffffffffffffffffffffffffffffffffffff16632658bad56040518163ffffffff1660e01b815260040160206040518083038186803b1580156200377957600080fd5b505afa1580156200378e573d6000803e3d6000fd5b505050506040513d601f19601f82011682018060405250810190620037b4919062004aa1565b8960400151620037c59190620058df565b620037d191906200596f565b9050620037de565b600090505b60028860400151620037f19190620058df565b866020015110156200385f576000866020015160028a60400151620038179190620058df565b620038239190620059a7565b9050808262003833919062005439565b838762003841919062005439565b6200384d9190620059a7565b9a505050505050505050505062003886565b8082866200386e919062005439565b6200387a9190620059a7565b99505050505050505050505b92915050565b62003913846323b872dd60e01b858585604051602401620038b093929190620059e2565b604051602081830303815290604052907bffffffffffffffffffffffffffffffffffffffffffffffffffffffff19166020820180517bffffffffffffffffffffffffffffffffffffffffffffffffffffffff838183161783525050505062003be1565b50505050565b6200392362003cb0565b73ffffffffffffffffffffffffffffffffffffffff166200394362001f9c565b73ffffffffffffffffffffffffffffffffffffffff16146200399c576040517f08c379a0000000000000000000000000000000000000000000000000000000008152600401620039939062005a6f565b60405180910390fd5b565b60008060009054906101000a900473ffffffffffffffffffffffffffffffffffffffff169050816000806101000a81548173ffffffffffffffffffffffffffffffffffffffff021916908373ffffffffffffffffffffffffffffffffffffffff1602179055508173ffffffffffffffffffffffffffffffffffffffff168173ffffffffffffffffffffffffffffffffffffffff167f8be0079c531659141344cd1fd0a4f28419497f9722a3daafe3b4186f6b6457e060405160405180910390a35050565b62003ae78363a9059cbb60e01b848460405160240162003a8492919062004507565b604051602081830303815290604052907bffffffffffffffffffffffffffffffffffffffffffffffffffffffff19166020820180517bffffffffffffffffffffffffffffffffffffffffffffffffffffffff838183161783525050505062003be1565b505050565b600080600360009054906101000a900473ffffffffffffffffffffffffffffffffffffffff1673ffffffffffffffffffffffffffffffffffffffff16637453275b6040518163ffffffff1660e01b815260040160206040518083038186803b15801562003b5857600080fd5b505afa15801562003b6d573d6000803e3d6000fd5b505050506040513d601f19601f8201168201806040525081019062003b9391906200559b565b606462003ba1919062005a91565b9050828462003bb1919062005439565b8161ffff168562003bc39190620058df565b141562003bd557600191505062003bdb565b60009150505b92915050565b600062003c45826040518060400160405280602081526020017f5361666545524332303a206c6f772d6c6576656c2063616c6c206661696c65648152508573ffffffffffffffffffffffffffffffffffffffff1662003cb89092919063ffffffff16565b905060008151111562003cab578080602001905181019062003c6891906200497f565b62003caa576040517f08c379a000000000000000000000000000000000000000000000000000000000815260040162003ca19062005b3f565b60405180910390fd5b5b505050565b600033905090565b606062003cc9848460008562003cd2565b90509392505050565b60608247101562003d1a576040517f08c379a000000000000000000000000000000000000000000000000000000000815260040162003d119062005bd7565b60405180910390fd5b62003d258562003df4565b62003d67576040517f08c379a000000000000000000000000000000000000000000000000000000000815260040162003d5e9062005c49565b60405180910390fd5b6000808673ffffffffffffffffffffffffffffffffffffffff16858760405162003d92919062005cee565b60006040518083038185875af1925050503d806000811462003dd1576040519150601f19603f3d011682016040523d82523d6000602084013e62003dd6565b606091505b509150915062003de882828662003e17565b92505050949350505050565b6000808273ffffffffffffffffffffffffffffffffffffffff163b119050919050565b6060831562003e295782905062003e7c565b60008351111562003e3d5782518084602001fd5b816040517f08c379a000000000000000000000000000000000000000000000000000000000815260040162003e73919062005d53565b60405180910390fd5b9392505050565b610ce28062005d7883390190565b6000604051905090565b600080fd5b600080fd5b600073ffffffffffffffffffffffffffffffffffffffff82169050919050565b600062003ed28262003ea5565b9050919050565b62003ee48162003ec5565b811462003ef057600080fd5b50565b60008135905062003f048162003ed9565b92915050565b6000819050919050565b62003f1f8162003f0a565b811462003f2b57600080fd5b50565b60008135905062003f3f8162003f14565b92915050565b600080fd5b600080fd5b600080fd5b60008083601f84011262003f6d5762003f6c62003f45565b5b8235905067ffffffffffffffff81111562003f8d5762003f8c62003f4a565b5b60208301915083600182028301111562003fac5762003fab62003f4f565b5b9250929050565b60008060008060006080868803121562003fd25762003fd162003e9b565b5b600062003fe28882890162003ef3565b955050602062003ff58882890162003ef3565b9450506040620040088882890162003f2e565b935050606086013567ffffffffffffffff8111156200402c576200402b62003ea0565b5b6200403a8882890162003f54565b92509250509295509295909350565b60007fffffffff0000000000000000000000000000000000000000000000000000000082169050919050565b620040808162004049565b82525050565b60006020820190506200409d600083018462004075565b92915050565b620040ae8162003ec5565b82525050565b6000602082019050620040cb6000830184620040a3565b92915050565b60008060408385031215620040eb57620040ea62003e9b565b5b6000620040fb8582860162003f2e565b92505060206200410e8582860162003f2e565b9150509250929050565b600061ffff82169050919050565b620041318162004118565b81146200413d57600080fd5b50565b600081359050620041518162004126565b92915050565b60008060008060008060c0878903121562004177576200417662003e9b565b5b60006200418789828a0162003f2e565b96505060206200419a89828a0162004140565b9550506040620041ad89828a0162004140565b9450506060620041c089828a0162003f2e565b9350506080620041d389828a0162004140565b92505060a0620041e689828a0162003ef3565b9150509295509295509295565b600281106200420157600080fd5b50565b6000813590506200421581620041f3565b92915050565b60008060006060848603121562004237576200423662003e9b565b5b6000620042478682870162003f2e565b93505060206200425a8682870162004204565b92505060406200426d8682870162003f2e565b9150509250925092565b6000806040838503121562004291576200429062003e9b565b5b6000620042a18582860162003f2e565b9250506020620042b48582860162003ef3565b9150509250929050565b600060208284031215620042d757620042d662003e9b565b5b6000620042e78482850162003f2e565b91505092915050565b600080600080608085870312156200430d576200430c62003e9b565b5b60006200431d8782880162003f2e565b9450506020620043308782880162003f2e565b9350506040620043438782880162003f2e565b9250506060620043568782880162003ef3565b91505092959194509250565b60008115159050919050565b620043798162004362565b82525050565b60006020820190506200439660008301846200436e565b92915050565b600080600080600060a08688031215620043bb57620043ba62003e9b565b5b6000620043cb8882890162003ef3565b9550506020620043de8882890162003f2e565b9450506040620043f18882890162003f2e565b9350506060620044048882890162003f2e565b9250506080620044178882890162003f2e565b9150509295509295909350565b6200442f8162003f0a565b82525050565b60006020820190506200444c600083018462004424565b92915050565b6000602082840312156200446b576200446a62003e9b565b5b60006200447b8482850162003ef3565b91505092915050565b600082825260208201905092915050565b7f517265646f733a2063757272656e746c79207061757365642100000000000000600082015250565b6000620044cd60198362004484565b9150620044da8262004495565b602082019050919050565b600060208201905081810360008301526200450081620044be565b9050919050565b60006040820190506200451e6000830185620040a3565b6200452d602083018462004424565b9392505050565b600080fd5b6000601f19601f8301169050919050565b7f4e487b7100000000000000000000000000000000000000000000000000000000600052604160045260246000fd5b620045848262004539565b810181811067ffffffffffffffff82111715620045a657620045a56200454a565b5b80604052505050565b6000620045bb62003e91565b9050620045c9828262004579565b919050565b600081519050620045df8162003f14565b92915050565b600081519050620045f68162003ed9565b92915050565b600581106200460a57600080fd5b50565b6000815190506200461e81620045fc565b92915050565b6200462f8162004362565b81146200463b57600080fd5b50565b6000815190506200464f8162004624565b92915050565b600060e082840312156200466e576200466d62004534565b5b6200467a60e0620045af565b905060006200468c84828501620045ce565b6000830152506020620046a284828501620045ce565b6020830152506040620046b884828501620045e5565b6040830152506060620046ce84828501620045e5565b6060830152506080620046e484828501620045ce565b60808301525060a0620046fa848285016200460d565b60a08301525060c062004710848285016200463e565b60c08301525092915050565b600060e0828403121562004735576200473462003e9b565b5b6000620047458482850162004655565b91505092915050565b60006020828403121562004767576200476662003e9b565b5b60006200477784828501620045e5565b91505092915050565b600060408201905062004797600083018562004424565b620047a6602083018462004424565b9392505050565b60028110620047bb57600080fd5b50565b600081519050620047cf81620047ad565b92915050565b600060c08284031215620047ee57620047ed62004534565b5b620047fa60c0620045af565b905060006200480c84828501620045ce565b60008301525060206200482284828501620045e5565b60208301525060406200483884828501620045ce565b60408301525060606200484e84828501620045ce565b60608301525060806200486484828501620047be565b60808301525060a06200487a848285016200463e565b60a08301525092915050565b600060c082840312156200489f576200489e62003e9b565b5b6000620048af84828501620047d5565b91505092915050565b7f4e487b7100000000000000000000000000000000000000000000000000000000600052602160045260246000fd5b7f517265646f733a206c6f616e52657061796d656e7420696e636f6d706c65746560008201527f2100000000000000000000000000000000000000000000000000000000000000602082015250565b60006200494560218362004484565b91506200495282620048e7565b604082019050919050565b60006020820190508181036000830152620049788162004936565b9050919050565b60006020828403121562004998576200499762003e9b565b5b6000620049a8848285016200463e565b91505092915050565b7f517265646f733a20636c61696d20726576657274656421000000000000000000600082015250565b6000620049e960178362004484565b9150620049f682620049b1565b602082019050919050565b6000602082019050818103600083015262004a1c81620049da565b9050919050565b62004a2e8162004118565b82525050565b600060c08201905062004a4b600083018962004424565b62004a5a602083018862004a23565b62004a69604083018762004a23565b62004a78606083018662004424565b62004a87608083018562004a23565b62004a9660a0830184620040a3565b979650505050505050565b60006020828403121562004aba5762004ab962003e9b565b5b600062004aca84828501620045ce565b91505092915050565b600060608201905062004aea600083018662004424565b62004af9602083018562004424565b62004b08604083018462004424565b949350505050565b6002811062004b245762004b23620048b8565b5b50565b600081905062004b378262004b10565b919050565b600062004b498262004b27565b9050919050565b62004b5b8162004b3c565b82525050565b600060408201905062004b78600083018562004424565b62004b87602083018462004b50565b9392505050565b6002811062004b9c57600080fd5b50565b60008151905062004bb08162004b8e565b92915050565b600060a0828403121562004bcf5762004bce62004534565b5b62004bdb60a0620045af565b9050600062004bed84828501620045ce565b600083015250602062004c0384828501620045ce565b602083015250604062004c1984828501620045ce565b604083015250606062004c2f8482850162004b9f565b606083015250608062004c45848285016200463e565b60808301525092915050565b600060a0828403121562004c6a5762004c6962003e9b565b5b600062004c7a8482850162004bb6565b91505092915050565b7f517265646f733a206c69717569646174696f6e20726576657274656421000000600082015250565b600062004cbb601d8362004484565b915062004cc88262004c83565b602082019050919050565b6000602082019050818103600083015262004cee8162004cac565b9050919050565b6002811062004d095762004d08620048b8565b5b50565b600081905062004d1c8262004cf5565b919050565b600062004d2e8262004d0c565b9050919050565b62004d408162004d21565b82525050565b600060a08201905062004d5d600083018862004424565b62004d6c602083018762004424565b62004d7b604083018662004424565b62004d8a606083018562004d35565b62004d99608083018462004424565b9695505050505050565b6005811062004db75762004db6620048b8565b5b50565b600081905062004dca8262004da3565b919050565b600062004ddc8262004dba565b9050919050565b62004dee8162004dcf565b82525050565b60006101008201905062004e0c600083018b620040a3565b62004e1b602083018a62004424565b62004e2a604083018962004424565b62004e39606083018862004424565b62004e486080830187620040a3565b62004e5760a0830186620040a3565b62004e6660c083018562004424565b62004e7560e083018462004de3565b9998505050505050505050565b7f517265646f733a20507572636861736520496e636f6d706c6574652100000000600082015250565b600062004eba601c8362004484565b915062004ec78262004e82565b602082019050919050565b6000602082019050818103600083015262004eed8162004eab565b9050919050565b600060608201905062004f0b6000830186620040a3565b62004f1a602083018562004424565b62004f296040830184620040a3565b949350505050565b7f517265646f733a20496e76616c696420657363726f77206f776e657221000000600082015250565b600062004f69601d8362004484565b915062004f768262004f31565b602082019050919050565b6000602082019050818103600083015262004f9c8162004f5a565b9050919050565b600060408201905062004fba600083018562004424565b62004fc96020830184620040a3565b9392505050565b7f517265646f733a2063616e7420726566756e6420626f72726f77657221000000600082015250565b600062005008601d8362004484565b9150620050158262004fd0565b602082019050919050565b600060208201905081810360008301526200503b8162004ff9565b9050919050565b600081519050620050538162004126565b92915050565b600281106200506757600080fd5b50565b6000815190506200507b8162005059565b92915050565b600061010082840312156200509b576200509a62004534565b5b620050a8610100620045af565b90506000620050ba84828501620045ce565b6000830152506020620050d08482850162005042565b6020830152506040620050e68482850162005042565b6040830152506060620050fc84828501620045ce565b6060830152506080620051128482850162005042565b60808301525060a06200512884828501620045e5565b60a08301525060c06200513e848285016200506a565b60c08301525060e062005154848285016200463e565b60e08301525092915050565b600061010082840312156200517a576200517962003e9b565b5b60006200518a8482850162005081565b91505092915050565b7f63616c6c65722073686f756c6420626520706f6f6c2063726561746f72210000600082015250565b6000620051cb601e8362004484565b9150620051d88262005193565b602082019050919050565b60006020820190508181036000830152620051fe81620051bc565b9050919050565b7f517265646f732e70757263686173654e46543a2061646472657373206973207a60008201527f65726f2061646472657373210000000000000000000000000000000000000000602082015250565b600062005263602c8362004484565b9150620052708262005205565b604082019050919050565b60006020820190508181036000830152620052968162005254565b9050919050565b7f517265646f732e70757263686173654e46543a20496e76616c6964207072696e60008201527f636970616c210000000000000000000000000000000000000000000000000000602082015250565b6000620052fb60268362004484565b915062005308826200529d565b604082019050919050565b600060208201905081810360008301526200532e81620052ec565b9050919050565b7f517265646f732e70757263686173654e46543a2053656c656374656420706f6f60008201527f6c2063616e27742066756e642070757263686173652100000000000000000000602082015250565b60006200539360368362004484565b9150620053a08262005335565b604082019050919050565b60006020820190508181036000830152620053c68162005384565b9050919050565b6000606082019050620053e4600083018662004424565b620053f3602083018562004424565b620054026040830184620040a3565b949350505050565b7f4e487b7100000000000000000000000000000000000000000000000000000000600052601160045260246000fd5b6000620054468262003f0a565b9150620054538362003f0a565b9250827fffffffffffffffffffffffffffffffffffffffffffffffffffffffffffffffff038211156200548b576200548a6200540a565b5b828201905092915050565b7f517265646f732e70757263686173654e46543a20496e73756666696369656e7460008201527f2066756e64732100000000000000000000000000000000000000000000000000602082015250565b6000620054f460278362004484565b9150620055018262005496565b604082019050919050565b600060208201905081810360008301526200552781620054e5565b9050919050565b600060c082019050620055456000830189620040a3565b62005554602083018862004424565b62005563604083018762004424565b620055726060830186620040a3565b620055816080830185620040a3565b6200559060a083018462004424565b979650505050505050565b600060208284031215620055b457620055b362003e9b565b5b6000620055c48482850162005042565b91505092915050565b6000604082019050620055e4600083018562004424565b620055f3602083018462004a23565b9392505050565b7f4f776e61626c653a206e6577206f776e657220697320746865207a65726f206160008201527f6464726573730000000000000000000000000000000000000000000000000000602082015250565b60006200565860268362004484565b91506200566582620055fa565b604082019050919050565b600060208201905081810360008301526200568b8162005649565b9050919050565b6200569d8162003f0a565b82525050565b620056ae8162003ec5565b82525050565b60028110620056c857620056c7620048b8565b5b50565b6000819050620056db82620056b4565b919050565b6000620056ed82620056cb565b9050919050565b620056ff81620056e0565b82525050565b620057108162004362565b82525050565b60c0820160008201516200572e600085018262005692565b506020820151620057436020850182620056a3565b50604082015162005758604085018262005692565b5060608201516200576d606085018262005692565b506080820151620057826080850182620056f4565b5060a08201516200579760a085018262005705565b50505050565b620057a88162004118565b82525050565b60028110620057c257620057c1620048b8565b5b50565b6000819050620057d582620057ae565b919050565b6000620057e782620057c5565b9050919050565b620057f981620057da565b82525050565b6101008201600082015162005818600085018262005692565b5060208201516200582d60208501826200579d565b5060408201516200584260408501826200579d565b50606082015162005857606085018262005692565b5060808201516200586c60808501826200579d565b5060a08201516200588160a0850182620056a3565b5060c08201516200589660c0850182620057ee565b5060e0820151620058ab60e085018262005705565b50505050565b60006101c082019050620058c9600083018562005716565b620058d860c0830184620057ff565b9392505050565b6000620058ec8262003f0a565b9150620058f98362003f0a565b9250817fffffffffffffffffffffffffffffffffffffffffffffffffffffffffffffffff04831182151516156200593557620059346200540a565b5b828202905092915050565b7f4e487b7100000000000000000000000000000000000000000000000000000000600052601260045260246000fd5b60006200597c8262003f0a565b9150620059898362003f0a565b9250826200599c576200599b62005940565b5b828204905092915050565b6000620059b48262003f0a565b9150620059c18362003f0a565b925082821015620059d757620059d66200540a565b5b828203905092915050565b6000606082019050620059f96000830186620040a3565b62005a086020830185620040a3565b62005a17604083018462004424565b949350505050565b7f4f776e61626c653a2063616c6c6572206973206e6f7420746865206f776e6572600082015250565b600062005a5760208362004484565b915062005a648262005a1f565b602082019050919050565b6000602082019050818103600083015262005a8a8162005a48565b9050919050565b600062005a9e8262004118565b915062005aab8362004118565b92508262005abe5762005abd62005940565b5b828204905092915050565b7f5361666545524332303a204552433230206f7065726174696f6e20646964206e60008201527f6f74207375636365656400000000000000000000000000000000000000000000602082015250565b600062005b27602a8362004484565b915062005b348262005ac9565b604082019050919050565b6000602082019050818103600083015262005b5a8162005b18565b9050919050565b7f416464726573733a20696e73756666696369656e742062616c616e636520666f60008201527f722063616c6c0000000000000000000000000000000000000000000000000000602082015250565b600062005bbf60268362004484565b915062005bcc8262005b61565b604082019050919050565b6000602082019050818103600083015262005bf28162005bb0565b9050919050565b7f416464726573733a2063616c6c20746f206e6f6e2d636f6e7472616374000000600082015250565b600062005c31601d8362004484565b915062005c3e8262005bf9565b602082019050919050565b6000602082019050818103600083015262005c648162005c22565b9050919050565b600081519050919050565b600081905092915050565b60005b8381101562005ca157808201518184015260208101905062005c84565b8381111562005cb1576000848401525b50505050565b600062005cc48262005c6b565b62005cd0818562005c76565b935062005ce281856020860162005c81565b80840191505092915050565b600062005cfc828462005cb7565b915081905092915050565b600081519050919050565b600062005d1f8262005d07565b62005d2b818562004484565b935062005d3d81856020860162005c81565b62005d488162004539565b840191505092915050565b6000602082019050818103600083015262005d6f818462005d12565b90509291505056fe60e06040523480156200001157600080fd5b5060405162000ce238038062000ce2833981810160405281019062000037919062000195565b336000806101000a81548173ffffffffffffffffffffffffffffffffffffffff021916908373ffffffffffffffffffffffffffffffffffffffff1602179055508273ffffffffffffffffffffffffffffffffffffffff1660808173ffffffffffffffffffffffffffffffffffffffff16815250508160a081815250508073ffffffffffffffffffffffffffffffffffffffff1660c08173ffffffffffffffffffffffffffffffffffffffff1681525050505050620001f1565b600080fd5b600073ffffffffffffffffffffffffffffffffffffffff82169050919050565b60006200012282620000f5565b9050919050565b620001348162000115565b81146200014057600080fd5b50565b600081519050620001548162000129565b92915050565b6000819050919050565b6200016f816200015a565b81146200017b57600080fd5b50565b6000815190506200018f8162000164565b92915050565b600080600060608486031215620001b157620001b0620000f0565b5b6000620001c18682870162000143565b9350506020620001d4868287016200017e565b9250506040620001e78682870162000143565b9150509250925092565b60805160a05160c051610ab36200022f600039600081816102ef01526105d10152600081816101ca015261032d015260006105890152610ab36000f3fe608060405234801561001057600080fd5b50600436106100885760003560e01c80636e553f651161005b5780636e553f65146101295780637ba61ea5146101595780638da5cb5b146101775780639d76ea581461019557610088565b8063150b7a021461008d57806317d70f7c146100bd5780631e83409a146100db578063200d2ed21461010b575b600080fd5b6100a760048036038101906100a291906106f6565b6101b3565b6040516100b491906107b9565b60405180910390f35b6100c56101c8565b6040516100d291906107e3565b60405180910390f35b6100f560048036038101906100f091906107fe565b6101ec565b6040516101029190610846565b60405180910390f35b6101136103d0565b60405161012091906108d8565b60405180910390f35b610143600480360381019061013e91906108f3565b6103e3565b6040516101509190610846565b60405180910390f35b610161610587565b60405161016e9190610942565b60405180910390f35b61017f6105ab565b60405161018c9190610942565b60405180910390f35b61019d6105cf565b6040516101aa9190610942565b60405180910390f35b600063150b7a0260e01b905095945050505050565b7f000000000000000000000000000000000000000000000000000000000000000081565b60008060009054906101000a900473ffffffffffffffffffffffffffffffffffffffff1673ffffffffffffffffffffffffffffffffffffffff163373ffffffffffffffffffffffffffffffffffffffff161461027d576040517f08c379a0000000000000000000000000000000000000000000000000000000008152600401610274906109ba565b60405180910390fd5b600073ffffffffffffffffffffffffffffffffffffffff168273ffffffffffffffffffffffffffffffffffffffff1614156102ed576040517f08c379a00000000000000000000000000000000000000000000000000000000081526004016102e490610a26565b60405180910390fd5b7f000000000000000000000000000000000000000000000000000000000000000073ffffffffffffffffffffffffffffffffffffffff166342842e0e30847f00000000000000000000000000000000000000000000000000000000000000006040518463ffffffff1660e01b815260040161036a93929190610a46565b600060405180830381600087803b15801561038457600080fd5b505af1158015610398573d6000803e3d6000fd5b505050506001600060146101000a81548160ff021916908360018111156103c2576103c1610861565b5b021790555060019050919050565b600060149054906101000a900460ff1681565b60008060009054906101000a900473ffffffffffffffffffffffffffffffffffffffff1673ffffffffffffffffffffffffffffffffffffffff163373ffffffffffffffffffffffffffffffffffffffff1614610474576040517f08c379a000000000000000000000000000000000000000000000000000000000815260040161046b906109ba565b60405180910390fd5b600073ffffffffffffffffffffffffffffffffffffffff168273ffffffffffffffffffffffffffffffffffffffff1614156104e4576040517f08c379a00000000000000000000000000000000000000000000000000000000081526004016104db90610a26565b60405180910390fd5b8173ffffffffffffffffffffffffffffffffffffffff166342842e0e3330866040518463ffffffff1660e01b815260040161052193929190610a46565b600060405180830381600087803b15801561053b57600080fd5b505af115801561054f573d6000803e3d6000fd5b5050505060008060146101000a81548160ff0219169083600181111561057857610577610861565b5b02179055506001905092915050565b7f000000000000000000000000000000000000000000000000000000000000000081565b60008054906101000a900473ffffffffffffffffffffffffffffffffffffffff1681565b7f000000000000000000000000000000000000000000000000000000000000000081565b600080fd5b600080fd5b600073ffffffffffffffffffffffffffffffffffffffff82169050919050565b6000610628826105fd565b9050919050565b6106388161061d565b811461064357600080fd5b50565b6000813590506106558161062f565b92915050565b6000819050919050565b61066e8161065b565b811461067957600080fd5b50565b60008135905061068b81610665565b92915050565b600080fd5b600080fd5b600080fd5b60008083601f8401126106b6576106b5610691565b5b8235905067ffffffffffffffff8111156106d3576106d2610696565b5b6020830191508360018202830111156106ef576106ee61069b565b5b9250929050565b600080600080600060808688031215610712576107116105f3565b5b600061072088828901610646565b955050602061073188828901610646565b94505060406107428882890161067c565b935050606086013567ffffffffffffffff811115610763576107626105f8565b5b61076f888289016106a0565b92509250509295509295909350565b60007fffffffff0000000000000000000000000000000000000000000000000000000082169050919050565b6107b38161077e565b82525050565b60006020820190506107ce60008301846107aa565b92915050565b6107dd8161065b565b82525050565b60006020820190506107f860008301846107d4565b92915050565b600060208284031215610814576108136105f3565b5b600061082284828501610646565b91505092915050565b60008115159050919050565b6108408161082b565b82525050565b600060208201905061085b6000830184610837565b92915050565b7f4e487b7100000000000000000000000000000000000000000000000000000000600052602160045260246000fd5b600281106108a1576108a0610861565b5b50565b60008190506108b282610890565b919050565b60006108c2826108a4565b9050919050565b6108d2816108b7565b82525050565b60006020820190506108ed60008301846108c9565b92915050565b6000806040838503121561090a576109096105f3565b5b60006109188582860161067c565b925050602061092985828601610646565b9150509250929050565b61093c8161061d565b82525050565b60006020820190506109576000830184610933565b92915050565b600082825260208201905092915050565b7f4f776e61626c653a2063616c6c6572206973206e6f74206f776e657200000000600082015250565b60006109a4601c8361095d565b91506109af8261096e565b602082019050919050565b600060208201905081810360008301526109d381610997565b9050919050565b7f457363726f773a2061646472657373206973207a65726f206164647265737321600082015250565b6000610a1060208361095d565b9150610a1b826109da565b602082019050919050565b60006020820190508181036000830152610a3f81610a03565b9050919050565b6000606082019050610a5b6000830186610933565b610a686020830185610933565b610a7560408301846107d4565b94935050505056fea2646970667358221220a308c8e5adf6bd6884dc0366c412ec856ff97071628e8f4302247f160a8db9de64736f6c63430008090033a264697066735822122022d8cc11e122fcf5caa8a084d27a0e60dab882acf7bd73b90c30de7e7e80ed6d64736f6c63430008090033",
  "linkReferences": {},
  "deployedLinkReferences": {}
}