{
  "_format": "hh-sol-artifact-1",
  "contractName": "Qredos",
  "sourceName": "contracts/Qredos.sol",
  "abi": [
    {
      "inputs": [
        {
          "internalType": "address",
          "name": "_paymentTokenAddress",
          "type": "address"
        },
        {
          "internalType": "address",
          "name": "_lendingPoolAddress",
          "type": "address"
        },
        {
          "internalType": "address",
          "name": "_QredosStoreAddress",
          "type": "address"
        }
      ],
      "stateMutability": "nonpayable",
      "type": "constructor"
    },
    {
      "anonymous": false,
      "inputs": [
        {
          "indexed": true,
          "internalType": "uint256",
          "name": "purchaseId",
          "type": "uint256"
        },
        {
          "indexed": true,
          "internalType": "uint256",
          "name": "liquidationId",
          "type": "uint256"
        },
        {
          "indexed": false,
          "internalType": "address",
          "name": "newOwner",
          "type": "address"
        }
      ],
      "name": "CompleteLiquidation",
      "type": "event"
    },
    {
      "anonymous": false,
      "inputs": [
        {
          "indexed": false,
          "internalType": "address",
          "name": "oldValue",
          "type": "address"
        },
        {
          "indexed": false,
          "internalType": "address",
          "name": "newValue",
          "type": "address"
        }
      ],
      "name": "LendingPoolAddressUpdated",
      "type": "event"
    },
    {
      "anonymous": false,
      "inputs": [
        {
          "indexed": true,
          "internalType": "uint256",
          "name": "loanId",
          "type": "uint256"
        },
        {
          "indexed": true,
          "internalType": "address",
          "name": "borrower",
          "type": "address"
        },
        {
          "indexed": false,
          "internalType": "uint256",
          "name": "principal",
          "type": "uint256"
        }
      ],
      "name": "LoanCreated",
      "type": "event"
    },
    {
      "anonymous": false,
      "inputs": [
        {
          "indexed": true,
          "internalType": "uint256",
          "name": "loanRepaymentId",
          "type": "uint256"
        },
        {
          "indexed": true,
          "internalType": "uint256",
          "name": "loanId",
          "type": "uint256"
        },
        {
          "indexed": false,
          "internalType": "uint256",
          "name": "amount",
          "type": "uint256"
        },
        {
          "indexed": false,
          "internalType": "enum Schema.LoanRepaymentType",
          "name": "",
          "type": "uint8"
        }
      ],
      "name": "LoanRepaid",
      "type": "event"
    },
    {
      "anonymous": false,
      "inputs": [
        {
          "indexed": true,
          "internalType": "uint256",
          "name": "purchaseId",
          "type": "uint256"
        },
        {
          "indexed": false,
          "internalType": "address",
          "name": "claimer",
          "type": "address"
        }
      ],
      "name": "NFTClaimed",
      "type": "event"
    },
    {
      "anonymous": false,
      "inputs": [
        {
          "indexed": true,
          "internalType": "address",
          "name": "previousOwner",
          "type": "address"
        },
        {
          "indexed": true,
          "internalType": "address",
          "name": "newOwner",
          "type": "address"
        }
      ],
      "name": "OwnershipTransferred",
      "type": "event"
    },
    {
      "anonymous": false,
      "inputs": [
        {
          "indexed": false,
          "internalType": "address",
          "name": "oldValue",
          "type": "address"
        },
        {
          "indexed": false,
          "internalType": "address",
          "name": "newValue",
          "type": "address"
        }
      ],
      "name": "PaymentTokenAddressUpdated",
      "type": "event"
    },
    {
      "anonymous": false,
      "inputs": [
        {
          "indexed": true,
          "internalType": "uint256",
          "name": "poolId",
          "type": "uint256"
        },
        {
          "indexed": false,
          "internalType": "uint256",
          "name": "amountWithdrawn",
          "type": "uint256"
        }
      ],
      "name": "PoolClosed",
      "type": "event"
    },
    {
      "anonymous": false,
      "inputs": [
        {
          "indexed": true,
          "internalType": "uint256",
          "name": "poolId",
          "type": "uint256"
        },
        {
          "indexed": true,
          "internalType": "address",
          "name": "creator",
          "type": "address"
        }
      ],
      "name": "PoolCreated",
      "type": "event"
    },
    {
      "anonymous": false,
      "inputs": [
        {
          "indexed": true,
          "internalType": "uint256",
          "name": "poolId",
          "type": "uint256"
        },
        {
          "indexed": false,
          "internalType": "uint256",
          "name": "amount",
          "type": "uint256"
        }
      ],
      "name": "PoolFunded",
      "type": "event"
    },
    {
      "anonymous": false,
      "inputs": [],
      "name": "PoolRegistryContractDeployed",
      "type": "event"
    },
    {
      "anonymous": false,
      "inputs": [
        {
          "indexed": true,
          "internalType": "uint256",
          "name": "purchaseId",
          "type": "uint256"
        }
      ],
      "name": "PurchaseCompleted",
      "type": "event"
    },
    {
      "anonymous": false,
      "inputs": [
        {
          "indexed": true,
          "internalType": "address",
          "name": "userAddress",
          "type": "address"
        },
        {
          "indexed": true,
          "internalType": "uint256",
          "name": "poolId",
          "type": "uint256"
        },
        {
          "indexed": false,
          "internalType": "uint256",
          "name": "loanId",
          "type": "uint256"
        },
        {
          "indexed": true,
          "internalType": "uint256",
          "name": "purchaseId",
          "type": "uint256"
        },
        {
          "indexed": false,
          "internalType": "uint256",
          "name": "tokenId",
          "type": "uint256"
        },
        {
          "indexed": false,
          "internalType": "address",
          "name": "tokenAddress",
          "type": "address"
        },
        {
          "indexed": false,
          "internalType": "uint256",
          "name": "downPayment",
          "type": "uint256"
        },
        {
          "indexed": false,
          "internalType": "uint256",
          "name": "principal",
          "type": "uint256"
        },
        {
          "indexed": false,
          "internalType": "uint256",
          "name": "apr",
          "type": "uint256"
        },
        {
          "indexed": false,
          "internalType": "uint256",
          "name": "duration",
          "type": "uint256"
        },
        {
          "indexed": false,
          "internalType": "uint16",
          "name": "downPaymentPercentage",
          "type": "uint16"
        }
      ],
      "name": "PurchaseCreated",
      "type": "event"
    },
    {
      "anonymous": false,
      "inputs": [
        {
          "indexed": false,
          "internalType": "address",
          "name": "paymentTokenAddress",
          "type": "address"
        },
        {
          "indexed": false,
          "internalType": "address",
          "name": "lendingPoolAddress",
          "type": "address"
        }
      ],
      "name": "QredosContractDeployed",
      "type": "event"
    },
    {
      "anonymous": false,
      "inputs": [
        {
          "indexed": true,
          "internalType": "uint256",
          "name": "purchaseId",
          "type": "uint256"
        },
        {
          "indexed": false,
          "internalType": "address",
          "name": "borrowerAddress",
          "type": "address"
        },
        {
          "indexed": false,
          "internalType": "uint256",
          "name": "refundAmount",
          "type": "uint256"
        }
      ],
      "name": "RefundBorrower",
      "type": "event"
    },
    {
      "anonymous": false,
      "inputs": [
        {
          "indexed": true,
          "internalType": "uint256",
          "name": "purchaseId",
          "type": "uint256"
        },
        {
          "indexed": false,
          "internalType": "uint256",
          "name": "discountAmount",
          "type": "uint256"
        },
        {
          "indexed": true,
          "internalType": "uint256",
          "name": "liquidationId",
          "type": "uint256"
        }
      ],
      "name": "StartLiquidation",
      "type": "event"
    },
    {
      "inputs": [
        {
          "internalType": "uint256",
          "name": "purchaseId",
          "type": "uint256"
        },
        {
          "internalType": "uint256",
          "name": "liquidationId",
          "type": "uint256"
        }
      ],
      "name": "_calcBorrowerRefundAmount",
      "outputs": [
        {
          "internalType": "uint256",
          "name": "",
          "type": "uint256"
        }
      ],
      "stateMutability": "view",
      "type": "function"
    },
    {
      "inputs": [
        {
          "internalType": "uint256",
          "name": "purchaseId",
          "type": "uint256"
        },
        {
          "internalType": "uint256",
          "name": "poolId",
          "type": "uint256"
        }
      ],
      "name": "claimNft",
      "outputs": [],
      "stateMutability": "nonpayable",
      "type": "function"
    },
    {
      "inputs": [
        {
          "internalType": "uint256",
          "name": "poolId",
          "type": "uint256"
        },
        {
          "internalType": "address",
          "name": "reciever",
          "type": "address"
        }
      ],
      "name": "closePool",
      "outputs": [],
      "stateMutability": "nonpayable",
      "type": "function"
    },
    {
      "inputs": [
        {
          "internalType": "uint256",
          "name": "liquidationId",
          "type": "uint256"
        },
        {
          "internalType": "address",
          "name": "borrowerAddress",
          "type": "address"
        }
      ],
      "name": "completeLiquidation",
      "outputs": [],
      "stateMutability": "nonpayable",
      "type": "function"
    },
    {
      "inputs": [
        {
          "internalType": "uint256",
          "name": "purchaseId",
          "type": "uint256"
        }
      ],
      "name": "completeNFTPurchase",
      "outputs": [],
      "stateMutability": "nonpayable",
      "type": "function"
    },
    {
      "inputs": [
        {
          "internalType": "uint256",
          "name": "_amount",
          "type": "uint256"
        },
        {
          "internalType": "uint16",
          "name": "_paymentCycle",
          "type": "uint16"
        },
        {
          "internalType": "uint16",
          "name": "_APR",
          "type": "uint16"
        },
        {
          "internalType": "uint256",
          "name": "_durationInSecs",
          "type": "uint256"
        },
        {
          "internalType": "uint16",
          "name": "_durationInMonths",
          "type": "uint16"
        },
        {
          "internalType": "address",
          "name": "_creator",
          "type": "address"
        }
      ],
      "name": "createPool",
      "outputs": [],
      "stateMutability": "nonpayable",
      "type": "function"
    },
    {
      "inputs": [],
      "name": "forwardAllFunds",
      "outputs": [],
      "stateMutability": "nonpayable",
      "type": "function"
    },
    {
      "inputs": [
        {
          "internalType": "uint256",
          "name": "poolId",
          "type": "uint256"
        },
        {
          "internalType": "uint256",
          "name": "amount",
          "type": "uint256"
        }
      ],
      "name": "fundPool",
      "outputs": [],
      "stateMutability": "nonpayable",
      "type": "function"
    },
    {
      "inputs": [
        {
          "internalType": "uint256",
          "name": "poolId",
          "type": "uint256"
        }
      ],
      "name": "getPoolBalance",
      "outputs": [
        {
          "internalType": "uint256",
          "name": "",
          "type": "uint256"
        }
      ],
      "stateMutability": "view",
      "type": "function"
    },
    {
      "inputs": [],
      "name": "isPaused",
      "outputs": [
        {
          "internalType": "bool",
          "name": "",
          "type": "bool"
        }
      ],
      "stateMutability": "view",
      "type": "function"
    },
    {
      "inputs": [],
      "name": "lendingPoolAddress",
      "outputs": [
        {
          "internalType": "address",
          "name": "",
          "type": "address"
        }
      ],
      "stateMutability": "view",
      "type": "function"
    },
    {
      "inputs": [
        {
          "internalType": "address",
          "name": "",
          "type": "address"
        },
        {
          "internalType": "address",
          "name": "",
          "type": "address"
        },
        {
          "internalType": "uint256",
          "name": "",
          "type": "uint256"
        },
        {
          "internalType": "bytes",
          "name": "",
          "type": "bytes"
        }
      ],
      "name": "onERC721Received",
      "outputs": [
        {
          "internalType": "bytes4",
          "name": "",
          "type": "bytes4"
        }
      ],
      "stateMutability": "pure",
      "type": "function"
    },
    {
      "inputs": [],
      "name": "owner",
      "outputs": [
        {
          "internalType": "address",
          "name": "",
          "type": "address"
        }
      ],
      "stateMutability": "view",
      "type": "function"
    },
    {
      "inputs": [],
      "name": "paymentTokenAddress",
      "outputs": [
        {
          "internalType": "address",
          "name": "",
          "type": "address"
        }
      ],
      "stateMutability": "view",
      "type": "function"
    },
    {
      "inputs": [
        {
          "internalType": "address",
          "name": "tokenAddress",
          "type": "address"
        },
        {
          "internalType": "uint256",
          "name": "tokenId",
          "type": "uint256"
        },
        {
          "internalType": "uint256",
          "name": "downPaymentAmount",
          "type": "uint256"
        },
        {
          "internalType": "uint256",
          "name": "principal",
          "type": "uint256"
        },
        {
          "internalType": "uint256",
          "name": "poolId",
          "type": "uint256"
        }
      ],
      "name": "purchaseNFT",
      "outputs": [],
      "stateMutability": "nonpayable",
      "type": "function"
    },
    {
      "inputs": [],
      "name": "qredosStoreAddress",
      "outputs": [
        {
          "internalType": "address",
          "name": "",
          "type": "address"
        }
      ],
      "stateMutability": "view",
      "type": "function"
    },
    {
      "inputs": [
        {
          "internalType": "uint256",
          "name": "purchaseId",
          "type": "uint256"
        },
        {
          "internalType": "uint256",
          "name": "liquidationId",
          "type": "uint256"
        }
      ],
      "name": "refundBorrower",
      "outputs": [],
      "stateMutability": "nonpayable",
      "type": "function"
    },
    {
      "inputs": [],
      "name": "renounceOwnership",
      "outputs": [],
      "stateMutability": "nonpayable",
      "type": "function"
    },
    {
      "inputs": [
        {
          "internalType": "uint256",
          "name": "purchaseId",
          "type": "uint256"
        },
        {
          "internalType": "enum Schema.LoanRepaymentType",
          "name": "repaymentType",
          "type": "uint8"
        },
        {
          "internalType": "uint256",
          "name": "poolId",
          "type": "uint256"
        }
      ],
      "name": "repayLoan",
      "outputs": [],
      "stateMutability": "nonpayable",
      "type": "function"
    },
    {
      "inputs": [
        {
          "internalType": "uint256",
          "name": "purchaseId",
          "type": "uint256"
        },
        {
          "internalType": "uint256",
          "name": "discountAmount",
          "type": "uint256"
        },
        {
          "internalType": "uint256",
          "name": "currentNftPrice",
          "type": "uint256"
        },
        {
          "internalType": "address",
          "name": "borrowerAddress",
          "type": "address"
        }
      ],
      "name": "startLiquidation",
      "outputs": [],
      "stateMutability": "nonpayable",
      "type": "function"
    },
    {
      "inputs": [],
      "name": "toggleIsPaused",
      "outputs": [],
      "stateMutability": "nonpayable",
      "type": "function"
    },
    {
      "inputs": [
        {
          "internalType": "address",
          "name": "newOwner",
          "type": "address"
        }
      ],
      "name": "transferOwnership",
      "outputs": [],
      "stateMutability": "nonpayable",
      "type": "function"
    }
  ],
  "bytecode": "0x60806040523480156200001157600080fd5b5060405162006ee538038062006ee5833981810160405281019062000037919062000241565b620000576200004b6200015e60201b60201c565b6200016660201b60201c565b82600160006101000a81548173ffffffffffffffffffffffffffffffffffffffff021916908373ffffffffffffffffffffffffffffffffffffffff16021790555081600260006101000a81548173ffffffffffffffffffffffffffffffffffffffff021916908373ffffffffffffffffffffffffffffffffffffffff16021790555080600360006101000a81548173ffffffffffffffffffffffffffffffffffffffff021916908373ffffffffffffffffffffffffffffffffffffffff1602179055507f65347c9102e9bd382095627b9d28b5a60049293b5b7158efee03d63beb820e4d83836040516200014d929190620002a8565b60405180910390a150505062000323565b600033905090565b60008060009054906101000a900473ffffffffffffffffffffffffffffffffffffffff169050816000806101000a81548173ffffffffffffffffffffffffffffffffffffffff021916908373ffffffffffffffffffffffffffffffffffffffff1602179055508173ffffffffffffffffffffffffffffffffffffffff168173ffffffffffffffffffffffffffffffffffffffff167f8be0079c531659141344cd1fd0a4f28419497f9722a3daafe3b4186f6b6457e060405160405180910390a35050565b6000815190506200023b8162000309565b92915050565b6000806000606084860312156200025757600080fd5b600062000267868287016200022a565b93505060206200027a868287016200022a565b92505060406200028d868287016200022a565b9150509250925092565b620002a281620002d5565b82525050565b6000604082019050620002bf600083018562000297565b620002ce602083018462000297565b9392505050565b6000620002e282620002e9565b9050919050565b600073ffffffffffffffffffffffffffffffffffffffff82169050919050565b6200031481620002d5565b81146200032057600080fd5b50565b616bb280620003336000396000f3fe60806040523480156200001157600080fd5b5060043610620001605760003560e01c80639c0b7b5c11620000c9578063da2488cd1162000087578063da2488cd146200035d578063da297df2146200037d578063ed1375d5146200039d578063f2fde38b14620003d3578063f9613d7f14620003f3578063ff9311a014620003ff5762000160565b80639c0b7b5c14620002b75780639d5e2eeb14620002d7578063afb18fe714620002f7578063b187bd261462000319578063d3ae26b3146200033b5762000160565b80636279ce6c11620001235780636279ce6c146200021d57806370a883ca1462000229578063715018a614620002495780637d0812b9146200025557806383b1877614620002755780638da5cb5b14620002955762000160565b8063150b7a0214620001655780632280b3d2146200019b57806325e235ff14620001bd578063553c69b414620001dd5780635acd6fac14620001fd575b600080fd5b6200018360048036038101906200017d91906200445d565b62000435565b60405162000192919062004fe0565b60405180910390f35b620001a56200044a565b604051620001b4919062004e04565b60405180910390f35b620001db6004803603810190620001d59190620047f7565b62000470565b005b620001fb6004803603810190620001f5919062004761565b62000888565b005b6200021b6004803603810190620002159190620047f7565b62000aa7565b005b6200022762000cba565b005b6200024760048036038101906200024191906200470b565b62000e35565b005b6200025362001612565b005b6200027360048036038101906200026d9190620046ca565b6200162a565b005b6200029360048036038101906200028d919062004672565b62001b31565b005b6200029f62002074565b604051620002ae919062004e04565b60405180910390f35b620002d56004803603810190620002cf9190620047f7565b6200209d565b005b620002f56004803603810190620002ef919062004838565b62002348565b005b6200030162002503565b60405162000310919062004e04565b60405180910390f35b6200032362002529565b60405162000332919062004fc3565b60405180910390f35b620003456200253c565b60405162000354919062004e04565b60405180910390f35b6200037b6004803603810190620003759190620046ca565b62002562565b005b6200039b6004803603810190620003959190620044e7565b620028e9565b005b620003bb6004803603810190620003b5919062004672565b62003015565b604051620003ca919062005291565b60405180910390f35b620003f16004803603810190620003eb919062004405565b620030cf565b005b620003fd6200315a565b005b6200041d6004803603810190620004179190620047f7565b62003190565b6040516200042c919062005291565b60405180910390f35b600063150b7a0260e01b905095945050505050565b600360009054906101000a900473ffffffffffffffffffffffffffffffffffffffff1681565b600360149054906101000a900460ff1615620004c3576040517f08c379a0000000000000000000000000000000000000000000000000000000008152600401620004ba9062005175565b60405180910390fd5b6000600360009054906101000a900473ffffffffffffffffffffffffffffffffffffffff1673ffffffffffffffffffffffffffffffffffffffff1663dfd7f4ae33856040518363ffffffff1660e01b81526004016200052492919062004e5e565b60e06040518083038186803b1580156200053d57600080fd5b505afa15801562000552573d6000803e3d6000fd5b505050506040513d601f19601f820116820180604052508101906200057891906200461a565b90506000600260009054906101000a900473ffffffffffffffffffffffffffffffffffffffff1673ffffffffffffffffffffffffffffffffffffffff1663d22368676040518163ffffffff1660e01b815260040160206040518083038186803b158015620005e557600080fd5b505afa158015620005fa573d6000803e3d6000fd5b505050506040513d601f19601f8201168201806040525081019062000620919062004431565b73ffffffffffffffffffffffffffffffffffffffff16636bac63728484600001516040518363ffffffff1660e01b81526004016200066092919062005375565b60c06040518083038186803b1580156200067957600080fd5b505afa1580156200068e573d6000803e3d6000fd5b505050506040513d601f19601f82011682018060405250810190620006b49190620045c1565b9050600180811115620006f0577f4e487b7100000000000000000000000000000000000000000000000000000000600052602160045260246000fd5b816080015160018111156200072e577f4e487b7100000000000000000000000000000000000000000000000000000000600052602160045260246000fd5b1462000771576040517f08c379a00000000000000000000000000000000000000000000000000000000081526004016200076890620050ed565b60405180910390fd5b816040015173ffffffffffffffffffffffffffffffffffffffff16631e83409a336040518263ffffffff1660e01b8152600401620007b0919062004e04565b602060405180830381600087803b158015620007cb57600080fd5b505af1158015620007e0573d6000803e3d6000fd5b505050506040513d601f19601f8201168201806040525081019062000806919062004569565b62000848576040517f08c379a00000000000000000000000000000000000000000000000000000000081526004016200083f90620051b9565b60405180910390fd5b837fec5f0dee1fc3c7beab746dbd5883eee3f1c9bc07fe02dd318c553c5243f52fea336040516200087a919062004e04565b60405180910390a250505050565b600360149054906101000a900460ff1615620008db576040517f08c379a0000000000000000000000000000000000000000000000000000000008152600401620008d29062005175565b60405180910390fd5b6200092c333088600160009054906101000a900473ffffffffffffffffffffffffffffffffffffffff1673ffffffffffffffffffffffffffffffffffffffff16620039c5909392919063ffffffff16565b600160009054906101000a900473ffffffffffffffffffffffffffffffffffffffff1673ffffffffffffffffffffffffffffffffffffffff1663095ea7b3600260009054906101000a900473ffffffffffffffffffffffffffffffffffffffff16886040518363ffffffff1660e01b8152600401620009ad92919062004e5e565b602060405180830381600087803b158015620009c857600080fd5b505af1158015620009dd573d6000803e3d6000fd5b505050506040513d601f19601f8201168201806040525081019062000a03919062004569565b50600260009054906101000a900473ffffffffffffffffffffffffffffffffffffffff1673ffffffffffffffffffffffffffffffffffffffff1663553c69b48787878787876040518763ffffffff1660e01b815260040162000a6b9695949392919062005308565b600060405180830381600087803b15801562000a8657600080fd5b505af115801562000a9b573d6000803e3d6000fd5b50505050505050505050565b600360149054906101000a900460ff161562000afa576040517f08c379a000000000000000000000000000000000000000000000000000000000815260040162000af19062005175565b60405180910390fd5b62000b4b333083600160009054906101000a900473ffffffffffffffffffffffffffffffffffffffff1673ffffffffffffffffffffffffffffffffffffffff16620039c5909392919063ffffffff16565b600160009054906101000a900473ffffffffffffffffffffffffffffffffffffffff1673ffffffffffffffffffffffffffffffffffffffff1663095ea7b3600260009054906101000a900473ffffffffffffffffffffffffffffffffffffffff16836040518363ffffffff1660e01b815260040162000bcc92919062004e5e565b602060405180830381600087803b15801562000be757600080fd5b505af115801562000bfc573d6000803e3d6000fd5b505050506040513d601f19601f8201168201806040525081019062000c22919062004569565b50600260009054906101000a900473ffffffffffffffffffffffffffffffffffffffff1673ffffffffffffffffffffffffffffffffffffffff16635acd6fac83836040518363ffffffff1660e01b815260040162000c8292919062005375565b600060405180830381600087803b15801562000c9d57600080fd5b505af115801562000cb2573d6000803e3d6000fd5b505050505050565b62000cc462003a52565b600160009054906101000a900473ffffffffffffffffffffffffffffffffffffffff1673ffffffffffffffffffffffffffffffffffffffff1663a9059cbb62000d0c62002074565b600160009054906101000a900473ffffffffffffffffffffffffffffffffffffffff1673ffffffffffffffffffffffffffffffffffffffff166370a08231306040518263ffffffff1660e01b815260040162000d69919062004e04565b60206040518083038186803b15801562000d8257600080fd5b505afa15801562000d97573d6000803e3d6000fd5b505050506040513d601f19601f8201168201806040525081019062000dbd91906200469e565b6040518363ffffffff1660e01b815260040162000ddc92919062004e5e565b602060405180830381600087803b15801562000df757600080fd5b505af115801562000e0c573d6000803e3d6000fd5b505050506040513d601f19601f8201168201806040525081019062000e32919062004569565b50565b600360149054906101000a900460ff161562000e88576040517f08c379a000000000000000000000000000000000000000000000000000000000815260040162000e7f9062005175565b60405180910390fd5b6000600360009054906101000a900473ffffffffffffffffffffffffffffffffffffffff1673ffffffffffffffffffffffffffffffffffffffff1663dfd7f4ae33866040518363ffffffff1660e01b815260040162000ee992919062004e5e565b60e06040518083038186803b15801562000f0257600080fd5b505afa15801562000f17573d6000803e3d6000fd5b505050506040513d601f19601f8201168201806040525081019062000f3d91906200461a565b90506000600181111562000f7a577f4e487b7100000000000000000000000000000000000000000000000000000000600052602160045260246000fd5b83600181111562000fb4577f4e487b7100000000000000000000000000000000000000000000000000000000600052602160045260246000fd5b1415620012a8576000600260009054906101000a900473ffffffffffffffffffffffffffffffffffffffff1673ffffffffffffffffffffffffffffffffffffffff1663d30f96cb8360000151856040518363ffffffff1660e01b81526004016200102092919062005375565b60206040518083038186803b1580156200103957600080fd5b505afa1580156200104e573d6000803e3d6000fd5b505050506040513d601f19601f820116820180604052508101906200107491906200469e565b9050620010c7333083600160009054906101000a900473ffffffffffffffffffffffffffffffffffffffff1673ffffffffffffffffffffffffffffffffffffffff16620039c5909392919063ffffffff16565b600160009054906101000a900473ffffffffffffffffffffffffffffffffffffffff1673ffffffffffffffffffffffffffffffffffffffff1663095ea7b3600260009054906101000a900473ffffffffffffffffffffffffffffffffffffffff16836040518363ffffffff1660e01b81526004016200114892919062004e5e565b602060405180830381600087803b1580156200116357600080fd5b505af115801562001178573d6000803e3d6000fd5b505050506040513d601f19601f820116820180604052508101906200119e919062004569565b506000600260009054906101000a900473ffffffffffffffffffffffffffffffffffffffff1673ffffffffffffffffffffffffffffffffffffffff1663c60bffc7846000015184876040518463ffffffff1660e01b815260040162001206939291906200546d565b602060405180830381600087803b1580156200122157600080fd5b505af115801562001236573d6000803e3d6000fd5b505050506040513d601f19601f820116820180604052508101906200125c91906200469e565b90508260000151817f5f3b53e81cd16b078bd648ad759c36c3b66dee302039ba48d4ad37de61dba7bb84600060405162001298929190620052db565b60405180910390a350506200160c565b600180811115620012e2577f4e487b7100000000000000000000000000000000000000000000000000000000600052602160045260246000fd5b8360018111156200131c577f4e487b7100000000000000000000000000000000000000000000000000000000600052602160045260246000fd5b14156200160b576000600260009054906101000a900473ffffffffffffffffffffffffffffffffffffffff1673ffffffffffffffffffffffffffffffffffffffff16636cd5ffa88360000151856040518363ffffffff1660e01b81526004016200138892919062005375565b60206040518083038186803b158015620013a157600080fd5b505afa158015620013b6573d6000803e3d6000fd5b505050506040513d601f19601f82011682018060405250810190620013dc91906200469e565b90506200142f333083600160009054906101000a900473ffffffffffffffffffffffffffffffffffffffff1673ffffffffffffffffffffffffffffffffffffffff16620039c5909392919063ffffffff16565b600160009054906101000a900473ffffffffffffffffffffffffffffffffffffffff1673ffffffffffffffffffffffffffffffffffffffff1663095ea7b3600260009054906101000a900473ffffffffffffffffffffffffffffffffffffffff16836040518363ffffffff1660e01b8152600401620014b092919062004e5e565b602060405180830381600087803b158015620014cb57600080fd5b505af1158015620014e0573d6000803e3d6000fd5b505050506040513d601f19601f8201168201806040525081019062001506919062004569565b506000600260009054906101000a900473ffffffffffffffffffffffffffffffffffffffff1673ffffffffffffffffffffffffffffffffffffffff166399f6bccb846000015184876040518463ffffffff1660e01b81526004016200156e939291906200546d565b602060405180830381600087803b1580156200158957600080fd5b505af11580156200159e573d6000803e3d6000fd5b505050506040513d601f19601f82011682018060405250810190620015c491906200469e565b90508260000151817f5f3b53e81cd16b078bd648ad759c36c3b66dee302039ba48d4ad37de61dba7bb84600160405162001600929190620052db565b60405180910390a350505b5b50505050565b6200161c62003a52565b62001628600062003ad7565b565b600360149054906101000a900460ff16156200167d576040517f08c379a0000000000000000000000000000000000000000000000000000000008152600401620016749062005175565b60405180910390fd5b6000600360009054906101000a900473ffffffffffffffffffffffffffffffffffffffff1673ffffffffffffffffffffffffffffffffffffffff1663500db2a6846040518263ffffffff1660e01b8152600401620016dc919062005291565b60a06040518083038186803b158015620016f557600080fd5b505afa1580156200170a573d6000803e3d6000fd5b505050506040513d601f19601f8201168201806040525081019062001730919062004595565b90506000600360009054906101000a900473ffffffffffffffffffffffffffffffffffffffff1673ffffffffffffffffffffffffffffffffffffffff1663dfd7f4ae8484600001516040518363ffffffff1660e01b81526004016200179792919062004e5e565b60e06040518083038186803b158015620017b057600080fd5b505afa158015620017c5573d6000803e3d6000fd5b505050506040513d601f19601f82011682018060405250810190620017eb91906200461a565b90506200184233308460400151600160009054906101000a900473ffffffffffffffffffffffffffffffffffffffff1673ffffffffffffffffffffffffffffffffffffffff16620039c5909392919063ffffffff16565b620018b7600260009054906101000a900473ffffffffffffffffffffffffffffffffffffffff168360400151600160009054906101000a900473ffffffffffffffffffffffffffffffffffffffff1673ffffffffffffffffffffffffffffffffffffffff1662003b9b9092919063ffffffff16565b806040015173ffffffffffffffffffffffffffffffffffffffff16631e83409a336040518263ffffffff1660e01b8152600401620018f6919062004e04565b602060405180830381600087803b1580156200191157600080fd5b505af115801562001926573d6000803e3d6000fd5b505050506040513d601f19601f820116820180604052508101906200194c919062004569565b6200198e576040517f08c379a000000000000000000000000000000000000000000000000000000000815260040162001985906200521f565b60405180910390fd5b600360009054906101000a900473ffffffffffffffffffffffffffffffffffffffff1673ffffffffffffffffffffffffffffffffffffffff16631fa400068360000151846040015187600187602001516040518663ffffffff1660e01b815260040162001a00959493929190620054aa565b600060405180830381600087803b15801562001a1b57600080fd5b505af115801562001a30573d6000803e3d6000fd5b50505050600360009054906101000a900473ffffffffffffffffffffffffffffffffffffffff1673ffffffffffffffffffffffffffffffffffffffff166341eb24b18484600001518460000151856020015186604001518760600151886080015160036040518963ffffffff1660e01b815260040162001ab898979695949392919062004f35565b600060405180830381600087803b15801562001ad357600080fd5b505af115801562001ae8573d6000803e3d6000fd5b505050508382600001517f10f0eb5bec4048bc2147c3eff0d6bb1ea88c96d7daf1e0ec6174e60f3d2d6b363360405162001b23919062004e04565b60405180910390a350505050565b600360149054906101000a900460ff161562001b84576040517f08c379a000000000000000000000000000000000000000000000000000000000815260040162001b7b9062005175565b60405180910390fd5b6000600360009054906101000a900473ffffffffffffffffffffffffffffffffffffffff1673ffffffffffffffffffffffffffffffffffffffff1663dfd7f4ae33846040518363ffffffff1660e01b815260040162001be592919062004e5e565b60e06040518083038186803b15801562001bfe57600080fd5b505afa15801562001c13573d6000803e3d6000fd5b505050506040513d601f19601f8201168201806040525081019062001c3991906200461a565b90503073ffffffffffffffffffffffffffffffffffffffff16816060015173ffffffffffffffffffffffffffffffffffffffff16636352211e83608001516040518263ffffffff1660e01b815260040162001c95919062005291565b60206040518083038186803b15801562001cae57600080fd5b505afa15801562001cc3573d6000803e3d6000fd5b505050506040513d601f19601f8201168201806040525081019062001ce9919062004431565b73ffffffffffffffffffffffffffffffffffffffff161462001d42576040517f08c379a000000000000000000000000000000000000000000000000000000000815260040162001d399062005131565b60405180910390fd5b6000308260800151836060015160405162001d5d9062003fbc565b62001d6b9392919062004e8b565b604051809103906000f08015801562001d88573d6000803e3d6000fd5b5090503073ffffffffffffffffffffffffffffffffffffffff168173ffffffffffffffffffffffffffffffffffffffff16638da5cb5b6040518163ffffffff1660e01b815260040160206040518083038186803b15801562001de957600080fd5b505afa15801562001dfe573d6000803e3d6000fd5b505050506040513d601f19601f8201168201806040525081019062001e24919062004431565b73ffffffffffffffffffffffffffffffffffffffff161462001e7d576040517f08c379a000000000000000000000000000000000000000000000000000000000815260040162001e749062005087565b60405180910390fd5b816060015173ffffffffffffffffffffffffffffffffffffffff1663095ea7b38284608001516040518363ffffffff1660e01b815260040162001ec292919062004e5e565b600060405180830381600087803b15801562001edd57600080fd5b505af115801562001ef2573d6000803e3d6000fd5b505050508073ffffffffffffffffffffffffffffffffffffffff16636e553f65836080015184606001516040518363ffffffff1660e01b815260040162001f3b929190620052ae565b602060405180830381600087803b15801562001f5657600080fd5b505af115801562001f6b573d6000803e3d6000fd5b505050506040513d601f19601f8201168201806040525081019062001f91919062004569565b50600360009054906101000a900473ffffffffffffffffffffffffffffffffffffffff1673ffffffffffffffffffffffffffffffffffffffff166341eb24b1338585600001518660200151868860600151896080015160016040518963ffffffff1660e01b81526004016200200e98979695949392919062004f35565b600060405180830381600087803b1580156200202957600080fd5b505af11580156200203e573d6000803e3d6000fd5b50505050827f5d2e146c95f4ec58ed7e1dc5cc4f32ff5ffdd304fdd34cfd84a930d39f1f5e7260405160405180910390a2505050565b60008060009054906101000a900473ffffffffffffffffffffffffffffffffffffffff16905090565b600360149054906101000a900460ff1615620020f0576040517f08c379a0000000000000000000000000000000000000000000000000000000008152600401620020e79062005175565b60405180910390fd5b6000600360009054906101000a900473ffffffffffffffffffffffffffffffffffffffff1673ffffffffffffffffffffffffffffffffffffffff1663dfd7f4ae33856040518363ffffffff1660e01b81526004016200215192919062004e5e565b60e06040518083038186803b1580156200216a57600080fd5b505afa1580156200217f573d6000803e3d6000fd5b505050506040513d601f19601f82011682018060405250810190620021a591906200461a565b905060036004811115620021e2577f4e487b7100000000000000000000000000000000000000000000000000000000600052602160045260246000fd5b8160a00151600481111562002220577f4e487b7100000000000000000000000000000000000000000000000000000000600052602160045260246000fd5b1462002263576040517f08c379a00000000000000000000000000000000000000000000000000000000081526004016200225a9062005197565b60405180910390fd5b600062002271848462003190565b9050600260009054906101000a900473ffffffffffffffffffffffffffffffffffffffff1673ffffffffffffffffffffffffffffffffffffffff1663413e167733836040518363ffffffff1660e01b8152600401620022d292919062004e5e565b600060405180830381600087803b158015620022ed57600080fd5b505af115801562002302573d6000803e3d6000fd5b50505050837fb5947234d9d981e6dc885e516b3a8cabc0aded467c00d88a12aea0402fb37a5333836040516200233a92919062004e5e565b60405180910390a250505050565b6200235262003a52565b600360009054906101000a900473ffffffffffffffffffffffffffffffffffffffff1673ffffffffffffffffffffffffffffffffffffffff1663dfd7f4ae82866040518363ffffffff1660e01b8152600401620023b192919062004e5e565b60e06040518083038186803b158015620023ca57600080fd5b505afa158015620023df573d6000803e3d6000fd5b505050506040513d601f19601f820116820180604052508101906200240591906200461a565b506000600360009054906101000a900473ffffffffffffffffffffffffffffffffffffffff1673ffffffffffffffffffffffffffffffffffffffff1663955af5c38686866040518463ffffffff1660e01b815260040162002469939291906200546d565b602060405180830381600087803b1580156200248457600080fd5b505af115801562002499573d6000803e3d6000fd5b505050506040513d601f19601f82011682018060405250810190620024bf91906200469e565b905080857f1999b5cf4c86a262821b1ab4825d62e65f2350bc1f6476d25352cb4a2202f30486604051620024f4919062005291565b60405180910390a35050505050565b600160009054906101000a900473ffffffffffffffffffffffffffffffffffffffff1681565b600360149054906101000a900460ff1681565b600260009054906101000a900473ffffffffffffffffffffffffffffffffffffffff1681565b600360149054906101000a900460ff1615620025b5576040517f08c379a0000000000000000000000000000000000000000000000000000000008152600401620025ac9062005175565b60405180910390fd5b6000600260009054906101000a900473ffffffffffffffffffffffffffffffffffffffff1673ffffffffffffffffffffffffffffffffffffffff1663d22368676040518163ffffffff1660e01b815260040160206040518083038186803b1580156200262057600080fd5b505afa15801562002635573d6000803e3d6000fd5b505050506040513d601f19601f820116820180604052508101906200265b919062004431565b73ffffffffffffffffffffffffffffffffffffffff16635055149c846040518263ffffffff1660e01b815260040162002695919062005291565b6101006040518083038186803b158015620026af57600080fd5b505afa158015620026c4573d6000803e3d6000fd5b505050506040513d601f19601f82011682018060405250810190620026ea9190620045ed565b90508060a0015173ffffffffffffffffffffffffffffffffffffffff163373ffffffffffffffffffffffffffffffffffffffff161462002761576040517f08c379a0000000000000000000000000000000000000000000000000000000008152600401620027589062005241565b60405180910390fd5b6000600260009054906101000a900473ffffffffffffffffffffffffffffffffffffffff1673ffffffffffffffffffffffffffffffffffffffff1663139d179f856040518263ffffffff1660e01b8152600401620027c0919062005291565b60206040518083038186803b158015620027d957600080fd5b505afa158015620027ee573d6000803e3d6000fd5b505050506040513d601f19601f820116820180604052508101906200281491906200469e565b9050600260009054906101000a900473ffffffffffffffffffffffffffffffffffffffff1673ffffffffffffffffffffffffffffffffffffffff1663da2488cd85856040518363ffffffff1660e01b815260040162002875929190620052ae565b600060405180830381600087803b1580156200289057600080fd5b505af1158015620028a5573d6000803e3d6000fd5b50505050837faf7faf29a251efa1bcf2b47dab1a72baa0906a2e4ff957e6cb6d4f7c642161ab82604051620028db919062005291565b60405180910390a250505050565b600360149054906101000a900460ff16156200293c576040517f08c379a0000000000000000000000000000000000000000000000000000000008152600401620029339062005175565b60405180910390fd5b600073ffffffffffffffffffffffffffffffffffffffff168573ffffffffffffffffffffffffffffffffffffffff161415620029af576040517f08c379a0000000000000000000000000000000000000000000000000000000008152600401620029a69062005043565b60405180910390fd5b6000600260009054906101000a900473ffffffffffffffffffffffffffffffffffffffff1673ffffffffffffffffffffffffffffffffffffffff1663d22368676040518163ffffffff1660e01b815260040160206040518083038186803b15801562002a1a57600080fd5b505afa15801562002a2f573d6000803e3d6000fd5b505050506040513d601f19601f8201168201806040525081019062002a55919062004431565b905060008173ffffffffffffffffffffffffffffffffffffffff16635055149c846040518263ffffffff1660e01b815260040162002a94919062005291565b6101006040518083038186803b15801562002aae57600080fd5b505afa15801562002ac3573d6000803e3d6000fd5b505050506040513d601f19601f8201168201806040525081019062002ae99190620045ed565b905062002af7858562003c25565b62002b39576040517f08c379a000000000000000000000000000000000000000000000000000000000815260040162002b30906200510f565b60405180910390fd5b83600260009054906101000a900473ffffffffffffffffffffffffffffffffffffffff1673ffffffffffffffffffffffffffffffffffffffff1663d060f501856040518263ffffffff1660e01b815260040162002b97919062005291565b60206040518083038186803b15801562002bb057600080fd5b505afa15801562002bc5573d6000803e3d6000fd5b505050506040513d601f19601f8201168201806040525081019062002beb91906200469e565b1162002c2e576040517f08c379a000000000000000000000000000000000000000000000000000000000815260040162002c2590620050a9565b60405180910390fd5b62002c7f333087600160009054906101000a900473ffffffffffffffffffffffffffffffffffffffff1673ffffffffffffffffffffffffffffffffffffffff16620039c5909392919063ffffffff16565b6000600260009054906101000a900473ffffffffffffffffffffffffffffffffffffffff1673ffffffffffffffffffffffffffffffffffffffff166322385ed48686336040518463ffffffff1660e01b815260040162002ce293929190620053a2565b602060405180830381600087803b15801562002cfd57600080fd5b505af115801562002d12573d6000803e3d6000fd5b505050506040513d601f19601f8201168201806040525081019062002d3891906200469e565b9050848662002d48919062005562565b600160009054906101000a900473ffffffffffffffffffffffffffffffffffffffff1673ffffffffffffffffffffffffffffffffffffffff166370a08231306040518263ffffffff1660e01b815260040162002da5919062004e04565b60206040518083038186803b15801562002dbe57600080fd5b505afa15801562002dd3573d6000803e3d6000fd5b505050506040513d601f19601f8201168201806040525081019062002df991906200469e565b101562002e3d576040517f08c379a000000000000000000000000000000000000000000000000000000000815260040162002e349062005021565b60405180910390fd5b6000600360009054906101000a900473ffffffffffffffffffffffffffffffffffffffff1673ffffffffffffffffffffffffffffffffffffffff1663e7aa2df633848860008e8e6040518763ffffffff1660e01b815260040162002ea79695949392919062004ec8565b602060405180830381600087803b15801562002ec257600080fd5b505af115801562002ed7573d6000803e3d6000fd5b505050506040513d601f19601f8201168201806040525081019062002efd91906200469e565b905080853373ffffffffffffffffffffffffffffffffffffffff167f7dfa16efd9a66ba3b3a119331471304271653cfa0c3a56b1e4daeda0b2f6b00e858c8e8d8d8b604001518c60600151600360009054906101000a900473ffffffffffffffffffffffffffffffffffffffff1673ffffffffffffffffffffffffffffffffffffffff16637453275b6040518163ffffffff1660e01b815260040160206040518083038186803b15801562002fb157600080fd5b505afa15801562002fc6573d6000803e3d6000fd5b505050506040513d601f19601f8201168201806040525081019062002fec919062004646565b60405162003002989796959493929190620053df565b60405180910390a4505050505050505050565b6000600260009054906101000a900473ffffffffffffffffffffffffffffffffffffffff1673ffffffffffffffffffffffffffffffffffffffff1663d060f501836040518263ffffffff1660e01b815260040162003074919062005291565b60206040518083038186803b1580156200308d57600080fd5b505afa158015620030a2573d6000803e3d6000fd5b505050506040513d601f19601f82011682018060405250810190620030c891906200469e565b9050919050565b620030d962003a52565b600073ffffffffffffffffffffffffffffffffffffffff168173ffffffffffffffffffffffffffffffffffffffff1614156200314c576040517f08c379a0000000000000000000000000000000000000000000000000000000008152600401620031439062005065565b60405180910390fd5b620031578162003ad7565b50565b6200316462003a52565b600360149054906101000a900460ff1615600360146101000a81548160ff021916908315150217905550565b600080600360009054906101000a900473ffffffffffffffffffffffffffffffffffffffff1673ffffffffffffffffffffffffffffffffffffffff1663dfd7f4ae33866040518363ffffffff1660e01b8152600401620031f292919062004e5e565b60e06040518083038186803b1580156200320b57600080fd5b505afa15801562003220573d6000803e3d6000fd5b505050506040513d601f19601f820116820180604052508101906200324691906200461a565b90506000600260009054906101000a900473ffffffffffffffffffffffffffffffffffffffff1673ffffffffffffffffffffffffffffffffffffffff1663d22368676040518163ffffffff1660e01b815260040160206040518083038186803b158015620032b357600080fd5b505afa158015620032c8573d6000803e3d6000fd5b505050506040513d601f19601f82011682018060405250810190620032ee919062004431565b73ffffffffffffffffffffffffffffffffffffffff16636bac6372836020015184600001516040518363ffffffff1660e01b81526004016200333292919062005375565b60c06040518083038186803b1580156200334b57600080fd5b505afa15801562003360573d6000803e3d6000fd5b505050506040513d601f19601f82011682018060405250810190620033869190620045c1565b90506000600260009054906101000a900473ffffffffffffffffffffffffffffffffffffffff1673ffffffffffffffffffffffffffffffffffffffff1663d22368676040518163ffffffff1660e01b815260040160206040518083038186803b158015620033f357600080fd5b505afa15801562003408573d6000803e3d6000fd5b505050506040513d601f19601f820116820180604052508101906200342e919062004431565b73ffffffffffffffffffffffffffffffffffffffff16635055149c83600001516040518263ffffffff1660e01b81526004016200346c919062005291565b6101006040518083038186803b1580156200348657600080fd5b505afa1580156200349b573d6000803e3d6000fd5b505050506040513d601f19601f82011682018060405250810190620034c19190620045ed565b90506000600360009054906101000a900473ffffffffffffffffffffffffffffffffffffffff1673ffffffffffffffffffffffffffffffffffffffff1663500db2a6876040518263ffffffff1660e01b815260040162003522919062005291565b60a06040518083038186803b1580156200353b57600080fd5b505afa15801562003550573d6000803e3d6000fd5b505050506040513d601f19601f8201168201806040525081019062003576919062004595565b90506000836040015190506000600260009054906101000a900473ffffffffffffffffffffffffffffffffffffffff1673ffffffffffffffffffffffffffffffffffffffff1663341d8cd986866040518363ffffffff1660e01b8152600401620035e292919062005263565b60206040518083038186803b158015620035fb57600080fd5b505afa15801562003610573d6000803e3d6000fd5b505050506040513d601f19601f820116820180604052508101906200363691906200469e565b90506000600260009054906101000a900473ffffffffffffffffffffffffffffffffffffffff1673ffffffffffffffffffffffffffffffffffffffff1663d22368676040518163ffffffff1660e01b815260040160206040518083038186803b158015620036a357600080fd5b505afa158015620036b8573d6000803e3d6000fd5b505050506040513d601f19601f82011682018060405250810190620036de919062004431565b73ffffffffffffffffffffffffffffffffffffffff1663672e4d6e88600001516040518263ffffffff1660e01b81526004016200371c919062005291565b60206040518083038186803b1580156200373557600080fd5b505afa1580156200374a573d6000803e3d6000fd5b505050506040513d601f19601f820116820180604052508101906200377091906200469e565b9050600081836200378291906200562f565b90506000600260009054906101000a900473ffffffffffffffffffffffffffffffffffffffff1673ffffffffffffffffffffffffffffffffffffffff1663817f203c8a600001518b602001516040518363ffffffff1660e01b8152600401620037ed92919062005375565b60206040518083038186803b1580156200380657600080fd5b505afa1580156200381b573d6000803e3d6000fd5b505050506040513d601f19601f8201168201806040525081019062003841919062004569565b1562003912576064600260009054906101000a900473ffffffffffffffffffffffffffffffffffffffff1673ffffffffffffffffffffffffffffffffffffffff16632658bad56040518163ffffffff1660e01b815260040160206040518083038186803b158015620038b257600080fd5b505afa158015620038c7573d6000803e3d6000fd5b505050506040513d601f19601f82011682018060405250810190620038ed91906200469e565b8960400151620038fe91906200562f565b6200390a9190620055f7565b905062003917565b600090505b600288604001516200392a91906200562f565b8660200151101562003998576000866020015160028a604001516200395091906200562f565b6200395c919062005690565b905080826200396c919062005562565b83876200397a919062005562565b62003986919062005690565b9a5050505050505050505050620039bf565b808286620039a7919062005562565b620039b3919062005690565b99505050505050505050505b92915050565b62003a4c846323b872dd60e01b858585604051602401620039e99392919062004e21565b604051602081830303815290604052907bffffffffffffffffffffffffffffffffffffffffffffffffffffffff19166020820180517bffffffffffffffffffffffffffffffffffffffffffffffffffffffff838183161783525050505062003d1a565b50505050565b62003a5c62003de9565b73ffffffffffffffffffffffffffffffffffffffff1662003a7c62002074565b73ffffffffffffffffffffffffffffffffffffffff161462003ad5576040517f08c379a000000000000000000000000000000000000000000000000000000000815260040162003acc9062005153565b60405180910390fd5b565b60008060009054906101000a900473ffffffffffffffffffffffffffffffffffffffff169050816000806101000a81548173ffffffffffffffffffffffffffffffffffffffff021916908373ffffffffffffffffffffffffffffffffffffffff1602179055508173ffffffffffffffffffffffffffffffffffffffff168173ffffffffffffffffffffffffffffffffffffffff167f8be0079c531659141344cd1fd0a4f28419497f9722a3daafe3b4186f6b6457e060405160405180910390a35050565b62003c208363a9059cbb60e01b848460405160240162003bbd92919062004e5e565b604051602081830303815290604052907bffffffffffffffffffffffffffffffffffffffffffffffffffffffff19166020820180517bffffffffffffffffffffffffffffffffffffffffffffffffffffffff838183161783525050505062003d1a565b505050565b600080600360009054906101000a900473ffffffffffffffffffffffffffffffffffffffff1673ffffffffffffffffffffffffffffffffffffffff16637453275b6040518163ffffffff1660e01b815260040160206040518083038186803b15801562003c9157600080fd5b505afa15801562003ca6573d6000803e3d6000fd5b505050506040513d601f19601f8201168201806040525081019062003ccc919062004646565b606462003cda9190620055bf565b9050828462003cea919062005562565b8161ffff168562003cfc91906200562f565b141562003d0e57600191505062003d14565b60009150505b92915050565b600062003d7e826040518060400160405280602081526020017f5361666545524332303a206c6f772d6c6576656c2063616c6c206661696c65648152508573ffffffffffffffffffffffffffffffffffffffff1662003df19092919063ffffffff16565b905060008151111562003de4578080602001905181019062003da1919062004569565b62003de3576040517f08c379a000000000000000000000000000000000000000000000000000000000815260040162003dda90620051fd565b60405180910390fd5b5b505050565b600033905090565b606062003e02848460008562003e0b565b90509392505050565b60608247101562003e53576040517f08c379a000000000000000000000000000000000000000000000000000000000815260040162003e4a90620050cb565b60405180910390fd5b62003e5e8562003f2d565b62003ea0576040517f08c379a000000000000000000000000000000000000000000000000000000000815260040162003e9790620051db565b60405180910390fd5b6000808673ffffffffffffffffffffffffffffffffffffffff16858760405162003ecb919062004deb565b60006040518083038185875af1925050503d806000811462003f0a576040519150601f19603f3d011682016040523d82523d6000602084013e62003f0f565b606091505b509150915062003f2182828662003f50565b92505050949350505050565b6000808273ffffffffffffffffffffffffffffffffffffffff163b119050919050565b6060831562003f625782905062003fb5565b60008351111562003f765782518084602001fd5b816040517f08c379a000000000000000000000000000000000000000000000000000000000815260040162003fac919062004ffd565b60405180910390fd5b9392505050565b610cfa8062005e8383390190565b60008135905062003fdb8162005dc5565b92915050565b60008151905062003ff28162005dc5565b92915050565b600081519050620040098162005ddf565b92915050565b60008083601f8401126200402257600080fd5b8235905067ffffffffffffffff8111156200403c57600080fd5b6020830191508360018202830111156200405557600080fd5b9250929050565b6000815190506200406d8162005df9565b92915050565b600081359050620040848162005e0a565b92915050565b6000815190506200409b8162005e1b565b92915050565b600081519050620040b28162005e2c565b92915050565b600081519050620040c98162005e3d565b92915050565b600060a08284031215620040e257600080fd5b620040ee60a062005507565b905060006200410084828501620043ee565b60008301525060206200411684828501620043ee565b60208301525060406200412c84828501620043ee565b604083015250606062004142848285016200405c565b6060830152506080620041588482850162003ff8565b60808301525092915050565b600060c082840312156200417757600080fd5b6200418360c062005507565b905060006200419584828501620043ee565b6000830152506020620041ab8482850162003fe1565b6020830152506040620041c184828501620043ee565b6040830152506060620041d784828501620043ee565b6060830152506080620041ed848285016200408a565b60808301525060a0620042038482850162003ff8565b60a08301525092915050565b600061010082840312156200422357600080fd5b6200423061010062005507565b905060006200424284828501620043ee565b60008301525060206200425884828501620043c0565b60208301525060406200426e84828501620043c0565b60408301525060606200428484828501620043ee565b60608301525060806200429a84828501620043c0565b60808301525060a0620042b08482850162003fe1565b60a08301525060c0620042c684828501620040a1565b60c08301525060e0620042dc8482850162003ff8565b60e08301525092915050565b600060e08284031215620042fb57600080fd5b6200430760e062005507565b905060006200431984828501620043ee565b60008301525060206200432f84828501620043ee565b6020830152506040620043458482850162003fe1565b60408301525060606200435b8482850162003fe1565b60608301525060806200437184828501620043ee565b60808301525060a06200438784828501620040b8565b60a08301525060c06200439d8482850162003ff8565b60c08301525092915050565b600081359050620043ba8162005e4e565b92915050565b600081519050620043d18162005e4e565b92915050565b600081359050620043e88162005e68565b92915050565b600081519050620043ff8162005e68565b92915050565b6000602082840312156200441857600080fd5b6000620044288482850162003fca565b91505092915050565b6000602082840312156200444457600080fd5b6000620044548482850162003fe1565b91505092915050565b6000806000806000608086880312156200447657600080fd5b6000620044868882890162003fca565b9550506020620044998882890162003fca565b9450506040620044ac88828901620043d7565b935050606086013567ffffffffffffffff811115620044ca57600080fd5b620044d8888289016200400f565b92509250509295509295909350565b600080600080600060a086880312156200450057600080fd5b6000620045108882890162003fca565b95505060206200452388828901620043d7565b94505060406200453688828901620043d7565b93505060606200454988828901620043d7565b92505060806200455c88828901620043d7565b9150509295509295909350565b6000602082840312156200457c57600080fd5b60006200458c8482850162003ff8565b91505092915050565b600060a08284031215620045a857600080fd5b6000620045b884828501620040cf565b91505092915050565b600060c08284031215620045d457600080fd5b6000620045e48482850162004164565b91505092915050565b600061010082840312156200460157600080fd5b600062004611848285016200420f565b91505092915050565b600060e082840312156200462d57600080fd5b60006200463d84828501620042e8565b91505092915050565b6000602082840312156200465957600080fd5b60006200466984828501620043c0565b91505092915050565b6000602082840312156200468557600080fd5b60006200469584828501620043d7565b91505092915050565b600060208284031215620046b157600080fd5b6000620046c184828501620043ee565b91505092915050565b60008060408385031215620046de57600080fd5b6000620046ee85828601620043d7565b9250506020620047018582860162003fca565b9150509250929050565b6000806000606084860312156200472157600080fd5b60006200473186828701620043d7565b9350506020620047448682870162004073565b92505060406200475786828701620043d7565b9150509250925092565b60008060008060008060c087890312156200477b57600080fd5b60006200478b89828a01620043d7565b96505060206200479e89828a01620043a9565b9550506040620047b189828a01620043a9565b9450506060620047c489828a01620043d7565b9350506080620047d789828a01620043a9565b92505060a0620047ea89828a0162003fca565b9150509295509295509295565b600080604083850312156200480b57600080fd5b60006200481b85828601620043d7565b92505060206200482e85828601620043d7565b9150509250929050565b600080600080608085870312156200484f57600080fd5b60006200485f87828801620043d7565b94505060206200487287828801620043d7565b93505060406200488587828801620043d7565b9250506060620048988782880162003fca565b91505092959194509250565b620048af81620056cb565b82525050565b620048c081620056cb565b82525050565b620048d181620056df565b82525050565b620048e281620056df565b82525050565b620048f381620056eb565b82525050565b6000620049068262005530565b62004912818562005546565b93506200492481856020860162005830565b80840191505092915050565b6200493b81620057b8565b82525050565b6200494c81620057cc565b82525050565b6200495d81620057e0565b82525050565b6200496e81620057f4565b82525050565b6200497f8162005808565b82525050565b600062004992826200553b565b6200499e818562005551565b9350620049b081856020860162005830565b620049bb8162005958565b840191505092915050565b6000620049d560278362005551565b9150620049e28262005969565b604082019050919050565b6000620049fc602c8362005551565b915062004a0982620059b8565b604082019050919050565b600062004a2360268362005551565b915062004a308262005a07565b604082019050919050565b600062004a4a601d8362005551565b915062004a578262005a56565b602082019050919050565b600062004a7160368362005551565b915062004a7e8262005a7f565b604082019050919050565b600062004a9860268362005551565b915062004aa58262005ace565b604082019050919050565b600062004abf60218362005551565b915062004acc8262005b1d565b604082019050919050565b600062004ae660268362005551565b915062004af38262005b6c565b604082019050919050565b600062004b0d601c8362005551565b915062004b1a8262005bbb565b602082019050919050565b600062004b3460208362005551565b915062004b418262005be4565b602082019050919050565b600062004b5b60198362005551565b915062004b688262005c0d565b602082019050919050565b600062004b82601d8362005551565b915062004b8f8262005c36565b602082019050919050565b600062004ba960178362005551565b915062004bb68262005c5f565b602082019050919050565b600062004bd0601d8362005551565b915062004bdd8262005c88565b602082019050919050565b600062004bf7602a8362005551565b915062004c048262005cb1565b604082019050919050565b600062004c1e601d8362005551565b915062004c2b8262005d00565b602082019050919050565b600062004c45601e8362005551565b915062004c528262005d29565b602082019050919050565b60c08201600082015162004c75600085018262004dc9565b50602082015162004c8a6020850182620048a4565b50604082015162004c9f604085018262004dc9565b50606082015162004cb4606085018262004dc9565b50608082015162004cc9608085018262004952565b5060a082015162004cde60a0850182620048c6565b50505050565b6101008201600082015162004cfd600085018262004dc9565b50602082015162004d12602085018262004d96565b50604082015162004d27604085018262004d96565b50606082015162004d3c606085018262004dc9565b50608082015162004d51608085018262004d96565b5060a082015162004d6660a0850182620048a4565b5060c082015162004d7b60c085018262004963565b5060e082015162004d9060e0850182620048c6565b50505050565b62004da18162005780565b82525050565b62004db28162005780565b82525050565b62004dc3816200581c565b82525050565b62004dd481620057ae565b82525050565b62004de581620057ae565b82525050565b600062004df98284620048f9565b915081905092915050565b600060208201905062004e1b6000830184620048b5565b92915050565b600060608201905062004e386000830186620048b5565b62004e476020830185620048b5565b62004e56604083018462004dda565b949350505050565b600060408201905062004e756000830185620048b5565b62004e84602083018462004dda565b9392505050565b600060608201905062004ea26000830186620048b5565b62004eb1602083018562004dda565b62004ec06040830184620048b5565b949350505050565b600060c08201905062004edf6000830189620048b5565b62004eee602083018862004dda565b62004efd604083018762004dda565b62004f0c6060830186620048b5565b62004f1b6080830185620048b5565b62004f2a60a083018462004dda565b979650505050505050565b60006101008201905062004f4d600083018b620048b5565b62004f5c602083018a62004dda565b62004f6b604083018962004dda565b62004f7a606083018862004dda565b62004f896080830187620048b5565b62004f9860a0830186620048b5565b62004fa760c083018562004dda565b62004fb660e083018462004974565b9998505050505050505050565b600060208201905062004fda6000830184620048d7565b92915050565b600060208201905062004ff76000830184620048e8565b92915050565b6000602082019050818103600083015262005019818462004985565b905092915050565b600060208201905081810360008301526200503c81620049c6565b9050919050565b600060208201905081810360008301526200505e81620049ed565b9050919050565b60006020820190508181036000830152620050808162004a14565b9050919050565b60006020820190508181036000830152620050a28162004a3b565b9050919050565b60006020820190508181036000830152620050c48162004a62565b9050919050565b60006020820190508181036000830152620050e68162004a89565b9050919050565b60006020820190508181036000830152620051088162004ab0565b9050919050565b600060208201905081810360008301526200512a8162004ad7565b9050919050565b600060208201905081810360008301526200514c8162004afe565b9050919050565b600060208201905081810360008301526200516e8162004b25565b9050919050565b60006020820190508181036000830152620051908162004b4c565b9050919050565b60006020820190508181036000830152620051b28162004b73565b9050919050565b60006020820190508181036000830152620051d48162004b9a565b9050919050565b60006020820190508181036000830152620051f68162004bc1565b9050919050565b60006020820190508181036000830152620052188162004be8565b9050919050565b600060208201905081810360008301526200523a8162004c0f565b9050919050565b600060208201905081810360008301526200525c8162004c36565b9050919050565b60006101c0820190506200527b600083018562004c5d565b6200528a60c083018462004ce4565b9392505050565b6000602082019050620052a8600083018462004dda565b92915050565b6000604082019050620052c5600083018562004dda565b620052d46020830184620048b5565b9392505050565b6000604082019050620052f2600083018562004dda565b62005301602083018462004941565b9392505050565b600060c0820190506200531f600083018962004dda565b6200532e602083018862004da7565b6200533d604083018762004da7565b6200534c606083018662004dda565b6200535b608083018562004da7565b6200536a60a0830184620048b5565b979650505050505050565b60006040820190506200538c600083018562004dda565b6200539b602083018462004dda565b9392505050565b6000606082019050620053b9600083018662004dda565b620053c8602083018562004dda565b620053d76040830184620048b5565b949350505050565b600061010082019050620053f7600083018b62004dda565b62005406602083018a62004dda565b620054156040830189620048b5565b62005424606083018862004dda565b62005433608083018762004dda565b6200544260a083018662004db8565b6200545160c083018562004dda565b6200546060e083018462004da7565b9998505050505050505050565b600060608201905062005484600083018662004dda565b62005493602083018562004dda565b620054a2604083018462004dda565b949350505050565b600060a082019050620054c1600083018862004dda565b620054d0602083018762004dda565b620054df604083018662004dda565b620054ee606083018562004930565b620054fd608083018462004dda565b9695505050505050565b60006200551362005526565b905062005521828262005866565b919050565b6000604051905090565b600081519050919050565b600081519050919050565b600081905092915050565b600082825260208201905092915050565b60006200556f82620057ae565b91506200557c83620057ae565b9250827fffffffffffffffffffffffffffffffffffffffffffffffffffffffffffffffff03821115620055b457620055b36200589c565b5b828201905092915050565b6000620055cc8262005780565b9150620055d98362005780565b925082620055ec57620055eb620058cb565b5b828204905092915050565b60006200560482620057ae565b91506200561183620057ae565b925082620056245762005623620058cb565b5b828204905092915050565b60006200563c82620057ae565b91506200564983620057ae565b9250817fffffffffffffffffffffffffffffffffffffffffffffffffffffffffffffffff04831182151516156200568557620056846200589c565b5b828202905092915050565b60006200569d82620057ae565b9150620056aa83620057ae565b925082821015620056c057620056bf6200589c565b5b828203905092915050565b6000620056d8826200578e565b9050919050565b60008115159050919050565b60007fffffffff0000000000000000000000000000000000000000000000000000000082169050919050565b6000819050620057278262005d52565b919050565b60008190506200573c8262005d69565b919050565b6000819050620057518262005d80565b919050565b6000819050620057668262005d97565b919050565b60008190506200577b8262005dae565b919050565b600061ffff82169050919050565b600073ffffffffffffffffffffffffffffffffffffffff82169050919050565b6000819050919050565b6000620057c58262005717565b9050919050565b6000620057d9826200572c565b9050919050565b6000620057ed8262005741565b9050919050565b6000620058018262005756565b9050919050565b600062005815826200576b565b9050919050565b6000620058298262005780565b9050919050565b60005b838110156200585057808201518184015260208101905062005833565b8381111562005860576000848401525b50505050565b620058718262005958565b810181811067ffffffffffffffff8211171562005893576200589262005929565b5b80604052505050565b7f4e487b7100000000000000000000000000000000000000000000000000000000600052601160045260246000fd5b7f4e487b7100000000000000000000000000000000000000000000000000000000600052601260045260246000fd5b7f4e487b7100000000000000000000000000000000000000000000000000000000600052602160045260246000fd5b7f4e487b7100000000000000000000000000000000000000000000000000000000600052604160045260246000fd5b6000601f19601f8301169050919050565b7f517265646f732e70757263686173654e46543a20496e73756666696369656e7460008201527f2066756e64732100000000000000000000000000000000000000000000000000602082015250565b7f517265646f732e70757263686173654e46543a2061646472657373206973207a60008201527f65726f2061646472657373210000000000000000000000000000000000000000602082015250565b7f4f776e61626c653a206e6577206f776e657220697320746865207a65726f206160008201527f6464726573730000000000000000000000000000000000000000000000000000602082015250565b7f517265646f733a20496e76616c696420657363726f77206f776e657221000000600082015250565b7f517265646f732e70757263686173654e46543a2053656c656374656420706f6f60008201527f6c2063616e27742066756e642070757263686173652100000000000000000000602082015250565b7f416464726573733a20696e73756666696369656e742062616c616e636520666f60008201527f722063616c6c0000000000000000000000000000000000000000000000000000602082015250565b7f517265646f733a206c6f616e52657061796d656e7420696e636f6d706c65746560008201527f2100000000000000000000000000000000000000000000000000000000000000602082015250565b7f517265646f732e70757263686173654e46543a20496e76616c6964207072696e60008201527f636970616c210000000000000000000000000000000000000000000000000000602082015250565b7f517265646f733a20507572636861736520496e636f6d706c6574652100000000600082015250565b7f4f776e61626c653a2063616c6c6572206973206e6f7420746865206f776e6572600082015250565b7f517265646f733a2063757272656e746c79207061757365642100000000000000600082015250565b7f517265646f733a2063616e7420726566756e6420626f72726f77657221000000600082015250565b7f517265646f733a20636c61696d20726576657274656421000000000000000000600082015250565b7f416464726573733a2063616c6c20746f206e6f6e2d636f6e7472616374000000600082015250565b7f5361666545524332303a204552433230206f7065726174696f6e20646964206e60008201527f6f74207375636365656400000000000000000000000000000000000000000000602082015250565b7f517265646f733a206c69717569646174696f6e20726576657274656421000000600082015250565b7f63616c6c65722073686f756c6420626520706f6f6c2063726561746f72210000600082015250565b6002811062005d665762005d65620058fa565b5b50565b6002811062005d7d5762005d7c620058fa565b5b50565b6002811062005d945762005d93620058fa565b5b50565b6002811062005dab5762005daa620058fa565b5b50565b6005811062005dc25762005dc1620058fa565b5b50565b62005dd081620056cb565b811462005ddc57600080fd5b50565b62005dea81620056df565b811462005df657600080fd5b50565b6002811062005e0757600080fd5b50565b6002811062005e1857600080fd5b50565b6002811062005e2957600080fd5b50565b6002811062005e3a57600080fd5b50565b6005811062005e4b57600080fd5b50565b62005e598162005780565b811462005e6557600080fd5b50565b62005e7381620057ae565b811462005e7f57600080fd5b5056fe60e06040523480156200001157600080fd5b5060405162000cfa38038062000cfa833981810160405281019062000037919062000124565b336000806101000a81548173ffffffffffffffffffffffffffffffffffffffff021916908373ffffffffffffffffffffffffffffffffffffffff1602179055508273ffffffffffffffffffffffffffffffffffffffff1660808173ffffffffffffffffffffffffffffffffffffffff1660601b815250508160a081815250508073ffffffffffffffffffffffffffffffffffffffff1660c08173ffffffffffffffffffffffffffffffffffffffff1660601b81525050505050620001ec565b6000815190506200010781620001b8565b92915050565b6000815190506200011e81620001d2565b92915050565b6000806000606084860312156200013a57600080fd5b60006200014a86828701620000f6565b93505060206200015d868287016200010d565b92505060406200017086828701620000f6565b9150509250925092565b600062000187826200018e565b9050919050565b600073ffffffffffffffffffffffffffffffffffffffff82169050919050565b6000819050919050565b620001c3816200017a565b8114620001cf57600080fd5b50565b620001dd81620001ae565b8114620001e957600080fd5b50565b60805160601c60a05160c05160601c610aca62000230600039600081816102ef015261061d0152600081816101ca015261032d015260006105d50152610aca6000f3fe608060405234801561001057600080fd5b50600436106100885760003560e01c80636e553f651161005b5780636e553f65146101295780637ba61ea5146101595780638da5cb5b146101775780639d76ea581461019557610088565b8063150b7a021461008d57806317d70f7c146100bd5780631e83409a146100db578063200d2ed21461010b575b600080fd5b6100a760048036038101906100a291906106dc565b6101b3565b6040516100b49190610896565b60405180910390f35b6100c56101c8565b6040516100d2919061090c565b60405180910390f35b6100f560048036038101906100f091906106b3565b6101ec565b604051610102919061087b565b60405180910390f35b6101136103f6565b60405161012091906108b1565b60405180910390f35b610143600480360381019061013e919061075c565b610409565b604051610150919061087b565b60405180910390f35b6101616105d3565b60405161016e9190610829565b60405180910390f35b61017f6105f7565b60405161018c9190610829565b60405180910390f35b61019d61061b565b6040516101aa9190610829565b60405180910390f35b600063150b7a0260e01b905095945050505050565b7f000000000000000000000000000000000000000000000000000000000000000081565b60008060009054906101000a900473ffffffffffffffffffffffffffffffffffffffff1673ffffffffffffffffffffffffffffffffffffffff163373ffffffffffffffffffffffffffffffffffffffff161461027d576040517f08c379a0000000000000000000000000000000000000000000000000000000008152600401610274906108cc565b60405180910390fd5b600073ffffffffffffffffffffffffffffffffffffffff168273ffffffffffffffffffffffffffffffffffffffff1614156102ed576040517f08c379a00000000000000000000000000000000000000000000000000000000081526004016102e4906108ec565b60405180910390fd5b7f000000000000000000000000000000000000000000000000000000000000000073ffffffffffffffffffffffffffffffffffffffff166342842e0e30847f00000000000000000000000000000000000000000000000000000000000000006040518463ffffffff1660e01b815260040161036a93929190610844565b600060405180830381600087803b15801561038457600080fd5b505af1158015610398573d6000803e3d6000fd5b505050506001600060146101000a81548160ff021916908360018111156103e8577f4e487b7100000000000000000000000000000000000000000000000000000000600052602160045260246000fd5b021790555060019050919050565b600060149054906101000a900460ff1681565b60008060009054906101000a900473ffffffffffffffffffffffffffffffffffffffff1673ffffffffffffffffffffffffffffffffffffffff163373ffffffffffffffffffffffffffffffffffffffff161461049a576040517f08c379a0000000000000000000000000000000000000000000000000000000008152600401610491906108cc565b60405180910390fd5b600073ffffffffffffffffffffffffffffffffffffffff168273ffffffffffffffffffffffffffffffffffffffff16141561050a576040517f08c379a0000000000000000000000000000000000000000000000000000000008152600401610501906108ec565b60405180910390fd5b8173ffffffffffffffffffffffffffffffffffffffff166342842e0e3330866040518463ffffffff1660e01b815260040161054793929190610844565b600060405180830381600087803b15801561056157600080fd5b505af1158015610575573d6000803e3d6000fd5b5050505060008060146101000a81548160ff021916908360018111156105c4577f4e487b7100000000000000000000000000000000000000000000000000000000600052602160045260246000fd5b02179055506001905092915050565b7f000000000000000000000000000000000000000000000000000000000000000081565b60008054906101000a900473ffffffffffffffffffffffffffffffffffffffff1681565b7f000000000000000000000000000000000000000000000000000000000000000081565b60008135905061064e81610a66565b92915050565b60008083601f84011261066657600080fd5b8235905067ffffffffffffffff81111561067f57600080fd5b60208301915083600182028301111561069757600080fd5b9250929050565b6000813590506106ad81610a7d565b92915050565b6000602082840312156106c557600080fd5b60006106d38482850161063f565b91505092915050565b6000806000806000608086880312156106f457600080fd5b60006107028882890161063f565b95505060206107138882890161063f565b94505060406107248882890161069e565b935050606086013567ffffffffffffffff81111561074157600080fd5b61074d88828901610654565b92509250509295509295909350565b6000806040838503121561076f57600080fd5b600061077d8582860161069e565b925050602061078e8582860161063f565b9150509250929050565b6107a181610938565b82525050565b6107b08161094a565b82525050565b6107bf81610956565b82525050565b6107ce816109bf565b82525050565b60006107e1601c83610927565b91506107ec82610a00565b602082019050919050565b6000610804602083610927565b915061080f82610a29565b602082019050919050565b610823816109b5565b82525050565b600060208201905061083e6000830184610798565b92915050565b60006060820190506108596000830186610798565b6108666020830185610798565b610873604083018461081a565b949350505050565b600060208201905061089060008301846107a7565b92915050565b60006020820190506108ab60008301846107b6565b92915050565b60006020820190506108c660008301846107c5565b92915050565b600060208201905081810360008301526108e5816107d4565b9050919050565b60006020820190508181036000830152610905816107f7565b9050919050565b6000602082019050610921600083018461081a565b92915050565b600082825260208201905092915050565b600061094382610995565b9050919050565b60008115159050919050565b60007fffffffff0000000000000000000000000000000000000000000000000000000082169050919050565b600081905061099082610a52565b919050565b600073ffffffffffffffffffffffffffffffffffffffff82169050919050565b6000819050919050565b60006109ca82610982565b9050919050565b7f4e487b7100000000000000000000000000000000000000000000000000000000600052602160045260246000fd5b7f4f776e61626c653a2063616c6c6572206973206e6f74206f776e657200000000600082015250565b7f457363726f773a2061646472657373206973207a65726f206164647265737321600082015250565b60028110610a6357610a626109d1565b5b50565b610a6f81610938565b8114610a7a57600080fd5b50565b610a86816109b5565b8114610a9157600080fd5b5056fea264697066735822122000ca111bc8d3a7cc6b89be7f6ffc9cb4844ec6d2f91760019cc5f2b67fdb181564736f6c63430008010033a2646970667358221220e5d1a17c68aa977ccffb95cbe6b8a5b16b3b30cbbb3837f9c86ef303bd3418c664736f6c63430008010033",
  "linkReferences": {},
  "deployedLinkReferences": {}
}