{
  "_format": "hh-sol-artifact-1",
  "contractName": "Qredos",
  "sourceName": "contracts/Qredos.sol",
  "abi": [
    {
      "inputs": [
        {
          "internalType": "address payable",
          "name": "_lendingPoolAddress",
          "type": "address"
        },
        {
          "internalType": "address",
          "name": "_QredosStoreAddress",
          "type": "address"
        }
      ],
      "stateMutability": "nonpayable",
      "type": "constructor"
    },
    {
      "anonymous": false,
      "inputs": [
        {
          "indexed": true,
          "internalType": "uint256",
          "name": "purchaseId",
          "type": "uint256"
        },
        {
          "indexed": true,
          "internalType": "uint256",
          "name": "liquidationId",
          "type": "uint256"
        },
        {
          "indexed": false,
          "internalType": "address",
          "name": "newOwner",
          "type": "address"
        }
      ],
      "name": "CompleteLiquidation",
      "type": "event"
    },
    {
      "anonymous": false,
      "inputs": [
        {
          "indexed": false,
          "internalType": "address",
          "name": "oldValue",
          "type": "address"
        },
        {
          "indexed": false,
          "internalType": "address",
          "name": "newValue",
          "type": "address"
        }
      ],
      "name": "LendingPoolAddressUpdated",
      "type": "event"
    },
    {
      "anonymous": false,
      "inputs": [
        {
          "indexed": true,
          "internalType": "uint256",
          "name": "loanId",
          "type": "uint256"
        },
        {
          "indexed": true,
          "internalType": "uint256",
          "name": "poolId",
          "type": "uint256"
        },
        {
          "indexed": true,
          "internalType": "address",
          "name": "borrower",
          "type": "address"
        },
        {
          "indexed": false,
          "internalType": "uint256",
          "name": "principal",
          "type": "uint256"
        }
      ],
      "name": "LoanCreated",
      "type": "event"
    },
    {
      "anonymous": false,
      "inputs": [
        {
          "indexed": true,
          "internalType": "uint256",
          "name": "loanRepaymentId",
          "type": "uint256"
        },
        {
          "indexed": true,
          "internalType": "uint256",
          "name": "loanId",
          "type": "uint256"
        },
        {
          "indexed": false,
          "internalType": "uint256",
          "name": "amount",
          "type": "uint256"
        },
        {
          "indexed": false,
          "internalType": "enum Schema.LoanRepaymentType",
          "name": "",
          "type": "uint8"
        }
      ],
      "name": "LoanRepaid",
      "type": "event"
    },
    {
      "anonymous": false,
      "inputs": [
        {
          "indexed": true,
          "internalType": "uint256",
          "name": "purchaseId",
          "type": "uint256"
        },
        {
          "indexed": false,
          "internalType": "address",
          "name": "claimer",
          "type": "address"
        }
      ],
      "name": "NFTClaimed",
      "type": "event"
    },
    {
      "anonymous": false,
      "inputs": [
        {
          "indexed": true,
          "internalType": "address",
          "name": "previousOwner",
          "type": "address"
        },
        {
          "indexed": true,
          "internalType": "address",
          "name": "newOwner",
          "type": "address"
        }
      ],
      "name": "OwnershipTransferred",
      "type": "event"
    },
    {
      "anonymous": false,
      "inputs": [
        {
          "indexed": true,
          "internalType": "uint256",
          "name": "poolId",
          "type": "uint256"
        },
        {
          "indexed": false,
          "internalType": "uint256",
          "name": "amountWithdrawn",
          "type": "uint256"
        }
      ],
      "name": "PoolClosed",
      "type": "event"
    },
    {
      "anonymous": false,
      "inputs": [
        {
          "indexed": true,
          "internalType": "uint256",
          "name": "poolId",
          "type": "uint256"
        },
        {
          "indexed": true,
          "internalType": "address",
          "name": "creator",
          "type": "address"
        }
      ],
      "name": "PoolCreated",
      "type": "event"
    },
    {
      "anonymous": false,
      "inputs": [
        {
          "indexed": true,
          "internalType": "uint256",
          "name": "poolId",
          "type": "uint256"
        },
        {
          "indexed": false,
          "internalType": "uint256",
          "name": "amount",
          "type": "uint256"
        }
      ],
      "name": "PoolFunded",
      "type": "event"
    },
    {
      "anonymous": false,
      "inputs": [],
      "name": "PoolRegistryContractDeployed",
      "type": "event"
    },
    {
      "anonymous": false,
      "inputs": [
        {
          "indexed": true,
          "internalType": "uint256",
          "name": "purchaseId",
          "type": "uint256"
        }
      ],
      "name": "PurchaseCompleted",
      "type": "event"
    },
    {
      "anonymous": false,
      "inputs": [
        {
          "indexed": true,
          "internalType": "address",
          "name": "userAddress",
          "type": "address"
        },
        {
          "indexed": true,
          "internalType": "uint256",
          "name": "purchaseId",
          "type": "uint256"
        },
        {
          "indexed": false,
          "internalType": "uint256",
          "name": "downPayment",
          "type": "uint256"
        },
        {
          "indexed": false,
          "internalType": "uint16",
          "name": "downPaymentPercentage",
          "type": "uint16"
        }
      ],
      "name": "PurchaseCreated",
      "type": "event"
    },
    {
      "anonymous": false,
      "inputs": [
        {
          "indexed": false,
          "internalType": "address",
          "name": "lendingPoolAddress",
          "type": "address"
        }
      ],
      "name": "QredosContractDeployed",
      "type": "event"
    },
    {
      "anonymous": false,
      "inputs": [
        {
          "indexed": true,
          "internalType": "uint256",
          "name": "purchaseId",
          "type": "uint256"
        },
        {
          "indexed": false,
          "internalType": "address",
          "name": "borrowerAddress",
          "type": "address"
        },
        {
          "indexed": false,
          "internalType": "uint256",
          "name": "refundAmount",
          "type": "uint256"
        }
      ],
      "name": "RefundBorrower",
      "type": "event"
    },
    {
      "anonymous": false,
      "inputs": [
        {
          "indexed": true,
          "internalType": "uint256",
          "name": "purchaseId",
          "type": "uint256"
        },
        {
          "indexed": false,
          "internalType": "uint256",
          "name": "discountAmount",
          "type": "uint256"
        },
        {
          "indexed": true,
          "internalType": "uint256",
          "name": "liquidationId",
          "type": "uint256"
        }
      ],
      "name": "StartLiquidation",
      "type": "event"
    },
    {
      "inputs": [
        {
          "internalType": "uint256",
          "name": "purchaseId",
          "type": "uint256"
        },
        {
          "internalType": "uint256",
          "name": "liquidationId",
          "type": "uint256"
        }
      ],
      "name": "_calcBorrowerRefundAmount",
      "outputs": [
        {
          "internalType": "uint256",
          "name": "",
          "type": "uint256"
        }
      ],
      "stateMutability": "view",
      "type": "function"
    },
    {
      "inputs": [
        {
          "internalType": "uint256",
          "name": "purchaseId",
          "type": "uint256"
        },
        {
          "internalType": "uint256",
          "name": "poolId",
          "type": "uint256"
        }
      ],
      "name": "claimNft",
      "outputs": [],
      "stateMutability": "nonpayable",
      "type": "function"
    },
    {
      "inputs": [
        {
          "internalType": "uint256",
          "name": "poolId",
          "type": "uint256"
        },
        {
          "internalType": "address",
          "name": "reciever",
          "type": "address"
        }
      ],
      "name": "closePool",
      "outputs": [],
      "stateMutability": "nonpayable",
      "type": "function"
    },
    {
      "inputs": [
        {
          "internalType": "uint256",
          "name": "liquidationId",
          "type": "uint256"
        },
        {
          "internalType": "address",
          "name": "borrowerAddress",
          "type": "address"
        }
      ],
      "name": "completeLiquidation",
      "outputs": [],
      "stateMutability": "payable",
      "type": "function"
    },
    {
      "inputs": [
        {
          "internalType": "uint256",
          "name": "purchaseId",
          "type": "uint256"
        }
      ],
      "name": "completeNFTPurchase",
      "outputs": [],
      "stateMutability": "nonpayable",
      "type": "function"
    },
    {
      "inputs": [
        {
          "internalType": "uint256",
          "name": "_amount",
          "type": "uint256"
        },
        {
          "internalType": "uint16",
          "name": "_paymentCycle",
          "type": "uint16"
        },
        {
          "internalType": "uint16",
          "name": "_APR",
          "type": "uint16"
        },
        {
          "internalType": "uint256",
          "name": "_durationInSecs",
          "type": "uint256"
        },
        {
          "internalType": "uint16",
          "name": "_durationInMonths",
          "type": "uint16"
        },
        {
          "internalType": "address",
          "name": "_creator",
          "type": "address"
        }
      ],
      "name": "createPool",
      "outputs": [],
      "stateMutability": "payable",
      "type": "function"
    },
    {
      "inputs": [],
      "name": "forwardAllFunds",
      "outputs": [],
      "stateMutability": "nonpayable",
      "type": "function"
    },
    {
      "inputs": [
        {
          "internalType": "uint256",
          "name": "poolId",
          "type": "uint256"
        },
        {
          "internalType": "uint256",
          "name": "amount",
          "type": "uint256"
        }
      ],
      "name": "fundPool",
      "outputs": [],
      "stateMutability": "payable",
      "type": "function"
    },
    {
      "inputs": [
        {
          "internalType": "uint256",
          "name": "poolId",
          "type": "uint256"
        }
      ],
      "name": "getPoolBalance",
      "outputs": [
        {
          "internalType": "uint256",
          "name": "",
          "type": "uint256"
        }
      ],
      "stateMutability": "view",
      "type": "function"
    },
    {
      "inputs": [],
      "name": "isPaused",
      "outputs": [
        {
          "internalType": "bool",
          "name": "",
          "type": "bool"
        }
      ],
      "stateMutability": "view",
      "type": "function"
    },
    {
      "inputs": [],
      "name": "lendingPoolAddress",
      "outputs": [
        {
          "internalType": "address payable",
          "name": "",
          "type": "address"
        }
      ],
      "stateMutability": "view",
      "type": "function"
    },
    {
      "inputs": [
        {
          "internalType": "address",
          "name": "",
          "type": "address"
        },
        {
          "internalType": "address",
          "name": "",
          "type": "address"
        },
        {
          "internalType": "uint256",
          "name": "",
          "type": "uint256"
        },
        {
          "internalType": "bytes",
          "name": "",
          "type": "bytes"
        }
      ],
      "name": "onERC721Received",
      "outputs": [
        {
          "internalType": "bytes4",
          "name": "",
          "type": "bytes4"
        }
      ],
      "stateMutability": "pure",
      "type": "function"
    },
    {
      "inputs": [],
      "name": "owner",
      "outputs": [
        {
          "internalType": "address",
          "name": "",
          "type": "address"
        }
      ],
      "stateMutability": "view",
      "type": "function"
    },
    {
      "inputs": [
        {
          "internalType": "address",
          "name": "tokenAddress",
          "type": "address"
        },
        {
          "internalType": "uint256",
          "name": "tokenId",
          "type": "uint256"
        },
        {
          "internalType": "uint256",
          "name": "downPaymentAmount",
          "type": "uint256"
        },
        {
          "internalType": "uint256",
          "name": "principal",
          "type": "uint256"
        },
        {
          "internalType": "uint256",
          "name": "poolId",
          "type": "uint256"
        }
      ],
      "name": "purchaseNFT",
      "outputs": [],
      "stateMutability": "payable",
      "type": "function"
    },
    {
      "inputs": [],
      "name": "qredosStoreAddress",
      "outputs": [
        {
          "internalType": "address",
          "name": "",
          "type": "address"
        }
      ],
      "stateMutability": "view",
      "type": "function"
    },
    {
      "inputs": [
        {
          "internalType": "uint256",
          "name": "purchaseId",
          "type": "uint256"
        },
        {
          "internalType": "uint256",
          "name": "liquidationId",
          "type": "uint256"
        }
      ],
      "name": "refundBorrower",
      "outputs": [],
      "stateMutability": "nonpayable",
      "type": "function"
    },
    {
      "inputs": [],
      "name": "renounceOwnership",
      "outputs": [],
      "stateMutability": "nonpayable",
      "type": "function"
    },
    {
      "inputs": [
        {
          "internalType": "uint256",
          "name": "purchaseId",
          "type": "uint256"
        },
        {
          "internalType": "enum Schema.LoanRepaymentType",
          "name": "repaymentType",
          "type": "uint8"
        },
        {
          "internalType": "uint256",
          "name": "poolId",
          "type": "uint256"
        }
      ],
      "name": "repayLoan",
      "outputs": [],
      "stateMutability": "payable",
      "type": "function"
    },
    {
      "inputs": [
        {
          "internalType": "uint256",
          "name": "purchaseId",
          "type": "uint256"
        },
        {
          "internalType": "uint256",
          "name": "discountAmount",
          "type": "uint256"
        },
        {
          "internalType": "uint256",
          "name": "currentNftPrice",
          "type": "uint256"
        },
        {
          "internalType": "address",
          "name": "borrowerAddress",
          "type": "address"
        }
      ],
      "name": "startLiquidation",
      "outputs": [],
      "stateMutability": "nonpayable",
      "type": "function"
    },
    {
      "inputs": [],
      "name": "toggleIsPaused",
      "outputs": [],
      "stateMutability": "nonpayable",
      "type": "function"
    },
    {
      "inputs": [
        {
          "internalType": "address",
          "name": "newOwner",
          "type": "address"
        }
      ],
      "name": "transferOwnership",
      "outputs": [],
      "stateMutability": "nonpayable",
      "type": "function"
    },
    {
      "stateMutability": "payable",
      "type": "receive"
    }
  ],
  "bytecode": "0x60806040523480156200001157600080fd5b5060405162006a9838038062006a98833981810160405281019062000037919062000214565b620000576200004b6200011a60201b60201c565b6200012260201b60201c565b81600160006101000a81548173ffffffffffffffffffffffffffffffffffffffff021916908373ffffffffffffffffffffffffffffffffffffffff16021790555080600260006101000a81548173ffffffffffffffffffffffffffffffffffffffff021916908373ffffffffffffffffffffffffffffffffffffffff1602179055507f857fc3097560743875118f7f0620841c9d5fdc43f7c3f6ac470d61973eaaa81d826040516200010a919062000266565b60405180910390a150506200033b565b600033905090565b60008060009054906101000a900473ffffffffffffffffffffffffffffffffffffffff169050816000806101000a81548173ffffffffffffffffffffffffffffffffffffffff021916908373ffffffffffffffffffffffffffffffffffffffff1602179055508173ffffffffffffffffffffffffffffffffffffffff168173ffffffffffffffffffffffffffffffffffffffff167f8be0079c531659141344cd1fd0a4f28419497f9722a3daafe3b4186f6b6457e060405160405180910390a35050565b600081519050620001f78162000307565b92915050565b6000815190506200020e8162000321565b92915050565b600080604083850312156200022857600080fd5b60006200023885828601620001fd565b92505060206200024b85828601620001e6565b9150509250929050565b6200026081620002cb565b82525050565b60006020820190506200027d600083018462000255565b92915050565b60006200029082620002ab565b9050919050565b6000620002a482620002ab565b9050919050565b600073ffffffffffffffffffffffffffffffffffffffff82169050919050565b6000620002d882620002df565b9050919050565b6000620002ec82620002f3565b9050919050565b60006200030082620002ab565b9050919050565b620003128162000283565b81146200031e57600080fd5b50565b6200032c8162000297565b81146200033857600080fd5b50565b61674d806200034b6000396000f3fe6080604052600436106200014b5760003560e01c80638da5cb5b11620000bb578063da2488cd1162000079578063da2488cd14620003c8578063da297df214620003f6578063ed1375d51462000416578063f2fde38b146200045a578063f9613d7f1462000488578063ff9311a014620004a25762000153565b80638da5cb5b14620002dc5780639c0b7b5c146200030c5780639d5e2eeb146200033a578063b187bd261462000368578063d3ae26b314620003985762000153565b80636279ce6c11620001095780636279ce6c146200023a57806370a883ca1462000254578063715018a614620002745780637d0812b9146200028e57806383b1877614620002ae5762000153565b8063150b7a0214620001585780632280b3d2146200019c57806325e235ff14620001cc578063553c69b414620001fa5780635acd6fac146200021a5762000153565b366200015357005b600080fd5b3480156200016557600080fd5b506200018460048036038101906200017e9190620040a1565b620004e6565b60405162000193919062004bff565b60405180910390f35b348015620001a957600080fd5b50620001b4620004fb565b604051620001c3919062004a43565b60405180910390f35b348015620001d957600080fd5b50620001f86004803603810190620001f291906200443b565b62000521565b005b620002186004803603810190620002129190620043a5565b62000939565b005b6200023860048036038101906200023291906200443b565b62000b4b565b005b3480156200024757600080fd5b506200025262000d51565b005b6200027260048036038101906200026c91906200434f565b62000e1a565b005b3480156200028157600080fd5b506200028c620015dd565b005b620002ac6004803603810190620002a691906200430e565b620015f5565b005b348015620002bb57600080fd5b50620002da6004803603810190620002d49190620042b6565b62001b56565b005b348015620002e957600080fd5b50620002f462002099565b60405162000303919062004a43565b60405180910390f35b3480156200031957600080fd5b506200033860048036038101906200033291906200443b565b620020c2565b005b3480156200034757600080fd5b506200036660048036038101906200036091906200447c565b6200236d565b005b3480156200037557600080fd5b506200038062002528565b6040516200038f919062004be2565b60405180910390f35b348015620003a557600080fd5b50620003b06200253b565b604051620003bf919062004a60565b60405180910390f35b348015620003d557600080fd5b50620003f46004803603810190620003ee91906200430e565b62002561565b005b6200041460048036038101906200040e91906200412b565b620028e8565b005b3480156200042357600080fd5b506200044260048036038101906200043c9190620042b6565b6200300a565b60405162000451919062004ed0565b60405180910390f35b3480156200046757600080fd5b5062000486600480360381019062000480919062004049565b620030c4565b005b3480156200049557600080fd5b50620004a06200314f565b005b348015620004af57600080fd5b50620004ce6004803603810190620004c891906200443b565b62003185565b604051620004dd919062004ed0565b60405180910390f35b600063150b7a0260e01b905095945050505050565b600260009054906101000a900473ffffffffffffffffffffffffffffffffffffffff1681565b600260149054906101000a900460ff161562000574576040517f08c379a00000000000000000000000000000000000000000000000000000000081526004016200056b9062004d92565b60405180910390fd5b6000600260009054906101000a900473ffffffffffffffffffffffffffffffffffffffff1673ffffffffffffffffffffffffffffffffffffffff1663dfd7f4ae33856040518363ffffffff1660e01b8152600401620005d592919062004a7d565b60e06040518083038186803b158015620005ee57600080fd5b505afa15801562000603573d6000803e3d6000fd5b505050506040513d601f19601f820116820180604052508101906200062991906200425e565b90506000600160009054906101000a900473ffffffffffffffffffffffffffffffffffffffff1673ffffffffffffffffffffffffffffffffffffffff1663d22368676040518163ffffffff1660e01b815260040160206040518083038186803b1580156200069657600080fd5b505afa158015620006ab573d6000803e3d6000fd5b505050506040513d601f19601f82011682018060405250810190620006d1919062004075565b73ffffffffffffffffffffffffffffffffffffffff16636bac63728484600001516040518363ffffffff1660e01b81526004016200071192919062004fe1565b60c06040518083038186803b1580156200072a57600080fd5b505afa1580156200073f573d6000803e3d6000fd5b505050506040513d601f19601f8201168201806040525081019062000765919062004205565b9050600180811115620007a1577f4e487b7100000000000000000000000000000000000000000000000000000000600052602160045260246000fd5b81608001516001811115620007df577f4e487b7100000000000000000000000000000000000000000000000000000000600052602160045260246000fd5b1462000822576040517f08c379a0000000000000000000000000000000000000000000000000000000008152600401620008199062004d0a565b60405180910390fd5b816040015173ffffffffffffffffffffffffffffffffffffffff16631e83409a336040518263ffffffff1660e01b815260040162000861919062004a43565b602060405180830381600087803b1580156200087c57600080fd5b505af115801562000891573d6000803e3d6000fd5b505050506040513d601f19601f82011682018060405250810190620008b79190620041ad565b620008f9576040517f08c379a0000000000000000000000000000000000000000000000000000000008152600401620008f09062004dd6565b60405180910390fd5b837fec5f0dee1fc3c7beab746dbd5883eee3f1c9bc07fe02dd318c553c5243f52fea336040516200092b919062004a43565b60405180910390a250505050565b600260149054906101000a900460ff16156200098c576040517f08c379a0000000000000000000000000000000000000000000000000000000008152600401620009839062004d92565b60405180910390fd5b85341015620009d2576040517f08c379a0000000000000000000000000000000000000000000000000000000008152600401620009c99062004e1a565b60405180910390fd5b6000600160009054906101000a900473ffffffffffffffffffffffffffffffffffffffff1673ffffffffffffffffffffffffffffffffffffffff168760405162000a1c9062004a2c565b60006040518083038185875af1925050503d806000811462000a5b576040519150601f19603f3d011682016040523d82523d6000602084013e62000a60565b606091505b505090508062000aa7576040517f08c379a000000000000000000000000000000000000000000000000000000000815260040162000a9e9062004ce8565b60405180910390fd5b600160009054906101000a900473ffffffffffffffffffffffffffffffffffffffff1673ffffffffffffffffffffffffffffffffffffffff1663553c69b48888888888886040518763ffffffff1660e01b815260040162000b0e9695949392919062004f74565b600060405180830381600087803b15801562000b2957600080fd5b505af115801562000b3e573d6000803e3d6000fd5b5050505050505050505050565b600260149054906101000a900460ff161562000b9e576040517f08c379a000000000000000000000000000000000000000000000000000000000815260040162000b959062004d92565b60405180910390fd5b8034101562000be4576040517f08c379a000000000000000000000000000000000000000000000000000000000815260040162000bdb9062004e1a565b60405180910390fd5b6000600160009054906101000a900473ffffffffffffffffffffffffffffffffffffffff1673ffffffffffffffffffffffffffffffffffffffff168260405162000c2e9062004a2c565b60006040518083038185875af1925050503d806000811462000c6d576040519150601f19603f3d011682016040523d82523d6000602084013e62000c72565b606091505b505090508062000cb9576040517f08c379a000000000000000000000000000000000000000000000000000000000815260040162000cb09062004ce8565b60405180910390fd5b600160009054906101000a900473ffffffffffffffffffffffffffffffffffffffff1673ffffffffffffffffffffffffffffffffffffffff16635acd6fac84846040518363ffffffff1660e01b815260040162000d1892919062004fe1565b600060405180830381600087803b15801562000d3357600080fd5b505af115801562000d48573d6000803e3d6000fd5b50505050505050565b62000d5b620039ba565b600062000d6762002099565b73ffffffffffffffffffffffffffffffffffffffff164760405162000d8c9062004a2c565b60006040518083038185875af1925050503d806000811462000dcb576040519150601f19603f3d011682016040523d82523d6000602084013e62000dd0565b606091505b505090508062000e17576040517f08c379a000000000000000000000000000000000000000000000000000000000815260040162000e0e9062004e5e565b60405180910390fd5b50565b600260149054906101000a900460ff161562000e6d576040517f08c379a000000000000000000000000000000000000000000000000000000000815260040162000e649062004d92565b60405180910390fd5b6000600260009054906101000a900473ffffffffffffffffffffffffffffffffffffffff1673ffffffffffffffffffffffffffffffffffffffff1663dfd7f4ae33866040518363ffffffff1660e01b815260040162000ece92919062004a7d565b60e06040518083038186803b15801562000ee757600080fd5b505afa15801562000efc573d6000803e3d6000fd5b505050506040513d601f19601f8201168201806040525081019062000f2291906200425e565b90506000600181111562000f5f577f4e487b7100000000000000000000000000000000000000000000000000000000600052602160045260246000fd5b83600181111562000f99577f4e487b7100000000000000000000000000000000000000000000000000000000600052602160045260246000fd5b141562001280576000600160009054906101000a900473ffffffffffffffffffffffffffffffffffffffff1673ffffffffffffffffffffffffffffffffffffffff1663d30f96cb8360000151856040518363ffffffff1660e01b81526004016200100592919062004fe1565b60206040518083038186803b1580156200101e57600080fd5b505afa15801562001033573d6000803e3d6000fd5b505050506040513d601f19601f82011682018060405250810190620010599190620042e2565b905080341015620010a1576040517f08c379a0000000000000000000000000000000000000000000000000000000008152600401620010989062004e1a565b60405180910390fd5b6000600160009054906101000a900473ffffffffffffffffffffffffffffffffffffffff1673ffffffffffffffffffffffffffffffffffffffff1682604051620010eb9062004a2c565b60006040518083038185875af1925050503d80600081146200112a576040519150601f19603f3d011682016040523d82523d6000602084013e6200112f565b606091505b505090508062001176576040517f08c379a00000000000000000000000000000000000000000000000000000000081526004016200116d9062004ce8565b60405180910390fd5b6000600160009054906101000a900473ffffffffffffffffffffffffffffffffffffffff1673ffffffffffffffffffffffffffffffffffffffff1663c60bffc7856000015185886040518463ffffffff1660e01b8152600401620011dd939291906200504b565b602060405180830381600087803b158015620011f857600080fd5b505af11580156200120d573d6000803e3d6000fd5b505050506040513d601f19601f82011682018060405250810190620012339190620042e2565b90508360000151817f5f3b53e81cd16b078bd648ad759c36c3b66dee302039ba48d4ad37de61dba7bb8560006040516200126f92919062004f1a565b60405180910390a3505050620015d7565b600180811115620012ba577f4e487b7100000000000000000000000000000000000000000000000000000000600052602160045260246000fd5b836001811115620012f4577f4e487b7100000000000000000000000000000000000000000000000000000000600052602160045260246000fd5b1415620015d6576000600160009054906101000a900473ffffffffffffffffffffffffffffffffffffffff1673ffffffffffffffffffffffffffffffffffffffff16636cd5ffa88360000151856040518363ffffffff1660e01b81526004016200136092919062004fe1565b60206040518083038186803b1580156200137957600080fd5b505afa1580156200138e573d6000803e3d6000fd5b505050506040513d601f19601f82011682018060405250810190620013b49190620042e2565b905080341015620013fc576040517f08c379a0000000000000000000000000000000000000000000000000000000008152600401620013f39062004e1a565b60405180910390fd5b6000600160009054906101000a900473ffffffffffffffffffffffffffffffffffffffff1673ffffffffffffffffffffffffffffffffffffffff1682604051620014469062004a2c565b60006040518083038185875af1925050503d806000811462001485576040519150601f19603f3d011682016040523d82523d6000602084013e6200148a565b606091505b5050905080620014d1576040517f08c379a0000000000000000000000000000000000000000000000000000000008152600401620014c89062004ce8565b60405180910390fd5b6000600160009054906101000a900473ffffffffffffffffffffffffffffffffffffffff1673ffffffffffffffffffffffffffffffffffffffff166399f6bccb856000015185886040518463ffffffff1660e01b815260040162001538939291906200504b565b602060405180830381600087803b1580156200155357600080fd5b505af115801562001568573d6000803e3d6000fd5b505050506040513d601f19601f820116820180604052508101906200158e9190620042e2565b90508360000151817f5f3b53e81cd16b078bd648ad759c36c3b66dee302039ba48d4ad37de61dba7bb856001604051620015ca92919062004f1a565b60405180910390a35050505b5b50505050565b620015e7620039ba565b620015f3600062003a3f565b565b600260149054906101000a900460ff161562001648576040517f08c379a00000000000000000000000000000000000000000000000000000000081526004016200163f9062004d92565b60405180910390fd5b6000600260009054906101000a900473ffffffffffffffffffffffffffffffffffffffff1673ffffffffffffffffffffffffffffffffffffffff1663500db2a6846040518263ffffffff1660e01b8152600401620016a7919062004ed0565b60a06040518083038186803b158015620016c057600080fd5b505afa158015620016d5573d6000803e3d6000fd5b505050506040513d601f19601f82011682018060405250810190620016fb9190620041d9565b90506000600260009054906101000a900473ffffffffffffffffffffffffffffffffffffffff1673ffffffffffffffffffffffffffffffffffffffff1663dfd7f4ae8484600001516040518363ffffffff1660e01b81526004016200176292919062004a7d565b60e06040518083038186803b1580156200177b57600080fd5b505afa15801562001790573d6000803e3d6000fd5b505050506040513d601f19601f82011682018060405250810190620017b691906200425e565b9050816040015134101562001802576040517f08c379a0000000000000000000000000000000000000000000000000000000008152600401620017f99062004e1a565b60405180910390fd5b6000600160009054906101000a900473ffffffffffffffffffffffffffffffffffffffff1673ffffffffffffffffffffffffffffffffffffffff168360400151604051620018509062004a2c565b60006040518083038185875af1925050503d80600081146200188f576040519150601f19603f3d011682016040523d82523d6000602084013e62001894565b606091505b5050905080620018db576040517f08c379a0000000000000000000000000000000000000000000000000000000008152600401620018d29062004ce8565b60405180910390fd5b816040015173ffffffffffffffffffffffffffffffffffffffff16631e83409a336040518263ffffffff1660e01b81526004016200191a919062004a43565b602060405180830381600087803b1580156200193557600080fd5b505af11580156200194a573d6000803e3d6000fd5b505050506040513d601f19601f82011682018060405250810190620019709190620041ad565b620019b2576040517f08c379a0000000000000000000000000000000000000000000000000000000008152600401620019a99062004e3c565b60405180910390fd5b600260009054906101000a900473ffffffffffffffffffffffffffffffffffffffff1673ffffffffffffffffffffffffffffffffffffffff16631fa400068460000151856040015188600188602001516040518663ffffffff1660e01b815260040162001a2495949392919062005088565b600060405180830381600087803b15801562001a3f57600080fd5b505af115801562001a54573d6000803e3d6000fd5b50505050600260009054906101000a900473ffffffffffffffffffffffffffffffffffffffff1673ffffffffffffffffffffffffffffffffffffffff166341eb24b18585600001518560000151866020015187604001518860600151896080015160036040518963ffffffff1660e01b815260040162001adc98979695949392919062004b54565b600060405180830381600087803b15801562001af757600080fd5b505af115801562001b0c573d6000803e3d6000fd5b505050508483600001517f10f0eb5bec4048bc2147c3eff0d6bb1ea88c96d7daf1e0ec6174e60f3d2d6b363360405162001b47919062004a43565b60405180910390a35050505050565b600260149054906101000a900460ff161562001ba9576040517f08c379a000000000000000000000000000000000000000000000000000000000815260040162001ba09062004d92565b60405180910390fd5b6000600260009054906101000a900473ffffffffffffffffffffffffffffffffffffffff1673ffffffffffffffffffffffffffffffffffffffff1663dfd7f4ae33846040518363ffffffff1660e01b815260040162001c0a92919062004a7d565b60e06040518083038186803b15801562001c2357600080fd5b505afa15801562001c38573d6000803e3d6000fd5b505050506040513d601f19601f8201168201806040525081019062001c5e91906200425e565b90503073ffffffffffffffffffffffffffffffffffffffff16816060015173ffffffffffffffffffffffffffffffffffffffff16636352211e83608001516040518263ffffffff1660e01b815260040162001cba919062004ed0565b60206040518083038186803b15801562001cd357600080fd5b505afa15801562001ce8573d6000803e3d6000fd5b505050506040513d601f19601f8201168201806040525081019062001d0e919062004075565b73ffffffffffffffffffffffffffffffffffffffff161462001d67576040517f08c379a000000000000000000000000000000000000000000000000000000000815260040162001d5e9062004d4e565b60405180910390fd5b6000308260800151836060015160405162001d829062003c00565b62001d909392919062004aaa565b604051809103906000f08015801562001dad573d6000803e3d6000fd5b5090503073ffffffffffffffffffffffffffffffffffffffff168173ffffffffffffffffffffffffffffffffffffffff16638da5cb5b6040518163ffffffff1660e01b815260040160206040518083038186803b15801562001e0e57600080fd5b505afa15801562001e23573d6000803e3d6000fd5b505050506040513d601f19601f8201168201806040525081019062001e49919062004075565b73ffffffffffffffffffffffffffffffffffffffff161462001ea2576040517f08c379a000000000000000000000000000000000000000000000000000000000815260040162001e999062004c82565b60405180910390fd5b816060015173ffffffffffffffffffffffffffffffffffffffff1663095ea7b38284608001516040518363ffffffff1660e01b815260040162001ee792919062004a7d565b600060405180830381600087803b15801562001f0257600080fd5b505af115801562001f17573d6000803e3d6000fd5b505050508073ffffffffffffffffffffffffffffffffffffffff16636e553f65836080015184606001516040518363ffffffff1660e01b815260040162001f6092919062004eed565b602060405180830381600087803b15801562001f7b57600080fd5b505af115801562001f90573d6000803e3d6000fd5b505050506040513d601f19601f8201168201806040525081019062001fb69190620041ad565b50600260009054906101000a900473ffffffffffffffffffffffffffffffffffffffff1673ffffffffffffffffffffffffffffffffffffffff166341eb24b1338585600001518660200151868860600151896080015160016040518963ffffffff1660e01b81526004016200203398979695949392919062004b54565b600060405180830381600087803b1580156200204e57600080fd5b505af115801562002063573d6000803e3d6000fd5b50505050827f5d2e146c95f4ec58ed7e1dc5cc4f32ff5ffdd304fdd34cfd84a930d39f1f5e7260405160405180910390a2505050565b60008060009054906101000a900473ffffffffffffffffffffffffffffffffffffffff16905090565b600260149054906101000a900460ff161562002115576040517f08c379a00000000000000000000000000000000000000000000000000000000081526004016200210c9062004d92565b60405180910390fd5b6000600260009054906101000a900473ffffffffffffffffffffffffffffffffffffffff1673ffffffffffffffffffffffffffffffffffffffff1663dfd7f4ae33856040518363ffffffff1660e01b81526004016200217692919062004a7d565b60e06040518083038186803b1580156200218f57600080fd5b505afa158015620021a4573d6000803e3d6000fd5b505050506040513d601f19601f82011682018060405250810190620021ca91906200425e565b90506003600481111562002207577f4e487b7100000000000000000000000000000000000000000000000000000000600052602160045260246000fd5b8160a00151600481111562002245577f4e487b7100000000000000000000000000000000000000000000000000000000600052602160045260246000fd5b1462002288576040517f08c379a00000000000000000000000000000000000000000000000000000000081526004016200227f9062004db4565b60405180910390fd5b600062002296848462003185565b9050600160009054906101000a900473ffffffffffffffffffffffffffffffffffffffff1673ffffffffffffffffffffffffffffffffffffffff1663413e167733836040518363ffffffff1660e01b8152600401620022f792919062004a7d565b600060405180830381600087803b1580156200231257600080fd5b505af115801562002327573d6000803e3d6000fd5b50505050837fb5947234d9d981e6dc885e516b3a8cabc0aded467c00d88a12aea0402fb37a5333836040516200235f92919062004a7d565b60405180910390a250505050565b62002377620039ba565b600260009054906101000a900473ffffffffffffffffffffffffffffffffffffffff1673ffffffffffffffffffffffffffffffffffffffff1663dfd7f4ae82866040518363ffffffff1660e01b8152600401620023d692919062004a7d565b60e06040518083038186803b158015620023ef57600080fd5b505afa15801562002404573d6000803e3d6000fd5b505050506040513d601f19601f820116820180604052508101906200242a91906200425e565b506000600260009054906101000a900473ffffffffffffffffffffffffffffffffffffffff1673ffffffffffffffffffffffffffffffffffffffff1663955af5c38686866040518463ffffffff1660e01b81526004016200248e939291906200504b565b602060405180830381600087803b158015620024a957600080fd5b505af1158015620024be573d6000803e3d6000fd5b505050506040513d601f19601f82011682018060405250810190620024e49190620042e2565b905080857f1999b5cf4c86a262821b1ab4825d62e65f2350bc1f6476d25352cb4a2202f3048660405162002519919062004ed0565b60405180910390a35050505050565b600260149054906101000a900460ff1681565b600160009054906101000a900473ffffffffffffffffffffffffffffffffffffffff1681565b600260149054906101000a900460ff1615620025b4576040517f08c379a0000000000000000000000000000000000000000000000000000000008152600401620025ab9062004d92565b60405180910390fd5b6000600160009054906101000a900473ffffffffffffffffffffffffffffffffffffffff1673ffffffffffffffffffffffffffffffffffffffff1663d22368676040518163ffffffff1660e01b815260040160206040518083038186803b1580156200261f57600080fd5b505afa15801562002634573d6000803e3d6000fd5b505050506040513d601f19601f820116820180604052508101906200265a919062004075565b73ffffffffffffffffffffffffffffffffffffffff16635055149c846040518263ffffffff1660e01b815260040162002694919062004ed0565b6101006040518083038186803b158015620026ae57600080fd5b505afa158015620026c3573d6000803e3d6000fd5b505050506040513d601f19601f82011682018060405250810190620026e9919062004231565b90508060a0015173ffffffffffffffffffffffffffffffffffffffff163373ffffffffffffffffffffffffffffffffffffffff161462002760576040517f08c379a0000000000000000000000000000000000000000000000000000000008152600401620027579062004e80565b60405180910390fd5b6000600160009054906101000a900473ffffffffffffffffffffffffffffffffffffffff1673ffffffffffffffffffffffffffffffffffffffff1663139d179f856040518263ffffffff1660e01b8152600401620027bf919062004ed0565b60206040518083038186803b158015620027d857600080fd5b505afa158015620027ed573d6000803e3d6000fd5b505050506040513d601f19601f82011682018060405250810190620028139190620042e2565b9050600160009054906101000a900473ffffffffffffffffffffffffffffffffffffffff1673ffffffffffffffffffffffffffffffffffffffff1663da2488cd85856040518363ffffffff1660e01b81526004016200287492919062004eed565b600060405180830381600087803b1580156200288f57600080fd5b505af1158015620028a4573d6000803e3d6000fd5b50505050837faf7faf29a251efa1bcf2b47dab1a72baa0906a2e4ff957e6cb6d4f7c642161ab82604051620028da919062004ed0565b60405180910390a250505050565b600260149054906101000a900460ff16156200293b576040517f08c379a0000000000000000000000000000000000000000000000000000000008152600401620029329062004d92565b60405180910390fd5b600073ffffffffffffffffffffffffffffffffffffffff168573ffffffffffffffffffffffffffffffffffffffff161415620029ae576040517f08c379a0000000000000000000000000000000000000000000000000000000008152600401620029a59062004c3e565b60405180910390fd5b6000600160009054906101000a900473ffffffffffffffffffffffffffffffffffffffff1673ffffffffffffffffffffffffffffffffffffffff1663d22368676040518163ffffffff1660e01b815260040160206040518083038186803b15801562002a1957600080fd5b505afa15801562002a2e573d6000803e3d6000fd5b505050506040513d601f19601f8201168201806040525081019062002a54919062004075565b90508073ffffffffffffffffffffffffffffffffffffffff16635055149c836040518263ffffffff1660e01b815260040162002a91919062004ed0565b6101006040518083038186803b15801562002aab57600080fd5b505afa15801562002ac0573d6000803e3d6000fd5b505050506040513d601f19601f8201168201806040525081019062002ae6919062004231565b5062002af3848462003b03565b62002b35576040517f08c379a000000000000000000000000000000000000000000000000000000000815260040162002b2c9062004d2c565b60405180910390fd5b82600160009054906101000a900473ffffffffffffffffffffffffffffffffffffffff1673ffffffffffffffffffffffffffffffffffffffff1663d060f501846040518263ffffffff1660e01b815260040162002b93919062004ed0565b60206040518083038186803b15801562002bac57600080fd5b505afa15801562002bc1573d6000803e3d6000fd5b505050506040513d601f19601f8201168201806040525081019062002be79190620042e2565b1162002c2a576040517f08c379a000000000000000000000000000000000000000000000000000000000815260040162002c219062004ca4565b60405180910390fd5b8334101562002c70576040517f08c379a000000000000000000000000000000000000000000000000000000000815260040162002c679062004cc6565b60405180910390fd5b6000600160009054906101000a900473ffffffffffffffffffffffffffffffffffffffff1673ffffffffffffffffffffffffffffffffffffffff166322385ed48585336040518463ffffffff1660e01b815260040162002cd3939291906200500e565b602060405180830381600087803b15801562002cee57600080fd5b505af115801562002d03573d6000803e3d6000fd5b505050506040513d601f19601f8201168201806040525081019062002d299190620042e2565b9050838562002d3991906200512a565b47101562002d7e576040517f08c379a000000000000000000000000000000000000000000000000000000000815260040162002d759062004c1c565b60405180910390fd5b600062002d8a62002099565b73ffffffffffffffffffffffffffffffffffffffff16858762002dae91906200512a565b60405162002dbc9062004a2c565b60006040518083038185875af1925050503d806000811462002dfb576040519150601f19603f3d011682016040523d82523d6000602084013e62002e00565b606091505b505090508062002e47576040517f08c379a000000000000000000000000000000000000000000000000000000000815260040162002e3e9062004df8565b60405180910390fd5b6000600260009054906101000a900473ffffffffffffffffffffffffffffffffffffffff1673ffffffffffffffffffffffffffffffffffffffff1663e7aa2df633858860008e8e6040518763ffffffff1660e01b815260040162002eb19695949392919062004ae7565b602060405180830381600087803b15801562002ecc57600080fd5b505af115801562002ee1573d6000803e3d6000fd5b505050506040513d601f19601f8201168201806040525081019062002f079190620042e2565b9050803373ffffffffffffffffffffffffffffffffffffffff167fd825c95624e3d9df6a1a2617ef81f3054120ace1880a51e6e51ef7415ac4a66589600260009054906101000a900473ffffffffffffffffffffffffffffffffffffffff1673ffffffffffffffffffffffffffffffffffffffff16637453275b6040518163ffffffff1660e01b815260040160206040518083038186803b15801562002fac57600080fd5b505afa15801562002fc1573d6000803e3d6000fd5b505050506040513d601f19601f8201168201806040525081019062002fe791906200428a565b60405162002ff792919062004f47565b60405180910390a3505050505050505050565b6000600160009054906101000a900473ffffffffffffffffffffffffffffffffffffffff1673ffffffffffffffffffffffffffffffffffffffff1663d060f501836040518263ffffffff1660e01b815260040162003069919062004ed0565b60206040518083038186803b1580156200308257600080fd5b505afa15801562003097573d6000803e3d6000fd5b505050506040513d601f19601f82011682018060405250810190620030bd9190620042e2565b9050919050565b620030ce620039ba565b600073ffffffffffffffffffffffffffffffffffffffff168173ffffffffffffffffffffffffffffffffffffffff16141562003141576040517f08c379a0000000000000000000000000000000000000000000000000000000008152600401620031389062004c60565b60405180910390fd5b6200314c8162003a3f565b50565b62003159620039ba565b600260149054906101000a900460ff1615600260146101000a81548160ff021916908315150217905550565b600080600260009054906101000a900473ffffffffffffffffffffffffffffffffffffffff1673ffffffffffffffffffffffffffffffffffffffff1663dfd7f4ae33866040518363ffffffff1660e01b8152600401620031e792919062004a7d565b60e06040518083038186803b1580156200320057600080fd5b505afa15801562003215573d6000803e3d6000fd5b505050506040513d601f19601f820116820180604052508101906200323b91906200425e565b90506000600160009054906101000a900473ffffffffffffffffffffffffffffffffffffffff1673ffffffffffffffffffffffffffffffffffffffff1663d22368676040518163ffffffff1660e01b815260040160206040518083038186803b158015620032a857600080fd5b505afa158015620032bd573d6000803e3d6000fd5b505050506040513d601f19601f82011682018060405250810190620032e3919062004075565b73ffffffffffffffffffffffffffffffffffffffff16636bac6372836020015184600001516040518363ffffffff1660e01b81526004016200332792919062004fe1565b60c06040518083038186803b1580156200334057600080fd5b505afa15801562003355573d6000803e3d6000fd5b505050506040513d601f19601f820116820180604052508101906200337b919062004205565b90506000600160009054906101000a900473ffffffffffffffffffffffffffffffffffffffff1673ffffffffffffffffffffffffffffffffffffffff1663d22368676040518163ffffffff1660e01b815260040160206040518083038186803b158015620033e857600080fd5b505afa158015620033fd573d6000803e3d6000fd5b505050506040513d601f19601f8201168201806040525081019062003423919062004075565b73ffffffffffffffffffffffffffffffffffffffff16635055149c83600001516040518263ffffffff1660e01b815260040162003461919062004ed0565b6101006040518083038186803b1580156200347b57600080fd5b505afa15801562003490573d6000803e3d6000fd5b505050506040513d601f19601f82011682018060405250810190620034b6919062004231565b90506000600260009054906101000a900473ffffffffffffffffffffffffffffffffffffffff1673ffffffffffffffffffffffffffffffffffffffff1663500db2a6876040518263ffffffff1660e01b815260040162003517919062004ed0565b60a06040518083038186803b1580156200353057600080fd5b505afa15801562003545573d6000803e3d6000fd5b505050506040513d601f19601f820116820180604052508101906200356b9190620041d9565b90506000836040015190506000600160009054906101000a900473ffffffffffffffffffffffffffffffffffffffff1673ffffffffffffffffffffffffffffffffffffffff1663341d8cd986866040518363ffffffff1660e01b8152600401620035d792919062004ea2565b60206040518083038186803b158015620035f057600080fd5b505afa15801562003605573d6000803e3d6000fd5b505050506040513d601f19601f820116820180604052508101906200362b9190620042e2565b90506000600160009054906101000a900473ffffffffffffffffffffffffffffffffffffffff1673ffffffffffffffffffffffffffffffffffffffff1663d22368676040518163ffffffff1660e01b815260040160206040518083038186803b1580156200369857600080fd5b505afa158015620036ad573d6000803e3d6000fd5b505050506040513d601f19601f82011682018060405250810190620036d3919062004075565b73ffffffffffffffffffffffffffffffffffffffff1663672e4d6e88600001516040518263ffffffff1660e01b815260040162003711919062004ed0565b60206040518083038186803b1580156200372a57600080fd5b505afa1580156200373f573d6000803e3d6000fd5b505050506040513d601f19601f82011682018060405250810190620037659190620042e2565b905060008183620037779190620051f7565b90506000600160009054906101000a900473ffffffffffffffffffffffffffffffffffffffff1673ffffffffffffffffffffffffffffffffffffffff1663817f203c8a600001518b602001516040518363ffffffff1660e01b8152600401620037e292919062004fe1565b60206040518083038186803b158015620037fb57600080fd5b505afa15801562003810573d6000803e3d6000fd5b505050506040513d601f19601f82011682018060405250810190620038369190620041ad565b1562003907576064600160009054906101000a900473ffffffffffffffffffffffffffffffffffffffff1673ffffffffffffffffffffffffffffffffffffffff16632658bad56040518163ffffffff1660e01b815260040160206040518083038186803b158015620038a757600080fd5b505afa158015620038bc573d6000803e3d6000fd5b505050506040513d601f19601f82011682018060405250810190620038e29190620042e2565b8960400151620038f39190620051f7565b620038ff9190620051bf565b90506200390c565b600090505b600288604001516200391f9190620051f7565b866020015110156200398d576000866020015160028a60400151620039459190620051f7565b62003951919062005258565b905080826200396191906200512a565b83876200396f91906200512a565b6200397b919062005258565b9a5050505050505050505050620039b4565b8082866200399c91906200512a565b620039a8919062005258565b99505050505050505050505b92915050565b620039c462003bf8565b73ffffffffffffffffffffffffffffffffffffffff16620039e462002099565b73ffffffffffffffffffffffffffffffffffffffff161462003a3d576040517f08c379a000000000000000000000000000000000000000000000000000000000815260040162003a349062004d70565b60405180910390fd5b565b60008060009054906101000a900473ffffffffffffffffffffffffffffffffffffffff169050816000806101000a81548173ffffffffffffffffffffffffffffffffffffffff021916908373ffffffffffffffffffffffffffffffffffffffff1602179055508173ffffffffffffffffffffffffffffffffffffffff168173ffffffffffffffffffffffffffffffffffffffff167f8be0079c531659141344cd1fd0a4f28419497f9722a3daafe3b4186f6b6457e060405160405180910390a35050565b600080600260009054906101000a900473ffffffffffffffffffffffffffffffffffffffff1673ffffffffffffffffffffffffffffffffffffffff16637453275b6040518163ffffffff1660e01b815260040160206040518083038186803b15801562003b6f57600080fd5b505afa15801562003b84573d6000803e3d6000fd5b505050506040513d601f19601f8201168201806040525081019062003baa91906200428a565b606462003bb8919062005187565b9050828462003bc891906200512a565b8161ffff168562003bda9190620051f7565b141562003bec57600191505062003bf2565b60009150505b92915050565b600033905090565b610cfa8062005a1e83390190565b60008135905062003c1f8162005960565b92915050565b60008151905062003c368162005960565b92915050565b60008151905062003c4d816200597a565b92915050565b60008083601f84011262003c6657600080fd5b8235905067ffffffffffffffff81111562003c8057600080fd5b60208301915083600182028301111562003c9957600080fd5b9250929050565b60008151905062003cb18162005994565b92915050565b60008135905062003cc881620059a5565b92915050565b60008151905062003cdf81620059b6565b92915050565b60008151905062003cf681620059c7565b92915050565b60008151905062003d0d81620059d8565b92915050565b600060a0828403121562003d2657600080fd5b62003d3260a0620050e5565b9050600062003d448482850162004032565b600083015250602062003d5a8482850162004032565b602083015250604062003d708482850162004032565b604083015250606062003d868482850162003ca0565b606083015250608062003d9c8482850162003c3c565b60808301525092915050565b600060c0828403121562003dbb57600080fd5b62003dc760c0620050e5565b9050600062003dd98482850162004032565b600083015250602062003def8482850162003c25565b602083015250604062003e058482850162004032565b604083015250606062003e1b8482850162004032565b606083015250608062003e318482850162003cce565b60808301525060a062003e478482850162003c3c565b60a08301525092915050565b6000610100828403121562003e6757600080fd5b62003e74610100620050e5565b9050600062003e868482850162004032565b600083015250602062003e9c8482850162004004565b602083015250604062003eb28482850162004004565b604083015250606062003ec88482850162004032565b606083015250608062003ede8482850162004004565b60808301525060a062003ef48482850162003c25565b60a08301525060c062003f0a8482850162003ce5565b60c08301525060e062003f208482850162003c3c565b60e08301525092915050565b600060e0828403121562003f3f57600080fd5b62003f4b60e0620050e5565b9050600062003f5d8482850162004032565b600083015250602062003f738482850162004032565b602083015250604062003f898482850162003c25565b604083015250606062003f9f8482850162003c25565b606083015250608062003fb58482850162004032565b60808301525060a062003fcb8482850162003cfc565b60a08301525060c062003fe18482850162003c3c565b60c08301525092915050565b60008135905062003ffe81620059e9565b92915050565b6000815190506200401581620059e9565b92915050565b6000813590506200402c8162005a03565b92915050565b600081519050620040438162005a03565b92915050565b6000602082840312156200405c57600080fd5b60006200406c8482850162003c0e565b91505092915050565b6000602082840312156200408857600080fd5b6000620040988482850162003c25565b91505092915050565b600080600080600060808688031215620040ba57600080fd5b6000620040ca8882890162003c0e565b9550506020620040dd8882890162003c0e565b9450506040620040f0888289016200401b565b935050606086013567ffffffffffffffff8111156200410e57600080fd5b6200411c8882890162003c53565b92509250509295509295909350565b600080600080600060a086880312156200414457600080fd5b6000620041548882890162003c0e565b955050602062004167888289016200401b565b94505060406200417a888289016200401b565b93505060606200418d888289016200401b565b9250506080620041a0888289016200401b565b9150509295509295909350565b600060208284031215620041c057600080fd5b6000620041d08482850162003c3c565b91505092915050565b600060a08284031215620041ec57600080fd5b6000620041fc8482850162003d13565b91505092915050565b600060c082840312156200421857600080fd5b6000620042288482850162003da8565b91505092915050565b600061010082840312156200424557600080fd5b6000620042558482850162003e53565b91505092915050565b600060e082840312156200427157600080fd5b6000620042818482850162003f2c565b91505092915050565b6000602082840312156200429d57600080fd5b6000620042ad8482850162004004565b91505092915050565b600060208284031215620042c957600080fd5b6000620042d9848285016200401b565b91505092915050565b600060208284031215620042f557600080fd5b6000620043058482850162004032565b91505092915050565b600080604083850312156200432257600080fd5b600062004332858286016200401b565b9250506020620043458582860162003c0e565b9150509250929050565b6000806000606084860312156200436557600080fd5b600062004375868287016200401b565b9350506020620043888682870162003cb7565b92505060406200439b868287016200401b565b9150509250925092565b60008060008060008060c08789031215620043bf57600080fd5b6000620043cf89828a016200401b565b9650506020620043e289828a0162003fed565b9550506040620043f589828a0162003fed565b94505060606200440889828a016200401b565b93505060806200441b89828a0162003fed565b92505060a06200442e89828a0162003c0e565b9150509295509295509295565b600080604083850312156200444f57600080fd5b60006200445f858286016200401b565b925050602062004472858286016200401b565b9150509250929050565b600080600080608085870312156200449357600080fd5b6000620044a3878288016200401b565b9450506020620044b6878288016200401b565b9350506040620044c9878288016200401b565b9250506060620044dc8782880162003c0e565b91505092959194509250565b620044f381620052a7565b82525050565b620045048162005293565b82525050565b620045158162005293565b82525050565b6200452681620052bb565b82525050565b6200453781620052bb565b82525050565b6200454881620052c7565b82525050565b620045598162005394565b82525050565b6200456a81620053a8565b82525050565b6200457b81620053bc565b82525050565b6200458c81620053d0565b82525050565b6200459d81620053e4565b82525050565b6000620045b260278362005119565b9150620045bf82620054fb565b604082019050919050565b6000620045d9602c8362005119565b9150620045e6826200554a565b604082019050919050565b60006200460060268362005119565b91506200460d8262005599565b604082019050919050565b600062004627601d8362005119565b91506200463482620055e8565b602082019050919050565b60006200464e60368362005119565b91506200465b8262005611565b604082019050919050565b60006200467560178362005119565b9150620046828262005660565b602082019050919050565b60006200469c601d8362005119565b9150620046a98262005689565b602082019050919050565b6000620046c360218362005119565b9150620046d082620056b2565b604082019050919050565b6000620046ea60268362005119565b9150620046f78262005701565b604082019050919050565b600062004711601c8362005119565b91506200471e8262005750565b602082019050919050565b60006200473860208362005119565b9150620047458262005779565b602082019050919050565b60006200475f60198362005119565b91506200476c82620057a2565b602082019050919050565b600062004786601d8362005119565b91506200479382620057cb565b602082019050919050565b6000620047ad60178362005119565b9150620047ba82620057f4565b602082019050919050565b6000620047d4601c8362005119565b9150620047e1826200581d565b602082019050919050565b6000620047fb60188362005119565b9150620048088262005846565b602082019050919050565b6000620048226000836200510e565b91506200482f826200586f565b600082019050919050565b600062004849601d8362005119565b9150620048568262005872565b602082019050919050565b60006200487060158362005119565b91506200487d826200589b565b602082019050919050565b600062004897601e8362005119565b9150620048a482620058c4565b602082019050919050565b60c082016000820151620048c7600085018262004a0a565b506020820151620048dc6020850182620044f9565b506040820151620048f1604085018262004a0a565b50606082015162004906606085018262004a0a565b5060808201516200491b608085018262004570565b5060a08201516200493060a08501826200451b565b50505050565b610100820160008201516200494f600085018262004a0a565b506020820151620049646020850182620049e8565b506040820151620049796040850182620049e8565b5060608201516200498e606085018262004a0a565b506080820151620049a36080850182620049e8565b5060a0820151620049b860a0850182620044f9565b5060c0820151620049cd60c085018262004581565b5060e0820151620049e260e08501826200451b565b50505050565b620049f3816200535c565b82525050565b62004a04816200535c565b82525050565b62004a15816200538a565b82525050565b62004a26816200538a565b82525050565b600062004a398262004813565b9150819050919050565b600060208201905062004a5a60008301846200450a565b92915050565b600060208201905062004a776000830184620044e8565b92915050565b600060408201905062004a9460008301856200450a565b62004aa3602083018462004a1b565b9392505050565b600060608201905062004ac160008301866200450a565b62004ad0602083018562004a1b565b62004adf60408301846200450a565b949350505050565b600060c08201905062004afe60008301896200450a565b62004b0d602083018862004a1b565b62004b1c604083018762004a1b565b62004b2b60608301866200450a565b62004b3a60808301856200450a565b62004b4960a083018462004a1b565b979650505050505050565b60006101008201905062004b6c600083018b6200450a565b62004b7b602083018a62004a1b565b62004b8a604083018962004a1b565b62004b99606083018862004a1b565b62004ba860808301876200450a565b62004bb760a08301866200450a565b62004bc660c083018562004a1b565b62004bd560e083018462004592565b9998505050505050505050565b600060208201905062004bf960008301846200452c565b92915050565b600060208201905062004c1660008301846200453d565b92915050565b6000602082019050818103600083015262004c3781620045a3565b9050919050565b6000602082019050818103600083015262004c5981620045ca565b9050919050565b6000602082019050818103600083015262004c7b81620045f1565b9050919050565b6000602082019050818103600083015262004c9d8162004618565b9050919050565b6000602082019050818103600083015262004cbf816200463f565b9050919050565b6000602082019050818103600083015262004ce18162004666565b9050919050565b6000602082019050818103600083015262004d03816200468d565b9050919050565b6000602082019050818103600083015262004d2581620046b4565b9050919050565b6000602082019050818103600083015262004d4781620046db565b9050919050565b6000602082019050818103600083015262004d698162004702565b9050919050565b6000602082019050818103600083015262004d8b8162004729565b9050919050565b6000602082019050818103600083015262004dad8162004750565b9050919050565b6000602082019050818103600083015262004dcf8162004777565b9050919050565b6000602082019050818103600083015262004df1816200479e565b9050919050565b6000602082019050818103600083015262004e1381620047c5565b9050919050565b6000602082019050818103600083015262004e3581620047ec565b9050919050565b6000602082019050818103600083015262004e57816200483a565b9050919050565b6000602082019050818103600083015262004e798162004861565b9050919050565b6000602082019050818103600083015262004e9b8162004888565b9050919050565b60006101c08201905062004eba6000830185620048af565b62004ec960c083018462004936565b9392505050565b600060208201905062004ee7600083018462004a1b565b92915050565b600060408201905062004f04600083018562004a1b565b62004f1360208301846200450a565b9392505050565b600060408201905062004f31600083018562004a1b565b62004f4060208301846200455f565b9392505050565b600060408201905062004f5e600083018562004a1b565b62004f6d6020830184620049f9565b9392505050565b600060c08201905062004f8b600083018962004a1b565b62004f9a6020830188620049f9565b62004fa96040830187620049f9565b62004fb8606083018662004a1b565b62004fc76080830185620049f9565b62004fd660a08301846200450a565b979650505050505050565b600060408201905062004ff8600083018562004a1b565b62005007602083018462004a1b565b9392505050565b600060608201905062005025600083018662004a1b565b62005034602083018562004a1b565b6200504360408301846200450a565b949350505050565b600060608201905062005062600083018662004a1b565b62005071602083018562004a1b565b62005080604083018462004a1b565b949350505050565b600060a0820190506200509f600083018862004a1b565b620050ae602083018762004a1b565b620050bd604083018662004a1b565b620050cc60608301856200454e565b620050db608083018462004a1b565b9695505050505050565b6000620050f162005104565b9050620050ff8282620053f8565b919050565b6000604051905090565b600081905092915050565b600082825260208201905092915050565b600062005137826200538a565b915062005144836200538a565b9250827fffffffffffffffffffffffffffffffffffffffffffffffffffffffffffffffff038211156200517c576200517b6200542e565b5b828201905092915050565b600062005194826200535c565b9150620051a1836200535c565b925082620051b457620051b36200545d565b5b828204905092915050565b6000620051cc826200538a565b9150620051d9836200538a565b925082620051ec57620051eb6200545d565b5b828204905092915050565b600062005204826200538a565b915062005211836200538a565b9250817fffffffffffffffffffffffffffffffffffffffffffffffffffffffffffffffff04831182151516156200524d576200524c6200542e565b5b828202905092915050565b600062005265826200538a565b915062005272836200538a565b9250828210156200528857620052876200542e565b5b828203905092915050565b6000620052a0826200536a565b9050919050565b6000620052b4826200536a565b9050919050565b60008115159050919050565b60007fffffffff0000000000000000000000000000000000000000000000000000000082169050919050565b60008190506200530382620058ed565b919050565b6000819050620053188262005904565b919050565b60008190506200532d826200591b565b919050565b6000819050620053428262005932565b919050565b6000819050620053578262005949565b919050565b600061ffff82169050919050565b600073ffffffffffffffffffffffffffffffffffffffff82169050919050565b6000819050919050565b6000620053a182620052f3565b9050919050565b6000620053b58262005308565b9050919050565b6000620053c9826200531d565b9050919050565b6000620053dd8262005332565b9050919050565b6000620053f18262005347565b9050919050565b6200540382620054ea565b810181811067ffffffffffffffff82111715620054255762005424620054bb565b5b80604052505050565b7f4e487b7100000000000000000000000000000000000000000000000000000000600052601160045260246000fd5b7f4e487b7100000000000000000000000000000000000000000000000000000000600052601260045260246000fd5b7f4e487b7100000000000000000000000000000000000000000000000000000000600052602160045260246000fd5b7f4e487b7100000000000000000000000000000000000000000000000000000000600052604160045260246000fd5b6000601f19601f8301169050919050565b7f517265646f732e70757263686173654e46543a20496e73756666696369656e7460008201527f2066756e64732100000000000000000000000000000000000000000000000000602082015250565b7f517265646f732e70757263686173654e46543a2061646472657373206973207a60008201527f65726f2061646472657373210000000000000000000000000000000000000000602082015250565b7f4f776e61626c653a206e6577206f776e657220697320746865207a65726f206160008201527f6464726573730000000000000000000000000000000000000000000000000000602082015250565b7f517265646f733a20496e76616c696420657363726f77206f776e657221000000600082015250565b7f517265646f732e70757263686173654e46543a2053656c656374656420706f6f60008201527f6c2063616e27742066756e642070757263686173652100000000000000000000602082015250565b7f496e636f727265637420657468657220616d6f756e7421000000000000000000600082015250565b7f4661696c6564206574686572207472616e7366657220746f20706f6f6c000000600082015250565b7f517265646f733a206c6f616e52657061796d656e7420696e636f6d706c65746560008201527f2100000000000000000000000000000000000000000000000000000000000000602082015250565b7f517265646f732e70757263686173654e46543a20496e76616c6964207072696e60008201527f636970616c210000000000000000000000000000000000000000000000000000602082015250565b7f517265646f733a20507572636861736520496e636f6d706c6574652100000000600082015250565b7f4f776e61626c653a2063616c6c6572206973206e6f7420746865206f776e6572600082015250565b7f517265646f733a2063757272656e746c79207061757365642100000000000000600082015250565b7f517265646f733a2063616e7420726566756e6420626f72726f77657221000000600082015250565b7f517265646f733a20636c61696d20726576657274656421000000000000000000600082015250565b7f4661696c6564206574686572207472616e7366657220746f20454f4100000000600082015250565b7f496e73756666696369656e742065746865722073656e74210000000000000000600082015250565b50565b7f517265646f733a206c69717569646174696f6e20726576657274656421000000600082015250565b7f4661696c6564206574686572207472616e736665720000000000000000000000600082015250565b7f63616c6c65722073686f756c6420626520706f6f6c2063726561746f72210000600082015250565b600281106200590157620059006200548c565b5b50565b600281106200591857620059176200548c565b5b50565b600281106200592f576200592e6200548c565b5b50565b600281106200594657620059456200548c565b5b50565b600581106200595d576200595c6200548c565b5b50565b6200596b8162005293565b81146200597757600080fd5b50565b6200598581620052bb565b81146200599157600080fd5b50565b60028110620059a257600080fd5b50565b60028110620059b357600080fd5b50565b60028110620059c457600080fd5b50565b60028110620059d557600080fd5b50565b60058110620059e657600080fd5b50565b620059f4816200535c565b811462005a0057600080fd5b50565b62005a0e816200538a565b811462005a1a57600080fd5b5056fe60e06040523480156200001157600080fd5b5060405162000cfa38038062000cfa833981810160405281019062000037919062000124565b336000806101000a81548173ffffffffffffffffffffffffffffffffffffffff021916908373ffffffffffffffffffffffffffffffffffffffff1602179055508273ffffffffffffffffffffffffffffffffffffffff1660808173ffffffffffffffffffffffffffffffffffffffff1660601b815250508160a081815250508073ffffffffffffffffffffffffffffffffffffffff1660c08173ffffffffffffffffffffffffffffffffffffffff1660601b81525050505050620001ec565b6000815190506200010781620001b8565b92915050565b6000815190506200011e81620001d2565b92915050565b6000806000606084860312156200013a57600080fd5b60006200014a86828701620000f6565b93505060206200015d868287016200010d565b92505060406200017086828701620000f6565b9150509250925092565b600062000187826200018e565b9050919050565b600073ffffffffffffffffffffffffffffffffffffffff82169050919050565b6000819050919050565b620001c3816200017a565b8114620001cf57600080fd5b50565b620001dd81620001ae565b8114620001e957600080fd5b50565b60805160601c60a05160c05160601c610aca62000230600039600081816102ef015261061d0152600081816101ca015261032d015260006105d50152610aca6000f3fe608060405234801561001057600080fd5b50600436106100885760003560e01c80636e553f651161005b5780636e553f65146101295780637ba61ea5146101595780638da5cb5b146101775780639d76ea581461019557610088565b8063150b7a021461008d57806317d70f7c146100bd5780631e83409a146100db578063200d2ed21461010b575b600080fd5b6100a760048036038101906100a291906106dc565b6101b3565b6040516100b49190610896565b60405180910390f35b6100c56101c8565b6040516100d2919061090c565b60405180910390f35b6100f560048036038101906100f091906106b3565b6101ec565b604051610102919061087b565b60405180910390f35b6101136103f6565b60405161012091906108b1565b60405180910390f35b610143600480360381019061013e919061075c565b610409565b604051610150919061087b565b60405180910390f35b6101616105d3565b60405161016e9190610829565b60405180910390f35b61017f6105f7565b60405161018c9190610829565b60405180910390f35b61019d61061b565b6040516101aa9190610829565b60405180910390f35b600063150b7a0260e01b905095945050505050565b7f000000000000000000000000000000000000000000000000000000000000000081565b60008060009054906101000a900473ffffffffffffffffffffffffffffffffffffffff1673ffffffffffffffffffffffffffffffffffffffff163373ffffffffffffffffffffffffffffffffffffffff161461027d576040517f08c379a0000000000000000000000000000000000000000000000000000000008152600401610274906108cc565b60405180910390fd5b600073ffffffffffffffffffffffffffffffffffffffff168273ffffffffffffffffffffffffffffffffffffffff1614156102ed576040517f08c379a00000000000000000000000000000000000000000000000000000000081526004016102e4906108ec565b60405180910390fd5b7f000000000000000000000000000000000000000000000000000000000000000073ffffffffffffffffffffffffffffffffffffffff166342842e0e30847f00000000000000000000000000000000000000000000000000000000000000006040518463ffffffff1660e01b815260040161036a93929190610844565b600060405180830381600087803b15801561038457600080fd5b505af1158015610398573d6000803e3d6000fd5b505050506001600060146101000a81548160ff021916908360018111156103e8577f4e487b7100000000000000000000000000000000000000000000000000000000600052602160045260246000fd5b021790555060019050919050565b600060149054906101000a900460ff1681565b60008060009054906101000a900473ffffffffffffffffffffffffffffffffffffffff1673ffffffffffffffffffffffffffffffffffffffff163373ffffffffffffffffffffffffffffffffffffffff161461049a576040517f08c379a0000000000000000000000000000000000000000000000000000000008152600401610491906108cc565b60405180910390fd5b600073ffffffffffffffffffffffffffffffffffffffff168273ffffffffffffffffffffffffffffffffffffffff16141561050a576040517f08c379a0000000000000000000000000000000000000000000000000000000008152600401610501906108ec565b60405180910390fd5b8173ffffffffffffffffffffffffffffffffffffffff166342842e0e3330866040518463ffffffff1660e01b815260040161054793929190610844565b600060405180830381600087803b15801561056157600080fd5b505af1158015610575573d6000803e3d6000fd5b5050505060008060146101000a81548160ff021916908360018111156105c4577f4e487b7100000000000000000000000000000000000000000000000000000000600052602160045260246000fd5b02179055506001905092915050565b7f000000000000000000000000000000000000000000000000000000000000000081565b60008054906101000a900473ffffffffffffffffffffffffffffffffffffffff1681565b7f000000000000000000000000000000000000000000000000000000000000000081565b60008135905061064e81610a66565b92915050565b60008083601f84011261066657600080fd5b8235905067ffffffffffffffff81111561067f57600080fd5b60208301915083600182028301111561069757600080fd5b9250929050565b6000813590506106ad81610a7d565b92915050565b6000602082840312156106c557600080fd5b60006106d38482850161063f565b91505092915050565b6000806000806000608086880312156106f457600080fd5b60006107028882890161063f565b95505060206107138882890161063f565b94505060406107248882890161069e565b935050606086013567ffffffffffffffff81111561074157600080fd5b61074d88828901610654565b92509250509295509295909350565b6000806040838503121561076f57600080fd5b600061077d8582860161069e565b925050602061078e8582860161063f565b9150509250929050565b6107a181610938565b82525050565b6107b08161094a565b82525050565b6107bf81610956565b82525050565b6107ce816109bf565b82525050565b60006107e1601c83610927565b91506107ec82610a00565b602082019050919050565b6000610804602083610927565b915061080f82610a29565b602082019050919050565b610823816109b5565b82525050565b600060208201905061083e6000830184610798565b92915050565b60006060820190506108596000830186610798565b6108666020830185610798565b610873604083018461081a565b949350505050565b600060208201905061089060008301846107a7565b92915050565b60006020820190506108ab60008301846107b6565b92915050565b60006020820190506108c660008301846107c5565b92915050565b600060208201905081810360008301526108e5816107d4565b9050919050565b60006020820190508181036000830152610905816107f7565b9050919050565b6000602082019050610921600083018461081a565b92915050565b600082825260208201905092915050565b600061094382610995565b9050919050565b60008115159050919050565b60007fffffffff0000000000000000000000000000000000000000000000000000000082169050919050565b600081905061099082610a52565b919050565b600073ffffffffffffffffffffffffffffffffffffffff82169050919050565b6000819050919050565b60006109ca82610982565b9050919050565b7f4e487b7100000000000000000000000000000000000000000000000000000000600052602160045260246000fd5b7f4f776e61626c653a2063616c6c6572206973206e6f74206f776e657200000000600082015250565b7f457363726f773a2061646472657373206973207a65726f206164647265737321600082015250565b60028110610a6357610a626109d1565b5b50565b610a6f81610938565b8114610a7a57600080fd5b50565b610a86816109b5565b8114610a9157600080fd5b5056fea26469706673582212206890aa4c4fdc099665f340e3f4c2c5a7c9ffdfec239c9b2286f0097085f11af564736f6c63430008010033a2646970667358221220cefeaf23c40e767c11935921aea3d69f65b855325599be048a6bb7c6602e9f0164736f6c63430008010033",
  "linkReferences": {},
  "deployedLinkReferences": {}
}